:10100000000200208D22000029220000E5210000BE
:10101000392200004922000059220000000000008F
:10102000000000000000000000000000C9210000D6
:1010300069220000000000007D21000079220000EC
:10104000CFFC0000BD0C0100CFFC0000ED2500002E
:1010500009260000CFFC0000CFFC0000CFFC000000
:10106000CFFC0000F5000100FB000100CFFC0000F8
:10107000CFFC0000CFFC0000CFFC0000CFFC000044
:10108000CFFC0000FDFD0000CFFC0000CFFC000005
:10109000CFFC0000CFFC0000CFFC0000CFFC000024
:1010A000CFFC0000CFFC000001010100070101009E
:1010B000CFFC0000CFFC000000000000000000009A
:1010C000CFFC0000CFFC0000CFFC00002526000074
:1010D000CFFC0000CFFC0000CFFC00006D0601003B
:1010E000CFFC0000CFFC0000CFFC0000000000009F
:1010F00000000000CFFC00000000000041260000BE
:1011000070B58EB00023ADF834300423089341F25B
:101110003363ADF83630224B09AC03F11005186883
:101120005968224603C20833AB421446F7D1022362
:101130001C4D8DF8253008AB002403931A4B049303
:1011400021461A4B0593632664222846CDE90644BE
:1011500015F098F923460122CDE90056282103A86D
:1011600000F066F92946124815F0AEFA21466422CD
:10117000284615F087F923462246CDE90056282156
:1011800003A800F055F929460A4815F09DFA642293
:101190002146284615F076F920460EB070BD00BFF6
:1011A000788A0100000500205C8001006E8001004B
:1011B000808001008F80010070B5064E064CA41B94
:1011C000A4080025AC4200D170BD56F825309847E0
:1011D0000135F7E770BA0100A8BA010013B5002085
:1011E0000FF02EFA014608B900F070FE084C2046B8
:1011F00013F09CF8204614F031F8064B0648009492
:1012000001224FF4806113F09DF802B010BD00BFC1
:10121000640900209E800100640500204FF0804397
:101220005722C3F81C25BFF34F8F0549054BCA68E9
:1012300002F4E0621343CB60BFF34F8F00BFFDE7C2
:1012400000ED00E00400FA057047000013B5094BFB
:10125000094C1A681B7923716846082122600DF039
:1012600041FE08226946601D01F0A0FB0023637562
:1012700002B010BDA4800100140B00200368032BF2
:1012800070B51B4E0C462ED108460EF029F82828C2
:1012900003D03068042100F0D7FDA3891BB9306862
:1012A000102100F0D1FD134DA2892B689A4203D37F
:1012B0003068082100F0C8FD0F4BA2891B686168E7
:1012C000184614F0DDFF2A680346A0890021121A8F
:1012D000184415F0D7F8A3892B6001213068BDE8C8
:1012E000704000F0B1BD042B14BF04210221F5E7CA
:1012F000380B0020340B0020300B002008B5FF20F5
:1013000000F092FD41070AD482070BD403070CD4E6
:1013100010F0100F14BF6FF00300002008BD6FF035
:101320000100FBE74FF0FF30F8E76FF00200F5E750
:101330002DE9F0411C4603689AB005460F460BB9EB
:1013400000F0C4FDD0E90163002A18BF1E463046F4
:101350000EB115F0F5FCCDE900602949012380228A
:1013600004A801F0E7FE002804DA6FF001001AB0CB
:10137000BDE8F081234B209A1A60234B219A1A6012
:101380009846002C37D1282FEFD1049A137823F0F8
:101390003003137011213A4604A80EF022F92146B9
:1013A00004A80EF02DF9011EDFDB184B0093CDE9E8
:1013B00001442A681248234601F0FCFE0028D4DBD1
:1013C000FFF79CFF0028D2D1D8F80000CFE72268B1
:1013D00002EB0611330148680090D35804A8D1E904
:1013E00002120EF0C9F8013007D0013663689E4240
:1013F000EDD3A468C5E70026F8E76FF00200B6E772
:101400003C0B0020300B0020340B00207D1200002C
:1014100008B50448012100F085FA034B1A68034B14
:101420001A6008BD2C0B0020C40B0020380B0020D4
:1014300010B586B0CDE90410CDE90232FFF7E8FF20
:10144000099C0194089C0094DDE90232DDE9041056
:10145000FFF76EFF0446034800F09CFA204606B0F2
:1014600010BD00BF2C0B00202DE9F74304460E46AB
:101470001746EFF3108872B60568C5B9DFF88C908F
:10148000051DD4E90331A2689A1A8A4222DC1E4A59
:1014900012883280581C6269E0600B4096E80300B5
:1014A00002EBC30383E8030088F3108810E055F8CB
:1014B0000C390360D1E900012B6983E80300284659
:1014C0000C2100F005FB687988F3108800F03EFBE2
:1014D000012715E097B1D9F800000190092100F02B
:1014E000F7FA01980146284600F0B8FB88F3108807
:1014F00000F094FBEFF3108872B6C2E788F310880F
:10150000384603B0BDE8F083C00B0020C40B0020B8
:1015100070B50B4604461046EFF3108672B6D4E958
:1015200002128A4219D0481CA060206962690140F9
:1015300002EBC10103C983E8030065680DB355F8E8
:101540000C39636028460C2100F0C2FA687986F3F2
:10155000108800F0FBFA012012E078B10A4A156801
:1015600009212B61284600F0B3FA2946204600F0F5
:1015700075FB86F3108800F051FBECE786F31088CA
:1015800070BD86F31088E6E7C40B0020F8B504466A
:10159000EFF3108672B6344F3A68506A00285CD078
:1015A000D2E90630984258D0581C9061106A034026
:1015B00039B9516929B9591C03D186F310881846E5
:1015C000F8BD002B4DDB516A01EBC30103C984E870
:1015D000030055696DB355F80C195161002B0DDBF3
:1015E000D2E907349169506A591A8C42A9BF591C33
:1015F0004FF0FF332340D16100EBC3042B6993E824
:10160000030084E803002B79062B04D186F31088AD
:1016100021E000F05BFC002328462B610C2100F048
:1016200057FA687986F310880E2814D800F08EFADD
:1016300011E0002BEADA0421104600F049FA86F3A3
:1016400010880A4B4FF080525A60BFF36F8F3B688F
:101650001B79042BDDD00123B1E74FF0FF330029C4
:10166000A7D01461B5E700BFC40B002000ED00E077
:101670000346D0E9072010B59C69141BA04201DA8B
:10168000002010BD541C0240DC61F9D4586A00EB04
:10169000C20203C982E803001A896FEA42426FEA74
:1016A00052421A81184600F0A1FB0120E9E7000030
:1016B00008B50E4B53F82130A3B11A79042A0BD187
:1016C00003C81A6982E8030018460C2100F000FAEA
:1016D000074B0120186008BD01461846BDE80840C8
:1016E000FFF7C6BF4FF0FF30F5E700BF100C00203A
:1016F000C80B00202DE9F0411D46294B53F821402D
:10170000284B1B880380064690462CB985F3108829
:101710004FF0FF30BDE8F0812379042B36D0224B07
:10172000014620461F68FFF7A3FF78B185F31088B4
:101730003B79062B02D01D4B1B682BB11C4B4FF085
:1017400080525A60BFF36F8F0120E3E7B8F1000FBA
:1017500002D185F31088DDE73B793E61062B0CBF93
:1017600006210521384600F0B3F904F1140039468A
:1017700000F074FA23896FEA43436FEA53432381ED
:10178000204600F033FB85F31088D7E7D0E900014D
:10179000236983E803000C21204600F099F9F2E761
:1017A000100C0020C00B0020C40B0020C80B002030
:1017B00000ED00E010B50146EFF3108472B6054B62
:1017C0001B880380044B1868FFF752FF84F31088CE
:1017D00010BD00BFC00B0020C40B002021230380DC
:1017E000FFF766BFEFF3058313F0FF0F01D0FFF79C
:1017F000F5BF064B1B881BB2994201D1FFF7DABF38
:10180000EFF3108372B60122FFF774BFC00B002004
:1018100010B4EFF3058212F0FF0203D05DF8044B21
:10182000FFF7DCBF074B1B881BB2994203D15DF861
:10183000044BFFF7BFBFEFF3108372B65DF8044BA4
:10184000FFF758BFC00B0020114B1B881BB29A42F8
:10185000F7B506460C46154601D100F037FBEFF30D
:101860001083019372B60B4A17680621384600F0C0
:101870002FF996E80300019B3C61012284E80300F4
:101880002946204603B0BDE8F040FFF733BF00BF54
:10189000C00B0020C40B002038B5EFF3108572B6E2
:1018A0000F4BB0F9002053F822400CB900F00EFBAA
:1018B0002379062B04D085F310884FF0FF3038BD14
:1018C00003C9236983E8030020460C2100F000F9D6
:1018D000607985F3108800F039F90120EFE700BF47
:1018E000100C00200021FFF751BE0121FFF74EBE72
:1018F000034B1B68586A10B1D3E90630C01A704711
:10190000C40B002008B5064B4A1E1B6811405862E4
:1019100001D000F0DBFAC3E906111A6208BD00BF6E
:10192000C40B0020F8B504460D46EFF3108772B6DD
:1019300003683BB94FF0FF33036087F3108801253C
:101940002846F8BD11B987F31088F9E70F4B1E68D8
:101950000EB900F0BBFA0321304600F0B9F8236855
:1019600001330DD106F10C0323600023F36087F3EC
:101970001088074B4FF080525A60BFF36F8FDFE73C
:101980003146204600F06AF9F1E700BFC40B0020A1
:1019900000ED00E038B50446EFF3108572B600683C
:1019A00010B985F3108838BD431C02D10023236091
:1019B000F7E750F80C3923600C2100F089F8236810
:1019C00013B94FF0FF33236085F31088034B4FF0BA
:1019D00080525A60BFF36F8FE5E700BF00ED00E073
:1019E000026810B592B113688B4208D18A4202D1C5
:1019F0000023036001E00B681360084610BD134626
:101A00001B681C68A14203D09A42F9D10021F4E777
:101A10002BB10A681A6002688A42EED1E9E71946DA
:101A2000EBE7000008B503790B2B04BF0C2303710F
:101A3000836A1A68934208D0B0F90610034814F07C
:101A400043FE03490D2000F079FA08BDAA80010089
:101A5000D980010070B5184C184D23682E6843BB1F
:101A600016B13046FFF7DEFF00F0B6FB2368002B0F
:101A7000FAD00020124B00221A602368114AB3FAF0
:101A800083F352F823301C680C3C0B23B4422371BF
:101A90000DD008B1FFF7C6FF0B4BA16AB4F90620C1
:101AA0001A801F31094A2C60022000F0E3FA204618
:101AB00070BD3046DEE700BFBC0B0020C40B002029
:101AC000C80B0020D00B0020C00B00200800061619
:101AD000F8B50A29037904460D461AD90A2B14D8F9
:101AE0004779184A52F8276039460C307EB133687E
:101AF000E36052F82730186042F82100124A4FF094
:101B000000431168FB400B4313602571F8BDE06092
:101B1000F2E70A2BF9D90B4E407904F10C0106EBE0
:101B20008000FFF75DFF627956F82230002BECD180
:101B300005494FF0004323FA02F20B6823EA02033F
:101B40000B60E2E7D00B0020BC0B00200B4B1B68A6
:101B50001A790A2A02D95B7983420ED9EFF30583F9
:101B600013F0FF0F03D0064B01221A607047054B9C
:101B70004FF080525A60BFF36F8F7047C40B002044
:101B8000C80B002000ED00E008B5EFF3108372B63B
:101B9000094B0A4A1B880A4D1BB2002442F8234015
:101BA000084A286813682146013B1360FFF790FF3D
:101BB0002C6000F0CDFA00BFC00B0020100C0020FC
:101BC000C40B0020CC0B0020431E9BB21F2B05D85A
:101BD000034B53F8200010B1C06A704700207047D3
:101BE000100C002010B5EFF3058313F0FF0F0FD199
:101BF000EFF3108472B6074B02211868FFF768FFF5
:101C000084F31088044B4FF080525A60BFF36F8FFB
:101C100010BD00BFC40B002000ED00E0EFF310800A
:101C200072B60B4B1B681A790A2A07D95A79094BE5
:101C300053F8221011B1096843F8221080F310887C
:101C4000054B4FF080525A60BFF36F8F704700BF53
:101C5000C40B0020D00B002000ED00E038B50B795C
:101C60000A2B01D900F032F94C7901F10C0203463C
:101C7000006818B110F8075CA542F8D9C8601A606E
:101C800038BD03460144814201D8C01A704702683A
:101C90008242FAD10430F6E70F2A2DE9F84F0546C3
:101CA00089461746984633D810F003031DBFC3F189
:101CB0000402043B5B180B46A3F1340318BFAD18B4
:101CC00023F0030318F0080F05EB030417D02D6071
:101CD000EFF3108B72B62849012251F822600FFAF7
:101CE00082FAC6B10132212AF7D18BF310886FF046
:101CF0008A0A3DE012600432A242FBD3E8E72A469A
:101D0000FAE702212046FFF7E3FE8BF310882FE06D
:101D10006FF0150A2CE041F822402A46DDE90A015D
:101D2000A4F806A000F0C6F90C9B144AE3624FF039
:101D3000FF33C4E9083613682060013318F0010F3F
:101D4000C4E90366C4E90566A562C4F8309067710A
:101D50002671E6611360D4D10C212046FFF7B8FE4E
:101D600018F0040FD1D18BF310883846FFF7EEFE40
:101D70005046BDE8F88F00BF100C0020CC0B0020AF
:101D800008B5034B53F8200008B900F09FF808BDD0
:101D90004C8101000C4B10B51B68EFF3108472B638
:101DA0001A8910420DD1186107211846FFF790FEDD
:101DB00084F31088054B4FF080525A60BFF36F8F49
:101DC00010BD84F31088FBE7C40B002000ED00E099
:101DD00010B50346EFF3108472B6028802EA0100E0
:101DE00022EA0101198084F3108810BD10B503792F
:101DF000048A072B04D0082B0DD00024204610BDE8
:101E000003891C40002CF9D00C21FFF761FE054B23
:101E100001221A60F2E7038934EA03030CBF0124AC
:101E20000024EFE7C80B002013B5064B01901C6897
:101E3000FFF7B0FF019904F1080002B0BDE81040BF
:101E4000FFF7C6BFC40B002010B5EFF3108472B6C5
:101E5000038902791943072A038A018104D0082AD9
:101E600014D084F3108810E019400029F9D00C2117
:101E7000FFF72EFE084B01221A6084F31088074BEF
:101E80004FF080525A60BFF36F8F10BD8B430CBF71
:101E900001210021E9E700BFC80B002000ED00E0B0
:101EA00008B5EFF3058313F0FF0F08D1EFF31083AC
:101EB0002BB9054814F0BCFCFFF794FEFCE702497F
:101EC000032000F03BF800BF8081010008B5714697
:101ED000024814F0F9FBFFF7E3FF00BF9281010015
:101EE00008B5FFF769F9034814F0A2FCFFF708F9F9
:101EF000002008BD9B8101001FB5EFF3108372B66F
:101F0000074B029300230193064B009307220423FF
:101F10004FF4C0610448FFF7BFFE00F019F900BF9D
:101F2000D5810100E11E0000940C002008B50FF0DF
:101F30001BF8BDE8084013F0A5B9704708B50D4B74
:101F40001A680C467AB901221A60FFF7F6FF21469B
:101F5000094814F0B9FB0FF01DF80A2014F0E2FB59
:101F6000064814F065FCEFF3108372B600F08EF8AB
:101F7000FFF754F994120020DA810100F681010084
:101F800070B50D4600210446FFF7CCFC0D4E70B92C
:101F9000BFF35B8FE288BFF35B8F338812B21BB253
:101FA0009A4204D06DB901212046FFF7BBFC33886B
:101FB000BFF35B8FE380BFF35B8FA3880133A38004
:101FC000012070BDC00B00200021FFF7D9BF000029
:101FD00008B50F4BBFF35B8FC188BFF35B8F1B88C6
:101FE00009B21BB2994201D0FFF770FF8388002B22
:101FF000FAD0013B9BB2838043B9BFF35B8FC380B0
:10200000BFF35B8FBDE80840FFF7C4BC08BD00BF4D
:10201000C00B00200C4B0D4A10B540219A600C4CAF
:10202000E02283F82220D9770022A0180132302A3A
:1020300080F80013F9D11A6942F010021A615A6946
:1020400042F400725A6110BD00ED00E00010000083
:1020500000E100E0064A536843F00503536052F87C
:102060006C3C43F4803342F86C3C0020704700BF66
:1020700090ED00E0044B21F01F0142F00102986056
:10208000D96000201A61704790ED00E008B5EFF3C9
:102090000581C1F3080119B10448103914F014FB8B
:1020A000034B1B68DB0700D500BE08BD038201009F
:1020B000F0ED00E0134423F003034FF0773210B546
:1020C00043F8042C5A0758BF4FF08832A3F1040498
:1020D0005CBF43F8082CA3F108044FF0807344E977
:1020E00002030D4B44F80C3C0022032344E9053263
:1020F00002200123224644E907306FF0020344F82E
:10210000201C42F8243D0B2342F8043D013B032BE5
:10211000FAD1A4F1440010BD891B00000548064A0D
:10212000064B0168914201D0181A70479842FBD2C1
:102130000430F6E700000020FEE7FEE70002002082
:10214000EFF308807047000000487047000000204F
:102150000023E1EE103AEFF3148323F0040383F33A
:102160001488BFF36F8FEFF3108362B6024B4FF00A
:1021700080525A60BFF36F8F00ED00E0114910B537
:102180000C6872B6FFF766FC62B6A04208BF10BDCD
:102190002146BDE8104049B1EFF309821EF0100F4F
:1021A00008BF22ED108A22E9F04F0A600068B0E80B
:1021B000F04F1EF0100F08BFB0EC108A80F30988B2
:1021C00070470000C40B0020024B4FF080525A6051
:1021D000704700BF00ED00E030BF62B6BFF36F8F05
:1021E00072B670470D4B0E4A0E496846904203D8AE
:1021F000984201D9002102E009468D4601210420C0
:102200007246024202D1EFF3088001E0EFF3098049
:102210002DE9F00F6B4600F087F800BF5801002051
:10222000000004200002002008B502490620FFF744
:1022300085FE00BF1282010008B502490520FFF7A4
:102240007DFE00BF1E82010008B502490820FFF78D
:1022500075FE00BF3182010008B502490920FFF771
:102260006DFE00BF4382010008B502490A20FFF756
:1022700065FE00BF5782010008B502490B20FFF739
:102280005DFE00BF69820100704770471C4AD2F8AA
:10229000883043F4700310B5C2F88830FFF7F4FFBC
:1022A0006A46184B1848194693421DD3174B184AD3
:1022B000184883421BD3184B184A002093421BD363
:1022C00021B1174A17490120FFF7D4FEFFF7C2FEDC
:1022D000FFF7DBFF00F04EF9FEF7B6FF13F026FF25
:1022E000BDE81040FFF708BE43F8040BDCE752F8E6
:1022F000044B43F8044BDCE743F8040BDEE700BF74
:1023000000ED00E000000020FEE7FEE700020020F4
:10231000DCBA01000005002000050020A05B0020C1
:10232000080006161F0000202DE9F04F2DED068B4A
:1023300089B0904604935C4B9A6B08EE102A5A6B56
:10234000D3F828A008EE902ADA6A09EE102A1A6B50
:10235000DB6B0AEE103A554B09EE902A1A68544B83
:102360009A420446894602D0524814F061FAB9F103
:10237000000F6BD0504814F05BFA504B504819884E
:1023800009B214F0A1F900252E464E4814F050FA77
:1023900051464D4814F098F919EE101A4B4814F0B4
:1023A00093F919EE901A4A4814F08EF91AEE101AA1
:1023B000484814F089F91AF4004F04D018EE101AA6
:1023C000454814F081F91AF0800F04D018EE901AE5
:1023D000424814F079F9424814F02AFA414841463B
:1023E00014F072F9B9F1000F2CD118F0080F55D084
:1023F000324B198809B208460391FFF7E5FB0399B0
:102400000246394814F060F9384814F011FA3146A0
:10241000374814F059F96946364BC91A03D536487E
:10242000494214F051F9049B1E4620468268C36855
:1024300001698C4641698E46AD46314691E8F00F00
:10244000416800682D490720FFF778FDD4E9023084
:10245000D4E90012E769039020690591D4E905B633
:102460000AEE900AB8052648CDE9062354BF04F1C8
:10247000200504F1240514F0DBF9039B0599009372
:102480002048DDE9062314F01FF91AEE901A009790
:1024900033465A461C4814F017F976E7217F1B484B
:1024A000103914F011F9AFE700ED00E00000002052
:1024B000FEE7FEE7778201008D820100C00B00205D
:1024C000BC820100668301006F8301007F830100ED
:1024D0008F8301009F830100AF830100BF83010050
:1024E000CF830100D4830100E6830100258401002D
:1024F00056840100580100207E840100AB84010055
:10250000D0820100EB82010028830100FF830100DB
:10251000BFF34F8F0549064BCA6802F4E0621343CC
:10252000CB60BFF34F8F00BFFDE700BF00ED00E0C1
:102530000400FA050C4B1B78062B12D10B4B1868C4
:1025400010F00F000DD104331B6803F0F003302BA3
:1025500008D1074B1B6813F0F00F0CBF01200020BF
:1025600070470020704700BFE00F00F0E40F00F05C
:10257000EC0F00F008B5FFF7DDFF20B1114AD3687A
:1025800023F08073D360FFF7D5FF10B10E4B032209
:102590001A60FFF7CFFF30B14FF080430022C3F83D
:1025A0000C21C3F8102100F059F8084B0122C3F8A0
:1025B0004025FFF72FFDFFF7B9FCBDE808400EF0FE
:1025C000C9BC00BFF0ED00E0A005004000E0014004
:1025D000044B1B682BB1044B4FF080525A60BFF381
:1025E0006F8F7047C80B002000ED00E008B5044A6B
:1025F000044B10681B689847BDE80840FFF7E8BF28
:10260000A81200209812002008B5044A044B506814
:102610005B689847BDE80840FFF7DABFA8120020C2
:102620009812002008B5044A044B90689B689847AC
:10263000BDE80840FFF7CCBFA81200209812002088
:1026400008B5044A044BD068DB689847BDE80840E9
:10265000FFF7BEBFA81200209812002070470000AC
:10266000EFF3108172B6094B1A680132012A1A6021
:1026700009D14FF080430020C3F800011A60D3F85D
:102680000021002AFBD081F310887047B812002087
:10269000094A08B513680BB9FFF718FCEFF310816E
:1026A00072B61368013B13601BB94FF080430122DF
:1026B0005A6081F3108808BDB8120020114A1178C1
:1026C00038B5F1B94FF080431C46C3F81815C3F86C
:1026D000041101219960D4F80431002BFBD00125AD
:1026E0001570FFF7BDFF0023C4F80C314FF0804296
:1026F0002561D2F80C31002BFBD0BDE83840FFF744
:10270000C7BF38BDBC1200200CF00EBCD0E90230AF
:102710001847000070B50E461546002110220446E9
:1027200013F0B0FE024BE560C4E9013670BD00BF96
:102730000D270000036802463BB11868834219BFA9
:1027400002681A600023136070471846704708B586
:1027500000B109B9FFF7BAFB4B68002BFAD0EFF3D1
:10276000108272B60B6833B903686BB11B680B60DB
:10277000036819600160406882F3108830B1BDE8D9
:1027800008400121FFF760BB0960F3E708BD08B509
:10279000EFF3108172B6FFF7CDFF81F3108808B117
:1027A0000023036008BDF8B50D46044600B109B921
:1027B000FFF78CFBEFF3108772B6002621464B68BB
:1027C000002BF5D00846FFF7B5FF083110B90136E8
:1027D000B542F4D187F3108818B90120FFF724FB24
:1027E000E8E700230360F8BDD0E90501FFF7AFBFBC
:1027F00001600349C0E90523C0E90310704700BF29
:10280000E92700000A4619B9D0E90501FFF79FBF83
:10281000011D006812F085BF0146006810B1043147
:1028200012F065BF7047000038B58569044685B170
:102830000A4B1868436901330CD012F01BFF23695F
:102840006A68C11A8A4226BF9B181B1A00236B6054
:10285000206138BD83685B689847F0E7ACB8010039
:102860008369084A10B5044610682BB15A6821469E
:1028700012F057FF206110BD2146BDE8104012F054
:1028800036BF00BFACB801008369002210B5044612
:102890005A60A06930B1436823B90368A3616369D2
:1028A0009847F6E72046BDE81040FFF7D9BF000083
:1028B00070B505460C46EFF3108672B6FFF7B4FF0D
:1028C00005F118031A68EAB922601A681AB151684A
:1028D0006068091A51601C60AB69A34206D10D4BB8
:1028E00062681868294612F01CFF286186F3108878
:1028F000094B1B682BB1094B4FF080525A60BFF354
:102900006F8F70BD616850688142DDD3091A6160C4
:102910001346D7E7ACB80100C80B002000ED00E07B
:1029200070B504460D46EFF3108672B6FFF77CFFD4
:10293000A26904F118012AB92046FFF791FF86F336
:10294000108870BD9542136802D011461A46F2E70E
:102950000B60002BF0D05A6869680A445A60EBE7B4
:10296000034B4161C0E9023000238361704700BF1F
:102970008928000058B1037843B1013810F8013FAD
:102980000BB901207047303B092BF7D90020704765
:1029900038B1054B0A0901F00F019A5C5B5C0270CB
:1029A00043700220704700BFBE840100F8B50D4699
:1029B0005700064610B18C18A54201D13846F8BD23
:1029C000304615F8011BFFF7E3FF0644F4E7F8B5BE
:1029D0000E465700054610B18C18B44201D1384656
:1029E000F8BD284614F8011DFFF7D2FF0544F4E7AF
:1029F00003461A46013311780029FAD1101A70479C
:102A000007B5042201910DEB0201FFF7E0FF03B0CF
:102A10005DF804FB0E4B994230B517D80A2301220A
:102A20001C468B420FD960B183180A25B1FBF5F41F
:102A300005FB1410303003F8010D08460928214623
:102A4000F4D8104630BD63430132EAE70A22EAE7D0
:102A5000FFC99A3BFFF7DEBF13B5074B01911B6817
:102A60000446986813F0F8F90199204602B0BDE8D1
:102A7000104012F009BC00BF9804002007B50146C1
:102A800001A8FFF785FF022101A8FFF7E5FF03B0CA
:102A90005DF804FB07B501466846FFF7B1FF082162
:102AA0006846FFF7D9FF03B05DF804FB10B5044694
:102AB000FFF79EFF01462046BDE81040FFF7CCBF60
:102AC00090B1D9B1002340EA0102D2070ED5C20766
:102AD00010D5CA0710D581423EBF024608461146AE
:102AE000091AF6D100FA03F1084670474008490870
:102AF0000133E8E74008EAE74908EAE70146F3E777
:102B00002DE9F04707460D4614460AB9FFF7DEF9EE
:102B100011462846FFF7D4FFA042F7D8A84241D873
:102B2000B4FBF0F2B5FBF0F04FF00048B0FA80FED5
:102B30000021CEF1200C28FA0EF80E4600240025C4
:102B40000023CEF15F0E14EB040A45EB050910EAF1
:102B5000080F54464D461EBF4AF0010A4D465446E2
:102B60009D4208BF94424FEA46064FEA580811D3E7
:102B7000A41A65EB030546F00106002E0EDA54EAAE
:102B8000050300D00136CCF1200C3E6087F804C06C
:102B9000BDE8F087002EF0D10CF1FF3C013171450A
:102BA000D1D3ECE74FF0000C6646ECE70C4A10B5C9
:102BB000D2F83C41002303601CB1D2F84441A14249
:102BC00007D0D2F8603153B1D2F86831994206D1BA
:102BD0000123242101FB032303F59E73036010BD31
:102BE00000020020F8B5054616460C4669B108B942
:102BF000FFF76CF90168A142FAD8436801EB0313AF
:102C00009C42F5D2641A241101346B68A34201D8A6
:102C100000200AE02868314600EB041027010CF080
:102C200033FA0028F0D128683844F8BDF0B593B0E5
:102C300015462F23009306460C46402302AA0B217B
:102C400028460CF050FB00281BDD2B685D7805F052
:102C50001F056B1E01259D400023ADB22360022796
:102C6000216802AA3046FFF7BDFF206010B9384640
:102C700013B0F0BD83881D424FF00107F0D000274C
:102C8000F5E70227F3E7000070B5164CA368054688
:102C90000E4683B1E36801330BD104F110035B8866
:102CA000B34208D11048294611F000F918B10020AC
:102CB00014E02369F3E7236F0BB9002070BD636F45
:102CC000013314BFA36F094B5B88B342F5D10848A9
:102CD000294611F0EBF80028EFD068200830204496
:102CE000ECE700BF000200201C0200207802002058
:102CF000840200201FB514461A460378012B0AD11E
:102D00000023CDE901314068069B039401A90AF034
:102D100038FF04B010BD4FF0FF30FAE70A4B10B592
:102D200004461868436901330AD012F0A3FC20F06E
:102D30007F42626520460621BDE810400CF051BC80
:102D400083685B689847F2E7ACB801001FB542683A
:102D5000002A034611DB82687AB11068516801AC21
:102D600003C490680021117001AA044603CA4FF001
:102D7000FF329860D9601C615A6004B010BD30B554
:102D80000368013B012B97B004461CD8C56A042395
:102D900003609DB1502200210DEB030013F072FB84
:102DA0004FF0FF3315936368013314BFA36804F138
:102DB00008030093002269462046A8472046FFF7F3
:102DC000C5FF0023236017B030BD43685A1C012A99
:102DD00013B5044605D8204602B0BDE81040FFF701
:102DE000CEBF013B436040F6B831C3F104034FF45A
:102DF000FA60994098400EF06FF9014604F13400F2
:102E0000FFF700FD2368022B0BD000230093D4E9C9
:102E1000021204F1140304F16000FFF76BFF0028B5
:102E2000D9DD02B010BD00002DE9F041104CD4F8FE
:102E30000C51002306460F460360A04635B104F549
:102E4000867011F033F84FF0FF3560B9D8F82431AF
:102E500063B10848394611F029F808B1054C3460CF
:102E60002846BDE8F08104F58674F8E70125F7E708
:102E7000000200202403002010B586B0102200219B
:102E800001A813F0FFFA04230093104B05930023CD
:102E90000F481A4669460AF06DFD002810DB0D4BFD
:102EA0000D4C1A680A480023C4E9003221460B4A37
:102EB00010F0E2FF01212046FFF775FC034610B930
:102EC000002006B010BD5B689847F3E7000033169A
:102ED000A0170020C40B0020981700202934000000
:102EE000F8B5254CA36806460F461546DBB1E368E6
:102EF000013339D104F110010B7803F00F039D4227
:102F000011D12A460431384613F08AF958B91B48C2
:102F1000314610F0CBFF68BBE369042B26D194F84F
:102F20002030FF2B26D0236F13B3636F013314BF00
:102F3000A16F13490B7803F00F03AB4218D12A4657
:102F40000431384613F06CF990B90E48314610F050
:102F5000ADFF38B9D4F88430042B07D194F8883009
:102F6000FF2B05D1084804E02169C5E7FEF7AEFF55
:102F70000020F8BD0548FCE7000200201C020020EC
:102F80007802002084020020700200200802002045
:102F90002DE9F041104CD4F8DC50002306460F46D2
:102FA0000360A04635B104F1DC0010F07FFF4FF064
:102FB000FF3560B9D8F8F4305BB10848394610F0F5
:102FC00075FF08B1054C34602846BDE8F081DC345B
:102FD000F9E70125F8E700BF00020020F402002015
:102FE0002DE9F74F98460023CDE9003306461446F5
:102FF000036011B16846FFF7CBFF1CB1214601A861
:10300000FFF712FF214CDDE900AB00254FF0FF393F
:103010002346D4F83C2122B9A9462434B5B9012568
:10302000F7E7524502D0BAF1000FF6D1D4F84021AB
:103030005A4502D0BBF1000FEFD1B8F1000F09D112
:10304000242707FB053505F59E753560484603B016
:10305000BDE8F08FD8F80010D4F85421087800F0BB
:103060000F008242D9D1002AD7D02423043104F59D
:10307000A47003FB05F713F0D3F8044B0028CCD160
:1030800007F59E773B443360E0E700BF0002002075
:103090007FB51B4EB6F9004074BB1A4B1A481B4D46
:1030A000CDE901431A4B0093062223464FF48B616E
:1030B000FEF7F2FD30802846D022214640F8084B2A
:1030C00013F0E0F93022214605F1DC0013F0DAF9C3
:1030D0004822214605F59E7013F0D4F9802221463E
:1030E00005F5C27013F0CEF90DF0D2FFC5F8D80087
:1030F000B6F9000004B070BD6FF01000FAE700BF31
:1031000096170020CE8401003D130020000200200D
:10311000792E0000064BBFF35B8F53E8000F421C73
:1031200043E800210029F8D1BFF35B8F80B27047DC
:10313000D80200202DE9FF47DDE90C6905460F465E
:1031400090461C4626B133782F2B01D0FEF7BEFEE9
:103150002F60FFF7DFFF824634B30DF099FFCDE912
:10316000004AADF80C00022303AA012128680CF0E4
:10317000F0F8424604460346394628460CF050F91A
:10318000002C0CDD5EB1B9F1000F08D02F230093A5
:1031900032464B460B2128460CF0BEF9044604EAA1
:1031A000E47004B0BDE8F087CDE900402346224634
:1031B0002146DBE72DE9F04F8FB00478029300231E
:1031C000CDE90533189D80468946C4F30114924623
:1031D0000AB9FEF77BFE9DF86830012B4AD801231F
:1031E0008DF81430714B0693039315B9002C40F001
:1031F000D3806F4E01213046FEF794FBB76833460B
:103200003FB1326F22B13046FEF7C4FB002533E0F8
:10321000012768267E439A190221916019999163CA
:1032200006F11C0155630B4452460AF1180C106854
:1032300051681D4603C5083262452B46F7D105A9E2
:103240005B4A682503C907FB0553134483E8030061
:1032500093467D4334B1012C00F08C80154400244A
:10326000AC602AE0B9F1800F0AD915441046AC6071
:10327000FEF790FB6FF0150528460FB0BDE8F08F04
:10328000154492F884212C61002A6DD10BF5C2708F
:103290004A462861414612F0F3FF2A69C5F81490A6
:1032A000002A61D00422EA6040F6B8314FF4FA6097
:1032B0000DF012FF01220446AA603D48FEF76AFBAA
:1032C000682202FB07B7BA68002A9FD008365E441E
:1032D00001238DF81430039B0693B6B106F1340533
:1032E000002C5CD006F15003184632490393324655
:1032F000FFF710FA3049039B0968304A2846FFF768
:1033000077FA21462846FFF77DFA07AD1C220021F7
:10331000284613F0B7F8029B6BB12F4603F1180C47
:10332000186859683A4603C2083363451746F7D10F
:1033300008238DF83430009553464A46414605A887
:10334000FFF7D8FC051E97DC4EB13046FFF7FEFCB8
:103350001CB106F13400FFF75FFA0023336015F16A
:10336000800F7FF453AF87E7682202FB07B200218A
:103370009160A2E715444FF0FF32EA60D8F80000F0
:10338000D8F8041006F110025A4403C2D8F8080015
:10339000106041F2883490E72C462E4698E71C22B4
:1033A0002146284613F06EF8AFE700BFA0170020B3
:1033B00000020020CB2D0000ACB8010098170020BF
:1033C000F7B50F46002419461646134600943A46B0
:1033D00005460BF0DAFF00280CDD361AAE816E6D63
:1033E000EC8107446F6046B92846FFF797FC3046EA
:1033F00003B0F0BD4FF0FF30FAE72046F8E70000D9
:1034000010B50B46802207490446FFF7D9FF014655
:1034100020B92046BDE810400CF0F2B84FF0FF3064
:1034200010BD00BFBD1200202DE9F043C906B9B0A0
:1034300081464AD500250DF150081C2229464046F8
:1034400003959F4C13F01EF801238DF868302F462A
:103450000EAB0093CDF80480002303AA02A94846CE
:103460000AF0F4FA061E30DB0ED07319802B88BFE9
:10347000C5F1800604EB05000299324688BF01279A
:10348000354412F0FDFEE3E7C446BCE80F001BAC78
:103490000FC408239CE803008DF88430149B042B90
:1034A00084E8030014D19DF854008549CDF8249098
:1034B0001BACFF2808BF344601232A4622A88DF8FA
:1034C00020300BF069FE002804DA39B0BDE8F08343
:1034D000FEF7FCFC229A1378C3F30113032B4DD1A2
:1034E00051880EA8FFF7D0FB054628B13430FFF70E
:1034F00093F92846FFF743FC229B0EA906A85D8896
:10350000FFF746FD0698002838D06E4A69BAD2F80F
:103510003C51002389B207932DB1854203D1B2F803
:1035200050518D4209D0D2F8603163B198420AD12E
:10353000B2F874318B4206D10123242101FB03230D
:1035400003F59E730793079AC2B1002313601946CF
:1035500052680A930AA8FFF743FD0A9B079A0BB922
:1035600051680B6000235360069907931A4607A819
:10357000FFF736FD079B0BB9069A136022994A782C
:103580004FEA5219B9F1020F23D01DD8B9F1000F3B
:103590009BD10B781B11002A6DD113F003054FD17D
:1035A0000326229A137823F0300343EA061313709C
:1035B000229B00225A70229A137823F00F03137073
:1035C00000940EAB042266E1A9F10403012B3FF63F
:1035D0007CAF11F8042B0EA802F00F02FFF780FC5D
:1035E000229B05461B78002800F05C8113F0300F09
:1035F000C3F3011200F05481032A3FF466AF4FF089
:10360000FF36AB6C1BB105F13400FFF705F9002F55
:1036100014BF062303232B60EB6A379F1BB10EAA4E
:1036200022A9284698472846FFF790FB013702D089
:10363000B9F1020F01D000232B60731CB1D144E714
:10364000022D7FF442AF49880EA8FFF71DFB044608
:1036500000283FF43AAF436801333FF436AFC36A02
:103660000560002B7FF431AF3430FFF7D5F82046EA
:10367000FFF785FB29E79A073FF527AF3FB18D217B
:1036800022A8FFF7BDFE00283FF41FAF00E10D4B5D
:10369000CDE90477CDE906775D6802269946BDB18C
:1036A0006B690A9722AA0AA928469847022801D1DD
:1036B0002D69F4E7012807D12D690646EFE700BF21
:1036C000BD12002000020020002847D10A9D0646B6
:1036D000012E46D0022E46D0002E3DD1294607A805
:1036E000FFF764FA379B002B40F09F8022AB3246F5
:1036F0000EA906A8FFF774FC079B0746002B40D0D5
:10370000069A002A31D0934203D006964FF0FF3339
:103710003793069B8BB1229F9D603A78DDE90801C3
:1037200002F00F0203F11C069A6186E8030022B141
:10373000391D03F10C0012F0A3FD0EABCDE90B34E3
:103740009DF820300A950D93AD685B490AAB802245
:1037500022A8A847002896DAA02191E70025032097
:10376000B5E785218CE784218AE79DF820101A7F30
:10377000914209D119680EA810F098FB08B1079B77
:103780000693069B002BC4D1379B0133C1D0002F79
:10379000BCDB079B002BB9D10EA904A8FFF7F8FBEF
:1037A000049B33B90028A1BF182303FB0090DC3031
:1037B0000490214605A8FFF737FB059B3BB900287D
:1037C000A1BF182303FB009000F586700590049BB1
:1037D00033B3059A22B30EAE324603CA424518608F
:1037E0005960164603F10803F6D1059A264604F1FE
:1037F000180C334603CB6345106051601E4602F13E
:103800000802F6D12420474307F59E734B44B94480
:103810000693059BC9F84031049BC9F83C3178E711
:10382000069B002B7FF475AF70E7012B2BD122ABE9
:1038300032460EA906A8FFF7D3FB069BFBB11E601C
:10384000324633460EA90AA80A96FFF7C9FB0A9B1F
:1038500033B90EA904A8FFF79BFB049B03B11E60BC
:10386000069A002352680A9319460AA8FFF7B8FB84
:103870000A9A069B0AB959680A6000225A604FF0FA
:10388000FF33379359E701333FF457AF4FF0FF3021
:1038900000940EAB0246084908A8FFF72BFA14E67D
:1038A0000226AEE613F0300F3FF47AAE379B0133B9
:1038B0007FF476AE09E600BFBD1200202DE9F0438B
:1038C000282A85B006460F4601D0FEF7FFFA184BAE
:1038D00001925C6800250123ADF80C30A8461CB9A4
:1038E000284605B0BDE8F083E3682BB1CDF8088029
:1038F000029B6268934201D32469F0E72068D4F800
:103900000C9000EB031001AB7EB17A1B7119C84714
:103910000028F1DDBDF80C3023F00103ADF80C30C8
:10392000029B013305440293E2E732463146EEE75B
:1039300000020020F7B504461E464523FFF740FD70
:1039400028220C2120460BF04CFE012120460BF0D2
:1039500057FEA18967680191054630460BF066FE67
:103960000199C3B228223846FFF7A8FF284403B0C4
:10397000F0BDF8B5048906460F46154600200DB186
:10398000AE4218D13289716800230AF016FF04F1A3
:103990003A030344B3F5803F24BF013080B2396855
:1039A00020443A3000232022083180B20AF005FF7B
:1039B000C04380B2F8BD23462A8969680AF0FDFE3B
:1039C000AB682D681C44A4B2D9E72DE9F0410D463F
:1039D00080460321284606F01DF8044608B9FEF784
:1039E00075FA022106F016F806460028F7D0A368FB
:1039F000032B05D828460021BDE8F04106F012B897
:103A0000011D2A4620466768FFF7B3FF0028F1D161
:103A10003B78892B0ED8842B10D8802B15D0397881
:103A20002B4640F20122032004F0F4FA0028E1D0F2
:103A3000BDE8F0816333DBB2012BF0D8A368716875
:103A40003A46404602F0F0FEE9E7238971683A46BB
:103A5000404600F051F8E2E738B50D461446002123
:103A60001A46032306F038F928B1436800221D7076
:103A70005C709A70DA7038BD10B5044668B190F980
:103A80001030032B0CD102680431FFF772FF50B1E4
:103A9000626843BA5380002010BD6FF00D00FBE751
:103AA0006FF04C00F8E76FF00100F5E74269013272
:103AB00001D011F0DFBD83685B6818472DE9F04144
:103AC000DDF81880154600220E461F46014608F113
:103AD00008031046FFF7C0FF044650B1406876BAAD
:103AE0006DBA8680C58027B142463946083012F04B
:103AF000C7FB2046BDE8F08173B506460C46002A98
:103B00003ED0072B3CD99188D088083B40BA49BAAF
:103B1000009389B202F1080382B28120FFF7CEFF41
:103B2000054668B3237EFF2B04F1080214BF04F19D
:103B30001801002100F031FE044610B90146284664
:103B400009E000231A461946184605F0BAFB054657
:103B500030B90146204602B0BDE8704005F062BFB2
:103B600043680EB1B6F9FA615E8006492C602B46B7
:103B700040F20222022004F04DFA01460028DED075
:103B800002B070BD0000FFFFF7B5099D0C4611465D
:103B90001A464FF6FB739D4207464AD8009500230C
:103BA0008020FFF78BFF002846D022460021466880
:103BB00000F0F3FD044620B9214812F039FE00253B
:103BC0002EE043689DF82020DA7167B100231A4681
:103BD0001946184605F075FB40B34368B7F9FA215A
:103BE0005A8004600446174B1868FFF75FFF032DE7
:103BF00089BFB0600836043D0C3600239D42DAB21E
:103C000011D11149234640F20222022004F002FAA7
:103C10000028D4D16FF008050021204605F002FFEE
:103C2000284603B0F0BDF2540133E7E76FF00B050F
:103C3000F2E76FF01505F3E76FF00B05F0E700BF53
:103C4000F8840100B0B801000000FFFF2DE9F04743
:103C50009846224B0646186817460D46FFF726FF82
:103C600002218146304605F0D5FE032182463046CA
:103C700005F0D0FE0446BAF1000F2AD048B3DAF8B6
:103C80000400083003F0E8FC6468032D04F1080C1C
:103C90001CD9A268043DA9EB02020C34254421463C
:103CA000E043A94202D14FF0FF3109E001310B1886
:103CB00011F8014CDBB29C42F3D0A1EB0C010139AD
:103CC00043463046BC46BDE8F047604764460022A4
:103CD000E4E76FF01500BDE8F08700BFB0B8010061
:103CE000F8B50D460221164605F094FE044608B9C3
:103CF000FEF7ECF847680C49102207F1080012F0B3
:103D00008FFA70B13B7AFF2B0BD03B7EFF2B06D195
:103D1000022D04D0042D04D1022E18BF0024204609
:103D2000F8BD0024FBE700BFD88A010010B50B46A0
:103D300008241B6833B193F91020013202D09A682D
:103D40001444F6E78268A24209D98B684068496842
:103D5000121B9A4228BF1A46204412F091FA2046BC
:103D600010BD70B54FF0FF31054605F053FE00243D
:103D700006462DB93034AEB173682BB9FEF7A6F8FC
:103D8000AB682D681C44F4E7B3F9020004F067FB4C
:103D90000028F3D0B0F82A31B268283BA41A9C421C
:103DA00028BF1C46204670BDF8B5054610460F4694
:103DB00014461E46FFF7D5FF294603463A46002023
:103DC000FFF74AFE0546F8B1436836BA5E6094F9DB
:103DD00010305A1C12D0022B05D123687BB193F905
:103DE000103001330BD17CB194F9103001330BD07A
:103DF00021462846FFF79AFF2468F4E7246808263E
:103E000014B1AA68B24201D82846F8BDA368686810
:103E10006168921B9A4228BF1A46304412F030FA69
:103E2000A36824681E44EBE770B5064608464FF0C9
:103E3000FF31144605F0EEFD05460CB9FEF746F8D5
:103E4000626800210832304600F0A7FC044628B919
:103E500001463046BDE8704005F0E4BDC5B16B6871
:103E6000002BEBD0B3F9020004F0F9FA0023194655
:103E700005461A46184605F024FA014608B92046B8
:103E8000E8E743680DB1B5F9FA515D800C600C4666
:103E90000549234640F20222022004F0BBF8014605
:103EA0000028ECD070BD00BF0000FFFF70B50C46CD
:103EB0000246064601212046FFF712FF054660B183
:103EC0000023224631460120FFF76EFF28B12A4623
:103ED0002146BDE87040FFF7A7BF70BD37B50C465F
:103EE0000190002202212046FFF7FAFE054668B144
:103EF000019B224600210220FFF756FF30B12A46DF
:103F0000214603B0BDE83040FFF78EBF03B030BD9F
:103F100070B50C460246064603212046FFF7E0FE38
:103F2000054660B10023224631460320FFF73CFFDF
:103F300028B12A462146BDE87040FFF775BF70BD25
:103F40002DE9F0471646044602460F463046042146
:103F5000FFF7C6FE804680B33046FFF702FF2246D9
:103F6000034604210020FFF777FD054628B3D0F86B
:103F700004A034464FF0000954B999FA89F3CAF8FD
:103F80000430424631462846BDE8F047FFF74CBFB3
:103F900094F910300133F0D021462846FFF7C6FED1
:103FA000D4E901329F4206D31A4497423EBFFB1A1E
:103FB000083B03EB00092468DEE7BDE8F087002139
:103FC00005F030BD08B50449102212F029F9B0FA05
:103FD00080F0400908BD00BFB88A010010B50A4949
:103FE0000822044612F01CF948B12378FF2B08D1AF
:103FF000607800F00F00831E5842584110BD012028
:10400000FCE70020FAE700BFA88A010038B50B687A
:104010000D46044608B9FDF759FF6A68B0F9FA1170
:104020005180002263B9B4F82A0190420CD229468B
:10403000FFF754FF28467A21BDE8384005F0F2BC6E
:1040400099681B680A44EDE7EFF3108172B6D4F863
:10405000AC200132C4F8AC202A68BAB9D4F8B42034
:104060001344C4F8B43081F31088204604F0DAF920
:1040700080B10D492B4640F20222012003F0CAFF15
:1040800088B92846BDE83840FFF799BF90681268A4
:104090000344E2E7B4F9FA0140F20222294603F0B0
:1040A000AEFF0028EDDD38BD0000FFFF2DE9F8432D
:1040B0000E46D1E9001405460A4600232ABB5BBA26
:1040C000A380A379FF2B02D119BB3B23A371E37912
:1040D00013B94DBB4023E37104F108073F49102297
:1040E000384612F09DF804F11809804678BB48461E
:1040F000FFF768FF0246D0B110224146384612F061
:10410000C1F90123E375344650E090681268034416
:10411000D4E70B7C023BDBB2022BD6D8304AD35C0F
:10412000A371FF2BD3D1D0E795F8F831D3E74946F7
:10413000284604F063FB0028E5D0034600F1100296
:1041400053F8041B47F8041B9342F9D1DBE72846D8
:1041500004F090F94846FFF735FF98B1002428464F
:1041600004F08FF9002CCED00321304605F052FC2C
:1041700028B143681B7803F0FD03852BC3D06FF093
:104180007C0023E03946284604F011FB0028E5DBDB
:10419000284490F8304004F01F04103C18BF01245C
:1041A000DDE705F0B7FD98B12060044694F91030C2
:1041B000022B02D120680028F3D13146204605F0B9
:1041C00018FC002807DA831C08BF0020BDE8F8832C
:1041D0006FF00B00FAE70020F8E700BFD88A010073
:1041E0001785010010B50C46FFF760FF002804DAC0
:1041F0002046FFF7E4FE002010BD0120FCE700236D
:1042000070B505460C4642F0400619461A46184657
:1042100005F057F8014620B92846BDE87040FFF781
:10422000CEBE43681E710560EFF3108272B6D4F8FB
:10423000A8300133C4F8A83082F310882046BDE8C6
:104240007040FFF7E3BE00002DE9F04390F9103015
:10425000013389B00646884622D144680CB9FDF77F
:1042600035FEB4F9020004F0FAF805463046277925
:1042700005F050FD07F03F07014618B93046FFF73B
:104280009EFE0AE005F01CFC064696F91030022B53
:1042900009D01621304605F0C5FB09B0BDE8F08312
:1042A00000273D46F1E770685A491022183011F096
:1042B000B7FF0028EDD0304605F02CFD044600285D
:1042C000DCD04668337EFF2B2AD1002D40F08D8054
:1042D00004F0B8F8002840F098802046CFE7264642
:1042E0003A4629463046FFF78AFF284604F0A8F8E8
:1042F00005460028D1D0B8F1000FF0D0204605F0D7
:1043000009FD06460028E8D001462846FFF7CEFE04
:104310000028E5DAB442E0D03046FFF750FEDCE793
:104320001836304604F050FB8542814606D03046B0
:10433000FFF754FE002818BF4FF000093046FFF782
:1043400041FE10B9B9F1000F18D0B8F1000F0ED12D
:10435000204605F091FB0028BFD12F49234640F2AB
:104360000122022003F056FE002896D1B5E721462F
:104370004846FFF737FF00288FD0E9E701AB224618
:104380002946304602F05AF9002886DBBDF81C00A9
:10439000C0F3041004F063F8054600283FF45FAF53
:1043A000B8F1000F1AD1002108469DF81E3005AA69
:1043B00004F087FF014600288FD043681F71046016
:1043C000EFF3108272B6D5F8A4300133C5F8A430EB
:1043D00082F310882846FFF719FE5EE72146FFF7B3
:1043E00001FF00283FF459AFDDE7B8F1000F06D018
:1043F00021462846FFF7F6FE00283FF44EAF3A4626
:1044000029462046FFF7FBFE47E7411E204605F000
:10441000DBFB6AE7D88A01000000FFFF2DE9804836
:10442000102289B00DEB0200002112F02BF8BC4BDA
:10443000BC4C1B88BC48ADF81C3008210594FDF726
:1044400061FA04A9022005F03DFA40F20523ADF817
:104450000A3040F2022AA14640F201246846FDF7E4
:1044600044FABDF80210B1F5017F09D8514500F2B8
:104470004781A1423CD05145F0D101980121F8E09B
:10448000A1F59F43403B9AB2152AE7D8152BE5D8F2
:1044900001A252F823F000BF1147000011470000AD
:1044A00011470000114700005D4400001147000063
:1044B000114700001147000011470000114700009C
:1044C0005D44000011470000114700001147000043
:1044D00011470000114700005D4400001147000033
:1044E000114700005D440000194700002D470000FF
:1044F000019E0EB9FDF7EAFC4FF0FF31304605F0A2
:1045000089FA804680B34368002BF3D0B3F90200E8
:1045100003F0A5FF05460028ECD0EFF3108072B63B
:10452000D5F8B8300133C5F8B83032460021936869
:1045300012681944002AFAD1D5F8BC30D8F80820FE
:104540009B1A0B44C5F8BC3080F3108873683BB1EC
:10455000B268272A04D91B7803F0F003602B05D03A
:104560003046FFF72CFD77E70546EFE7304605F0CC
:10457000D1FB04460028F3D00222282105F0ECFBF1
:104580000023237408B92046EBE74768FB792BB971
:1045900021461846FFF7BCFC742145E0B988BE7976
:1045A00049BA89B209B93B2EEDD18442A36828D01B
:1045B0008B42204625D905F03DFC07F1180B5846E3
:1045C000FFF700FD002859D15846FFF707FD00B15D
:1045D00075BB584604F0F8F90546B0FA80F040097A
:1045E00000284BD007F10800FFF7F8FC20BB584625
:1045F000FFF7F4FC50B33B7EFF2BC4D021460320D1
:1046000021E0002283681A4490F91030022B02D076
:1046100000680028F6D1283A8A42CED2391D2246B7
:104620000020FFF78DFC1621204605F0FBF913E76B
:10463000584604F0C9F9D0E75846FFF7CFFC0028E8
:10464000D9D121460220FFF731FC9CE7FB79013BE1
:10465000DBB2FB7183B1B8F1000F03D041462046B5
:1046600005F02EFA204605F044FA00283FF4F4AE97
:104670000021FFF7E9FDEFE621468BE7292E39D02F
:104680003A2E39D0112E0CBF042300232374314657
:10469000022005F096F9002801DC3A2E2ED10121E6
:1046A000204605F091FA012794F91000234640F2C4
:1046B0000122494603F0AEFC10B92046FFF77FFC0B
:1046C00087B13A2E03D10121204605F07DFA234619
:1046D00040F201223146022003F09CFC10B9204632
:1046E000FFF76DFC3A2E7FF4B7AE21462846FFF760
:1046F0006CF9B1E60223C9E70323C7E70027D3E734
:104700006FF0850302A968460393FDF7C5F8A3E699
:10471000019802F0FBFC9FE6019801F0D5FE9BE6B4
:10472000C00B00200000FFFF681800200198002146
:1047300001F00CFF90E600BF1FB50A4CB4F9003041
:104740005BB9094A0948CDE90132094A00924FF4A0
:1047500070710422FDF7A0FA2080B4F9000004B0C3
:1047600010BD00BF681C002012850100A8180020A1
:104770001D44000008B5022105F04CF960B1436802
:104780000BB9FDF7A3FB8268272AFAD91A7802F041
:10479000F002602AF5D1184608BDF8B50C46174658
:1047A00002232822002105F097FA064600B3456847
:1047B00005F10800F4B12146034604F1100251F856
:1047C000040B43F8040B9142F9D105F11800B7B17D
:1047D0003A46034607F1100152F8040B43F8040B64
:1047E0008A42F9D160232B60FF23AB710023EB7168
:1047F0003046F8BD1022214611F044FEE5E71022B4
:10480000394611F03FFE012385F82730EAE7000022
:10481000F8B5044615460E4609B90020F8BDD1F892
:104820002C71FA04F9D51949082211F0F9FC38B1B4
:104830002378FF2BF1D1637803F00F03022BECD127
:10484000FB0704F1080105F1100201D4FDF73EFB5E
:1048500096F8F9010AF074FA10F0FF00DDD0A8769E
:104860002B4604F1100254F8041B43F8041B944235
:10487000F9D1B6F9FA311B0103F4F87343F48063FC
:1048800043F006032B830120C8E700BFA88A01007C
:104890002DE9F341064604F097F80446002864D059
:1048A00003F0E8FDB4F9FA11002000F0AFFF05466F
:1048B00000284BD0006800F028FD002846D02B6867
:1048C000B4F9FA11B3F86420C2F30412914201D092
:1048D000FDF7FCFA043318463246214600F074FA1C
:1048E0003146204603F063FF051EF1DB611991F8A4
:1048F000303003F01F02102A34D003F00702013ACF
:10490000012A29D80133D4F8206181F83030E91C1C
:104910000901174B1748B3F900808F1CC43121449B
:104920000191FDF7FDFF04EB05100023C0E93D36C2
:10493000274444F6CF73A0F8FE30C0F80071A0F809
:10494000FC8001990B48FDF7B3FF05E0002384F8D4
:104950002731204602F090FB204602B0BDE8F0412E
:1049600003F08FBD4EF66026D1E702B0BDE8F081BE
:10497000681C0020B01E00202DE9F0430D4687B0D2
:104980001E46044608B9FDF7A1FAD0F82C7117F4B9
:10499000805F03D1042007B0BDE8F08393F801E005
:1049A000BEF1020FF6D192F800C0BCF1880F40F0C2
:1049B0008380FF07EED590F8482104AB00F5A07185
:1049C00004F0F0FB0828E5D1DDE90423F168B068C4
:1049D0008B4208BF8242DDD1B378012B47D0022B36
:1049E0004BD0002B41D105F118012046F78803F088
:1049F000DEFE051ECEDB7FBABBB2012B04EB050247
:104A00001CBF4EF660275F4392F83030314823F0E8
:104A10001F0305F1030143F010034FEA011182F86F
:104A2000303001F102082C4B01F1C401214418BFC0
:104A3000A7F56A47B3F90090039114BF603F47F2AE
:104A40003057A044FDF76CFF04EB05140023C4E9C4
:104A50003D3744F6CF7303991E48A4F8FE30C4F8DE
:104A60000081A4F8FC90FDF723FFB07893E705F1EF
:104A70001801204604F041F9F7E7B4F9FA1105F1FD
:104A8000080000F0C3FE074600283FF47CAF00F0AA
:104A900085FE002000F0A4FE28B984F827012046F6
:104AA00002F0EAFAE1E73B68002B3FF46CAF05F156
:104AB0001800FFF7EDFED8E7BC077FF56BAFBCF140
:104AC000870F7FF467AF0F9C01940E9C009400F059
:104AD00087F860E7B01E0020681C002073B543789B
:104AE000032B054603D00024204602B070BD0830D9
:104AF00001F0C2F804460028F5D06B88AA885BBA9A
:104B000052BA9BB243EA0243EA8852BA92B242F2E4
:104B10001071002A08BF0A464EF660255543026907
:104B20009A4209D30361114B18684369013319D0C4
:104B300010F0A0FD284460610D4B0E48B3F90060F1
:104B400004F118010191FDF7EBFE0023C4E90635DD
:104B500044F6CB7301990748638464622684FDF7A9
:104B6000A7FEC1E783685B689847E3E7ACB801003C
:104B7000681C0020B01E002073B514468A7848785F
:104B8000402A8CBF03230223984226D1CD88CB78BC
:104B90006DBA03F00F06ADB2C3F3001300930831F2
:104BA0002B46304607F0A0F80CB9FDF78FF9F1431A
:104BB00004F1290201F00701F408012000FA01F1D3
:104BC000135DC9B23DB923EA01034EF660201355C7
:104BD000684302B070BD0B43F7E74FF0FF30F8E7D2
:104BE0002DE9F74F01F1080A0646884691464749E4
:104BF00010225046DDE90CB51F4611F011FB0028CC
:104C000000F08180BBF1000F7DD05DB195F866307A
:104C1000DB0707D50822B91805F1140011F000FBD5
:104C2000002867D1FC88002C5FD05B464A4641468D
:104C3000304600F0EBF9B6F9FA11504600F01EFCD0
:104C4000044600285DD000F1140807F10805082289
:104C50002946404611F0E4FA28B1B4F8643003F470
:104C6000C063002B4BD12B6863616B68C8F80430BC
:104C7000FD88274B2748B3F9007004F154010191D6
:104C80006DBAFDF74DFE00236365ADB24EF66023AD
:104C90005D4344F6C973A4F85E3001991D48A565CB
:104CA0002466A4F85C70FDF703FEB4F8643013F0DA
:104CB00007030ED0062B0CD00EB9FDF707F91548E7
:104CC00004F12401FDF72CFE03222146304600F0BA
:104CD00083F9B4F8643023F4C06343F48063A4F828
:104CE0006430002003B0BDE8F08F65B1284600F0C5
:104CF0001DFCF6E7B5F8643003F4C0631BB1012076
:104D0000F0E70220EEE70420ECE700BFD88A0100BC
:104D1000681C0020B01E002073B5069E1C460BB90F
:104D2000FDF7D4F80025CDE90065FFF725FEC31E89
:104D3000DBB2012B0AD9E18849BA2B4604F10802FB
:104D400089B202B0BDE8704008F03EBC284602B00F
:104D500070BD00002DE9F0411F460B4B144605467F
:104D60000E460A48B3F900801146FDF7D9FD00232D
:104D7000C4E900376681E560A4F80880214603484D
:104D8000BDE8F041FDF794BD681C0020B01E002076
:104D900038B50446154699B190F868209A4205D076
:104DA0001A4602311C3011F03BFA58B9B4F86410BD
:104DB000B5F90000C1F30411081A18BF012038BD6D
:104DC0000846FCE70120FAE7F0B5074685B015462E
:104DD0001E460C4609B9FDF779F8B1F9FA11002021
:104DE00000F014FD4DB3D4F82C31DA0425D520B3EE
:104DF0000068B4F9FA21B0F86430C3F304139A429E
:104E00001BD13146043009F01EFDB0B1D4F82C316D
:104E1000DB0710D594F8482102AB04F5A0712046B9
:104E200004F0C0F9082806D1002302AA0F21184671
:104E300008F0CAFB10B905B0F0BD00200090334661
:104E40002A462146384602F0FBFEF4E770B50446D8
:104E5000B0F86400C0F304100E4603F000FB0546F2
:104E600008B9FDF733F803F005FB16B1002384F809
:104E70006730231D184600222946FFF7A5FFD5F805
:104E8000203104F1240244F6C0712046FFF762FF8E
:104E9000284603F0F6FA94F86730013384F8673057
:104EA00070BD2DE9F043B0F8643013F0070585B00C
:104EB0000446884671D06A1E012A71D8C3F30410D3
:104EC00003F0CDFA44F6C1710646204600F0E0FF3B
:104ED00081460EB9FCF7FAFF304603F0CBFAD6F85C
:104EE0002071B94556D9B8F1000F02D0002384F8DB
:104EF0006730012D28D140F2DC514FF4FA7094F85C
:104F000067800CF0E9F8A0F5FA73A8F10208B3F590
:104F10007A7F5FFA88F8DDD2B8F1110FDAD805FA96
:104F200008F5A5FB0723A2FB008900FB03994FF4BA
:104F30007A7200234046494610F03EFD4EF660234B
:104F4000984228BF1846074640F2FF220023CDE9C9
:104F500000234FF080730293FF238DF80C30637CA5
:104F60008DF80D30638AADF80E3000226B46314665
:104F7000201DFFF729FF3B4604F1240244F6C171CE
:104F80002046FFF7E7FE94F86730122B9CBF0133F1
:104F900084F86730304603F074FA05B0BDE8F0835A
:104FA000FFF754FFF9E7000010B50446D0F8E80019
:104FB00000EB500140080CF08FF804F1A402C4F893
:104FC000EC00044B204644F6CE71BDE81040FFF7DC
:104FD000C1BE00BF00DD6D00B1F8643023F00703EF
:104FE000134370B50446A1F864300D46164603F02D
:104FF00041FA34B1D4F8C0301BB13246291D032028
:1050000098472046BDE8704003F03BBA2DE9F843CD
:1050100090469946054608B9FCF758FF01F1080784
:10502000B0F9FA11384600F029FA044628B190F890
:10503000663013F0010F08BF0024D5F82C31DA07D1
:10504000EAD595F8F901494609F090FE061E25DBE0
:10505000002C4BD094F86830B34207D1324609F1A6
:10506000020104F11C0011F0DBF898B1D5F82C21F5
:1050700041F20203934303D198F80030852B09D005
:10508000244804F12401FDF74BFC03222146284665
:10509000FFF7A2FF94F86630DB0701D4BDE8F88380
:1050A00098F80030862B1AD1B4F8643043F0080326
:1050B000A4F86430D5F82C2141F20203934303D1C4
:1050C00098F80030852BE9D084F86860324609F101
:1050D000020104F11C00BDE8F84311F0D1B8872BA0
:1050E000E8D0B4F8643023F00803E1E7B5F9FA1129
:1050F0000322384600F058FA04460028CED098F82B
:105100000030872BC6D1B4F8643023F00803A4F82C
:105110006430BFE7B01E002038B50446B0F8640024
:1051200000F00703042B12D0062B12D10325C0F385
:10513000041003F094F92A462146FFF74DFF052D90
:1051400007D120460121BDE83840FFF7AABE05255A
:10515000EDE738BD70B505460C460622FFF73CFF6B
:10516000D5F81C3104F12402204644F6C771BDE88D
:105170007040FFF7EFBD00002DE9F04705461746E8
:105180001E460C4609B9FCF7A1FE0028FBD06BB106
:10519000D0F82C31D907F6D590F8F901314609F04D
:1051A000E5FDB0F1000802DABDE8F0879846B4F8F2
:1051B000649009F00709B9F1020F10D097F800A028
:1051C000BAF1880F02D13B799A0608D4434605F517
:1051D000FD7231462046FFF7DBFD00284FD0002E40
:1051E00045D084F868804246B11C04F11C0011F0DF
:1051F00047F83B78882B02D13B795B063AD42948A3
:1052000004F12401FDF78CFB032221462846FFF719
:10521000E3FE3B78882BC7D13A7990063ED5B4F8A7
:10522000643011065ABF23F008039BB243F0080311
:10523000A4F864305206B7D4B4F8643003F007031E
:10524000062BB1D1434605F5FD7231462046FFF7E6
:105250009FFD0028A8D004F124011248FDF760FB4F
:10526000214628460322BDE8F047FFF7B5BE84F883
:105270006860BEE721462846FFF76CFFC9E7BAF130
:10528000880F91D1B9F1000F8ED03B795B068BD599
:1052900021462846BDE8F047FFF75CBFB9F1020F91
:1052A000C8D1BCE7B01E00200122FFF795BEB0F8C0
:1052B000642002F00703022B10B504460BD0052B27
:1052C00017D0012B06D1B4F8643013F4C06F0AD0A4
:1052D0001B0708D410BD90F86730022B03D9BDE836
:1052E000104000F023B920460021BDE81040FFF730
:1052F000D8BD90F86730022BE5D9C2F3041003F053
:10530000AEF82146FFF7D0FFDDE7B0F8640000F00B
:1053100007000138012894BF002001207047CB0806
:10532000C943C25C01F00701012303FA01F10A42FB
:1053300014BF18460020704730F9081FFCF74EBA1A
:1053400008B50449102210F06BFFB0FA80F0400954
:1053500008BD00BFD88A010008B590F8661021B9D1
:105360006C2211F08FF8012008BD0020FCE770B519
:10537000044610460E461546FFF7EEFF4CB1204698
:105380002B1D04F1100250F8041B43F8041B90423B
:10539000F9D11F2E01D9FCF799FDB5F8643023F43B
:1053A000F87343EA0611A5F8641070BD064A136845
:1053B0003BB11868834219BF02681A60002313606A
:1053C00070471846704700BFAC1E002001490248D4
:1053D000FDF7C6BA39530000B01E00200148FCF7A3
:1053E000F3BD00BFCC1E00200148FCF7F1BD00BF9B
:1053F000CC1E00202DE9F041154C06460F4604F561
:10540000D8780025B4F86430C3F304139F420CD05D
:1054100025B994F86630002B08BF25466C34A045AA
:10542000F0D155B92846BDE8F081211D5EB9084686
:10543000FFF786FF0028EBD025462A46394630463E
:10544000FFF795FFEEE7304609F0FDF9F2E700BF00
:10545000D41E002028B16C30064B984203D30020A4
:1054600070470548F8E790F86620002AF8D16C30BC
:10547000F3E700BF84200020D41E00202DE9F04176
:105480000E46054608B9FCF721FD104C002794F89C
:105490006630A0464BB90137042F04F16C04F6D1F5
:1054A0004FF000084046BDE8F081B4F8643013F4D2
:1054B000F87FC3F3041202D00EB19642EBD1294615
:1054C000201D09F0C0F90028E5D0EBE7D41E00202C
:1054D00073B50446B0F86400C0F3041002F0BFFFD7
:1054E000B4F86430D0F81C610E4823F0070343F091
:1054F0000603A4F864300C4B04F12401B3F9005006
:105500000191FDF70DFA0023019906482463C4E9CF
:10551000093644F6C773E385A58502B0BDE870403F
:10552000FDF7C6B9B01E0020681C002010B590F829
:10553000663023F0010380F86630044600F1340140
:105540001748FDF7EDF9164804F12401FDF7E8F9D5
:10555000134804F14401FDF7E3F904F15401104844
:10556000FDF7DEF90F4A116821B10B689C4206D1A4
:10557000FFF71CFF2046BDE81040FFF7EDBE0B46CD
:105580001B681868844202D09942F9D1F2E7002BD7
:10559000F0D02168196011688C4208BF1360E9E7F8
:1055A000B01E0020AC1E00202DE9F84F88460746AB
:1055B00008B9FCF78BFC02F007052B1F022BF8D96A
:1055C000FFF718FF044600284CD1FFF7EFFE064610
:1055D000002864D0DFF8CCA08346D1469BF8664013
:1055E00034F001042DD1BBF8643003F4C06383B9F7
:1055F0005846FFF79BFF5A4641463846FFF7B7FE2D
:10560000BBF864302B43ABF8643001238BF8663071
:105610005C46DAF80030B3B11B68CBF80030DAF83A
:105620000030C3F800B0C9F800B0C4B9FFF7BEFE3F
:1056300086428346D2D1D9F800303BB9CBF800B0CE
:105640000BE00024E5E7CBF800B0ECE71B68CBF8F3
:105650000030D9F80030C3F800B0C9F800B02046D7
:10566000BDE8F88F90F86630DA070AD4B0F8642005
:1056700022F007022A4343F00103A0F8642080F8D7
:1056800066302368002BEAD1064B1A682AB11268EB
:1056900022601A6814601C60E1E72460FBE704469E
:1056A000DDE700BFAC1E0020F8B50C46054600B192
:1056B00009B9FCF70BFC0A46031D00F1140153F86D
:1056C000040B42F8040B8B42F9D1B5F864701A4907
:1056D00027830822204610F0A3FD04F1100638B1FC
:1056E0002378FF2B1DD1637803F00F03022B18D111
:1056F000C7F3041002F0B3FE0028DAD0D0F82C3142
:10570000D9040ED59A070CD4DB0705F10C01D0D5CE
:1057100090F8F901324609F013FB002801DBA0766E
:10572000F8BD95F86820A27605F11C013046BDE869
:10573000F84010F0A5BD00BFA88A0100F8B5164CCE
:10574000256807460E46A5B1B5F86430C3F30413C7
:10575000994201D00020F8BD291D09F074F80028F5
:10576000F8D095F8663043F0080385F86630204697
:10577000F1E7FFF73FFE024620600028EAD03146FD
:105780003846FFF7F4FD226892F8663043F00803CC
:1057900082F86630EBE700BF981C0020036810B564
:1057A00004468BB1011D0C48FDF7BAF8206890F84B
:1057B000663023F0080380F86630FFF7CDFD142231
:1057C0000021204610F05EFE044B1A68A24204BF7E
:1057D00000221A6010BD00BFB01E002084200020EF
:1057E00028B11430074A904203D30020704706487E
:1057F000F8E703681BB193F86630002BF6D114303C
:10580000F1E700BFAC1C0020981C002010B520B1AF
:105810000E4B1C682CB9002010E00029F8D1FCF7D1
:1058200055FB29B1B4F86430C3F304139942F2D1A3
:1058300028B994F866301B07F1D5044810BD211D26
:1058400009F001F80028E6D0F3E700BF981C00201B
:1058500010B5134C2168B9B10B68B3F8643003F08C
:105860000703013B012B0DD80020FFF7B9FF68B9F2
:105870000846FFF7B5FF01B110B90020FFF7B0FFF0
:1058800020600146084610BD0846EEE70368B3F8FD
:10589000643003F00703013B012BF1D8E5E700BFBB
:1058A0008420002038B50C46054610B1036803B1CA
:1058B00009B9FCF70BFB10220021204610F0E2FD95
:1058C000124A12680023AA4284F8203009D12B68BA
:1058D000B3F8643003F00703013B012B94BF0023AE
:1058E000012384F821302B6804F110011A1D1433B0
:1058F00052F8040B41F8040B9A42F9D12B68B3F823
:105900006430C3F30413638438BD00BF84200020D7
:105910002DE9F84F054689461F46904632B110469C
:10592000FFF70EFD10B97B1E7F2B01D9FCF7CEFAD5
:10593000DFF8E8B0044682469BF83420EAB9002C30
:1059400008BF5C460AF1010ABAF1080F0BF1400BDF
:10595000F2D1002C46D02368002B49D14946284675
:10596000FFF748FD06462060002841D1014640224D
:10597000204610F087FD344634E09BF835209742EE
:10598000E0D15846414650F8046B08F071FF874259
:10599000D8D8002ECAD0B6F86420C2F304129145BC
:1059A000D0D104363046FFF7CBFCF0B9002DC9D07A
:1059B0003146284608F047FF0028C3D005F1100201
:1059C00055F8041B46F8041B9542F9D1134B4FEAD6
:1059D0008A1A5C4653F80A1091F8662042F0400299
:1059E00081F866202046BDE8F88F002DEED0E5E76F
:1059F000226849462846FFF7BAFC2046FFB250F815
:105A0000042B92F8663043F0400382F8663041463A
:105A10003A4608F04DFF84F83570E3E7AC1C0020EF
:105A200010B590F834300446DBB9006890B10D4BE6
:105A300008229C4202D0196888420BD0013A03F137
:105A40004003F6D190F8663023F0400380F86630CA
:105A5000FFF782FC20464022BDE81040002110F0F4
:105A600011BD10BDAC1C002028B14030064B98423F
:105A700003D3002070470548F8E790F83420002A47
:105A8000F8D14030F3E700BFAC1E0020AC1C002072
:105A9000054B984206D303F5007398422CBF0020B3
:105AA0000120704700207047AC1C002038B5034629
:105AB00010B1026802B109B9FCF708FA021D03F13E
:105AC0001404084652F8045B40F8045BA242F9D182
:105AD00093F8352081F82020002481F821401A68AD
:105AE000B2F86400C0F30410488493F83430042BF7
:105AF00001F1100005D121461022BDE8384010F018
:105B0000C1BC131D0146143253F8040B41F8040BB9
:105B10009342F9D138BD00002DE9F047884616467A
:105B2000074600B10AB9FCF7D1F91F4D0024A14680
:105B300005F5007A95F834305BB13946281D08F038
:105B400097FE484505D995F8353083429CBF81467C
:105B50002C4640355545EDD134B194F83430042B02
:105B60001DD1E38EDB071AD4FFF772FE90B9B4B9EA
:105B7000204602F065FC044618B96FF07100BDE8DC
:105B8000F087D4F8C030002BF2D0424639460120CD
:105B90009847EDE73146FFF785FE0020EFE73146F5
:105BA0002046FFF783FFF8E7AC1C002038B5044619
:105BB00000F114011248FCF7B3FE94F8343023F0DE
:105BC0000403204684F83430FFF72AFF0D48241AD6
:105BD000B4F5007F4FEAA41511D20B4C294604F10D
:105BE0002800FFF79CFB50B1ED4305F007050121AC
:105BF000A94094F8285025EA010584F8285038BDBA
:105C0000B01E0020AC1C00206C1C00202DE9F341CC
:105C1000044600F114011748FCF782FE2368B3F82C
:105C20006400C0F3041002F01AFC0546E0B100F174
:105C30003206211D304694F83580019108F018FE97
:105C400005F142078045019998BF94F835803846A0
:105C500088BF002608F00CFE804501D926B13746E2
:105C60003946284603F049F8204602B0BDE8F04125
:105C7000FFF79CBFB01E002038B5044608B9FCF7FA
:105C800025F90B4908F0DFFD78B90948FFF758FB03
:105C900060B12346064C03F1100518685968224686
:105CA00003C20833AB421446F7D1014838BD00BFE8
:105CB0006C1C002070B550B3164908F0C4FD40B309
:105CC000154E164D002421463046FFF728FBC8B973
:105CD0000134082CF7D10024114E254621463046C8
:105CE000FFF71DFB48B90134102CF7D1BDE8704017
:105CF00008482C22002110F0C5BBE0B205F0D2FF0D
:105D00000574F0E705EB8410FFF750FFE0E7FCF7C0
:105D1000DDF870BD6C1C0020941C0020AC1C002021
:105D2000951C002008B520B119B191F834305B07FB
:105D300001D4FCF7CBF8094BC91AB1F5007F4FEA43
:105D4000A11309D2DB4303F007020123934090F82B
:105D50002820134380F8283008BD00BFAC1C002069
:105D600070B539B10E4BCB1AB3F5007F02D30024C6
:105D7000204670BD0A4E00F128050846FFF774FE64
:105D800004460028F3D094F834305B0706D5A11BF5
:105D900089112846FFF7C3FA0028E9D12146ECE72C
:105DA000AC1C002038B538B100F12C04074DAC42D2
:105DB00004D30024204638BD054CF7E72046FFF702
:105DC000BFFA0028F6D02C34F1E700BF981C002061
:105DD0006C1C00202DE9F3411F4613460A4601467C
:105DE0000020089EFFF794FD054600283ED090F85D
:105DF0003430B74243F0040380F8343001D2FCF76A
:105E000065F807EA0604601C38D01E4B1868436921
:105E100001332FD00FF02EFC711C04461DD01A4BFD
:105E20001A48B3F9008005F114010191FCF778FDDF
:105E30000023C5E9053644F6CC7301991348EB837A
:105E40002D62A5F81C80FCF733FDB21C05D0331978
:105E5000013301D104B101362644FB1C10D83B1993
:105E6000013308BF01373C44C5E90E46284602B05D
:105E7000BDE8F08183685B689847CDE72646F3E785
:105E80003C46F1E7ACB80100681C0020B01E0020C1
:105E900010B50A4B9B690246002013B94FF0FF3042
:105EA00010BD5C6820445C898C4204D1002AF7D084
:105EB000DC689442F4D01B68EFE700BFB01E0020FE
:105EC000044B18684369013301D00FF0D3BB8368DA
:105ED0005B681847ACB8010073B504460E46FFF77F
:105EE000EFFF23680546B3F86400C0F3041002F026
:105EF000B6FAA26B531C1EBF4FF47A73521BB2FB4F
:105F0000F3F2E36B591C07D09D428FBF00235B1B4C
:105F10004FF47A71B3FBF1F3E18E11F0010506D075
:105F2000D0F82C0110F4805F14BF0025802589076C
:105F300048BF45F04005CDE9005694F83510201DC6
:105F400001F032FE02B070BD2DE9F341D0F82C41D2
:105F5000B0F9FA6141F20203A3430D464ED109B9EB
:105F6000FBF7B4FF002427464FF0010805EBD703E9
:105F700093F82920FB4303F0070308FA03F31A42BE
:105F800011D0F8B205F08EFE034660B1428A417C22
:105F9000007C009407F02FFB044620B9002528461A
:105FA00002B0BDE8F0810137102FDFD1002739465C
:105FB0002846FFF7D5FE074690B96E69FFF780FFC8
:105FC0002A46301A4EF660212346B0FBF1F12869CB
:105FD00089B207F035FB002838BF00200546DEE710
:105FE0003B68B3F86430C3F304139E42DFD121460B
:105FF000FFF772FF04460028D9D1CFE714F480548C
:10600000CCD1254610E094F834305B070CD52368DA
:10601000B3F86430C3F304139E4205D12946FFF759
:106020005BFF05460028B9D02046FFF71DFD04465A
:106030000028E8D1B3E7F7B51446D0F82C2141F297
:106040000203934305460F4621D014BB2146FFF7B8
:106050007BFF009023463A460021284601F02AFFA4
:1060600011E094B931462846FFF76EFF00902346B1
:106070003A460021284601F01DFF3046FFF792FE08
:1060800006460028EDD103B0F0BD0020EEE7002663
:10609000F3E70020DDE738B50546B0F86400C0F34B
:1060A000041002F0DCF9044608B9FBF70FFF02F018
:1060B000E1F9D4F82C315B0704D50022291D2046D4
:1060C000FFF7B9FF2046BDE8384002F0DAB900001A
:1060D000F7B5044602F0CEF90CB9FBF7F7FED4F899
:1060E0002C31DA044AD4284F284894F826613946DE
:1060F0000AF0F2FF44F6C67105462046FFF7C8FED7
:10610000FC2E01D9B84203D8D4F82C315B0735D521
:10611000FC2E94BF0022012200212046FFF78BFFB6
:10612000FFF7CEFE94F82631C4F81401022B1AD9D9
:10613000FC2E1DD8164B1748B3F9006004F1C401BA
:106140000191FCF7EDFB0023C4E9313544F6C67339
:1061500001991048A4F8CE30C4F8D040A4F8CC601F
:10616000FCF7A6FB0AE0B5F57A5F28BF4FF47A5535
:106170000133DBB284F82631002BDBD1204603B09B
:10618000BDE8F04002F07DB9C027090070050300AA
:10619000681C0020B01E0020002280F82621D0F8C4
:1061A0002C2142F00402C0F82C21FFF791BF73B5F7
:1061B00014460E460546FFF783FE0A30C4E90E007A
:1061C00000212046FFF788FE002300903246194642
:1061D000284601F06FFE02B070BD0000F0B5044625
:1061E00085B00E46174600211022684610F04AF985
:1061F000D4F82C31D90406D4B4F9FA11244810F09B
:1062000063FA05B0F0BDDA07FBD594F8482102AB7C
:1062100004F5A071204603F044F80028F1DB3A466B
:106220003146684608F044FB6946204602F0BFFA52
:10623000051E2BDA07233A466946204602F054FC35
:10624000051EDEDB0127D4F82C31DB04D9D511493A
:10625000082230460FF0E4FF38B13378FF2B0DD120
:10626000737803F00F03022B08D1621992F83030D3
:1062700023F01F0343F0100382F83030002FC0D00A
:1062800004EB05103230FEF703FBBAE70027DAE72C
:106290001A850100A88A0100D0F82C2141F20203DE
:1062A00093430CBF012000207047D0F82C01430716
:1062B0004CBFC0F3003001207047000010B50A4900
:1062C000082204460FF0ACFF48B12378FF2B08D119
:1062D000607800F00F00831E5842584110BD012025
:1062E000FCE70020FAE700BFA88A010008B50449CE
:1062F00010220FF095FFB0FA80F0400908BD00BFF2
:10630000D88A0100002103F08DBB08B5FFF7B6F86D
:1063100028B190F8663013F0010F08BF002008BDC7
:10632000044B18684369013301D00FF0A3B98368A7
:106330005B681847ACB8010038B505685DB195F8E1
:1063400066301B0707D5FFF729FA00242046FFF720
:106350008BFB044600B938BD23689D42F6D1FFF798
:106360005FFBF3E72DE9F0411F460B4B1446054652
:106370000E460A48B3F900801146FCF7D1FA002313
:10638000C4E900376681E560A4F808802146034827
:10639000BDE8F041FCF78CBA681C0020B01E00205C
:1063A0002DE9F843089C0746904699460D46C1B131
:1063B00091F8F9310A2B14D14B4600F1100257F82D
:1063C000041B43F8041B9742F9D1B5F8FA311B01BD
:1063D000A9F81830002389F81A3001263046BDE8A4
:1063E000F883ECB12046FEF790FF0646C0B1B4F842
:1063F000643003F00703032B0DD104222146284605
:10640000FEF7EAFD41F2883304F1240244F6C87134
:106410002046FFF7A7FF49462046FFF745F9DDE78D
:106420004A4629463846FEF7F3F906460028D5D1F4
:10643000D5F82C1111F4805103D04046FFF762FFCC
:10644000CCE714BB0DB1B5F9FA1102223846FFF7BB
:10645000ABF804460028F0D035B1D5F8C0301BB1F8
:1064600002223946032098470125B8F1000F07D0D2
:1064700041460320FDF71AFD7621404603F0D2FA8B
:1064800029462046FEF70DFDA8E7B4F8643003F076
:106490000703012B02D1032384F867303546E4E774
:1064A00038B5084DFEF79AFFA96929B10C6828464E
:1064B000FCF736FA2146F8E7FEF788FFBDE83840DA
:1064C000FEF792BFB01E002038B5044608B9FBF7AE
:1064D000FDFC01F0CFFF47F23053C4F8183104F14E
:1064E00030000025FEF760FD154984F8275184F837
:1064F0002851204602F0A1FA1249204602F09DFAE6
:10650000204611494022FFF769FE2046FFF7CDFEE5
:1065100088B14FF47A7128460AF0DEFD04F1E402F6
:10652000034644F6C3712046FFF71CFF2046BDE832
:10653000384001F0A6BF2046FFF7CAFDF6E700BFCE
:10654000988A0100888A0100A88A010037B50D46A3
:10655000044608B9FBF7BAFC01F08CFF1F4804F1B0
:10656000D401FCF7DDF92046FFF79FFE40B31B483E
:1065700004F1E401FCF7D4F904F132010846019179
:10658000FFF79CFE019910B1204602F0B6FB04F122
:10659000420108460191FFF791FE019910B1204692
:1065A00002F0ABFB20460E4902F048FB20460D49A5
:1065B00002F044FB204603B0BDE8304001F061BF6B
:1065C000064804F1C401FCF7ABF9002DD4D0FD233B
:1065D00084F826312046FFF77BFDCDE7B01E002072
:1065E000888A0100988A010010B5044608B9FBF7B3
:1065F0006DFC01F03FFF4FF47A73C4F8203194F83A
:10660000293143F0010384F829314FF4E163A4F800
:1066100024314FF0FF33C4F81431002384F82631BD
:10662000D4F82C3143F002032046C4F82C3102F098
:10663000D8FD2046BDE8104001F023BF2DE9F0470A
:106640000C468CB0054608461646994601F012FFE6
:10665000FEF7C4FE4CB3B4F9FA112846FFF755FE15
:106660000746002800F0D680B0F86480C8F304180C
:106670002846FFF723FE00285FD1B8F1000F5CD059
:10668000204601F0FEFE404601F0E9FE0446FEF71A
:10669000ABFE204601F0EEFEFEF7A0FE94BB002EFE
:1066A0004ED134466FF075073EE02146D5E708F13C
:1066B0000401284608F0DCF898F83530984207D3F2
:1066C000BAF1000F1AD09AF835209A4238BFC24664
:1066D0004046FFF7C9F980460028E8D1BAF1000F1B
:1066E0003AD09AF834305A0736D5BAF83630DB0744
:1066F00032D5DAF80030B3F86480B7E7C246E7E78E
:10670000B846B5E7B4F9FA112846FFF7FEFD07468B
:1067100000974B46324621462846FFF741FE0028A7
:1067200014BF00276FF07507FEF75EFE204601F0EC
:10673000A8FE38460CB0BDE8F087002CE8D1AEE7E3
:1067400031460320FDF7B2FB7621304603F06AF9AB
:106750006FF075070024E7E703AA31462846FFF7E4
:10676000DBF9071E2EDB07A8FFF7C0FD58B14FBBB2
:1067700007AA05F1100C28686968134603C3083599
:1067800065451A46F7D14CBBBDF92E0001F067FEF6
:106790000446FEF729FE204601F06CFEFEF71EFEC1
:1067A0005CBB214607A8FFF7B0FD4B460090324680
:1067B000214607A8FFF7F4FD00283FF473AFFCB9AA
:1067C000FBF784FB3EB131460020FDF76FFB7221E1
:1067D000304603F027F96FF07107A5E7B4F9FA2105
:1067E000BDF82E309A4208D0204601F04AFEB4F996
:1067F000FA21BDF82E309A42C6D1B4F9FA11D1E788
:10680000D4F8C030002B8FD09DF82C2003A9022093
:10681000984789E72846FFF751FD00287FF470AFBD
:10682000BA46B84654E700002DE9F04F2DED028B33
:106830008B4689B015461E46044608B9FBF746FB51
:1068400001F018FEFEF7CAFD2B78853B032B00F202
:106850009680DFE813F004009E0071025303D4F821
:106860002C31980740F18B809BF80730FF2B40F0CC
:1068700086806B78002B40F08280072E7FD9A6F1AE
:10688000080905F10808C2464F460BF108034FBB43
:106890000BF108063046FFF729FD40B9B9F1000FAA
:1068A00037D1B4F9FA113046FFF72FFD0746D4F877
:1068B0002C3113F4805059D14FF4FA710AF00CFCCA
:1068C00044F6C67105462046FFF7E2FA854256D8DF
:1068D000A7B32B4607F1440244F6C5713846FFF7CB
:1068E00041FD4CE0BE424AD39AF80110002946D03F
:1068F0009AF80020012A07D1184603910293FFF766
:10690000F5FCDDE90231D0BBA7EBC1070AEBC10AF8
:10691000BDE798F80030012B09D1D4F82C31D90407
:1069200005D443462A4659462046FEF76FFB98F8A1
:106930000130A9EBC30908EBC308AFE7FFF7F0FC90
:10694000D4F81431AF4A934203D940F6B73290429B
:1069500003D9A0F6B830834201D205F6B8352B46EC
:1069600004F1C40244F6C6712046B8E703F00603FA
:10697000062B04D1002231462046FFF75CFBFEF7D0
:1069800033FD204601F07DFD09B0BDEC028BBDE872
:10699000F08F0BF10803184608EE103AFFF78EFC53
:1069A0000028ECD09BF80730FF2BE8D16B78002B48
:1069B000E5D10F2EE3D9D4F82C31DA0406D4EB88D4
:1069C0005BBA9BB242F228329342D8D8A6F11003A8
:1069D000039305F11007039A3B464FF00008002A85
:1069E00040F08C80B8F1000F00F09C804046FEF72C
:1069F00075F80028C3D0B8F8066076BAB3B242F290
:106A00001072002B08BF13464EF660265E43804688
:106A1000B5F806A0B4F9FA111FFA8AF918EE100AAF
:106A2000B9F1000F00F08780FEF788FE0290002881
:106A3000A5D09AFA9AFA4FF47A731FFA8AFA03FBEE
:106A40000AFA02465346043244F6CD71FFF78AFC37
:106A5000564528BF56462B790BB184F8F831AB6800
:106A60009BB193FA83F9D4F8183199450DD020469B
:106A7000654B04F1D40244F6CE71FFF773FCC4F801
:106A8000189104F13000FEF78FFAEB6813B11BBACE
:106A9000C4F82031029BABB1D4F82C31DB0411D502
:106AA00094F8303013F0EF0F03D004F13200FDF70B
:106AB000EFFE94F8313013F0EF0F03D004F14200F1
:106AC000FDF7E6FE039B002B3FD1029B002B3FF41A
:106AD00056AF04F1E4054D482946FBF721FFD4F8F1
