:1010000000020020A12300002D2300003D2300004A
:101010004D2300005D2300006D2300000000000050
:10102000000000000000000000000000112300008C
:101030007D23000000000000C52200008D23000079
:101040008BF30000790301008BF30000E52400001E
:10105000012500008BF300008BF300008BF30000F0
:101060008BF3000025F800002BF800008BF3000044
:101070008BF300008BF300008BF300008BF3000078
:101080008BF300002DF500008BF300008BF30000C4
:101090008BF300008BF300008BF300008BF3000058
:1010A0008BF300008BF3000031F8000037F80000EC
:1010B0008BF300008BF30000000000000000000034
:1010C0008BF300008BF300008BF300001D25000064
:1010D0008BF300008BF300008BF3000041FD000058
:1010E0008BF300008BF300008BF300000000000086
:1010F000000000008BF30000000000003925000014
:1011000010B5044602F0F0F8014620B92046BDE8CB
:1011100010400DF0FDBD4FF0FF3010BD2DE9F04344
:10112000002493B005468846914621463C2203A8F8
:10113000029414F0F7FE2F23009302AA40230B2100
:1011400028460DF078FCA04208DC80234A46414640
:101150002846FFF7D5FF13B0BDE8F0830DF10D0071
:1011600014F0EEFA01280746EFD82B685E7806F0F7
:101170001F06731E01269E40B6B2012E12D0042E09
:101180002CD1AB89002BE0D0686814F0D9FA144A4E
:101190000346D05D1BB10EF035F94423D6E70EF0BF
:1011A00041F9FAE745234A464146284602F09CF8B1
:1011B00022460C2128460DF09CFD314628460DF0B4
:1011C000A7FD074B0446D85D0EF002F96B6818B115
:1011D00031221A70601CBEE73022FAE72046BAE7D7
:1011E000507C010070B5452304460D46164602F0BA
:1011F0007BF800220C2120460DF07BFD01212046CA
:101200000DF086FDA389052B07D9094A636811688B
:10121000928819609A80063070BD064815F058F81B
:10122000324629462046A023BDE87040FFF768BF3C
:10123000907B0100977B010000B51148B9B001F027
:1012400001FF18220021684614F06CFE0D49684623
:1012500012F08EFA002806DA0B4815F039F8012052
:1012600039B05DF804FB00231A46694606A80BF066
:1012700093FF002802DA054814F076FF0020EFE71C
:1012800000020020E07B0100B77B0100FE7B010033
:1012900070B5064E064CA41BA4080025AC4200D134
:1012A00070BD56F8253098470135F7E744B5010081
:1012B0007CB5010013B500200EF02CFD084C014652
:1012C000204612F00FFE204613F02AFD054B06487B
:1012D000009401224FF4806112F010FE02B010BDA4
:1012E00018090020527C0100180500204FF08043AF
:1012F0005722C3F81C25BFF34F8F0549054BCA6819
:1013000002F4E0621343CB60BFF34F8F00BFFDE7F1
:1013100000ED00E00400FA057047000013B5094B2A
:10132000094C1A681B7923716846082122600DF068
:1013300091F908226946601D01F09CFA002363754B
:1013400002B010BD587C0100C80A002010B5044648
:1013500086B0114815F054FA0F4B00900F49022245
:1013600020460DF097FC002814DB0D4903A801F07E
:10137000B5FA06AB1844002300F80C3C03A815F09E
:101380003FFA0849009003AB022220460DF082FC90
:1013900000EAE07006B010BDC80A0020B09F01004E
:1013A00080510100A18F010038B50368032B0C4662
:1013B0001FD108460DF03CFB282807D04FF6FD71E1
:1013C000184B1868BDE8384000F064BEA389002BB4
:1013D000F4D061680B440A783C2A20D09942EDD2BF
:1013E0000131F8E7013210783E2806D09A42F9D34D
:1013F000E4E7042BE2D10221E2E70B4B1D68541A0B
:10140000A542DBD9094B1B682246184614F088FC1C
:1014100000212A1B204414F085FD0121D0E7013171
:101420000A46E0E7840B0020800B00207C0B0020A4
:1014300008B50F2000F01EFE420708D4830709D428
:1014400010F0080F14BF6FF00300002008BD6FF00C
:101450000100FBE74FF0FF30F8E70000032809D157
:101460000B685B78934214BF04210121044B186878
:1014700000F010BE042814BF04210221F6E700BFCB
:10148000840B002000684422FFF7E8BF0068422276
:10149000FFF7E4BF0368032B37B50D46144621D18F
:1014A0000B685B78412B22D12F230093124A4023F3
:1014B000082128460DF0BFFA00281ADD22460F4CFD
:1014C00002F1180510685168234603C30832AA4286
:1014D0001C46F7D101210A4B186803B0BDE8304023
:1014E00000F0D8BD042B14BF04210221F3E704212E
:1014F000F1E70821EFE700BFE40A0020640B0020B9
:10150000840B002008B50448012100F0C3FB034B05
:101510001A68034B1A6008BDE00A0020900D0020F5
:10152000840B002030B5194D9DB02A7805900C46EB
:1015300042B3284615F064F9059B1549CDE90050E2
:101540004FF4007206A801F091FD002803DA6FF055
:1015500001001DB030BD069A137823F030031370DC
:10156000002106A80DF0D4FB00230146CDE901338C
:10157000084A0748009401F0B5FD0028E7DDFFF7B1
:1015800057FFE6E76FF00200E3E700BFE40A002040
:10159000880B0020640B002010B51B4B19601B4BFF
:1015A0001B491A609AB0112301931A4B0093044609
:1015B00001234FF4007204A801F058FD002803DA5B
:1015C0006FF001001AB010BD049A1349137823F08C
:1015D0003003137007230222009304A80F4B0DF071
:1015E00059FB002104A80DF093FB0D4A0092002343
:1015F0000146CDE901330648224601F073FD00287B
:10160000DEDDFFF715FFDDE77C0B0020800B0020FF
:10161000880B00205E7C0100ABA50100707C0100FE
:10162000A91300001FB5CDE902100192FFF76AFF70
:10163000DDE901210398FFF7AFFF0446024800F0FF
:101640005DFB204604B010BDE00A002030B50C461A
:101650009BB00546FFF756FF40224CB92949284662
:10166000FFF79AFF044638B1274B00221A7043E077
:101670002448214615F084F9224C204615F0C0F884
:101680002249CDE9004002234FF4007204A801F082
:10169000EDFC002802DA6FF00104E5E7049A137804
:1016A00023F0300313700C21282204A80DF021FB35
:1016B00004A8FFF74BFE0028EDDB012104A80DF084
:1016C00027FBBDF81C10044600230598282202F0D1
:1016D0007FF8011EDFDB0E4A00920023CDE90133C3
:1016E0000A482A46214401F0FDFC0028D3DDFFF71B
:1016F0009FFE04460028B7D1064800F0FFFA2046B6
:101700001BB030BD240B0020E40A0020880B002011
:1017100095140000E00A002010B5FFF7F3FE07491A
:101720000220FFF7FFFE044610B1054B00221A709D
:10173000044800F0E3FA204610BD00BF8514000005
:10174000E40A0020E00A002038B50B4DFFF7DAFE6E
:101750002B782BB9094800F0D1FA6FF0020038BDA0
:1017600007490420FFF7DEFE002404482C7000F037
:10177000C5FA2046F3E700BFE40A0020E00A002093
:101780008D14000030B5144C14488BB014F0A0FD3B
:10179000237823B9124814F09BFD0BB030BD114DD6
:1017A0002822291D68460CF025FDEA8A0E48694664
:1017B00014F0DAFC0D490E4814F0D6FC0D490E4821
:1017C00014F0D2FC0D490E4814F0CEFC21460D4811
:1017D00014F0CAFCE1E700BFE40A0020787C0100B5
:1017E000937C0100640B0020B87C0100C80A002033
:1017F000D47C010080510100E47C0100240B002016
:10180000F57C0100057D01002DE9F74304460E46F5
:101810001746EFF3108872B60568C5B9DFF88C90EB
:10182000051DD4E90331A2689A1A8A4222DC1E4AB5
:1018300012883280581C6269E0600B4096E8030011
:1018400002EBC30383E8030088F3108810E055F827
:101850000C390360D1E900012B6983E803002846B5
:101860000C2100F0A7FA687988F3108800F0E4FAF8
:10187000012715E097B1D9F800000190092100F087
:1018800099FA01980146284600F032FB88F3108847
:1018900000F00EFBEFF3108872B6C2E788F31088F1
:1018A000384603B0BDE8F0838C0D0020900D002079
:1018B00070B50B4604461046EFF3108672B6D4E9B5
:1018C00002128A4219D0481CA06020696269014056
:1018D00002EBC10103C983E8030065680DB355F845
:1018E0000C39636028460C2100F064FA687986F3AD
:1018F000108800F0A1FA012012E078B10A4A1568B8
:1019000009212B61284600F055FA2946204600F0AF
:10191000EFFA86F3108800F0CBFAECE786F3108834
:1019200070BD86F31088E6E7900D002070B5044680
:10193000EFF3108672B6314B1A68536A002B56D0FB
:10194000D2E90630984252D0581C9061106A034088
:1019500039B9516929B9591C03D186F31088184641
:1019600070BD002B47DB516A01EBC30103C984E85A
:10197000030055695DB355F80C195161002B0DDB5F
:10198000D2E907349169506A591A8C42A9BF591C8F
:101990004FF0FF332340D16100EBC3042B6993E880
:1019A000030084E803002B79062B02D186F310880C
:1019B0001BE0002328462B610C2100F0FBF968791D
:1019C00086F310880E2810D800F036FA0DE0002BB0
:1019D000ECDA0421104600F0EDF986F31088084B8C
:1019E0004FF080525A60BFF36F8F0123B7E74FF07B
:1019F000FF330029ADD01461BBE700BF900D00207C
:101A000000ED00E00346D0E9072010B59C69141BE7
:101A1000A04201DA002010BD541C0240DC61F9D460
:101A2000586A00EBC20203C982E803001A896FEA10
:101A300042426FEA52421A81184600F0FDFA012034
:101A4000E9E7000008B50E4B53F82130A3B11A792D
:101A5000042A0BD103C81A6982E8030018460C2136
:101A600000F0A8F9074B0120186008BD0146184690
:101A7000BDE80840FFF7C6BF4FF0FF30F5E700BFF5
:101A8000DC0D0020940D00202DE9F0411D46294B6E
:101A900053F82140284B1B880380064690462CB9FA
:101AA00085F310884FF0FF30BDE8F0812379042BD7
:101AB00036D0224B014620461F68FFF7A3FF78B1BE
:101AC00085F310883B79062B02D01D4B1B682BB188
:101AD0001C4B4FF080525A60BFF36F8F0120E3E739
:101AE000B8F1000F02D185F31088DDE73B793E6144
:101AF000062B0CBF06210521384600F05BF904F1E6
:101B00001400394600F0F4F923896FEA43436FEA81
:101B100053432381204600F08FFA85F31088D7E7DE
:101B2000D0E90001236983E803000C21204600F07E
:101B300041F9F2E7DC0D00208C0D0020900D002013
:101B4000940D002000ED00E010B50146EFF3108485
:101B500072B6054B1B880380044B1868FFF752FFD1
:101B600084F3108810BD00BF8C0D0020900D002064
:101B700021230380FFF766BFEFF3058313F0FF0F08
:101B800001D0FFF7F5BF064B1B881BB2994201D16C
:101B9000FFF7DABFEFF3108372B60122FFF774BFCD
:101BA0008C0D002010B4EFF3058212F0FF0203D079
:101BB0005DF8044BFFF7DCBF074B1B881BB2994253
:101BC00003D15DF8044BFFF7BFBFEFF3108372B68C
:101BD0005DF8044BFFF758BF8C0D0020F7B50546A4
:101BE0000C461646EFF31083019372B6094A176844
:101BF0000621384600F0DEF895E80300019B3C61C1
:101C0000012284E803003146204603B0BDE8F040DD
:101C1000FFF73ABF900D002038B5EFF3108572B68C
:101C20000D4BB0F9002053F822402379062B04D045
:101C300085F310884FF0FF3038BD03C9236983E86E
:101C4000030020460C2100F0B5F8607985F3108878
:101C500000F0F2F80120EFE7DC0D00200021FFF793
:101C600065BE0121FFF762BE034B1B68586A10B1C5
:101C7000D3E90630C01A7047900D0020044B1B6852
:101C800000220139C3E9062258621962704700BF79
:101C9000900D0020F8B504460D46EFF3108772B69C
:101CA00003683BB94FF0FF33036087F310880125C9
:101CB0002846F8BD11B987F31088F9E70D4B1E6867
:101CC0000321304600F076F8236801330DD106F188
:101CD0000C0323600023F36087F31088064B4FF05A
:101CE00080525A60BFF36F8FE2E73146204600F022
:101CF000FFF8F1E7900D002000ED00E070B505461B
:101D0000EFF3108672B6046814B986F3108870BDBC
:101D1000631C02D100230360F7E754F80C39036019
:101D20000C21204600F046F82B6813B94FF0FF3322
:101D30002B60607986F31088BDE8704000F07CB8B5
:101D400070B5174D174E2A68346832BB24B1237919
:101D50000B2B04BF0C23237100F0E2FA2B68002B3D
:101D6000FAD00023104A002111602A680F49B2FA04
:101D700082F251F8222010680C380B228442027142
:101D80000AD023B11A790B2A04BF0C221A71084B0E
:101D9000B0F906201A80306070BD2346E2E700BF2C
:101DA000880D0020900D0020940D00209C0D002037
:101DB0008C0D00200A29F0B503791BD90A2B15D800
:101DC00047791B4A52F827603C4600F10C057EB16A
:101DD0003368C36052F827301D6042F82450154A1A
:101DE0004FF000431468FB40234313600171F0BDC2
:101DF000C560F2E70A2BF9D90D4B457953F8252038
:101E00003AB11468A2420BBF0022246843F825208F
:101E10001460427953F82230002BE7D1054C4FF083
:101E2000004323FA02F2236823EA02032360DDE77A
:101E30009C0D0020880D00200B4B1B681A790A2A84
:101E400002D95B7983420ED9EFF3058313F0FF0FBC
:101E500003D0064B01221A607047054B4FF08052A9
:101E60005A60BFF36F8F7047900D0020940D0020D3
:101E700000ED00E008B5EFF3108372B6084B094A95
:101E80001B88094C1BB2002142F82310074A206826
:101E90001368013B1360FFF78DFF216000F0FCF930
:101EA0008C0D0020DC0D0020900D0020980D0020EE
:101EB000EFF3108072B60B4B1B681A790A2A07D908
:101EC0005A79094B53F8221011B1096843F82210CE
:101ED00080F31088054B4FF080525A60BFF36F8F2C
:101EE000704700BF900D00209C0D002000ED00E029
:101EF00030B54C7901F10C020346006818B110F8B6
:101F0000075CA542F8D9C8601A6030BD0F2A2DE9D8
:101F1000F84316461F4626D810F003031EBF0439A7
:101F2000C918C3F10402A1F1280118BF801821F0DB
:101F30000303C418EFF3108972B62149012251F846
:101F400022500FFA82F88DB10132212AF7D189F39C
:101F500010886FF08A082FE002212046FFF72AFF41
:101F600089F3108828E06FF0150825E041F8224039
:101F70000246A4F80680DDE9080100F059F9114A8B
:101F800020604FF0FF33C4E90835136866710133F0
:101F90001360FB07C4E90355C4E905552571E561E4
:101FA000DAD40C212046FFF705FF7A07D8D489F34D
:101FB00010883046FFF740FF4046BDE8F88300BF79
:101FC000DC0D0020980D0020034B53F82000034B3C
:101FD000002808BF18467047807D0100157D01006C
:101FE0000C4B10B51B68EFF3108472B61A891042BF
:101FF0000DD1186107211846FFF7DCFE84F3108825
:10200000054B4FF080525A60BFF36F8F10BD84F3C1
:102010001088FBE7900D002000ED00E010B50346AE
:10202000EFF3108472B6028802EA010022EA01018D
:10203000198084F3108810BD10B50379048A072B2A
:1020400004D0082B0DD00024204610BD03891C406D
:10205000002CF9D00C21FFF7ADFE054B01221A60D0
:10206000F2E7038934EA03030CBF01240024EFE7FD
:10207000940D002013B5064B01901C68FFF7B0FFCC
:10208000019904F1080002B0BDE81040FFF7C6BF97
:10209000900D002010B5EFF3108472B60389027919
:1020A0001943072A038A018104D0082A14D084F333
:1020B000108810E019400029F9D00C21FFF77AFEB2
:1020C000084B01221A6084F31088074B4FF08052AE
:1020D0005A60BFF36F8F10BD8B430CBF01210021ED
:1020E000E9E700BF940D002000ED00E008B5FFF720
:1020F000CFF8034814F0ECF8FFF79EF8002008BD75
:10210000B47D01001FB5EFF3108372B6074B029345
:1021100000230193064B0093072204234FF4C06170
:102120000448FFF7F3FE00F0B7F800BFF47D0100AC
:10213000ED200000600E002008B50EF071FABDE839
:10214000084012F001BE704708B50B4B1A680C46E8
:1021500052B901221A60FFF7F6FF0848214614F031
:1021600003F8074814F0B4F8EFF3108372B600F0E8
:102170005DF800F049F900BF60140020F97D01000E
:10218000157E010070B50D4600210446FFF782FD63
:102190000D4E70B9BFF35B8FE388BFF35B8F32885E
:1021A0001BB212B29A4204D06DB901212046FFF74A
:1021B00071FD3388BFF35B8FE380BFF35B8FA38830
:1021C0000133A380012070BD8C0D00200021FFF79A
:1021D000D9BF8388013B9BB2838033B9BFF35B8F48
:1021E000C380BFF35B8FFFF789BD70470C4B0D4A6F
:1021F00010B540219A600C4CE02283F82220D97758
:102200000022A0180132302A80F80013F9D11A698F
:1022100042F010021A615A6942F400725A6110BD0C
:1022200000ED00E00010000000E100E07047000059
:10223000134423F003034FF0773210B543F8042C16
:102240005A0758BF4FF08832A3F104045CBF43F82B
:10225000082CA3F108044FF0807344E902030D4BEE
:1022600044F80C3C0022032344E9053202200123F8
:10227000224644E907306FF0020344F8201C42F87C
:10228000243D0B2342F8043D013B032BFAD1A4F17A
:10229000440010BD751E00000023E1EE103AEFF37C
:1022A000148323F0040383F31488BFF36F8FEFF3D9
:1022B000108362B6024B4FF080525A60BFF36F8FAB
:1022C00000ED00E0114910B50C6872B6FFF738FD5B
:1022D00062B6A04208BF10BD2146BDE8104049B11A
:1022E000EFF309821EF0100F08BF22ED108A22E9D9
:1022F000F04F0A600068B0E8F04F1EF0100F08BF02
:10230000B0EC108A80F3098870470000900D00201F
:10231000024B4FF080525A60704700BF00ED00E062
:1023200030BF62B6BFF36F8F72B6704708B502490F
:102330000620FFF709FF00BF277E010008B502490C
:102340000720FFF701FF00BF337E010008B50249F7
:102350000520FFF7F9FE00BF467E010008B50249DF
:102360000820FFF7F1FE00BF597E010008B50249C1
:102370000920FFF7E9FE00BF6B7E010008B50249A6
:102380000A20FFF7E1FE00BF7F7E010008B5024989
:102390000B20FFF7D9FE00BF917E01007047704708
:1023A000134A08B5D2F8883043F47003C2F8883075
:1023B000FFF7F4FF0F4B104A10498B4210D3104B1C
:1023C000104A0021934210D3FFF7E9FF00F04EF8C6
:1023D000FEF7A2FF13F0FAFBBDE80840FFF792BE3C
:1023E00052F8040B43F8040BE7E743F8041BE9E752
:1023F00000ED00E000020020B4B501001805002047
:1024000018050020605D0020BFF34F8F0549064B83
:10241000CA6802F4E0621343CB60BFF34F8F00BF82
:10242000FDE700BF00ED00E00400FA050C4B1B784F
:10243000062B12D10B4B186810F00F000DD104338E
:102440001B6803F0F003302B08D1074B1B6813F017
:10245000F00F0CBF0120002070470020704700BF24
:10246000E00F00F0E40F00F0EC0F00F008B5FFF70C
:10247000DDFF20B1114AD36823F08073D360FFF7EA
:10248000D5FF10B10E4B03221A60FFF7CFFF30B11A
:102490004FF080430022C3F80C21C3F8102100F054
:1024A00059F8084B0122C3F84025FFF79FFEFFF7BC
:1024B00043FEBDE808400EF0A9B800BFF0ED00E013
:1024C000A005004000E00140044B1B682BB1044B09
:1024D0004FF080525A60BFF36F8F7047940D002009
:1024E00000ED00E008B5044A044B10681B689847EB
:1024F000BDE80840FFF7E8BF741400206414002012
:1025000008B5044A044B50685B689847BDE808402A
:10251000FFF7DABF741400206414002008B5044AE1
:10252000044B90689B689847BDE80840FFF7CCBF14
:10253000741400206414002008B5044A044BD068C9
:10254000DB689847BDE80840FFF7BEBF7414002061
:102550006414002070470000EFF3108172B6094B3D
:102560001A680132012A1A6009D14FF08043002015
:10257000C3F800011A60D3F80021002AFBD081F3D0
:102580001088704784140020EFF3108172B6064A59
:102590001368013B13601BB94FF0804301225A605E
:1025A00081F31088704700BF84140020114A11780D
:1025B00038B5F1B94FF080431C46C3F81815C3F87D
:1025C000041101219960D4F80431002BFBD00125BE
:1025D0001570FFF7C1FF0023C4F80C314FF08042A3
:1025E0002561D2F80C31002BFBD0BDE83840FFF755
:1025F000CBBF38BD881400200CF051B8D0E90230B0
:102600001847000070B50E461546002110220446FA
:1026100013F088FC024BE560C4E9013670BD00BFD1
:10262000FD250000036802463BB11868834219BFCC
:1026300002681A6000231360704718467047EFF372
:10264000108272B60B6833B903685BB11B680B600C
:10265000036819600160406882F3108820B101218D
:10266000FFF718BD0960F5E7704708B5EFF3108173
:1026700072B6FFF7D7FF81F3108808B1002303601B
:1026800008BD70B505460E46EFF3108172B6002402
:10269000B44207D1002081F3108858B90120FFF718
:1026A000E9FCF1E705EBC400FFF7BCFF0028F2D11D
:1026B0000134EDE70023036070BDD0E90501FFF7A9
:1026C000BEBF000001600349C0E90523C0E9031053
:1026D000704700BFBB2600000A46011D006812F0CB
:1026E0005FBD0146006810B1043112F03DBD704776
:1026F00038B58569044685B10A4B186843690133CA
:102700000CD012F0F8FC23696A68C11A8A4226BF0D
:102710009B181B1A00236B60206138BD83685B68BF
:102720009847F0E780B301008369084A10B5044672
:1027300010682BB15A68214612F032FD206110BD9D
:102740002146BDE8104012F00FBD00BF80B301006C
:102750008369002210B504465A60A06930B143680D
:1027600023B90368A36163699847F6E72046BDE88B
:102770001040FFF7D9BF000070B505460C46EFF3D7
:10278000108672B6FFF7B4FF05F118031A68EAB9AC
:1027900022601A681AB151686068091A51601C6099
:1027A000AB69A34206D10D4B62681868294612F046
:1027B000F7FC286186F31088094B1B682BB1094B85
:1027C0004FF080525A60BFF36F8F70BD61685068E0
:1027D0008142DDD3091A61601346D7E780B3010057
:1027E000940D002000ED00E070B504460D46EFF3B7
:1027F000108672B6FFF77CFFA26904F118012AB9AE
:102800002046FFF791FF86F3108870BD954213684C
:1028100002D011461A46F2E70B60002BF0D05A683E
:1028200069680A445A60EBE7034B4161C0E9023032
:1028300000238361704700BF5127000058B103781F
:1028400043B1013810F8013F0BB901207047303B0C
:10285000092BF7D90020704738B1054B0A0901F060
:102860000F019A5C5B5C027043700220704700BFEE
:102870009F7E0100F8B50D465700064610B18C1832
:10288000A54201D13846F8BD304615F8011BFFF7C7
:10289000E3FF0644F4E7F8B50E465700054610B1CD
:1028A0008C18B44201D13846F8BD284614F8011DF1
:1028B000FFF7D2FF0544F4E703461A4601331178C7
:1028C0000029FAD1101A704707B5042201910DEBC7
:1028D0000201FFF7E0FF03B05DF804FB0E4B9942E5
:1028E00030B517D80A2301221C468B420FD960B19C
:1028F00083180A25B1FBF5F405FB1410303003F8FA
:10290000010D084609282146F4D8104630BD63431E
:102910000132EAE70A22EAE7FFC99A3BFFF7DEBF86
:1029200010B5014400220A24884201D1104610BD8E
:1029300010F8013B303B092BF8D804FB0232F3E7D7
:1029400013B5074B01911B680446986812F0D4FF39
:102950000199204602B0BDE8104012F0F7B900BF5F
:10296000B004002007B5014601A8FFF775FF02215A
:1029700001A8FFF7E5FF03B05DF804FB07B50146CA
:102980006846FFF7A1FF08216846FFF7D9FF03B0AB
:102990005DF804FB10B50446FFF78EFF01462046A4
:1029A000BDE81040FFF7CCBF90B1D9B1002340EA99
:1029B0000102D2070ED5C20710D5CA0710D5814231
:1029C0003EBF024608461146091AF6D100FA03F145
:1029D00008467047400849080133E8E74008EAE73D
:1029E0004908EAE70146F3E72DE9F0470D4680463E
:1029F000114628461446FFF7D7FF854241D3B4FB62
:102A0000F0F2B5FBF0F04FF0004EB0FA80FC002180
:102A1000CCF120072EFA0CFE0E46002400250023E0
:102A2000CCF15F0C14EB040A45EB050910EA0E0F1C
:102A300054464D464FEA460603D04AF0010A544632
:102A40004D469D4208BF94424FEA5E0E12D3A41A2F
:102A500065EB030546F00106002E0EDA54EA050385
:102A600000D00136C7F12007C8F8006088F804706C
:102A7000BDE8F087002EEFD1013F01316145D1D390
:102A8000ECE700273E46EDE70C4A10B5D2F83C4192
:102A9000002303601CB1D2F84441A14207D0D2F810
:102AA000603153B1D2F86831994206D10123242113
:102AB00001FB032303F59E73036010BD1802002081
:102AC000F8B5054616460C4619B10168641A24117A
:102AD00001346B68A34201D800200AE0286831461F
:102AE00000EB041027010BF077FE0028F0D12868D6
:102AF0003844F8BDF0B593B015462F230093064631
:102B00000C46402302AA0B2128460BF094FF002814
:102B10001BDD2B685D7805F01F056B1E01259D40B0
:102B20000023ADB223600227216802AA3046FFF7D6
:102B3000C7FF206010B9384613B0F0BD83881D422E
:102B40004FF00107F0D00027F5E70227F3E7000078
:102B500070B5164CA36805460E4683B1E368013391
:102B60000BD104F110035B88B34208D11048294609
:102B700010F05EFE18B1002014E02369F3E7236F24
:102B80000BB9002070BD636F013314BFA36F094BF5
:102B90005B88B342F5D10848294610F049FE002869
:102BA000EFD0682008302044ECE700BF1802002076
:102BB00034020020900200209C0200201FB5144621
:102BC0001A460378012B0AD10023CDE90131406870
:102BD000069B039401A90AF0DBFB04B010BD4FF083
:102BE000FF30FAE70A4B10B5044618684369013311
:102BF0000AD012F080FA20F07F426265204606215A
:102C0000BDE810400CF075B883685B689847F2E740
:102C100080B301002DE9F0411C46064600680D46D0
:102C2000904613F0EDFD238903F0010383F00104C6
:102C30000234074604449DB1444516D89BB92C2361
:102C40002B7001233C22EA5403F1010831683A4613
:102C500005EB080013F064F8E8193E2300F808308B
:102C60002046BDE8F0810023ECE74FF0FF30F8E7A5
:102C70001FB54268002A034611DB82687AB11068EA
:102C8000516801AC03C490680021117001AA044688
:102C900003CA4FF0FF329860D9601C615A6004B0DB
:102CA00010BD10B50368013B012B96B0044612D845
:102CB00004230360C36A4BB14268013214BF8268C7
:102CC00000F1080200926946002298472046FFF76B
:102CD000CFFF0023236016B010BD43685A1C012AA1
:102CE00013B5044605D8204602B0BDE81040FFF7F2
:102CF000D8BF013B436040F6B831C3F104034FF441
:102D0000FA60994098400DF00FFD014604F134003F
:102D1000FFF7E2FC2368022B0BD000230093D4E9D9
:102D2000021204F1140304F16000FFF747FF0028CA
:102D3000D9DD02B010BD00002DE9F041104CD4F8EF
:102D40000C51002306460F460360A04635B104F53A
:102D5000867010F06DFD4FF0FF3560B9D8F8243162
:102D600063B10848394610F063FD08B1054C346082
:102D70002846BDE8F08104F58674F8E70125F7E7F9
:102D8000180200203C03002010B586B0102200215C
:102D900001A813F0C7F804230093104B05930023F8
:102DA0000F481A4669460AF0F7F9002810DB0D4B68
:102DB0000D4C1A680A480023C4E9003221460B4A28
:102DC00010F082FC01212046FFF75BFC034610B99E
:102DD000002006B010BD5B689847F3E7000033168B
:102DE0006C190020900D0020641900205133000060
:102DF000F8B5254CA36806460F461546DBB1E368D7
:102E000001331CD104F110010B7803F00F039D4234
:102E100011D12A460431384612F052FF58B91B48E6
:102E2000314610F005FD68BBE369042B03D194F82B
:102E30002030FF2B26D0236F1BB90020F8BD21695D
:102E4000E2E7636F013314BFA16F11490B7803F000
:102E50000F03AB42F1D12A460431384612F030FF5D
:102E60000028EAD10B48314610F0E2FC08B10A48CC
:102E7000E4E7D4F88430042BDFD194F88830FF2BBA
:102E8000F5D0DAE70548D9E718020020340200201F
:102E9000900200209C0200208802002020020020D6
:102EA0002DE9F041104CD4F8DC50002306460F46C3
:102EB0000360A04635B104F1DC0010F0B9FC4FF01E
:102EC000FF3560B9D8F8F4305BB10848394610F0E6
:102ED000AFFC08B1054C34602846BDE8F081DC3415
:102EE000F9E70125F8E700BF180200200C030020D5
:102EF0002DE9F74F98460023CDE9003306461446E6
:102F0000036011B16846FFF7CBFF1CB1214601A851
:102F1000FFF712FF214CDDE900AB00254FF0FF3930
:102F20002346D4F83C2122B9A9462434B5B9012559
:102F3000F7E7524502D0BAF1000FF6D1D4F840219C
:102F40005A4502D0BBF1000FEFD1B8F1000F09D103
:102F5000242707FB053505F59E753560484603B007
:102F6000BDE8F08FD8F80010D4F85421087800F0AC
:102F70000F008242D9D1002AD7D02423043104F58E
:102F8000A47003FB05F712F09BFE044B0028CCD184
:102F900007F59E773B443360E0E700BF180200204E
:102FA0007FB51B4EB6F9004074BB1A4B1A481B4D37
:102FB000CDE901431A4B0093062223464FF48B615F
:102FC000FEF7A4FF30802846D022214640F8084B67
:102FD00012F0A8FF3022214605F1DC0012F0A2FF1A
:102FE0004822214605F59E7012F09CFF8022214662
:102FF00005F5C27012F096FF0DF072FBC5F8D8000F
:10300000B6F9000004B070BD6FF01000FAE700BF21
:1030100062190020AF7E010009150020180200206F
:10302000892D0000064BBFF35B8F53E8000F421C55
:1030300043E800210029F8D1BFF35B8F80B27047CD
:10304000F0020020064B5A685860C36802610BB951
:10305000044BC36043690BB9034B4361704700BF26
:1030600018020020152C0000F52A00002DE9FF476A
:103070000160DDE90C8905460E4617461C46FFF740
:10308000D1FF824644B30DF02BFBCDE9004AADF8E9
:103090000C00022303AA012128680BF0FCFC3A462D
:1030A00004460346314628460BF051FD002C0EDD48
:1030B000B8F1000F0BD0B9F1000F08D02F23009307
:1030C00042464B460B2128460BF0B4FD044604EA69
:1030D000E47004B0BDE8F087CDE900402346224605
:1030E0002146D9E72DE9F04F8FB0047802930023F1
:1030F00005939DF86830189D012B804689469246BD
:10310000C4F301144AD801238DF81430714B06938F
:10311000039315B9002C40F0D3806F4E0121304647
:10312000FEF7B8FDB76833463FB1326F22B1304683
:10313000FEF7E4FD002533E0012768267E439A1957
:10314000022191601999916306F11C0155630B44AA
:1031500052460AF1180C106851681D4603C5083222
:1031600062452B46F7D105A95B4A682503C907FBD1
:103170000553134483E8030093467D4334B1012C87
:1031800000F08C8015440024AC602AE0B9F1800F77
:103190000AD915441046AC60FEF7B0FD6FF0150576
:1031A00028460FB0BDE8F08F154492F884212C61B9
:1031B000002A6DD10BF5C2704A462861414612F0D3
:1031C000AFFD2A69C5F81490002A61D00422EA6094
:1031D00040F6B8314FF4FA600DF0A6FA0122044629
:1031E000AA603D48FEF78AFD682202FB07B7BA686D
:1031F000002A9FD008365E4401238DF81430039BCB
:103200000693B6B106F13405002C5CD006F15003EC
:103210001846324903933246FFF7F4F93049039BCD
:103220000968304A2846FFF74DFA21462846FFF73D
:1032300053FA07AD1C220021284612F073FE029BB0
:103240006BB12F4603F1180C186859683A4603C24F
:10325000083363451746F7D108238DF834300095BD
:1032600053464A46414605A8FFF7A8FC051E97DCD1
:103270004EB13046FFF7FCFC1CB106F13400FFF7FD
:1032800030FA0023336015F1800F7FF453AF87E7E6
:10329000682202FB07B200219160A2E715444FF0BB
:1032A000FF32EA60D8F80000D8F8041006F11002E6
:1032B0005A4403C2D8F80800106041F2883490E7FD
:1032C0002C462E4698E71C222146284612F02AFE5C
:1032D000AFE700BF6C19002018020020DB2C0000B3
:1032E00080B3010064190020F7B50F460024194689
:1032F0001646134600943A4605460BF0E2FB0028BA
:103300000CDD361AAE816E6DEC8107446F6046B9F4
:103310002846FFF767FC304603B0F0BD4FF0FF30A2
:10332000FAE72046F8E7000010B50B46802207496F
:103330000446FFF7D9FF014620B92046BDE81040FA
:103340000BF0E6BC4FF0FF3010BD00BF8914002029
:103350002DE9F043C906B9B0814640F1AB800025A4
:103360000DF150081C22294640460395994C12F055
:10337000D9FD01238DF868302F460EAB0093CDF8B0
:103380000480002303AA02A9484609F06FFF061E25
:10339000C0F290800ED07319802B88BFC5F18006D3
:1033A00004EB05000299324688BF0127354412F02C
:1033B000B7FCE2E7C446BCE80F001BAC0FC408230F
:1033C0009CE803008DF88430149B042B84E80300F0
:1033D0001BAC04D19DF85400FF2808BF34460123DC
:1033E0007C498DF820302A4622A8CDF824900BF095
:1033F0007BFA00285EDB229A1378C3F30113032BB8
:103400004DD151880EA8FFF7A3FB054628B13430F3
:10341000FFF767F92846FFF744FC229B0EA906A890
:103420005D88FFF73DFD0698002838D06A4A69BAE2
:10343000D2F83C51002389B207932DB1854203D1C4
:10344000B2F850518D4209D0D2F8603163B1984240
:103450000AD1B2F874318B4206D10123242101FB39
:10346000032303F59E730793079AC2B100231360E9
:10347000194652680A930AA8FFF73AFD0A9B079A71
:103480000BB951680B6000235360069907931A46E5
:1034900007A8FFF72DFD079B0BB9069A1360229929
:1034A0004A784FEA5219B9F1020F0AD005D8B9F19A
:1034B000000F3CD039B0BDE8F083A9F10403012B23
:1034C000F8D811F8042B0EA802F00F02FFF790FCB9
:1034D000229B05461B78002800F06E8113F0300F08
:1034E000C3F3011200F06681032AE3D04FF0FF36E8
:1034F000AB6C1BB105F13400FFF7F3F8002F14BFDC
:10350000062303232B60EB6A379F1BB10EAA22A967
:10351000284698472846FFF7ABFB013702D0B9F1A0
:10352000020F01D000232B60731C07D1C2E70B7878
:103530001B116ABB13F0030513D10326229A1378DB
:1035400023F0300343EA06131370229B00225A70C3
:10355000229A137823F00F03137000940EAB042209
:1035600023E1022DA6D149880EA8FFF7F1FA0446FF
:1035700000289FD0436801339CD0C36A0560002BAC
:1035800098D13430FFF7ADF82046FFF78AFB91E77A
:103590009A078FD437B18D2122A8FFF7C5FE0028E6
:1035A00088D0FFE00C4BCDE90477CDE906775D6864
:1035B00002269946B5B16B690A9722AA0AA928463C
:1035C0009847022801D12D69F4E7012806D12D6919
:1035D0000646EFE78914002018020020002847D192
:1035E0000A9D0646012E46D0022E46D0002E3DD121
:1035F000294607A8FFF748FA379B002B40F09F8029
:1036000022AB32460EA906A8FFF772FC079B0746BD
:10361000002B40D0069A002A31D0934203D0069660
:103620004FF0FF333793069B8BB1229F9D603A7812
:10363000DDE9080102F00F0203F11C069A6186E839
:10364000030022B1391D03F10C0012F069FB0EAB2F
:10365000CDE90B349DF820300A950D93AD685B4998
:103660000AAB802222A8A847002898DAA02193E775
:1036700000250320B5E785218EE784218CE79DF89E
:1036800020101A7F914209D119680EA810F0D0F8C5
:1036900008B1079B0693069B002BC4D1379B0133CF
:1036A000C1D0002FBCDB079B002BB9D10EA904A809
:1036B000FFF7F6FB049B33B90028A1BF182303FBD7
:1036C0000090DC300490214605A8FFF735FB059BF0
:1036D0003BB90028A1BF182303FB009000F58670BA
:1036E0000590049B33B3059A22B30EAE324603CA4B
:1036F000424518605960164603F10803F6D1059A51
:10370000264604F1180C334603CB63451060516024
:103710001E4602F10802F6D12420474307F59E73A6
:103720004B44B9440693059BC9F84031049BC9F842
:103730003C3178E7069B002B7FF475AF70E7012BD7
:103740002BD122AB32460EA906A8FFF7D1FB069B70
:10375000FBB11E60324633460EA90AA80A96FFF74F
:10376000C7FB0A9B33B90EA904A8FFF799FB049B7A
:1037700003B11E60069A002352680A9319460AA8EC
:10378000FFF7B6FB0A9A069B0AB959680A6000223D
:103790005A604FF0FF33379359E701333FF457AF87
:1037A0004FF0FF3000940EAB0246084908A8FFF71F
:1037B00005FA7FE602269BE613F0300F3FF4BDAE1C
:1037C000379B01337FF4B9AE74E600BF8914002043
:1037D0002DE9F043194B85B05C6801920123002567
:1037E00006460F46ADF80C30A8461CB9284605B071
:1037F000BDE8F083E3682BB1CDF80880029B6268D6
:10380000934201D32469F0E72068D4F80C9000EBD0
:10381000031001AB7EB17A1B7119C8470028F1DD96
:10382000BDF80C3023F00103ADF80C30029B0133DE
:1038300005440293E2E732463146EEE718020020E3
:10384000F7B504461E464523FFF74EFD28220C21FE
:1038500020460BF04EFA012120460BF059FAA189BF
:1038600067680191054630460BF068FA0199C3B2CA
:1038700028223846FFF7ACFF284403B0F0BDF8B566
:10388000048906460F46154600200DB1AE4218D1F8
:103890003289716800230AF063FB04F13A030344A0
:1038A000B3F5803F24BF013080B2396820443A30FC
:1038B00000232022083180B20AF052FBC04380B2BC
:1038C000F8BD23462A8969680AF04AFBAB682D686F
:1038D0001C44A4B2D9E72DE9F0410D4680460321EE
:1038E000284605F059FD0446022105F055FDA36860
:1038F000032B064605D828460021BDE8F04105F017
:1039000053BD011D2A4620466768FFF7B8FF00280F
:10391000F1D13B78892B0ED8842B10D8802B15D071
:1039200039782B4640F20122032004F0C9F900281F
:10393000E1D0BDE8F0816333DBB2012BF0D8A3689E
:1039400071683A46404602F041FEE9E72389716812
:103950003A46404600F052F8E2E738B50D461446C4
:1039600000211A46032305F065FE28B143680022B2
:103970001D705C709A70DA7038BD10B5044668B17D
:1039800090F91030032B0CD102680431FFF777FF58
:1039900050B1626843BA5380002010BD6FF00D0033
:1039A000FBE76FF04C00F8E76FF00100F5E74269C4
:1039B000013201D011F09FBB83685B6818472DE985
:1039C000F041DDF81880154600220E461F460146DC
:1039D00008F108031046FFF7C0FF044650B14068E5
:1039E00076BA6DBA8680C58027B14246394608301E
:1039F00012F096F92046BDE8F081000073B5064646
:103A00000C46002A3ED0072B3CD99188D088083B31
:103A100040BA49BA009389B202F1080382B2812008
:103A2000FFF7CDFF054668B3237EFF2B04F10802A4
:103A300014BF04F11801002100F00BFE044610B978
:103A40000146284609E000231A461946184605F0A3
:103A500032F9054630B90146204602B0BDE8704053
:103A600005F0A2BC43680EB1B6F9FA615E80064962
:103A70002C602B4640F20222022004F021F901467C
:103A80000028DED002B070BD0000FFFFF7B5099D31
:103A90000C4611461A464FF6FB739D4207464AD81C
:103AA000009500238020FFF78AFF002846D0224699
:103AB0000021466800F0CDFD044620B9214812F0EF
:103AC00007FC00252EE043689DF82020DA7167B1DD
:103AD00000231A461946184605F0EDF840B343682E
:103AE000B7F9FA215A8004600446174B1868FFF7AB
:103AF0005EFF032D89BFB0600836043D0C360023FD
:103B00009D42DAB211D11149234640F2022202202D
:103B100004F0D6F80028D4D16FF008050021204623
:103B200005F042FC284603B0F0BDF2540133E7E74C
:103B30006FF00B05F2E76FF01505F3E76FF00B057B
:103B4000F0E700BFC87E010084B301000000FFFF62
:103B50002DE9F0479846224B0646186817460D4651
:103B6000FFF725FF02218146304605F015FC0321B1
:103B70008246304605F010FC0446BAF1000F2AD008
:103B800048B3DAF80400083003F02DFC6468032D14
:103B900004F1080C1CD9A268043DA9EB02020C3404
:103BA00025442146E043A94202D14FF0FF3109E00C
:103BB00001310B1811F8014CDBB29C42F3D0A1EBA0
:103BC0000C01013943463046BC46BDE8F04760472A
:103BD00064460022E4E76FF01500BDE8F08700BFFF
:103BE00084B30100F8B50D460221164605F0D4FB5A
:103BF00047680C490446102207F1080012F060F8EB
:103C000070B13B7AFF2B0BD03B7EFF2B06D1022DF0
:103C100004D0042D04D1022E18BF00242046F8BD84
:103C20000024FBE7B483010070B54FF0FF31054677
:103C300005F0B2FB0024064685B9303466B17368DE
:103C4000B3F9020004F04DFAB268B0F82A31A41AB0
:103C5000283B9C4228BF1C46204670BDAB682D689F
:103C60001C44E9E710B50B4608241B6833B193F9EF
:103C70001020013202D09A681444F6E78268A2420A
:103C800009D98B6840684968121B9A4228BF1A46B6
:103C9000204412F045F8204610BDF8B50546104600
:103CA0000F4614461E46FFF7BFFF294603463A4615
:103CB0000020FFF752FE0546F8B1436836BA5E6051
:103CC00094F910305A1C12D0022B05D123687BB115
:103CD00093F9103001330BD17CB194F910300133DA
:103CE0000BD021462846FFF7BDFF2468F4E724687F
:103CF000082614B1AA68B24201D82846F8BDA368C4
:103D000068686168921B9A4228BF1A46304412F0D4
:103D100007F8A36824681E44EBE7000070B514465A
:103D2000064608464FF0FF3105F036FB226805468F
:103D300008320021304600F08CFC044628B90146C8
:103D40003046BDE8704005F02FBBB5B16B68B3F9E4
:103D5000020004F0C6F90023194605461A46184623
:103D600004F0A9FF014608B92046EAE743680DB10F
:103D7000B5F9FA515D800C600C460549234640F2C6
:103D80000222022003F09CFF01460028ECD070BD07
:103D90000000FFFF70B50C46024606460121204692
:103DA000FFF720FF054660B100232246314601207F
:103DB000FFF773FF28B12A1D2146BDE87040FFF7C9
:103DC000ADBF70BD37B50C460190002202212046E0
:103DD000FFF708FF054668B1019B2246002102203B
:103DE000FFF75BFF30B12A1D214603B0BDE830402C
:103DF000FFF794BF03B030BD70B50C4602460646CF
:103E000003212046FFF7EEFE054660B1002322465F
:103E100031460320FFF741FF28B12A1D2146BDE8A6
:103E20007040FFF77BBF70BD2DE9F0471646044692
:103E300002460F4630460421FFF7D4FE804688B381
:103E40003046FFF7F1FE2246034604210020FFF72B
:103E500084FD054630B3D0F804A034464FF0000985
:103E60005CB999FA89F3CAF8043008F104023146C2
:103E70002846BDE8F047FFF751BF94F910300133F1
:103E8000EFD021462846FFF7EDFED4E901329F42EC
:103E900006D31A4497423EBFFB1A083B03EB0009C6
:103EA0002468DDE7BDE8F087002105F07DBA000059
:103EB00008B50449102211F003FFB0FA80F0400960
:103EC00008BD00BF9483010010B50A4908220446CA
:103ED00011F0F6FE48B12378FF2B08D1607800F08E
:103EE0000F00831E5842584110BD0120FCE70020FE
:103EF000FAE700BF8483010038B50D460446D1E9D6
:103F0000003188B1B0F9FA214A80002273B9B4F8BF
:103F10002A0190420ED22946FFF754FF28467A2103
:103F2000BDE8384005F040BA0246EDE799681B68E5
:103F30000A44EBE7EFF3108172B6D4F8AC200132FB
:103F4000C4F8AC202A68BAB9D4F8B4201344C4F831
:103F5000B43081F31088204604F0A6F880B10D49F2
:103F60002B4640F20222012003F0AAFE88B928461F
:103F7000BDE83840FFF798BF906812680344E2E755
:103F8000B4F9FA0140F20222294603F08EFE00281D
:103F9000EDDD38BD0000FFFF2DE9F8430E46D1E905
:103FA000001405460A4600232ABB5BBAA380A37906
:103FB000FF2B02D119BB3B23A371E37913B94DBB8E
:103FC0004023E37104F108073F491022384611F0FD
:103FD00077FE04F11809804678BB4846FFF768FF72
:103FE0000246D0B110224146384611F09BFF012312
:103FF000E375344650E0906812680344D4E70B7CC4
:10400000023BDBB2022BD6D8304AD35CA371FF2B24
:10401000D3D1D0E795F8F831D3E74946284604F0E4
:104020000DFA0028E5D0034600F1100253F8041BF6
:1040300047F8041B9342F9D1DBE7284604F05CF80B
:104040004846FFF735FF98B10024284604F05BF896
:10405000002CCED00321304605F09EF928B14368EC
:104060001B7803F0FD03852BC3D06FF07C0023E0A9
:104070003946284604F0C1F90028E5DB284490F8C9
:10408000304004F01F04103C18BF0124DDE705F0A8
:10409000EFFA98B12060044694F91030022B02D157
:1040A00020680028F3D13146204605F064F9002845
:1040B00007DA831C08BF0020BDE8F8836FF00B000F
:1040C000FAE70020F8E700BFB4830100E77E0100B3
:1040D00010B50C46FFF760FF002804DA2046FFF712
:1040E000E3FE002010BD0120FCE7002370B505466B
:1040F0000C4642F0400619461A46184604F0DBFD0D
:10410000014620B92846BDE87040FFF7CDBE4368A0
:104110001E710560EFF3108272B6D4F8A830013337
:10412000C4F8A83082F310882046BDE87040FFF73D
:10413000E3BE00002DE9F04390F91030013389B05F
:10414000064688461FD14468B4F9020003F0C9FF4F
:1041500005463046277905F08BFA07F03F07014600
:1041600018B93046FFF7A0FE0AE005F063F90646ED
:1041700096F91030022B09D01621304605F014F9BB
:1041800009B0BDE8F08300273D46F1E77068594962
:104190001022183011F094FD0028EDD0304605F0C3
:1041A00067FA04460028DCD04668337EFF2B2AD10C
:1041B000002D40F08F8003F087FF002840F08580BD
:1041C0002046CFE726463A4629463046FFF78DFF80
:1041D000284603F077FF05460028D1D0B8F1000F3C
:1041E000F0D0204605F044FA06460028E8D0014603
:1041F0002846FFF7D1FE0028E5DAB442E0D0304689
:10420000FFF752FEDCE71836304604F0F7F9854236
:10421000814606D03046FFF757FE002818BF4FF002
:1042200000093046FFF744FE10B9B9F1000F18D06D
:10423000B8F1000F0ED1204605F0D8F80028BFD104
:104240002D49234640F20122022003F039FD0028C7
:1042500096D1B5E721464846FFF73AFF00288FD0B0
:10426000E9E701AB22462946304602F0BCF80028B7
:1042700086DBBDF81C00C0F3041003F032FF0546D6
:10428000B8F1000F1AD1002108469DF81E3005AA8A
:1042900004F011FD0146002892D043681F710460AC
:1042A000EFF3108272B6D5F8A4300133C5F8A4300C
:1042B00082F310882846FFF71FFE61E72146FFF7CB
:1042C00007FF00283FF45CAFDDE7411E204605F004
:1042D0002BF97DE7B8F1000F06D021462846FFF7FD
:1042E000F7FE00283FF44CAF3A4629462046FFF738
:1042F000FCFE45E7B48301000000FFFF2DE9804884
:10430000102289B00DEB0200002111F00BFEBB4B17
:10431000BB4C1B88BB48ADF81C3008210594FDF749
:10432000ADFC04A9022004F0A7FF40F20523ADF87C
:104330000A3040F2022AA14640F201246846FDF705
:1043400090FCBDF80210B1F5017F09D8514500F28B
:104350004081A1423CD05145F0D101980121F1E0CA
:10436000A1F59F43403B9AB2152AE7D8152BE5D813
:1043700001A252F823F000BFE3450000E34500002E
:10438000E3450000E34500003D430000E345000035
:10439000E3450000E3450000E3450000E34500007D
:1043A0003D430000E3450000E3450000E345000015
:1043B000E3450000E34500003D430000E345000005
:1043C000E34500003D430000EB450000F3450000DD
:1043D000019E4FF0FF31304604F0DEFF804660B3AF
:1043E0004368B3F9020003F07CFE0546EFF310804A
:1043F00072B6D5F8B8300133C5F8B830324600216E
:10440000BAB9D5F8BC30D8F808209B1A0B44C5F8C7
:10441000BC3080F3108873683BB1B268272A04D996
:104420001B7803F0F003602B09D03046FFF73CFD0A
:1044300082E7936812681944E2E70546EBE73046E5
:1044400005F016F904460028EFD00222282105F0D5
:1044500031F90023237408B92046E7E74768FB7960
:104460002BB921461846FFF7C7FC742145E0B988EF
:10447000BE7949BA89B209B93B2EEDD18442A3680D
:1044800028D08B42204625D905F082F907F1180B78
:104490005846FFF70DFD002859D15846FFF714FD87
:1044A00000B175BB584604F0A9F80546B0FA80F093
:1044B000400900284BD007F10800FFF705FD20BB9D
:1044C0005846FFF701FD50B33B7EFF2BC4D0214679
:1044D000032021E0002283681A4490F91030022B57
:1044E00002D000680028F6D1283A8A42CED2391D7F
:1044F00022460020FFF798FC1621204604F054FFC6
:104500001AE7584604F07AF8D0E75846FFF7DCFC83
:104510000028D9D121460220FFF73CFC9CE7FB791B
:10452000013BDBB2FB7183B1B8F1000F03D0414610
:10453000204604F07FFF204604F095FF00283FF45A
:10454000FBAE0021FFF7F6FDF6E621468BE7292EAC
:1045500039D03A2E39D0112E0CBF042300232374F6
:104560003146022004F0EFFE002801DC3A2E2ED165
:104570000121204604F0D8FF012794F910002346BA
:1045800040F20122494603F09BFB10B92046FFF799
:104590008BFC87B13A2E03D10121204604F0C4FFE1
:1045A000234640F201223146022003F089FB10B974
:1045B0002046FFF779FC3A2E7FF4BEAE214628460E
:1045C000FFF789F9B8E60223C9E70323C7E7002705
:1045D000D3E76FF0850302A968460393FDF71CFB40
:1045E000AAE6019802F06CFCA6E6019801F028FE0C
:1045F000A2E60198002101F083FE9DE68C0D0020CB
:104600000000FFFF341A00201FB50A4CB4F9003037
:104610005BB9094A0948CDE90132094A00924FF4D1
:1046200070710422FDF772FC2080B4F9000004B020
:1046300010BD00BF341E0020E27E0100741A00206D
:10464000FD42000008B5022104F0A6FE00B140685A
:1046500008BDF8B50C46174602232822002104F0B5
:10466000E9FF064600B3456805F10800F4B12146AC
:10467000034604F1100251F8040B43F8040B914275
:10468000F9D105F11800B7B13A46034607F1100118
:1046900052F8040B43F8040B8A42F9D160232B60D3
:1046A000FF23AB710023EB713046F8BD1022214689
:1046B00011F038FCE5E71022394611F033FC0123F4
:1046C00085F82730EAE7000070B5044615460E4627
:1046D00009B9002070BDD1F82C31DB04F9D5174998
:1046E000082211F0EDFA38B12378FF2BF1D163786D
:1046F00003F00F03022BECD196F8F90105F110023B
:1047000004F1080109F0E9FE10F0FF00E1D0A876FD
:104710002B4604F1100254F8041B43F8041B944286
:10472000F9D1B6F9FA311B0103F4F87343F480634D
:1047300043F006032B830120CCE700BF84830100F4
:104740002DE9F341064603F059FF0446002857D0EF
:1047500003F0D2FCB4F9FA11002000F053FF054633
:10476000C8B1006800F0DEFCA8B12B68043318461D
:104770003246214600F05CFA3146204603F03DFE09
:104780002118054691F8303003F01F02102A0ED18F
:104790004EF6602615E0002384F82731204602F00B
:1047A00045FB204602B0BDE8F04103F0ACBC03F08D
:1047B0000702013A012AF4D80133D4F8206181F8C4
:1047C0003030E91C0901104B1048B3F900808F1CF0
:1047D000C43121440191FEF707F804EB05100023D2
:1047E000C0E93D36274444F6CF73A0F8FE30C0F848
:1047F0000071A0F8FC8001990448FDF7BDFFD0E7E7
:1048000002B0BDE8F08100BF341E00207C200020F3
:104810002DE9F043D0F82C7117F4805F87B004467F
:104820000D461E4603D1042007B0BDE8F08393F87F
:1048300001E0BEF1020FF6D192F800C0BCF1880F82
:104840007AD1FF07EFD590F8482104AB00F5A071AD
:1048500004F0A6F90828E6D1DDE90423F168B06880
:104860008B4208BF8242DED1B378012B47D0022BA6
:104870004BD0002B41D105F118012046F78803F0F9
:10488000BCFD051ECFDB7FBABBB2012B04EB0502DA
:104890001CBF4EF660275F4392F830302D4823F05E
:1048A0001F0305F1030143F010034FEA011182F8E1
:1048B000303001F10208284B01F1C401214418BF36
:1048C000A7F56A47B3F90090039114BF603F47F220
:1048D0003057A044FDF788FF04EB05140023C4E91A
:1048E0003D3744F6CF7303991A48A4F8FE30C4F854
:1048F0000081A4F8FC90FDF73FFFB07894E705F144
:104900001801204603F0EBFFF7E7B4F9FA1105F1BF
:10491000080000F077FE00F03DFE002000F05CFE95
:1049200028B984F82701204602F080FAE5E705F16E
:104930001800FFF705FFE0E7BC077FF574AFBCF197
:10494000870F7FF470AF0F9C01940E9C009400F0D1
:1049500083F869E77C200020341E002073B543787B
:10496000032B054603D00024204602B070BD08305A
:1049700001F05AF804460028F5D06B88AA885BBA83
:1049800052BA9BB243EA0243EA8852BA92B242F266
:104990001071002A08BF0A464EF660255543026989
:1049A0009A4209D30361114B18684369013319D046
:1049B00010F0A1FB284460610D4B0E48B3F9006074
:1049C00004F118010191FDF70FFF0023C4E906353A
:1049D00044F6CB7301990748638464622684FDF72B
:1049E000CBFEC1E783685B689847E3E780B30100CB
:1049F000341E00207C20002073B516468A78487843
:104A0000402A8CBF03230223984222D1CC88CB7842
:104A100064BA03F00F05A4B2C3F300130093083186
:104A20002346284606F0DCFDE808ED4306F129029E
:104A300005F007050121A940135CC9B23CB923EA7E
:104A4000010111544EF66020604302B070BD19435D
:104A5000F7E74FF0FF30F8E72DE9F74F01F1080ACB
:104A6000074688469146454910225046DDE90CB577
:104A70001E4611F025F900287DD0BBF1000F7AD039
:104A80005DB195F86630DB0707D50822B11805F14E
:104A9000140011F015F9002864D1F488002C5CD0C2
:104AA0005B464A464146384600F0D2F9B7F9FA115A
:104AB000504600F0EFFB044600285AD000F11408DD
:104AC00006F1080508222946404611F0F9F828B1F8
:104AD000B4F8643003F4C063002B48D12B686361E1
:104AE0006B68C8F80430F588254B2648B3F9006098
:104AF00004F1540101916DBAFDF776FE0023636560
:104B0000ADB24EF660235D4344F6C973A4F85E303F
:104B100001991C48A5652466A4F85C60FDF72CFE8D
:104B2000B4F8643013F007030BD0062B09D01548F6
:104B300004F12401FDF758FE03222146384600F017
:104B40006DF9B4F8643023F4C06343F48063A4F8CF
:104B50006430002003B0BDE8F08F65B1284600F056
:104B6000EFFBF6E7B5F8643003F4C0631BB1012036
:104B7000F0E70220EEE70420ECE700BFB483010079
:104B8000341E00207C20002073B5069E0096002570
:104B900001951C46FFF73CFEC21ED2B2012A0AD97B
:104BA000E18849BA2B4604F1080289B202B0BDE897
:104BB000704008F035B9284602B070BD2DE9F041CB
:104BC0001F460B4B144605460E460A48B3F90080B3
:104BD0001146FDF709FE0023C4E900376681E56050
:104BE000A4F8088021460348BDE8F041FDF7C4BDA4
:104BF000341E00207C20002038B50446154699B1AB
:104C000090F868209A4205D01A4602311C3011F003
:104C100057F858B9B4F86410B5F90000C1F304119D
:104C2000081A18BF012038BD0846FCE70120FAE742
:104C3000F0B5074685B00C461546B1F9FA110020CB
:104C40001E4600F0DFFC4DB3D4F82C31DA0425D534
:104C500020B30068B4F9FA21B0F86430C3F3041348
:104C60009A421BD13146043009F0C0F9B0B1D4F8F2
:104C70002C31DB0710D594F8482102AB04F5A07164
:104C8000204603F08DFF082806D1002302AA0F2139
:104C9000184608F0C5F810B905B0F0BD0020009026
:104CA00033462A462146384602F044FEF4E770B502
:104CB0000446B0F86400C0F304100E4603F011FA85
:104CC000054603F019FA16B1002384F86730231D56
:104CD000184600222946FFF7ABFFD5F8203104F132
:104CE000240244F6C0712046FFF768FF284603F00F
:104CF0000AFA94F86730013384F8673070BD2DE903
:104D0000F043B0F8643013F0070585B004468846D8
:104D100066D06A1E012A66D8C3F3041003F0E1F9D5
:104D200044F6C1710646204600F076FF81463046C3
:104D300003F0E2F9D6F820714F454ED2B8F1000FDA
:104D400002D0002384F86730012D20D194F86780C9
:104D500040F2DC51A8F102084FF4FA700BF0E4FCC9
:104D60005FFA88F805FA08F5A5FB0723A2FB00897E
:104D700000FB03994FF47A7200234046494610F035
:104D800063FB4EF66023984228BF1846074640F260
:104D9000FF220023CDE900234FF080730293FF230D
:104DA0008DF80C30637C8DF80D30638AADF80E30D1
:104DB00000226B463146201DFFF73AFF3B4604F1C7
:104DC000240244F6C1712046FFF7F8FE94F86730DC
:104DD000122B9CBF013384F86730304603F093F9FF
:104DE00005B0BDE8F083FFF762FFF9E710B50446B0
:104DF000D0F8E80000EB500140080BF095FC04F1FE
:104E0000A402C4F8EC00044B204644F6CE71BDE881
:104E10001040FFF7D3BE00BF00DD6D00B1F8643075
:104E200023F00703134370B50446A1F864300D4620
:104E3000164603F061F934B1D4F8C0301BB13246E4
:104E4000291D032098472046BDE8704003F05BB958
:104E50002DE9F84301F108090546B0F9FA11484671
:104E60001746984600F016FA044628B190F86630C6
:104E700013F0010F08BF002495F8F901414609F02D
:104E80003BFB061E24DB002C48D094F86830B3426C
:104E900007D1324608F1020104F11C0010F010FFA6
:104EA00090B1D5F82C2141F20203934302D13B7813
:104EB000852B09D0234804F12401FDF795FC03223A
:104EC00021462846FFF7AAFF94F86630DB0701D495
:104ED000BDE8F8833B78862B19D1B4F8643043F0F1
:104EE0000803A4F86430D5F82C2141F2020393435F
:104EF00002D13B78852BEBD084F86860324608F10C
:104F0000020104F11C00BDE8F84310F009BF872B33
:104F1000E9D0B4F8643023F00803E2E7B5F9FA11F8
:104F20000322484600F04AFA04460028D0D03B78D5
:104F3000872BC9D1B4F8643023F00803A4F8643097
:104F4000C2E700BF7C200020B0F8642002F0070315
:104F5000022B10B504460BD0052B17D0012B06D120
:104F6000B4F8643013F4C06F0AD01B0708D410BD26
:104F700090F86730022B03D9BDE8104000F0E0B98B
:104F800020460021BDE81040FFF7B9BE90F8673019
:104F9000022BE5D9C2F3041003F0A3F80122214645
:104FA000FFF73CFFDCE738B50446B0F8640000F0DA
:104FB0000703042B12D0062B12D10325C0F30410D3
:104FC00003F08FF82A462146FFF728FF052D07D169
:104FD00020460121BDE83840FFF791BE0525EDE7E9
:104FE00038BD70B505460C460622FFF717FFD5F809
:104FF0001C3104F12402204644F6C771BDE870401C
:10500000FFF7DCBD2DE9F04706460C4617461D4666
:105010004BB190F8F901194609F06EFAB0F10008A9
:1050200002DABDE8F0879846B4F8649009F0070901
:10503000B9F1020F10D097F800A0BAF1880F02D191
:105040003B799A0608D4434606F5FD722946204668
:10505000FFF7D2FD00284FD0002D45D084F868809E
:105060004246A91C04F11C0010F05AFE3B78882B24
:1050700002D13B795B063AD4294804F12401FDF7BB
:10508000B3FB032221463046FFF7C8FE3B78882B4E
:10509000C7D13A7990063ED5B4F8643011065ABFAC
:1050A00023F008039BB243F00803A4F864305206CF
:1050B000B7D4B4F8643003F00703062BB1D14346EC
:1050C00006F5FD7229462046FFF796FD0028A8D078
:1050D00004F124011248FDF787FB214630460322E4
:1050E000BDE8F047FFF79ABE84F86850BEE7214656
:1050F0003046FFF776FFC9E7BAF1880F91D1B9F1D1
:10510000000F8ED03B795B068BD521463046BDE83B
:10511000F047FFF766BFB9F1020FC8D1BCE700BF87
:105120007C200020B0F8640000F00700013801285E
:1051300094BF002001207047CB08C943C25C01F036
:105140000701012303FA01F10A4214BF18460020A7
:10515000704730F9081FFCF70BBD000008B5044983
:10516000102210F0ADFDB0FA80F0400908BD00BF7C
:10517000B483010008B590F8661021B96C2210F0D4
:10518000D1FE012008BD0020FCE770B504461046A2
:105190000D461646FFF7EEFF4CB12046331D04F1D5
:1051A000100250F8041B43F8041B9042F9D1B6F8E2
:1051B00064302D0123F4F87305F4F8751D43A6F847
:1051C000645070BD064A13683BB11868834219BF2A
:1051D00002681A600023136070471846704700BFCA
:1051E0007820002001490248FDF71EBB5351000002
:1051F0007C2000200148FCF7E9BF00BF9820002078
:105200000148FCF7E6BF00BF982000202DE9F041DF
:10521000154C06460F4604F5D8780025B4F86430DE
:10522000C3F304139F420CD025B994F86630002BC9
:1052300008BF25466C34A045F0D155B92846BDE8D5
:10524000F081211D5EB90846FFF788FF0028EBD0EA
:1052500025462A4639463046FFF797FFEEE73046A7
:1052600008F0C4FEF2E700BFA020002028B16C3097
:10527000064B984203D3002070470548F8E790F8A2
:105280006620002AF8D16C30F3E700BF50220020DE
:10529000A02000202DE9F041114C06460D460027C4
:1052A00094F86630A0464BB90137042F04F16C0422
:1052B000F6D14FF000084046BDE8F081B4F8643004
:1052C00013F4F87FC3F3041202D00DB19542EBD171
:1052D0003146201D08F08AFE0028E5D0EBE700BF2C
:1052E000A020002073B50446B0F86400C0F3041099
:1052F00002F0F7FEB4F86430D0F81C610E4823F0D9
:10530000070343F00603A4F864300C4B04F12401B6
:10531000B3F900500191FDF767FA0023019906489F
:105320002463C4E9093644F6C773E385A58502B052
:10533000BDE87040FDF720BA7C200020341E00201C
:1053400010B590F8663023F0010380F8663004460B
:1053500000F134011748FDF747FA164804F124011B
:10536000FDF742FA134804F14401FDF73DFA04F158
:1053700054011048FDF738FA0F4A116821B10B6843
:105380009C4206D1FFF71EFF2046BDE81040FFF704
:10539000F1BE0B461B681868844202D09942F9D1CD
:1053A000F2E7002BF0D02168196011688C4208BF29
:1053B0001360E9E77C200020782000202DE9F84FD9
:1053C0000746884602F00706FFF720FF044600283C
:1053D0004CD1FFF7F7FE0546002864D0DFF8CCA0DB
:1053E0008346D1469BF8664034F001042DD1BBF8CA
:1053F000643003F4C06383B95846FFF7A1FF5A46EF
:1054000041463846FFF7C1FEBBF864303343ABF882
:10541000643001238BF866305C46DAF80030B3B1B3
:105420001B68CBF80030DAF80030C3F800B0C9F8D8
:1054300000B0C4B9FFF7C6FE85428346D2D1D9F881
:1054400000303BB9CBF800B00BE00024E5E7CBF827
:1054500000B0ECE71B68CBF80030D9F80030C3F897
:1054600000B0C9F800B02046BDE8F88F90F866306B
:10547000DA070AD4B0F8642022F00702324343F07E
:105480000103A0F8642080F866302368002BEAD17D
:10549000064B1A682AB1126822601A6814601C60F0
:1054A000E1E72460FBE70446DDE700BF7820002049
:1054B000F8B50A460C460546031D00F1140153F8E1
:1054C000040B42F8040B8B42F9D1B5F8647018490B
:1054D00027830822204610F0F3FB04F1100638B1B0
:1054E0002378FF2B19D1637803F00F03022B14D11B
:1054F000C7F3041002F0F5FDD0F82C31DA040CD516
:105500009B070AD490F8F901324605F10C0108F026
:10551000E4FF002801DBA076F8BD95F86820A276AC
:1055200005F11C013046BDE8F84010F0F9BB00BFA2
:1055300084830100F8B5164C256807460E46A5B1D0
:10554000B5F86430C3F30413994201D00020F8BDCC
:10555000291D08F04BFD0028F8D095F8663043F07F
:10556000080385F866302046F1E7FFF74FFE024654
:1055700020600028EAD031463846FFF706FE226850
:1055800092F8663043F0080382F86630EBE700BF1C
:10559000641E0020036810B504468BB1011D0C4841
:1055A000FDF722F9206890F8663023F0080380F8B0
:1055B0006630FFF7DFFD14220021204610F0B2FC18
:1055C000044B1A68A24204BF00221A6010BD00BF3B
:1055D0007C2000205022002028B11430074A90423D
:1055E00003D3002070470648F8E703681BB193F81F
:1055F0006630002BF6D11430F1E700BF781E002092
:10560000641E002008B50A4B1B6873B129B1B3F8BA
:105610006420C2F30412914207D108B9044808BDBE
:10562000191D08F0E3FC0028F8D10020F7E700BFBF
:10563000641E002010B5134C2168B9B10B68B3F893
:10564000643003F00703013B012B0DD80020FFF766
:10565000C3FF68B90846FFF7BFFF01B110B90020CA
:10566000FFF7BAFF20600146084610BD0846EEE786
:105670000368B3F8643003F00703013B012BF1D852
:10568000E5E700BF5022002038B50D460446102241
:105690000021284610F046FC134A12680023A2425B
:1056A00085F820300AD1ECB12368B3F8643003F0F8
:1056B0000703013B012B94BF0023012385F8213010
:1056C000236805F110011A1D143352F8040B41F838
:1056D000040B9A42F9D12368B3F86430C3F304137E
:1056E0006B8438BD2346E9E7502200202DE9F84FAE
:1056F0004FF0000ADFF8E8B00546894690461F469D
:1057000054469BF83420EAB9002C08BF5C460AF1E5
:10571000010ABAF1080F0BF1400BF2D1002C43D073
:105720002368002B46D149462846FFF76FFD064601
:10573000206000283ED101464022204610F0F2FBB6
:10574000344631E09BF83520BA42E0D15846414614
:1057500050F8046B08F05FFCB842D8D3B6F8642068
:10576000C2F304129145D2D104363046FFF7F6FC5D
:10577000E8B9002DCBD03146284608F037FC002888
:10578000C5D005F1100255F8041B46F8041B9542DC
:10579000F9D14FEA8A13124AD25892F8663043F090
:1057A000400382F866305C462046BDE8F88F002D45
:1057B000EFD0E6E7226849462846FFF7E6FC204698
:1057C000FFB250F8042B92F8663043F0400382F8A1
:1057D000663041463A4608F03EFC84F83570E3E70F
:1057E000781E002010B590F834300446DBB900680C
:1057F00090B10D4B08229C4202D0196888420BD010
:10580000013A03F14003F6D190F8663023F04003EB
:1058100080F86630FFF7AEFC20464022BDE810401D
:10582000002110F07FBB10BD781E002028B1403051
:10583000064B984203D3002070470548F8E790F8DC
:105840003420002AF8D14030F3E700BF7820002050
:10585000781E0020054B984206D303F5007398424A
:105860002CBF00200120704700207047781E0020C8
:10587000034630B4021D03F11404084652F8045BD9
:1058800040F8045BA242F9D193F8352081F820203A
:10589000002481F821401A68B2F86400C0F30410B3
:1058A000488493F83430042B01F1100004D12146D0
:1058B000102230BC10F036BB131D0146143253F8D1
:1058C000040B41F8040B9342F9D130BC704700003F
:1058D0002DE9F047204D0024074688461646A1468C
:1058E00005F5007A95F834305BB13946281D08F08B
:1058F00092FB484505D995F8353083429CBF8146D7
:105900002C4640355545EDD134B194F83430042B54
:105910001DD1E38EDB071AD4FFF78CFE90B9B4B922
:10592000204602F0CFFB044618B96FF07100BDE8C5
:10593000F087D4F8C030002BF2D04246394601201F
:105940009847EDE73146FFF79FFE0020EFE731462D
:105950002046FFF78DFFF8E7781E002038B5044693
:1059600000F114011248FCF73FFF94F8343023F0A3
:105970000403204684F83430FFF734FF0D48241A1E
:10598000B4F5007F4FEAA41511D20B4C294604F15F
:105990002800FFF7D1FB50B1ED4305F007050121C9
:1059A000A94094F8285025EA010584F8285038BD0C
:1059B0007C200020781E0020381E00202DE9F341B5
:1059C000044600F114011748FCF70EFF2368B3F8F2
:1059D0006400C0F3041002F084FB0546E0B100F15E
:1059E0003206211D304694F83580019108F013FBF2
:1059F00005F142078045019998BF94F835803846F3
:105A000088BF002608F007FB804501D926B137463C
:105A10003946284602F063FF204602B0BDE8F04157
:105A2000FFF79CBF7C20002038B50B49044608F0E6
:105A3000DDFA78B90848FFF791FB60B12346064CC0
:105A400003F1100518685968224603C20833AB42B7
:105A50001446F7D1004838BD381E002070B51649ED
:105A600008F0C4FA30B3154E154D002421463046D7
:105A7000FFF762FBC8B90134082CF7D10024114E9E
:105A8000254621463046FFF757FB48B90134102C14
:105A9000F7D1BDE8704008482C22002110F042BA2E
:105AA000E0B205F07BFD0574F0E705EB8410FFF72D
:105AB00055FFE0E770BD00BF381E0020601E0020CB
:105AC000781E0020611E0020084BC91AB1F5007F26
:105AD0004FEAA11309D2DB4303F0070201239340ED
:105AE00090F82820134380F828307047781E002053
:105AF00070B539B10E4BCB1AB3F5007F02D3002439
:105B0000204670BD0A4E00F128050846FFF78EFEBC
:105B100004460028F3D094F834305B0706D5A11B67
:105B200089112846FFF708FB0028E9D12146ECE758
:105B3000781E002038B538B100F12C04074DAC4276
:105B400004D30024204638BD054CF7E72046FFF774
:105B500005FB0028F6D02C34F1E700BF641E0020BE
:105B6000381E00202DE9F3411F4613460A46014620
:105B70000020089EFFF7BAFD054600283AD090F8AD
:105B8000343007EA060443F0040380F83430601C24
:105B900038D01E4B1868436901332FD00FF0ABFA91
:105BA000711C04461DD01A4B1A48B3F9008005F148
:105BB00014010191FCF718FE0023C5E9053644F6EF
:105BC000CC7301991348EB832D62A5F81C80FCF778
:105BD000D3FDB21C05D03319013301D104B1013614
:105BE0002644FB1C10D83B19013308BF01373C4445
:105BF000C5E90E46284602B0BDE8F08183685B68BF
:105C00009847CDE72646F3E73C46F1E780B301002D
:105C1000341E00207C20002010B50A4B9B690246F0
:105C2000002013B94FF0FF3010BD5C6820445C8940
:105C30008C4204D1002AF7D0DC689442F4D01B686F
:105C4000EFE700BF7C200020044B18684369013354
:105C500001D00FF050BA83685B68184780B3010029
:105C600073B504460E46FFF7EFFF23680546B3F809
:105C70006400C0F3041002F034FAA26B531C1EBF80
:105C80004FF47A73521BB2FBF3F2E36B591C07D04B
:105C90009D428FBF00235B1B4FF47A71B3FBF1F37E
:105CA000E18E11F0010506D0D0F82C0110F4805FD0
:105CB00014BF00258025890748BF45F04005CDE980
:105CC000005694F83510201D01F0F8FD02B070BDAB
:105CD0002DE9F341D0F82C41B0F9FA6141F2020309
:105CE000A3430F464BD100252C464FF0010807EB8C
:105CF000D50393F82920EB4303F0070308FA03F3D5
:105D00001A4211D0E8B205F049FC034660B1428A5C
:105D1000417C007C009407F09AF8044620B90025E5
:105D2000284602B0BDE8F0810135102DDFD10025F5
:105D300029463846FFF7DCFE054690B97D69FFF736
:105D400083FF4EF66021281A2346B0FBF1F13A4654
:105D5000386989B207F0A0F8002838BF002005464E
:105D6000DEE72B68B3F86430C3F304139E42DFD13F
:105D70002146FFF775FF04460028D9D1CFE714F478
:105D80008054CCD1254610E094F834305B070CD514
:105D90002368B3F86430C3F304139E4205D1294647
:105DA000FFF75EFF05460028B9D02046FFF73EFD0D
:105DB00004460028E8D1B3E7F7B51446D0F82C2103
:105DC00041F20203934305460F4621D014BB2146FE
:105DD000FFF77EFF009023463A460021284601F057
:105DE000C7FE11E094B931462846FFF771FF0090D5
:105DF00023463A460021284601F0BAFE3046FFF716
:105E000099FE06460028EDD103B0F0BD0020EEE774
:105E10000026F3E70020DDE738B50546B0F864005A
:105E2000C0F3041002F05DF9044602F065F9D4F8FD
:105E30002C315B0704D50022291D2046FFF7BCFF4B
:105E40002046BDE8384002F05EB90000F7B50446D0
:105E500002F052F9D4F82C31DA044AD4284F2948F8
:105E600094F8266139460AF05FFC44F6C67105468F
:105E70002046FFF7D1FEFC2E01D9B84203D8D4F852
:105E80002C315B0735D5FC2E94BF00220122002166
:105E90002046FFF791FFFFF7D7FE94F82631C4F8AC
:105EA0001401022B1AD9FC2E1DD8174B1748B3F931
:105EB000006004F1C4010191FCF796FC0023C4E9E1
:105EC000313544F6C67301991048A4F8CE30C4F8B1
:105ED000D040A4F8CC60FCF74FFC0AE0B5F57A5F3F
:105EE00028BF4FF47A550133DBB284F82631002BFA
:105EF000DBD1204603B0BDE8F04002F004B900BF9A
:105F0000C027090070050300341E00207C200020FB
:105F1000002280F82621D0F82C2142F00402C0F89B
:105F20002C21FFF793BF73B514460E460546FFF7C5
:105F30008BFE0A30C4E90E0000212046FFF790FED8
:105F40000023009032461946284601F011FE02B0A7
:105F500070BD0000F0B5044685B00E46174600211E
:105F6000102268460FF0DEFFD4F82C31D90406D495
:105F7000B4F9FA11244810F0F7F805B0F0BDDA07CB
:105F8000FBD594F8482102AB04F5A071204602F03D
:105F900082FE0028F1DB3A463146684608F05BF89D
:105FA0006946204602F029FA051E2BDA07233A46F5
:105FB0006946204602F0AEFB051EDEDB0127D4F861
:105FC0002C31DB04D9D51149082230460FF078FE78
:105FD00038B13378FF2B0DD1737803F00F03022B08
:105FE00008D1621992F8303023F01F0343F01003F8
:105FF00082F83030002FC0D004EB05103230FEF7AD
:106000009FFBBAE70027DAE7EA7E010084830100FC
:10601000D0F82C2141F2020393430CBF0120002051
:106020007047D0F82C0143074CBFC0F3003001206B
:106030007047000010B50A49082204460FF040FEE0
:1060400048B12378FF2B08D1607800F00F00831E41
:106050005842584110BD0120FCE70020FAE700BF7C
:106060008483010008B5044910220FF029FEB0FA1C
:1060700080F0400908BD00BFB483010008B5FFF7F8
:1060800009F928B190F8663013F0010F08BF00201D
:1060900008BD0000044B18684369013301D00FF0BC
:1060A0002AB883685B68184780B3010038B5056873
:1060B0005DB195F866301B0707D5FFF76BFA002432
:1060C0002046FFF7B3FB044600B938BD23689D4264
:1060D000F6D1FFF787FBF3E72DE9F0411F460B4BA5
:1060E000144605460E460A48B3F900801146FCF7EF
:1060F0007BFB0023C4E900376681E560A4F80880D3
:1061000021460348BDE8F041FCF736BB341E0020B1
:106110007C2000202DE9F843089C074691469846CC
:106120000D46C1B191F8F9310A2B14D1434600F163
:10613000100257F8041B43F8041B9742F9D1B5F835
:10614000FA311B01A8F81830002388F81A3001260C
:106150003046BDE8F883ECB12046FEF7E3FF064683
:10616000C0B1B4F8643003F00703032B0DD104224F
:1061700021462846FEF752FE41F2883304F12402FC
:1061800044F6C8712046FFF7A7FF41462046FFF7B7
:106190008FF9DDE7424629463846FEF795FA06466E
:1061A0000028D5D164BB65B1B5F9FA110222384691
:1061B000FFF704F9044630B90146484603F0F4F805
:1061C000C6E72946F2E735B1D5F8C0301BB1022247
:1061D0003946032098470127B9F1000F07D04946F7
:1061E0000320FDF7D7FD7621484603F0DDF8D5F80A
:1061F0002C31DB04ACD439462046FEF780FDA7E7FE
:10620000B4F8643003F00703012B02D1032384F8B0
:1062100067303746E0E7000038B5084DFEF7EAFF83
:10622000A96929B10C682846FCF7DEFA2146F8E78F
:10623000FEF7D8FFBDE83840FEF7E2BF7C20002023
:10624000F0B504468BB001F057FF47F23053C4F865
:10625000183104F13000FEF7C9FD002384F827311E
:1062600084F828312249204602F0FEF921492046CF
:1062700002F0FAF9204B04AA03F110071646186839
:106280005968154603C50833BB422A46F7D118683A
:1062900099889B792860A980AB713146684607F0E0
:1062A00095FF28B1102340226946204602F032FAB9
:1062B000204612494022FFF74DFE2046FFF7B1FE6F
:1062C00088B14FF47A7100200AF02EFA04F1E4024A
:1062D000034644F6C3712046FFF7FEFE204601F058
:1062E00012FF0BB0F0BD2046FFF7B0FDF6E700BF90
:1062F0007483010064830100697F010084830100CD
:1063000037B504460D4601F0F7FE204804F1D401EC
:10631000FCF76AFA2046FFF784FE40B31B4804F1FD
:10632000E401FCF761FA04F1320108460191FFF73C
:1063300081FE019910B1204602F0D1FA04F1420128
:1063400008460191FFF776FE019910B1204602F050
:10635000C6FA20460E4902F06DFA20460D4902F0B9
:1063600069FA204603B0BDE8304001F0CCBE0748D2
:1063700004F1C401FCF738FA002DD4D0FD2384F8D1
:1063800026312046FFF762FDCDE700BF7C200020CC
:10639000648301007483010010B5044601F0ACFE73
:1063A0004FF47A73C4F8203194F8293143F0010393
:1063B00084F829314FF4E163A4F824314FF0FF331E
:1063C000C4F81431002384F82631D4F82C3143F07A
:1063D00002032046C4F82C3102F001FC2046BDE83F
:1063E000104001F090BE2DE9F0470C468CB00546F8
:1063F00008461646994601F07FFEFEF7FBFE4CB3B9
:10640000B4F9FA112846FFF739FE0746002800F0D4
:10641000D380B0F86480C8F304182846FFF70AFE5A
:1064200000285FD1B8F1000F5CD0204601F06BFE70
:10643000404601F056FE0446FEF7E2FE204601F01B
:106440005BFEFEF7D7FE94BB002E4ED134466FF0B4
:1064500075073EE02146D5E708F10401284607F01C
:10646000DAFD98F83530984207D3BAF1000F1AD008
:106470009AF835209A4238BFC2464046FFF7D6F90F
:1064800080460028E8D1BAF1000F3AD09AF83430AB
:106490005A0736D5BAF83630DB0732D5DAF800308D
:1064A000B3F86480B7E7C246E7E7B846B5E7B4F9A2
:1064B000FA112846FFF7E2FD074600974B463246A1
:1064C00021462846FFF726FE002814BF00276FF05C
:1064D0007507FEF795FE204601F015FE38460CB014
:1064E000BDE8F087002CE8D1AEE731460320FDF788
:1064F00051FC7621304602F057FF6FF075070024FB
:10650000E7E703AA31462846FFF7E2F9071E35DB25
:1065100007A8FFF7A7FD58B187BB07AA05F1100C24
:1065200028686968134603C3083565451A46F7D1DC
:1065300084BBBDF92E0001F0D4FD0446FEF760FED9
:10654000204601F0D9FDFEF755FE94BB214607A871
:10655000FFF794FD4B4600903246214607A8FFF70F
:10656000D9FD00283FF473AFD4F8C030002BB0D071
:106570009DF82C2003A902209847AAE73EB1314696
:106580000020FDF707FC7221304602F00DFF6FF08E
:1065900071079EE7B4F9FA21BDF82E309A4208D06F
:1065A000204601F0B0FDB4F9FA21BDF82E309A4230
:1065B000BFD1B4F9FA11CAE72846FFF73BFD00281E
:1065C0007FF473AFBA46B84657E700002DE9F04FA5
:1065D0002DED028B154689B01E4604468B4601F010
:1065E0008BFDFEF707FE2B78853B032B00F2968090
:1065F000DFE813F004009E0073025E03D4F82C3130
:10660000980740F18B809BF80730FF2B40F0868085
:106610006B78002B40F08280072E7FD9A6F1080905
:1066200005F10808C2464F460BF108034FBB0BF1BA
:1066300008063046FFF716FD40B9B9F1000F37D113
:10664000B4F9FA113046FFF719FD0746D4F82C319A
:1066500013F4805059D14FF4FA710AF065F844F6FA
:10666000C67105462046FFF7D7FA854256D8A7B32C
:106670002B4607F1440244F6C5713846FFF72CFD5E
:106680004CE0BE424AD39AF80110002946D09AF84D
:106690000020012A07D1184603910293FFF7E2FC7C
:1066A000DDE90231D0BBA7EBC1070AEBC10ABDE7A8
:1066B00098F80030012B09D1D4F82C31D90405D435
:1066C00043462A4659462046FEF7C2FB98F8013059
:1066D000A9EBC30908EBC308AFE7FFF7DBFCD4F86D
:1066E0001431B04A934203D940F6B732904203D9ED
:1066F000A0F6B830834201D205F6B8352B4604F136
:10670000C40244F6C6712046B8E703F00603062B20
:1067100004D1002231462046FFF74EFBFEF770FD04
:10672000204601F0F0FC09B0BDEC028BBDE8F08F13
:106730000BF10803184608EE103AFFF77BFC00281F
:10674000ECD09BF80730FF2BE8D16B78002BE5D11C
:106750000F2EE3D9D4F82C31DA0406D4EB885BBAD7
:106760009BB242F228329342D8D8A6F11003039389
:1067700005F11007039A3B464FF00008002A40F04D
:106780008C80B8F1000F00F09C804046FEF7E6F8E0
:106790000028C3D0B8F8066076BAB3B242F21072DD
:1067A000002B08BF13464EF660265E438046B5F8C0
:1067B00006A0B4F9FA111FFA8AF918EE100AB9F115
:1067C000000F00F08780FEF7B5FE02900028A5D0EC
:1067D0009AFA9AFA4FF47A731FFA8AFA03FB0AFAC2
:1067E00002465346043244F6CD71FFF775FC564518
:1067F00028BF56462B790BB184F8F831AB689BB1B2
:1068000093FA83F9D4F8183199450DD02046664B98
:1068100004F1D40244F6CE71FFF75EFCC4F818917F
:1068200004F13000FEF7E2FAEB6813B11BBAC4F8CA
:106830002031029BABB1D4F82C31DB0411D594F894
:10684000303013F0EF0F03D004F13200FDF778FF82
:1068500094F8313013F0EF0F03D004F14200FDF74C
:106860006FFF039B002B3FD1029B002B3FF456AFE1
:1068700004F1E4054D482946FBF7B6FFD4F82C3166
:10688000DF047FF54BAF2046FFF742FBB30803EB75
:1068900043032A4644F6C37135E79642FFF43EAF00
:1068A000597800293FF43AAF1878232804D1B8F179
:1068B000000F7FF433AF9846A2EBC10203EBC10394
:1068C0005CE72046FFF7A4FB00287FF427AF4FF0DA
:1068D000FF366CE7FEF796FE029000288AD0FFF79D
:1068E000E5FBCDF8089085E73B78052B20D00BD849
:1068F000012B16D0032B4BD07B78039AA2EBC3025B
:10690000039207EBC307ACE7182B1FD0222BF3D160
:10691000424639462846FEF76FF8864228BF0646AB
:10692000EAE73B462A4659462046FEF791FAE3E756
:106930007B78012BE0D12B78862BDDD17B681BBACD
:10694000B3F5A06FD8D3A4F82A31D5E7D7F804A0BF
:1069500007F1080948469AFA8AFAFFF76BFB002804
:10696000CAD1B978BAF1000F03D1484600F02AFC29
:10697000C2E7BAF1FF3F08BF4FF0000AB4F9FA319D
:10698000CDF800A018EE102A484600F0A1FBB3E7AE
:106990007B78042B0CD04FF0FF339E4228BF1E465D
:1069A000AAE700BF47F4FFFF00DD6D007C20002058
:1069B0002B78862BEFD107F1100A5046FFF73AFBF0
:1069C0000028E8D17B68D7F808901BBA99FA89F9B2
:1069D0004B45E0D3D4F82C01FA78C00401D5110658
:1069E000D9D4520606D5BA78049351462046FFF70B
:1069F000B1FA049BFA7812F0C00F09D12046049333
:106A0000FFF706FB0028C6D0049BB8F1000FC2D0E8
:106A1000BA7804927868E0B9814613E099F8343086
:106A200058070FD599F83530049A93420AD1514648
:106A300009F1040007F0EFFA049B834202D84846AC
:106A4000FEF7BCFF4846FEF7F1FE81460028E5D17F
:106A5000A1E7591C07D0BF4A93429ABF4FF47A72FC
:106A600053436FF00103B9F1FF3F08D0B94A914594
:106A70009ABF4FF47A7202FB09F96FF0010951468F
:106A8000049AB4F9FA01CDF800900593FFF76AF87B
:106A9000824600283FF47FAF059BB8F1000F05D078
:106AA000014640460493FFF70FF8049B97F9032033
:106AB000F978002ABEBFBAF8362042F00102AAF8DF
:106AC00036204A0642BFBAF8362042F00202AAF83F
:106AD00036204B4528BF4B465FE79BF80730FF2B1E
