:101000000002002029170000B5160000C5160000D8
:10101000D5160000E5160000F516000000000000DF
:101020000000000000000000000000009916000011
:1010300005170000000000004D1600001517000005
:101040009F1A00009F1A00009F1A00006D180000F0
:10105000891800009F1A00009F1A00009F1A0000C4
:101060009F1A00009F1A00009F1A00009F1A00009C
:101070009F1A00009F1A00009F1A00009F1A00008C
:101080009F1A00009F1A00009F1A00009F1A00007C
:101090009F1A00009F1A00009F1A00009F1A00006C
:1010A0009F1A00009F1A00009F1A00009F1A00005C
:1010B0009F1A00009F1A00000000000000000000BE
:1010C0009F1A00009F1A00009F1A0000A518000038
:1010D0009F1A00009F1A00009F1A0000E91F0000DD
:1010E0009F1A00009F1A00009F1A000000000000D5
:1010F000000000009F1A000000000000C11800005E
:1011000008B5024802F0BCFD002008BD004C0000FC
:1011100070B5064E064CA41BA4080025AC4200D1B5
:1011200070BD56F8253098470135F7E7684E000046
:101130006C4E000013B5002000F040FF084C014643
:10114000204601F051F9204602F06CF8054B0648A4
:10115000009401224FF4806101F052F902B010BDF9
:1011600080060020374C0000800200204FF08043B2
:101170005722C3F81C25BFF34F8F0549054BCA689A
:1011800002F4E0621343CB60BFF34F8F00BFFDE773
:1011900000ED00E00400FA05704770B50546EFF376
:1011A000108672B6046814B986F3108870BD631C8B
:1011B00002D100230360F7E754F80C3903600C21D7
:1011C000204600F047F82B6813B94FF0FF332B602F
:1011D000607986F31088BDE8704000F07DB80000AB
:1011E00070B5174D174E2A68346832BB24B1237985
:1011F0000B2B04BF0C23237100F056FA2B68002B35
:10120000FAD00023104A002111602A680F49B2FA6F
:1012100082F251F8222010680C380B2284420271AD
:101220000AD023B11A790B2A04BF0C221A71084B79
:10123000B0F906201A80306070BD2346E2E700BF97
:1012400030080020380800203C0800204408002016
:10125000340800200A29F0B503791BD90A2B15D8C8
:1012600047791B4A52F827603C4600F10C057EB1D5
:101270003368C36052F827301D6042F82450154A85
:101280004FF000431468FB40234313600171F0BD2D
:10129000C560F2E70A2BF9D90D4B457953F82520A3
:1012A0003AB11468A2420BBF0022246843F82520FB
:1012B0001460427953F82230002BE7D1054C4FF0EF
:1012C000004323FA02F2236823EA02032360DDE7E6
:1012D00044080020300800200B4B1B681A790A2AAA
:1012E00002D95B7983420ED9EFF3058313F0FF0F28
:1012F00003D0064B01221A607047054B4FF0805215
:101300005A60BFF36F8F7047380800203C080020F8
:1013100000ED00E008B5EFF3108372B6084B094A00
:101320001B88094C1BB2002142F82310074A206891
:101330001368013B1360FFF78DFF216000F070F927
:1013400034080020840800203808002040080020CD
:101350000F2A2DE9F84316461F4626D810F003033E
:101360001EBF0439C918C3F10402A1F1280118BF36
:10137000801821F00303C418EFF3108972B62149D5
:10138000012251F822500FFA82F88DB10132212A40
:10139000F7D189F310886FF08A082FE002212046E8
:1013A000FFF758FF89F3108828E06FF0150825E053
:1013B00041F822400246A4F80680DDE9080100F069
:1013C000FBF8114A20604FF0FF33C4E90835136879
:1013D000667101331360FB07C4E90355C4E9055581
:1013E0002571E561DAD40C212046FFF733FF7A0737
:1013F000D8D489F310883046FFF76EFF4046BDE829
:10140000F88300BF84080020400800200C4B10B572
:101410001B68EFF3108472B61A8910420DD118615F
:1014200007211846FFF716FF84F31088054B4FF08D
:1014300080525A60BFF36F8F10BD84F31088FBE7B2
:101440003808002000ED00E010B50346EFF31084EB
:1014500072B6028802EA010022EA0101198084F3CF
:10146000108810BD13B5064B01901C68FFF7CEFF26
:10147000019904F1080002B0BDE81040FFF7E4BF95
:101480003808002010B5EFF3108472B60389027992
:101490001943072A038A018104D0082A14D084F34F
:1014A000108810E019400029F9D00C21FFF7D2FE76
:1014B000084B01221A6084F31088074B4FF08052CA
:1014C0005A60BFF36F8F10BD8B430CBF0121002109
:1014D000E9E700BF3C08002000ED00E008B5FFF799
:1014E00017FE034802F0CCFBFFF70AFE002008BD00
:1014F0003D4C00001FB5EFF3108372B6074B02930B
:1015000000230193064B0093072204234FF4C0618C
:101510000448FFF71DFF00F083F800BF784C00007F
:10152000DD1400000809002008B500F0FDFDBDE84D
:10153000084001F08BBE704708B50B4B1A680C468B
:1015400052B901221A60FFF7F6FF0848214602F05F
:101550000FFB074802F094FBEFF3108372B600F024
:1015600029F800F015F900BF080F00207D4C00009D
:10157000994C00000C4B0D4A10B540219A600C4C60
:10158000E02283F82220D9770022A0180132302AE5
:1015900080F80013F9D11A6942F010021A615A69F1
:1015A00042F400725A6110BD00ED00E0001000002E
:1015B00000E100E070470000134423F003034FF004
:1015C000773210B543F8042C5A0758BF4FF08832D1
:1015D000A3F104045CBF43F8082CA3F108044FF006
:1015E000807344E902030D4B44F80C3C00220323B2
:1015F00044E9053202200123224644E907306FF016
:10160000020344F8201C42F8243D0B2342F8043D19
:10161000013B032BFAD1A4F1440010BD15130000C7
:101620000023E1EE103AEFF3148323F0040383F375
:101630001488BFF36F8FEFF3108362B6024B4FF045
:1016400080525A60BFF36F8F00ED00E0114910B572
:101650000C6872B6FFF7C4FD62B6A04208BF10BDA9
:101660002146BDE8104049B1EFF309821EF0100F8A
:1016700008BF22ED108A22E9F04F0A600068B0E846
:10168000F04F1EF0100F08BFB0EC108A80F30988ED
:101690007047000038080020024B4FF080525A601B
:1016A000704700BF00ED00E030BF62B6BFF36F8F40
:1016B00072B6704708B502490620FFF73DFF00BF2C
:1016C000AB4C000008B502490720FFF735FF00BF0B
:1016D000B74C000008B502490520FFF72DFF00BFF9
:1016E000CA4C000008B502490820FFF725FF00BFDB
:1016F000DD4C000008B502490920FFF71DFF00BFBF
:10170000EF4C000008B502490A20FFF715FF00BFA3
:10171000034D000008B502490B20FFF70DFF00BF85
:10172000154D000070477047134A08B5D2F888304D
:1017300043F47003C2F88830FFF7F4FF0F4B104AF0
:1017400010498B4210D3104B104A0021934210D302
:10175000FFF7E9FF00F04EF8FFF71EFD01F0C0FFB4
:10176000BDE80840FFF7C6BE52F8040B43F8040B6F
:10177000E7E743F8041BE9E700ED00E00002002082
:101780006C4E000080020020800200202012002009
:10179000BFF34F8F0549064BCA6802F4E06213435A
:1017A000CB60BFF34F8F00BFFDE700BF00ED00E04F
:1017B0000400FA050C4B1B78062B12D10B4B186852
:1017C00010F00F000DD104331B6803F0F003302B31
:1017D00008D1074B1B6813F0F00F0CBF012000204D
:1017E00070470020704700BFE00F00F0E40F00F0EA
:1017F000EC0F00F008B5FFF7DDFF20B1114AD36808
:1018000023F08073D360FFF7D5FF10B10E4B032296
:101810001A60FFF7CFFF30B14FF080430022C3F8CA
:101820000C21C3F8102100F059F8084B0122C3F82D
:101830004025FFF79FFEFFF777FEBDE8084000F068
:1018400071BC00BFF0ED00E0A005004000E00140E9
:10185000044B1B682BB1044B4FF080525A60BFF30E
:101860006F8F70473C08002000ED00E008B5044A87
:10187000044B10681B689847BDE80840FFF7E8BFB5
:101880001C0F00200C0F002008B5044A044B5068C0
:101890005B689847BDE80840FFF7DABF1C0F0020DF
:1018A0000C0F002008B5044A044B90689B689847C9
:1018B000BDE80840FFF7CCBF1C0F00200C0F002034
:1018C00008B5044A044BD068DB689847BDE8084077
:1018D000FFF7BEBF1C0F00200C0F002070470368ED
:1018E00002463BB11868834219BF02681A600023A0
:1018F0001360704718467047EFF3108272B60B689A
:1019000033B903685BB11B680B6003681960016041
:10191000406882F3108820B10121FFF7B3BD096050
:10192000F5E7704708B5EFF3108172B6FFF7D7FF00
:1019300081F3108808B10023036008BD38B1054B5E
:101940000A0901F00F019A5C5B5C0270437002208F
:10195000704700BF234D0000F8B50D4657000646FE
:1019600010B18C18A54201D13846F8BD304615F8A3
:10197000011BFFF7E3FF0644F4E738B5054600F026
:1019800024FC044605F11000FFF707FC204638BD93
:1019900073B50A460C462321054601F0C7FF684689
:1019A00000F0B8FB6946002241F2055311F8010B23
:1019B00003EB43130344B2FBF4F004FB10200132A9
:1019C0002E5C082A86EA03062E54EFD1002341F24A
:1019D00005529C4201D102B070BDE95C02EB42129B
:1019E0000A44B3FBF4F104FB11310133685C50404D
:1019F0006854EEE710B50446FFF7CAFF034A1378B0
:101A0000591C117022785340237010BD2C0F0020F8
:101A1000014B186801F0F4BD180200207047000067
:101A200030B50346EFF3108472B60A4A0A4D1068C7
:101A30000144A94206D90C221A604FF0FF3084F30A
:101A4000108830BD054DA942F5D31160421CF6D176
:101A5000F1E700BF00020020000004202012002057
:101A60001946104600F076BB1946104601F0F0BB4F
:101A7000132303604FF0FF307047132303604FF0D0
:101A8000FF307047132303604FF0FF307047022987
:101A90004FF0000303608CBF002001207047FFF768
:101AA00039BE00000C2908D801238B4041F21902ED
:101AB000134206D14FF0FF30704740F20C63994259
:101AC000F8D110F0200F00F01F00054B00F5E0707A
:101AD00008BF4FF0A04343F820100020704700BF1C
:101AE000000300500268837A007AD2F8D0200128DF
:101AF0000CBF8020002003F00703002943EA000305
:101B000014BF4FF4807100210B43C2F818357047A1
:101B1000FFF7E8BF094A036882211160817AD3F890
:101B2000D03003EB810301219962D3F830110029F1
:101B3000FBD00021C3F83011116070471C7C0240BB
:101B4000032904D0042902D06FF0850070470120DA
:101B50001070704701290AD11278D0F8D0301AB12C
:101B6000C3F8041508467047C3F80425FAE76FF078
:101B7000850070470129F0B504460BD1012A0CBF3E
:101B8000103004F170000025857204600272417209
:101B9000436003E0881E012801D90020F0BD04F154
:101BA0007C050126012A0CBFA5F160002846477A72
:101BB0003FB986720136082E05D00C350028F1D0C9
:101BC000E3E70020F6E70028E7D0DEE7017A0368C4
:101BD000827A012907D12AB9D3F8D0304FF4806234
:101BE000C3F804237047002AFCD1D3F8D0304FF457
:101BF0000002F5E7017A0368827A012907D12AB940
:101C0000D3F8D0304FF48062C3F808237047002A1D
:101C1000FCD1D3F8D0304FF40002F5E7D0F8D03043
:101C200001225A6570470268837AD2F8D02010B436
:101C30000BB9C2F85C31047A0121994014B94C33D4
:101C400042F823405DF8044BC2F86C14FFF7BEBFA6
:101C5000012904D0022918D06FF08500704703686D
:101C6000D3F8D010837A007A50B903F5887301EB6A
:101C700083035B68003B18BF01231370012070478A
:101C800003F5847351F82330F4E70368D3F8D010D8
:101C9000837A007A30B903F5947351F823301360D6
:101CA00004207047142000FB0313D3F80836F6E72E
:101CB00070B50568847AD5F8D030007A164674BBC2
:101CC000012816D172B995F8D420022A0AD11865D4
:101CD0000146AB6805F110009847042385F8D4301D
:101CE000304670BD0122C3F80016C3F804665A607E
:101CF000F6E7C3F80017C3F8042795F8D4100129B4
:101D000008D11965032385F8D43005F17000AB685C
:101D10009847E5E70229E3D10122DA64E0E71422DB
:101D2000012802FB043212D1C2F8001603EB84032F
:101D3000C2F804660B4A822111605860D3F808117A
:101D40000029FBD00021C3F808111160C8E704F591
:101D50009474C2F80017C2F80467012243F82420E3
:101D6000BEE700BF1C7C024038B5D0F8D030D3F8B5
:101D7000002104466AB10022C3F80021042143680F
:101D800080F8D4209847D4F8D0300122C3F8042337
:101D900038BDD3F85821002AFAD0D3F80054EA0508
:101DA00002D5436806219847AB0503D56368072130
:101DB00020469847D4F8D0300022C3F8582140F686
:101DC0000172C3F800244FF48002DFE7F8B5837A8C
:101DD0000568027A0446002B5DD195F8D410002ADC
:101DE0004CD1032908D185F8D42008212368C9B231
:101DF0009B682046984734E0D5F8D030D3F85C1182
:101E0000A1B3C3F85C21D3F80017D3F880740F7026
:101E1000D3F88404C0B24870D3F88864D3F88CC473
:101E200046EA0C264E80D3F89064D3F894C446EA70
:101E30000C268E80D3F89864D3F89CC417F0800FDA
:101E400046EA0C26CE8014BF01210221052814BFCA
:101E500085F8D41085F8D420D3F88434DBB2052B70
:101E6000C3D12046BDE8F840FFF7B0BED3F8282123
:101E7000BAB3C3F82811FFF74DFEB6E7042902D123
:101E800085F8D430B1E7D5F8D020D2F8281141B385
:101E9000C2F82831A9E7012AD5F8D0100FD1D1F81E
:101EA0006C0402FA03F318421BD0C1F86C3400230F
:101EB000C1F860314FF08073C1F8043395E7D1F871
:101EC0006C241033012606FA03F3134209D0FFF7FE
:101ED00021FE837AD5F8D02010339E40C2F86C647E
:101EE00083E74FF0FF3181E738B505460C4621B155
:101EF00001292BD06FF0850038BD0368817A1278F4
:101F0000047AD3F8D030012000FA01F182B14CB943
:101F1000D3F814251143C3F814152846FFF783FEA0
:101F20000120E9E7D3F810251143C3F81015F4E7B1
:101F3000C9432CB9D3F814251140C3F81415DBE7B5
:101F4000D3F810251140C3F81015D5E71178FFF725
:101F5000C9FD2046D0E70000154A1649D0F8D03018
:101F600030B549F27534032514600D601460012406
:101F7000C3F80045D3F800442405FBD5D3F800444A
:101F800024F40064C3F8004449F275350024156058
:101F90000C6015600122C3F8002502F1A07280F8E0
:101FA000D440C3F80023044B80225A6030BD00BFE8
:101FB00000EC064014ED064000E100E0024BD822A0
:101FC00002FB0030704700BF300F0020034B044A73
:101FD0001A60044AC3F8D020704700BF300F0020B9
:101FE000344D0000007002404548D0F8D030D3F89E
:101FF00000212DE9F04104469AB1D3F80023D5071A
:102000000FD50121C3F80813436898473D4B1B685F
:102010002BB13D4B4FF080525A60BFF36F8FBDE83C
:10202000F081D3F858215AB1D3F80023510207D5D3
:102030004FF48002C3F80823314863680121E4E7C4
:10204000D3F85C2152B1D3F800331A0206D52F48D9
:10205000A368012198472D48FFF7CCFDD4F8D03074
:10206000D3F82821C2B1D3F800335B0514D594F816
:10207000D410012905D12648A36898472448FFF7C2
:10208000B9FD94F8D430022B06D12048A368012171
:1020900098471F48FFF7AEFDD4F8D030D3F8602141
:1020A000002AB3D0D3F86C24002AAFD00022C3F8A2
:1020B0006021D3F86C840C260127B8F1000FA5D05D
:1020C00098FAA8F5B5FA85F5102D10DDA5F11000E8
:1020D0007043231893F8793023B17030A36801213D
:1020E0002044984707FA05F528EA0508E5E706FBC6
:1020F00005F023185B7E002BF4D01030EEE700BF14
:10210000300F00203C08002000ED00E0A00F002070
:10211000400F0020024A034603CA18605960704706
:1021200060000010FFF752BF10B50321084C2920B2
:10213000FFF7B8FC4FF40073C4F80C3503212A20D4
:10214000FFF7B0FC4FF48063C4F80C3510BD00BF3E
:10215000000300506FF08500704782680168531CCF
:1021600083604368013B1340C85C704710B5EFF3D0
:10217000108472B6EFF3108172B6D0E9022381F3B6
:1021800010889A4204D0FFF7E8FF84F3108810BD4E
:102190004FF0FF30F9E7F8B504460E46EFF310872D
:1021A00072B60D4645B1EFF3108172B6D4E9022341
:1021B00081F310889A4203D187F31088701BF8BD11
:1021C0002046FFF7CAFF013DECE730B5EFF310847E
:1021D00072B6EFF3108572B6D0E902239B1A4268FB
:1021E00085F3108893420BD0C2680568531CC36006
:1021F0004368013B13400020E95484F3108830BD4C
:102200004FF0FF30F9E7F0B5EFF3108772B61446E0
:1022100054B1EFF3108672B6D0E902535B1B4568E8
:1022200086F31088AB4203D187F31088101BF0BDF2
:10223000C66811F801CB0568731CC3604368013B95
:102240003340013C05F803C0E2E7B1F5167F08B55D
:1022500006D0B1F5966F01D1FEF788FF002008BDCA
:10226000FFF796FAFEE700000129F8B5C4680ED121
:10227000B4F99421531E9BB21F2B96BF234B002011
:1022800053F822000221BDE8F840FFF7FBB8062909
:1022900021D0072928D004291CD10123D4F87801A2
:1022A00084F89831002584F89A5102682946D66846
:1022B00004F5CD72B047234604F1A00283F84050E4
:1022C00083F8E05014339342F8D101260027D4F864
:1022D0008C5185B9F8BD94F8983184F89931042669
:1022E00084F898610227F2E794F8993184F89831DC
:1022F00008260327EBE7EB681E4205D06B683A46D9
:102300005B682946204698472D68E2E7840800204C
:1023100070B50A4604460368A17AD868012A22D11A
:10232000237A012B0CBF08230023EFF3108472B62D
:102330000B44D0F89051DBB202FA03F12943C0F804
:10234000901184F31088B0F99421531E9BB21F2B77
:1023500098BF234BBDE8704094BF53F82200002083
:102360000421FFF78FB8C9B9D0F88C11C9B1082A78
:102370002ED0092A15D1CB689B0612D54B68224670
:102380009D680223A8472368164A1B685D6A0123DB
:102390002046AC461946BDE870406047D0F8883109
:1023A00003B970BD996819B9D96841B91B68F7E7D5
:1023B0008D68AC4201D11969D8E70968F3E78D68E7
:1023C0000DB90968F1E7AE68B442F4D02D68F7E7BB
:1023D0004B689D682246AC460023BDE870406047CC
:1023E00084080020934D000038B504460D464FF494
:1023F000D872002101F09AFAC4F8785138BD000073
:102400001FB50293069B0193034B00930023FEF735
:102410009FFF05B05DF804FB3D24000010B5D0F827
:1024200084310B60B0F89631C0F884115C1CA0F8C0
:1024300096410B814A60184610BD00002DE9F04717
:102440004C4BB2B000261B68C0F8743103A9C0F829
:102450007C11C0F87061044600F5B87800F0DCFA31
:10246000454BD4F878511B88A4F894310123A4F883
:102470009631424B84F89A61C4F888616B60404B96
:10248000C5E902342B6828461B6898473D4A04F189
:1024900018012046FFF7C2FF3B4A04F10C01204619
:1024A000FFF7BCFF394A21462046FFF7B7FF04F586
:1024B000CE77082101A8FFF79DFA082201A9384626
:1024C000FFF74AFA3A4604F124012046FFF7A6FF37
:1024D00084F89861D4F88C61F6B92B682C4ADE68D0
:1024E000012319462846B0474FF001090720FEF79F
:1024F000B9FF8107064603D52B6828461B69984714
:10250000720710D4F307F1D54046FFF70BFA002805
:10251000ECD043689847E9E7736831461B6820466A
:1025200098473668D8E7EFF3108372B60022D4F8E4
:1025300090A1C4F8902183F310881427BAF1000FFA
:10254000E0D09AFAAAF3B3FA83F3072B09FA03F25D
:10255000CBBF083B07FB034307FB0343986BC8BF94
:10256000D3F8D80003681B689B6A2AEA020A9847D6
:10257000E4E700BF3808002034080020692200008A
:1025800011230000644D00006F4D0000864D0000D7
:10259000924D0000D0F8883110B5002200F5C474C7
:1025A00090B2013213B90883216010BD1C461B682C
:1025B000F6E7D0F88C3100F5C6720BB911607047A0
:1025C0001A461B68F9E710B5806800B910BD83682A
:1025D0005C7A8C4202D11B7A9342F7D00068F4E710
:1025E000F8B50446D0F87801069E0D4611461A4605
:1025F00003685F683346B847034678B1827A017A48
:1026000002EB8202920001290CBFD0323032A018B6
:102610008681836015B1AB680360A860F8BD0121B5
:102620000174806803681B68DB6918470021017426
:10263000806803681B68DB69184703681B68DB6AEE
:102640001847F7B5CB6843F001030026CB6040275D
:1026500001230C460E761A46314600970546FFF7D1
:10266000BFFF8368A36300973346012231462846A3
:10267000FFF7B6FF8368636303B0F0BD03681B68B0
:1026800010B45C6A0A46A44601235DF8044B00219D
:102690006047000010B50C46E2B980F89B21886BBA
:1026A0000A7603681B689B699847606B03681B6820
:1026B0009B6998470849A06BFFF7E0FF0649606BEC
:1026C000FFF7DCFF606B04F13C014022BDE81040E5
:1026D000FFF7B3BF10BD00BFA64D00002DE9F347C3
:1026E0000C460B7C91F910100029054603DBE28AA9
:1026F000206B90420ED803F01F02012A00F0B18037
:10270000022A00F0CD8062B90029637C77DA5BB1E0
:10271000062B14D0D5F8780103685B69984700232D
:10272000237602B0BDE8F08795F89B315B0002226A
:1027300001A92846ADF8043000F09EF948E0638A0C
:102740001A0A013A052AE5D801A151F822F000BF82
:1027500069270000772700007F2700001527000069
:1027600015270000E7270000284600F045FB002859
:10277000D0DBD6D02CE0284600F046FAF7E7D5F8B3
:102780008461002EC6D013F0FF030BD14FF44173C8
:10279000022269462846ADF8003000F06DF940F29B
:1027A0000943C4E703228DF8052032899A4200F0DC
:1027B000AF803668002EF8D1ACE7284600F089F9E2
:1027C0000021284600F085F916F8011F0029F4D1F0
:1027D00094F91030002B80F287800123237628465D
:1027E00000F093F99DE7D5F8780100238DF80430C7
:1027F000036801AA9E6804210123B0478AE7052BDC
:1028000015D0092B86D10323D5F88861DFF82491F0
:10281000DFF824A185F89831002ED9D0B76857B9D0
:10282000D6F80C80B8F1000F0DD13668F4E7638A52
:1028300085F89A31CCE7FB7B1BB1B8684946FFF7B6
:102840001DFF3F68EBE7D8F8087017B9D8F800808B
:10285000E8E7FB7B1BB1B8685146FFF70FFF3F6805
:10286000F3E7617CA28A03F060030B4302F00F02DE
:102870003FF45DAFD5F88831002B3FF44BAF198B97
:1028800091420BD119694868C6683EB1D5F87C21E0
:1028900004F11003127E2846B04768E71B68EBE797
:1028A000A38A03F00F0000EB80001B06637C4FEA55
:1028B00080004CBFD0303030012B28440DD0032B8A
:1028C00004D0002B7FF426AF037C30E7638A002B13
:1028D0007FF420AFFFF7A3FE7AE7638A002B7FF433
:1028E00019AFFFF7A3FE73E7E38A226B9A4208D27F
:1028F0000323606B2376402204F13C01FFF79DFE29
:102900000FE70423A06B2376002204F17C01F5E796
:1029100002278DF80470706801F012FA013040004F
:102920008DF804003A4601A9284600F0A5F876681B
:10293000013E49E7A44D0000A54D000073B50546D2
:102940000C4643BB0B7E042B25D8DFE803F0512651
:10295000213B0300137A012B1DD190F89A3173B1FA
:1029600090F89831012B0AD1D0F878010268002143
:10297000D66805F5CD72B047022385F8983100235B
:10298000606B2376402204F13C01FFF756FE02E023
:10299000137A002BF4D002B070BD167A012EFAD152
:1029A00000F052F828B121462846FFF797FE267618
:1029B000F1E7606B402204F13C01FFF73EFE022389
:1029C0002376E8E7137A002BE5D1606B0193036867
:1029D0001B681E6A04230DEB03020221B047236B20
:1029E000019A1344236321462846FFF777FED2E776
:1029F000167A002ECFD11022314604F11C0000F0CF
:102A000095FF224652F83C3F236153686361E38A95
:102A10002663E362E7E70000034B4B60D0F88C319C
:102A20000B60C0F88C117047944D000038B5D0F899
:102A30007C41606B03681B680A461D6A02210423FF
:102A4000A84704F13C0038BDD0F87C319A6BD869B6
:102A50005268196A024491420CD9D96A884209D253
:102A6000986A81424FF0000005D9C3E907205862F7
:102A70000120704700207047D0F87C01F8B5836BC7
:102A8000C7695D68036A9F423D4403EB020C09D9A4
:102A9000AB4202D2FE1A964207D9C0F820C00024E9
:102AA0002046F8BDAB42F8D20026AC452CBFEC1A4C
:102AB000941B426AC0F820C028BFA41B2244DB1B21
:102AC000426233447C3022463144184400F02CFEEC
:102AD000E6E7D0F87C21D2E90703984210B510D878
:102AE000946B64680444A3420BD21B1A1344012064
:102AF00083F87C10136A01331362536A0133536203
:102B000010BD013313620020FAE7D0F87C11CB6AC4
:102B1000CA69486A9A1A82428B6A28BF0246886B41
:102B200013448B6203681B687C31DB6A184770B5FD
:102B300006460C4600250CB9284670BD62689368AD
:102B4000127B1AB1A16830469847034624681D4499
:102B5000F1E770B506460C4600250CB9284670BD55
:102B600063681B681BB1A168304698470346246818
:102B70001D44F2E770B506460C4600250CB9284600
:102B800070BD63685B681BB1A16830469847034617
:102B900024681D44F2E7F7B505460C46002740F2CD
:102BA000075614B9384603B0F0BD61682846FFF7F0
:102BB000D0FFA268ADF80060117A937A8DF80230E8
:102BC000012904BF63F07F038DF80230537A9A1E07
:102BD000022A9ABFC3F10503DBB200238DF803304C
:102BE000A389ADF804300722A37B8DF8063069462F
:102BF0002846FFF741FF61682846FFF7BBFF9DF8B5
:102C0000003024681F44CCE72DE9F04F8BB0794B9E
:102C1000019301238DF809304FF40043ADF80A30D9
:102C2000D0F8882132238DF80C300446002332BBC3
:102C3000D4F880118DF808302046FFF778FFD4F8DB
:102C4000885100F10906EDB9238CADF80660092220
:102C500001A920468DF80A30FFF70EFFD4F8801145
:102C60002046FFF787FFD4F8886100F1090AA946DA
:102C7000002E3FD10AEB05000BB0BDE8F08F1268C3
:102C80000133D4E769682046FFF751FF00F10907D7
:102C90003744AE684FF0000846B94744D5F80C8079
:102CA000B8F1000F0AD12D683E44CCE77168204688
:102CB000FFF73DFF073036688044EDE7D8F8041091
:102CC0002046FFF734FFD8F80890093006444FF04B
:102CD000000AB9F1000F03D1D8F800805644DFE7AD
:102CE000D9F804102046FFF722FF0730D9F80090EA
:102CF0008244EEE771682046FFF72BFF40F209435C
:102D0000CDE90499ADF81030338B8DF81230B37ED5
:102D10008DF81530F37E8DF818908DF81630337FCE
:102D20008DF81730B36800F10908002213BB8DF845
:102D30001420726902B1137A8DF81830092204A99F
:102D40002046FFF799FE71682046FFF713FF4544C0
:102D50000544B1682046FFF71EFFD6F80C802F18F7
:102D60000122002540F20943B8F1000F05D1366871
:102D70003D447DE71B680132D8E7318B8DF81E108A
:102D8000B17ECDF820908DF824908DF82110F17E41
:102D90008DF8221002F1010B317F8DF81F20D8F839
:102DA00008208DF82310ADF81C305FFA8BFB002152
:102DB000EAB98DF82010D8F80C1001B10A7A8DF814
:102DC000242007A909222046FFF756FED8F8041050
:102DD0002046FFF7CFFE0930D8F8081005442046FA
:102DE000FFF7D9FED8F8008005445A46BAE71268C2
:102DF0000131DDE7090209007FB50022ADF80820A6
:102E00008DF80A200F4A019240228DF80B200E4ABD
:102E100003924FF48072ADF810200289838D8DF8F3
:102E20001220828A8DF813208DF81430122201238B
:102E300001A98DF81530FFF71FFE122007B05DF8CD
:102E400004FB00BF120100020912007D03681B6829
:102E5000DB6A18470AB981F87C20704707B540F64D
:102E60000833ADF800300B8D8DF8023002238DF859
:102E70000330082240F2022369460193FFF7FCFD6C
:102E8000082003B05DF804FB284B2DE9F347C1F897
:102E90008430274B0962C1E9153140F202234B858A
:102EA00001F150034B610A230026A1F84A3001F1D9
:102EB000100808230C460E6581F82C6081F84C60E0
:102EC0004E63096402220093414601230546FFF741
:102ED00087FB04F130074FF0400A40F2FF13C38133
:102EE0003946CDF800A0012303222846FFF778FBDE
:102EF0004FF480793346A0F80E9003223946CDF87E
:102F000000A02846FFF76CFB4146A0F80E9028462B
:102F1000FFF740FB39462846FFF73CFBE36843F0E8
:102F20000103E36002B0BDE8F08700BF6B30000032
:102F3000A84D000037B5194B009304460D460123F8
:102F4000694605228DF80430FFF796FD144B009377
:102F5000694604222046FFF78FFD42F20543ADF893
:102F6000003006238DF802302B8D8DF80330694632
:102F7000B5F848308DF8043005222046FFF77CFD77
:102F8000084AB5F8483000926946052220468DF877
:102F90000430FFF771FD132003B030BD052400207D
:102FA0000424020205240100F8B504460D46EFF39F
:102FB000108672B600F16407EFF3108172B6D4E99F
:102FC0001B2381F310889A420AD03846FFF7CEF8C7
:102FD000A36F5A1C23443F2AA26783F8D000EBD981
:102FE00086F31088A26F04F1D0012846BDE8F840AE
:102FF000FFF72CBF7FB51389B3F5407F0C4615460C
:1030000014D113681B6803AA1E6A022104232846F0
:10301000B047039A04F1900122B1E36D019120467B
:103020009847019940222846FFF710FF2A8940F26D
:1030300001339A4217D10023A367EFF3108172B6D0
:10304000D4E91B2381F310889A420CD0636F93F864
:103050009831032B07D194F87C30012B03D12946FA
:103060002046FFF7A1FF04B070BD50F8083C80383F
:103070006BB9436F93F89831032B08D190F87C30EB
:10308000012B04D1836B1B689968FFF78DBF7047D4
:103090002DE9F041034600F1640790F87C000D46ED
:1030A000144648B1EFF3108472B63846FFF7ABF818
:1030B00084F31088BDE8F081EFF3108672B6EFF369
:1030C000108272B6186FD3E91A130B44A3EB0008F1
:1030D00082F31088444510D92118C91A3846FFF7E1
:1030E0005AF800EB0802A31A1D4429463846FFF798
:1030F0008AF886F310882046DCE72246F5E7436F1E
:103100002BB100F1800103F5B870FEF7F5BB7047F5
:103110007FB50C465978212933D0222937D0202970
:103120002BD1DB88072B28D1032A1BD1002303A92D
:103130000393FFF77BFC039B072B05461DD14379C7
:1031400082790168007900902046FFF77EF8266EAC
:1031500056B92B68C4F88830AB88A4F88C30AB79AA
:1031600084F88E3001200AE028796B79AA792968E1
:1031700000902046B0470028EBDA4FF0FF3004B053
:1031800070BD072204F18801FFF776FCEAE75B884F
:1031900013F001034FF0010511D084F87C50002298
:1031A000032104F13000FFF70EFA402204F19001F0
:1031B0008068FFF74BFE2046FFF7A1FFD2E784F8B7
:1031C0007C30CFE72DE9F8430C460546DDE9089849
:1031D0001746002120464FF4A8721E4600F0A6FBB9
:1031E000074B63600023C4E91998C4E91776656743
:1031F00084F87C3021462846BDE8F843FFF7D9B96A
:10320000B84D000070B5064E0C468D18AC4200D18A
:1032100070BD14F8011B3046FEF7AFFBF6E700BFA8
:103220000402002007B580230193054B0093054A53
:1032300005490023FFF7C6FF03B05DF804FB00BF9C
:103240004810002005320000C81000207047000020
:103250002DE9F041DFF8248006460C460746224659
:1032600039464046FFF714FF05464046FFF747FF43
:10327000641B2F44F3D1B81BBDE8F081C8100020B7
:103280008B891A072DE9F0410C46804641D44A68E3
:10329000002A59DDE66A002E53D00022D8F80050EB
:1032A000216AC8F8002013F4805251D1012340460E
:1032B000B047431C5FD0A389E66A216A5F0705D542
:1032C0006268636B801A0BB1236CC01A024600233C
:1032D0004046B047461C45D1D8F80030B4F90C2020
:1032E000002B55D01D2B01D0162B5AD1236900225B
:1032F000C4E90032616BC8F8005011B304F1440313
:10330000994202D0404600F061FB00206063BDE8B6
:10331000F0810E69AEB10D680E6099070CBF63694C
:103320000023AD1BA3600AE02B463246A76A216A40
:103330004046B8470028A5EB000506440ADD002DED
:10334000F2DC0020BDE8F0810A6C002AA2DCF8E77C
:10335000606DB3E7A38943F04003A3814FF0FF30D2
:10336000BDE8F0812269A389226000226260DA044C
:10337000C0D56065BEE7D8F80030002B9BD01D2B70
:103380000CD0162B0AD0A38943F04003A381D9E7C0
:103390002169C4E90013D304ACD5EAE7C8F80050AA
:1033A000CFE742F04002A281CCE700BF0B6923B314
:1033B00010B5044682B008B18369BBB1104B994285
:1033C00012D0104B994216D00F4B994208BFE168BA
:1033D000B1F90C302BB1204602B0BDE81040FFF728
:1033E0004FBF002002B010BD6168F1E7019100F00D
:1033F00007F90199E2E7A168EAE70020704700BFFA
:10340000084E0000E84D0000C84D000020B1054BFB
:1034100001461868FFF7CABF034B0449186800F05B
:1034200035B900BF18020020284E0000AD3300005F
:1034300000207047014900F029B900BFAD330000FA
:103440000020704770B54A1E682505FB02F50E4640
:1034500005F1740100F010FB044640B100210C306E
:10346000666005F168022160A06000F05FFA204606
:1034700070BD00BF1E4B70B51D68AB69064643B3F7
:103480004835D5E90134013B05D51EE0013B5A1C06
:1034900004F1680419D0B4F90C20002AF6D10025F3
:1034A000144B6566C4E90055A560C4E90455A561DF
:1034B0002946E360082204F15C0000F037FAC4E911
:1034C0000D55C4E91255204670BD2C682CB1254617
:1034D000D7E7284600F010F8D2E704213046FFF77E
:1034E000B1FF044628600028F1D10C233360EAE7DD
:1034F000284E00000100FFFF2DE9F84F334B3449FF
:103500001A68816290424FF00003C0E912330365EC
:1035100004BF012383610546FFF7ACFF68602846BE
:10352000FFF7A8FFA8602846FFF7A4FF6E68E860D1
:1035300000240423F3607466C6E90044B460C6E95D
:103540000444B461214606F15C00082200F0EEF963
:10355000DFF888B0AF68DFF888A0DFF88890DFF880
:1035600088801C4BC6F83080C6E9086BC6E90AA9FA
:103570002146FB6008227C66C7E90044BC60C7E9BD
:103580000444BC6107F15C0000F0D0F9EE68124B16
:10359000C7F83080C7E9087BC7E90AA92146F3606C
:1035A0007466C6E90044B460C6E90444B46106F137
:1035B0005C00082200F0BAF90123C6E9086BC6E9ED
:1035C0000AA9C6F83080AB61BDE8F88F284E00002C
:1035D000353400000900010012000200913C000097
:1035E000B93C0000F93C0000193D0000024B0349C2
:1035F000186800F04BB800BF284E0000AD33000043
:10360000836903B978E77047704700BF704700BF10
:10361000704700BF704700BF024B0349186800F0B5
:103620000FB800BF1802002031340000024B0349DC
:10363000186800F005B800BF1802002041340000EF
:103640002DE9F04110F148071BD088460026D7E944
:103650000154013D0FD4A389012B05F1FF3506D993
:10366000B4F90E300133204601D0C04706436B1C2D
:1036700004F16804EFD13F68002FE8D13046BDE87F
:10368000F0813E463046BDE8F08100BF2DE9F843A9
:1036900010F148071FD0884606464FF00009D7E9C9
:1036A0000154013D11D4A389012B05F1FF3508D93F
:1036B000B4F90E3001332146304602D0C04749EA02
:1036C00000096B1C04F16804EDD13F68002FE6D1BE
:1036D0004846BDE8F883B9464846BDE8F88300BFD0
:1036E00070B50D4E0D4D761BB61006D0002401347A
:1036F00055F8043B9847A642F9D1094E094D761B6F
:10370000FEF786F9B61006D00024013455F8043BC4
:103710009847A642F9D170BD6C4E00006C4E000077
:103720006C4E00006C4E0000844641EA000313F02A
:1037300003036DD1403A41D351F8043B40F8043BB8
:1037400051F8043B40F8043B51F8043B40F8043B7B
:1037500051F8043B40F8043B51F8043B40F8043B6B
:1037600051F8043B40F8043B51F8043B40F8043B5B
:1037700051F8043B40F8043B51F8043B40F8043B4B
:1037800051F8043B40F8043B51F8043B40F8043B3B
:1037900051F8043B40F8043B51F8043B40F8043B2B
:1037A00051F8043B40F8043B51F8043B40F8043B1B
:1037B00051F8043B40F8043B403ABDD2303211D3BB
:1037C00051F8043B40F8043B51F8043B40F8043BFB
:1037D00051F8043B40F8043B51F8043B40F8043BEB
:1037E000103AEDD20C3205D351F8043B40F8043BBB
:1037F000043AF9D2043208D0D2071CBF11F8013BB9
:1038000000F8013B01D30B8803806046704700BF7E
:10381000082A13D38B078DD010F003038AD0C3F18D
:103820000403D21ADB071CBF11F8013B00F8013B6F
:1038300080D331F8023B20F8023B7BE7043AD9D32E
:10384000013A11F8013B00F8013BF9D20B78037003
:103850004B7843708B788370604670478842F0B431
:103860000DD98B1883420AD9841832B1224613F835
:10387000014D02F8014D9942F9D1F0BC70470F2A71
:103880000ED80346541E002AF7D001340C44013BE5
:1038900011F8012B03F8012FA142F9D1F0BC7047B8
:1038A00040EA01039B073BD1A2F110073F0901F158
:1038B000200606EB071601F1100300F1100453F87F
:1038C000105C44F8105C53F80C5C44F80C5C53F842
:1038D000085C44F8085C53F8045C44F8045C10335A
:1038E000B34204F11004EAD17B1C1B0112F00C0F4F
:1038F000194402F00F05034415D0043DAD0803EB55
:10390000850C1C1F0E4656F8047B44F8047F644562
:10391000F9D10135AD002B44294402F00302B1E78F
:10392000541E0346B1E72A46ACE700BFF0B4860751
:1039300046D0541E002A3CD0CAB2034602E014F11D
:10394000FF3436D303F8012B9D07F8D1032C29D976
:10395000CDB245EA05250F2C45EA054533D9A4F13A
:103960001006360903F1200707EB061703F11002D2
:1039700042E9045542E902551032BA42F8D1721CAC
:1039800014F00C0F03EB021204F00F0613D0331FD8
:1039900023F003030433134442F8045B9342FBD146
:1039A00006F003042CB1C9B21C4403F8011B9C426D
:1039B000FBD1F0BC704734461346002CF3D1F8E736
:1039C00014460346C2E71A462646E0E700293CD0E3
:1039D00038B551F8043C0C1F002BB8BFE41805465D
:1039E00000F074FB234B1A682AB1A2420DD921685A
:1039F0006018824223D0626028461C60BDE83840CF
:103A000000F066BBA34203D81A465368002BF9D1D5
:103A100011685018A04219D024D821686018834238
:103A200006D0636054602846BDE8384000F050BBC3
:103A3000D3E900030144636021605460F3E7D2E9F5
:103A40000002014462602160D6E7704720680144AB
:103A5000501883421160E6D1D3E90003014453605A
:103A60001160E0E70C232B602846BDE8384000F0E9
:103A70002FBB00BF18120020F8B5CD1C25F00305A0
:103A800008350C2D38BF0C25002D064633DBA94226
:103A900031D82A4F00F01AFB3A6852B113685B1B09
:103AA00004D43FE023685B1B29D522465468002CD0
:103AB000F8D1796800293BD029463046FDF7B0FFA0
:103AC000431C28D0C41C24F00304A04205D0211AB2
:103AD0003046FDF7A5FF01301DD02560304600F0CF
:103AE000F7FA04F10B0020F00700231DC21A01D0E1
:103AF0001B1AA350F8BD0C2232600020F8BD0B2B1E
:103B000005D8A242636811D05360E7E714462360EA
:103B10001C442560E2E70C233046336000F0D8FAFD
:103B20000020F8BD0B2BF1D8536814463B60D5E755
:103B30003046FDF775FF7860BEE700BF1812002021
:103B40000EB410B5044683B008B1836963B106A80A
:103B500003460190059AA168204600F025FB03B0BA
:103B6000BDE8104003B07047FFF74AFDEFE700BF24
:103B70000FB410B50B4B1C6882B00CB1A36963B1D4
:103B800005A803460190049AA168204600F00CFBAA
:103B900002B0BDE8104004B070472046FFF730FD8A
:103BA000EEE700BF1802002083692DE9F04180464E
:103BB0000E4633B384682F4B9C4230D02E4B9C4230
:103BC00039D02E4B9C4208BFD8F80C40A3891B0764
:103BD0002AD5236943B3013EA36816F8015F013B70
:103BE000A3609DB3002B07DAA7699F4222462946AE
:103BF000404623DC0A2D21D023685A1C22601D7008
:103C0000EAE7FFF7FDFCD8F81830D8F80840002B99
:103C1000D1D14046FFF7F4FC164B9C42CED1D8F8E8
:103C20000440A3891B07D4D42146404600F056F92E
:103C30000028D0D006E0D8F80840C7E700F0EEF83A
:103C40000130C9D14FF0FF30BDE8F081002B09DA17
:103C5000224640460A2100F0E1F80130F2D00A2065
:103C6000BDE8F08123680A22591C21601A701046B1
:103C7000BDE8F081084E0000E84D0000C84D00008E
:103C8000024B01461868FFF78FBF00BF18020020E3
:103C900010B50C46B1F90E10FDF7E2FE002803DB6B
:103CA000636D0344636510BDA38923F48053A3812E
:103CB00010BD00BF002070472DE9F0411646B1F954
:103CC0000C201F46D3050C460546B1F90E1009D449
:103CD00022F48052A2813B4632462846BDE8F0419C
:103CE000FDF7C2BE00220223FDF7C7FEB4F90C2087
:103CF000B4F90E10ECE700BF10B50C46B1F90E1088
:103D0000FDF7BBFEA389421C0EBF23F4805343F48E
:103D100080536065A38110BDB1F90E10FDF7A8BEF8
:103D20000000000000000000000000000000000093
:103D30000000000000000000000000000000000083
:103D400090F800F06DE9024520F007016FF0000CDB
:103D500010F0070491F820F040F049804FF0000483
:103D60006FF00700D1E9002391F840F000F108005E
:103D700082FA4CF2A4FA8CF283FA4CF3A2FA8CF396
:103D80004BBBD1E9022382FA4CF200F10800A4FAFD
:103D90008CF283FA4CF3A2FA8CF3E3B9D1E9042351
:103DA00082FA4CF200F10800A4FA8CF283FA4CF388
:103DB000A2FA8CF37BB9D1E9062301F1200182FA42
:103DC0004CF200F10800A4FA8CF283FA4CF3A2FA48
:103DD0008CF3002BC6D0002A04BF04301A4612BA56
:103DE000B2FA82F2FDE8024500EBD2007047D1E959
:103DF000002304F00305C4F100004FEAC50514F0E8
:103E0000040F91F840F00CFA05F562EA05021CBFB8
:103E100063EA050362464FF00004A9E7F8B50D46D2
:103E20001446064608B1836943B3254B9C422AD009
:103E3000244B9C4229D0244B9C4208BFF468A389A0
:103E4000A269A2601A0722D5236903B322686169B7
:103E5000D31AEDB299422F4629DD0133A168501CD7
:103E60000139A1602060157062699A4216D0A38959
:103E7000DB0701D50A2D11D03846F8BDFFF7C0FB8E
:103E80000F4B9C42D4D17468D9E7B468D7E7214678
:103E9000304600F023F838B92369D7E72146304689
:103EA000FFF784FA0028E7D04FF0FF37E4E7214618
:103EB0003046FFF77BFA0028F6D122680123CDE7D0
:103EC000084E0000E84D0000C84D0000024B0A46B5
:103ED00001461868FFF7A2BF180200203B4B70B5DF
:103EE0001D6806460C460DB1AB69DBB1384B9C42F0
:103EF0001ED0384B9C424AD0374B9C4208BFEC68DE
:103F0000B4F90C2093B2190718D5206908B313F03F
:103F100001022CD0636900225B42A361A26060B3FE
:103F2000002070BD2846FFF76BFB294B9C42E0D177
:103F30006C68B4F90C2093B21907E6D4DD063CD5C1
:103F4000580726D4206942F00803A3819BB20028B9
:103F5000DDD103F42072B2F5007FD8D0304621467F
:103F600000F06AF8A389206913F00102D2D1990701
:103F700058BF6269A2600028D2D1B4F90C301A0689
:103F8000CFD543F04003A3814FF0FF3070BDAC6844
:103F9000B6E7616B51B104F14403994204D0304655
:103FA000FFF714FDB4F90C2000236363002320699C
:103FB000636022F024022060C5E742F0400209233A
:103FC00033604FF0FF30A28170BD00BF18020020A7
:103FD000084E0000E84D0000C84D000070B50C46CA
:103FE000B1F90E10002996B016461D4613DB6A463D
:103FF000FDF748FD00280EDB019A02F47042A2F59D
:104000000052B2FA82F252094FF4806300202A6013
:10401000336016B070BDA38900221B062A6004D548
:1040200040230020336016B070BD4FF48063002041
:10403000336016B070BD00BF8A8992070B4606D563
:1040400001F1470201211A60C3E90421704770B5EC
:1040500082B001AB6A460C460646FFF7BFFF0099E7
:1040600005463046FFF708FDB4F90C3070B116492B
:10407000B162019A0099206043F08003A381C4E9F2
:1040800004018AB92B43A38102B070BD9A05FBD409
:1040900023F0030304F1470243F002030121A3814B
:1040A0002260C4E90421EFE73046B4F90E10FDF7B1
:1040B000EEFC10B9B4F90C30E4E7A38923F0030354
:1040C00043F001031BB2DDE735340000704700BF49
:1040D000704700BF09B3F8B51446CAB106460D468D
:1040E00000F086FDA04202D32F463846F8BD214697
:1040F0003046FFF7C1FC07460028F6D02246294685
:10410000FFF712FB30462946FFF760FC3846F8BD42
:104110002746FFF75BFC3846F8BD1146FFF7ACBCFD
:104120009368013B002B936011DA10B49469A342A9
:1041300009DB0A2907D01368581C1060197008465B
:104140005DF8044B70475DF8044BFFF767BE1368DA
:10415000581C106019700846704700BF9BB1F8B535
:1041600013440F4606465D1E541E01E0AC4208D0C3
:104170003A4614F8011F3046FFF7D2FF431CF5D131
:10418000F8BD0020F8BD0020704700BF936810B54F
:10419000144613B95360184610BD00F055FB0023B8
:1041A000C4E9013310BD00BF2DE9F04F9FB08B462D
:1041B00090461C46039018B18369002B00F0B7802D
:1041C000A24B9B4500F0B980A14B9B4500F0C780F6
:1041D000A04B9B4504BF039BD3F80CB0BBF80C303D
:1041E000180740F1B280DBF81030002B00F0AD80F2
:1041F00030238DF8323098F80030059400212022C9
:104200000B918DF83120944E0127002B00F0878010
:10421000252B00F01581454603E0252B00F0A380F7
:1042200025466B786C1C002BF7D1B4EB080A76D0CE
:104230004246534659460398FFF790FF01306ED02F
:104240000B9B6A7853440B93002A68D000234FF0ED
:10425000FF3201340693CDE908338DF85B301C93AF
:10426000079205E0069A07FA03F313432C460693D8
:104270002546052215F8011B304600F069FCAA46C8
:10428000831B0028EED1069BD90644BF20228DF85F
:104290005B2021781A0744BF2B228DF85B202A2946
:1042A00066D1059A1168043200290592C0F29D80FA
:1042B00009916178A51C2E2973D0684C03222046F1
:1042C00000F046FC002800F08680001B069B40247E
:1042D00004FA00F00343069305F1010829786048C9
:1042E0008DF83010062200F033FC002800F08380A7
:1042F0005C4B002B72D005AB00935A465A4B039887
:1043000006A9AFF300808146B9F1FF3F07D00B9BB0
:104310004B440B9398F80030002B7FF479AFBBF837
:104320000C305B0618D40B981FB0BDE8F08FFFF778
:1043300067F9464B9B457FF447AF039BD3F804B026
:10434000BBF80C3018073FF54EAF59460398FFF7FE
:10435000C5FD00283FF44CAF4FF0FF30E4E7039B6E
:10436000D3F808B03AE7B4EB080A3FF46FAF5FE761
:10437000A1F13002092A88BFA2469CD8099B01E01E
:104380002C460135297803EB830302EB4303A1F1AB
:104390003002092AAA46F3D92E2904F1020509930D
:1043A0008BD19AF801102A292FD1059B9AF8021077
:1043B0001A6807920433002A05930AF103050AF1EB
:1043C000020338DB254C032220469A4600F0C0FB4E
:1043D00000287FF47AAFA84655467FE7059B073350
:1043E00023F007030833059391E7494243F00203A2
:1043F000099106935DE705AB00935A461A4B039863
:1044000006A900F0D5F881467EE7A1F1300200232D
:10441000092A079301D915E05546697803EB830310
:1044200002EB4303A1F13002092A05F1010AF3D995
:104430000235079341E74FF0FF329A4607923CE777
:10444000444603E7AA46013537E700BF084E00009F
:10445000E84D0000C84D00002C4E0000344E000016
:10446000384E0000000000005D41000010B4044C14
:1044700013460A46014620685DF8044BFFF794BED8
:10448000180200202DE9F0470C4691460A69896818
:10449000DDF820808A42B8BF0A46C9F8002094F8A7
:1044A000431006461F4611B10132C9F800202368A7
:1044B00099065CD5D9F800200232C9F8002023689B
:1044C00013F0060F19461DD1E1688A1A002AD8BFD9
:1044D000194617DD04F1190A002505E0E368D9F84B
:1044E00000209B1AAB420CDD012352463946304670
:1044F000C047013005F10105F0D14FF0FF30BDE8B4
:10450000F087216894F84330003318BF01238A06EE
:104510000AD5E1185A1C302081F84300224494F84F
:10452000451082F84310023304F143023946304605
:10453000C0470130E1D02368A268216903F0060377
:10454000042B1DD08A4226DD4FF00009521A9144F7
:104550001A34002501E04D451DDA01232246394673
:104560003046C047013005F10105F4D1C5E713F02D
:10457000060F13D094F84330003318BF0123D3E75C
:10458000D9F80000E3688A42A3EB000323EAE37949
:10459000DCDC002BDCDC0020BDE8F087E168D9F82A
:1045A00000208A1A002AD8BF194693DCAAE700BF68
:1045B0002DE9F0430C46097E85B06E290646174664
:1045C0000C98984604F1430E6DD039D9732900F048
:1045D000F68044D9752900F00481782940F01181D2
:1045E00078232268DFF858C284F845300168150640
:1045F00051F8043B016040F1A180D10744BF42F073
:1046000020022260002B00F093801022002184F809
:1046100043106068A0600028C0F2C880216821F0C3
:1046200004012160002B40F0A380002840F0C080EE
:104630007546082A00F0AC80AEEB0503236141E02B
:10464000632900F0E5801AD8002938D0582940F0B5
:10465000D88084F845102268DFF8E8C1C6E76F29E2
:1046600000F0BF80702940F0CC802268DFF8D0C114
:1046700042F020027823226084F84530B6E76429AE
:1046800002D0692940F0BD8022680368110603F159
:10469000040557D5196805600B46002959DBDFF87A
:1046A000A4C10A22B5E70368226861691D1D05607F
:1046B00015061B6802D4500600F1BD801960002366
:1046C00075462361CDF800803B4603AA214630465B
:1046D000FFF7D8FE013020D02A46236939463046FC
:1046E000C047013019D022680398E368920719D5B2
:1046F0001A1A002A16DD04F11909002504E0E368FE
:1047000003981A1AAA420DDD01234A46394630465B
:10471000C047013005F10105F1D14FF0FF3005B080
:10472000BDE8F0839842B8BF184605B0BDE8F083F5
:10473000226822F020022260102267E7500648BF5C
:104740009BB25AE75106A5D5B3F90030056019466A
:10475000A3E76168A1602D200029C3F1000384F85C
:10476000430002DB22F004022260DFF8D8C00A22F4
:10477000754600E00B46B3FBF2F102FB11309342A9
:104780001CF8000005F8010DF4D2082A7FF454AF9C
:104790002368DB077FF550AF626823699A423FF7D1
:1047A0004BAF302305F8013C013D45E7002BDFD13D
:1047B0009CF8003084F8423004F1420539E7036880
:1047C0006268191D01601D680021284600F0C0F9CB
:1047D000002832D0401B60602061002384F8433001
:1047E00070E72268036812F0800F03F104051AD005
:1047F0001B6805606F290CBF08220A22DFF844C03D
:1048000004E7012384F84210236104F14205E4E740
:1048100003681A68191D0123016004F1420584F838
:1048200042202361D9E712F0400F0DBF1B680560DD
:104830001B880560DEE7198041E76068CCE700BFB0
:10484000544E0000404E00009368002B00F002819F
:104850002DE9F04FB1F90C309BB20C46190783B02B
:104860008246904635D522699AB313F00202D8F8F1
:1048700000603DD00027D4F828B0D4F820C0DFF87D
:10488000CC923D464D452B463A4628BF4B466146A5
:104890005046D5B1D847002840F3D280D8F8083028
:1048A0001B1A07442D1AC8F80830002B00F0B780F7
:1048B000D4F820C0D4F828B04D452B463A4628BF3E
:1048C0004B4661465046002DE4D1D6E900750836C6
:1048D000D8E721465046FFF701FB002840F0308121
:1048E000B4F90C30D8F800609BB213F00202C1D1C9
:1048F00013F0010940F0B080A76820684D46002DF4
:1049000054D09A0540F1BC80AF42BB4600F2E7802C
:1049100013F4906F2FD0D4E9041707EB4707A0EBEF
:10492000010B07EBD777681C7F105844B8423A4612
:1049300084BF07463A465B0540F1E9801146504680
:10494000FFF79AF8002800F0F5805A462169019097
:10495000FEF7EAFEA289019B22F4906242F08002F7
:10496000A281A7EB0B0203EB0B00676123612060C0
:10497000A2602F46AB465A464946FEF76FFFA26833
:104980002368D21B5B442F46A26023600025D8F821
:104990000830DB1BB944C8F80830002B3FD0B4F90D
:1049A0000C30A76820689BB2002DAAD1D6E90095EB
:1049B0000836A4E70BF1080353E902679B46083366
:1049C000002FF9D03A460A21304600F0C1F80028FD
:1049D00053D00130A0EB06094B46D4E904122068FD
:1049E000BB4228BF3B46884203D9A5681544AB4269
:1049F00019DC9A427DDC1346A56A216A324650468C
:104A0000A847051E1CDDB9EB05096BD00120D8F8BD
:104A100008305B1B2E447F1BC8F8083013BB0020F6
:104A200003B0BDE8F08F31462A46FEF717FF236832
:104A30002B44236021465046FEF7B8FC0028E2D004
:104A4000B4F90C3043F040034FF0FF30A38103B0C2
:104A5000BDE8F08F00207047334691461046174658
:104A60004E469B46002FA5D00028B5D13A460A21D4
:104A7000304600F06DF80028ABD17B1C9946ACE7BE
:104A80002369834215D36169A94212D82E4BA76AC4
:104A90009D4294BF2B466FF000434A4693FBF1F3CF
:104AA000504601FB03F3216AB847071EC8DDED1B22
:104AB0006DE7AF4228BF2F463A464946FEF7CEFE85
:104AC000A3682268DB1B3A44A3602260002BEED16E
:104AD00021465046FEF76AFC0028E8D0B0E72F4692
:104AE000AB4648E721465046FEF760FC00288ED0D2
:104AF000A6E71A4631460193FEF7B0FE019BA16876
:104B00002268C91A1A44A16022601D467BE75046FC
:104B1000FFF7E0FA034600287FF423AF21695046EF
:104B2000FEF754FFB4F90C300C2223F08003CAF8CE
:104B3000002087E70C23CAF80030B4F90C3081E775
:104B40004FF0FF306CE700BFFEFFFF7F00FCFF7FF0
:104B500001F0FF01102A2BDB10F0070F08D010F82E
:104B6000013B013A8B422DD010F0070F42B3F6D132
:104B7000F0B441EA012141EA014122F007047FF04B
:104B800000070023F0E80256083C85EA010586EAA2
:104B9000010685FA47F5A3FA87F586FA47F6A5FADE
:104BA00087F68EB9EED1F0BC01F0FF0102F00702EA
:104BB00032B110F8013B013A83EA010313B1F8D195
:104BC0000020704701387047002D06BF3546033876
:104BD000073815F0010F07D1013015F4807F02BFAF
:104BE000013015F4C03F0130F0BC0138704700BF00
:104BF00051F8043C181F002BBCBF0B58C01870475D
:104C000048656C6C6F2C2074686973206973207917
:104C10006F757220666972737420526573736F7555
:104C2000726365204469726563746F72792053659D
:104C3000727669636521007573627573006D6169D1
:104C40006E28293A20546869732069732052494FAD
:104C50005421202856657273696F6E3A20323032C3
:104C6000342E31302D646576656C2D3138382D67E2
:104C700035643935383929006D61696E002A2A2A70
:104C80002052494F54206B65726E656C2070616EC6
:104C900069633A0A25730A0A002A2A2A2072656281
:104CA0006F6F74696E672E2E2E0A004E4D49204894
:104CB000414E444C45520048415244204641554CD7
:104CC000542048414E444C4552004D454D204D41E5
:104CD0004E4147452048414E444C455200425553B1
:104CE000204641554C542048414E444C45520055B5
:104CF00053414745204641554C542048414E444C71
:104D00004552004445425547204D4F4E2048414EA4
:104D1000444C45520044554D4D592048414E444C59
:104D20004552003031323334353637383941424319
:104D300044454600591F0000751B0000411B000040
:104D4000551B0000691D00001D1C0000271C0000F1
:104D5000111B0000511C0000E91E0000CD1D0000C9
:104D6000B11C000055534220636F6E666967006690
:104D70006561746865722D6E726635323834302D17
:104D800073656E73650052494F542D6F732E6F72A9
:104D90006700010043260000952600003D29000021
:104DA00000000000010101005D2E0000352F000011
:104DB0001B00000000000000892E0000552E00009E
:104DC000F52F00001131000000000000000000007D
:104DD00000000000000000000000000000000000D3
:104DE00000000000000000000000000000000000C3
:104DF00000000000000000000000000000000000B3
:104E000000000000000000000000000000000000A2
:104E10000000000000000000000000000000000092
:104E200000000000000000001C020020232D302B99
:104E300020000000686C4C0065666745464700002E
:104E400030313233343536373839414243444546C0
:104E50000000000030313233343536373839616282
:0C4E60006364656600000000351100006E
:104E6C00201200200810002040000000000000006C
:104E7C0000000000000000001C02002000000000E8
:104E8C00084E0000E84D0000C84D00000000000076
:104E9C000000000000000000000000000000000006
:104EAC0000000000000000000000000000000000F6
:104EBC0000000000000000000000000000000000E6
:104ECC0000000000000000000000000000000000D6
:104EDC0000000000000000000000000021000000A5
:0400000300001729B9
:00000001FF
