:1010000000020020891D0000151D0000251D0000A4
:10101000351D0000451D0000551D000000000000AA
:10102000000000000000000000000000F91C0000AB
:10103000651D000000000000AD1C0000751D0000D3
:10104000E7620000E7620000E7620000CD1E0000DA
:10105000E91E0000E7620000E7620000E7620000AE
:10106000E7620000E7620000E7620000E76200005C
:10107000E7620000E7620000E7620000E76200004C
:10108000E7620000FD630000E7620000E762000025
:10109000E7620000E7620000E7620000E76200002C
:1010A000E7620000E7620000E7620000E76200001C
:1010B000E7620000E762000000000000000000009E
:1010C000E7620000E7620000E7620000051F000021
:1010D000E7620000E7620000E76200006D6900005F
:1010E000E7620000E7620000E76200000000000025
:1010F00000000000E762000000000000211F000067
:101100002DE9F043B9B01222002106A807F0BEFC79
:101110000423059343F23903ADF82A3000231A461D
:1011200005A911A804F0CAFC002823DBDFF85880C9
:10113000DFF85C90134F144900250BAE0195009623
:101140004FF0FF33802211A804F0A0FD041EF2DB53
:10115000484607F045FE2B46324602A911A8CDE9C4
:101160000258049404F0C0FDA842E4DA384607F0BF
:1011700037FEE0E7054807F033FE012039B0BDE84F
:10118000F08300BF6B9D000080020020409D0000A6
:10119000589D000070B5064E064CA41BA4080025FF
:1011A000AC4200D170BD56F8253098470135F7E7BD
:1011B00040A000005CA0000013B5002005F0C0FBBB
:1011C000084C0146204605F021FE204606F03CFD75
:1011D000054B0648009401224FF4806105F022FE81
:1011E00002B010BD000700207F9D0000000300201A
:1011F0004FF080435722C3F81C25BFF34F8F05499A
:10120000054BCA6802F4E0621343CB60BFF34F8F13
:1012100000BFFDE700ED00E00400FA0570470000A4
:101220002DE9F74304460E461746EFF3108872B6D1
:101230000568C5B9DFF88C90051DD4E90331A268B3
:101240009A1A8A4222DC1E4A12883280581C62692D
:10125000E0600B4096E8030002EBC30383E8030061
:1012600088F3108810E055F80C390360D1E90001CB
:101270002B6983E8030028460C2100F09BFA68796B
:1012800088F3108800F0D8FA012715E097B1D9F853
:1012900000000190092100F08DFA019801462846CE
:1012A00000F026FB88F3108800F002FBEFF31088B3
:1012B00072B6C2E788F31088384603B0BDE8F08301
:1012C000B4080020B808002070B50B46044610464C
:1012D000EFF3108672B6D4E902128A4219D0481C84
:1012E000A06020696269014002EBC10103C983E883
:1012F000030065680DB355F80C39636028460C216E
:1013000000F058FA687986F3108800F095FA012009
:1013100012E078B10A4A156809212B61284600F0CD
:1013200049FA2946204600F0E3FA86F3108800F0D7
:10133000BFFAECE786F3108870BD86F31088E6E705
:10134000B808002070B50446EFF3108672B6314B32
:101350001A68536A002B56D0D2E90630984252D010
:10136000581C9061106A034039B9516929B9591C58
:1013700003D186F31088184670BD002B47DB516AF5
:1013800001EBC30103C984E8030055695DB355F857
:101390000C195161002B0DDBD2E907349169506AB9
:1013A000591A8C42A9BF591C4FF0FF332340D16119
:1013B00000EBC3042B6993E8030084E803002B7956
:1013C000062B02D186F310881BE0002328462B61F0
:1013D0000C2100F0EFF9687986F310880E2810D8F8
:1013E00000F02AFA0DE0002BECDA0421104600F0A0
:1013F000E1F986F31088084B4FF080525A60BFF332
:101400006F8F0123B7E74FF0FF330029ADD0146190
:10141000BBE700BFB808002000ED00E00346D0E9BC
:10142000072010B59C69141BA04201DA002010BDF2
:10143000541C0240DC61F9D4586A00EBC20203C9B3
:1014400082E803001A896FEA42426FEA52421A8127
:10145000184600F0E5FA0120E9E7000008B50E4B58
:1014600053F82130A3B11A79042A0BD103C81A69A1
:1014700082E8030018460C2100F09CF9074B01207C
:10148000186008BD01461846BDE80840FFF7C6BF12
:101490004FF0FF30F5E700BF04090020BC08002032
:1014A0002DE9F0411D46294B53F82140284B1B885C
:1014B0000380064690462CB985F310884FF0FF3024
:1014C000BDE8F0812379042B36D0224B014620461B
:1014D0001F68FFF7A3FF78B185F310883B79062BCF
:1014E00002D01D4B1B682BB11C4B4FF080525A6031
:1014F000BFF36F8F0120E3E7B8F1000F02D185F34E
:101500001088DDE73B793E61062B0CBF06210521E3
:10151000384600F04FF904F11400394600F0E8F9BC
:1015200023896FEA43436FEA53432381204600F047
:1015300077FA85F31088D7E7D0E90001236983E8BB
:1015400003000C21204600F035F9F2E704090020E1
:10155000B4080020B8080020BC08002000ED00E01E
:1015600010B50146EFF3108472B6054B1B8803805B
:10157000044B1868FFF752FF84F3108810BD00BFBA
:10158000B4080020B808002021230380FFF766BFBD
:10159000EFF3058313F0FF0F01D0FFF7F5BF064B04
:1015A0001B881BB2994201D1FFF7DABFEFF310831A
:1015B00072B60122FFF774BFB408002010B4EFF335
:1015C000058212F0FF0203D05DF8044BFFF7DCBF89
:1015D000074B1B881BB2994203D15DF8044BFFF700
:1015E000BFBFEFF3108372B65DF8044BFFF758BF2F
:1015F000B4080020F7B505460C461646EFF31083F5
:10160000019372B6094A17680621384600F0D2F8ED
:1016100095E80300019B3C61012284E80300314608
:10162000204603B0BDE8F040FFF73ABFB8080020FD
:1016300038B5EFF3108572B60D4BB0F9002053F8B2
:1016400022402379062B04D085F310884FF0FF3019
:1016500038BD03C9236983E8030020460C2100F04C
:10166000A9F8607985F3108800F0E6F80120EFE72B
:10167000040900200121FFF765BE0000044B1B6830
:1016800000220139C3E9062258621962704700BF7F
:10169000B8080020F8B504460D46EFF3108772B67F
:1016A00003683BB94FF0FF33036087F310880125CF
:1016B0002846F8BD11B987F31088F9E70D4B1E686D
:1016C0000321304600F076F8236801330DD106F18E
:1016D0000C0323600023F36087F31088064B4FF060
:1016E00080525A60BFF36F8FE2E73146204600F028
:1016F000FFF8F1E7B808002000ED00E070B50546FE
:10170000EFF3108672B6046814B986F3108870BDC2
:10171000631C02D100230360F7E754F80C3903601F
:101720000C21204600F046F82B6813B94FF0FF3328
:101730002B60607986F31088BDE8704000F07CB8BB
:1017400070B5174D174E2A68346832BB24B123791F
:101750000B2B04BF0C23237100F0D6FA2B68002B4F
:10176000FAD00023104A002111602A680F49B2FA0A
:1017700082F251F8222010680C380B228442027148
:101780000AD023B11A790B2A04BF0C221A71084B14
:10179000B0F906201A80306070BD2346E2E700BF32
:1017A000B0080020B8080020BC080020C4080020B1
:1017B000B40800200A29F0B503791BD90A2B15D8E3
:1017C00047791B4A52F827603C4600F10C057EB170
:1017D0003368C36052F827301D6042F82450154A20
:1017E0004FF000431468FB40234313600171F0BDC8
:1017F000C560F2E70A2BF9D90D4B457953F825203E
:101800003AB11468A2420BBF0022246843F8252095
:101810001460427953F82230002BE7D1054C4FF089
:10182000004323FA02F2236823EA02032360DDE780
:10183000C4080020B00800200B4B1B681A790A2A44
:1018400002D95B7983420ED9EFF3058313F0FF0FC2
:1018500003D0064B01221A607047054B4FF08052AF
:101860005A60BFF36F8F7047B8080020BC08002093
:1018700000ED00E008B5EFF3108372B6084B094A9B
:101880001B88094C1BB2002142F82310074A20682C
:101890001368013B1360FFF78DFF216000F0F0F942
:1018A000B408002004090020B8080020C008002067
:1018B000EFF3108072B60B4B1B681A790A2A07D90E
:1018C0005A79094B53F8221011B1096843F82210D4
:1018D00080F31088054B4FF080525A60BFF36F8F32
:1018E000704700BFB8080020C408002000ED00E0E9
:1018F00030B54C7901F10C020346006818B110F8BC
:10190000075CA542F8D9C8601A6030BD0F2A2DE9DE
:10191000F84316461F4626D810F003031EBF0439AD
:10192000C918C3F10402A1F1280118BF801821F0E1
:101930000303C418EFF3108972B62149012251F84C
:1019400022500FFA82F88DB10132212AF7D189F3A2
:1019500010886FF08A082FE002212046FFF72AFF47
:1019600089F3108828E06FF0150825E041F822403F
:101970000246A4F80680DDE9080100F04DF9114A9D
:1019800020604FF0FF33C4E90835136866710133F6
:101990001360FB07C4E90355C4E905552571E561EA
:1019A000DAD40C212046FFF705FF7A07D8D489F353
:1019B00010883046FFF740FF4046BDE8F88300BF7F
:1019C00004090020C00800200C4B10B51B68EFF381
:1019D000108472B61A8910420DD118610721184679
:1019E000FFF7E8FE84F31088054B4FF080525A60F1
:1019F000BFF36F8F10BD84F31088FBE7B808002099
:101A000000ED00E010B50346EFF3108472B60288D3
:101A100002EA010022EA0101198084F3108810BD56
:101A200010B50379048A072B04D0082B0DD00024AD
:101A3000204610BD03891C40002CF9D00C21FFF773
:101A4000B9FE054B01221A60F2E7038934EA030369
:101A50000CBF01240024EFE7BC08002013B5064B9F
:101A600001901C68FFF7B0FF019904F1080002B073
:101A7000BDE81040FFF7C6BFB808002010B5EFF36F
:101A8000108472B6038902791943072A038A0181F7
:101A900004D0082A14D084F3108810E019400029DB
:101AA000F9D00C21FFF786FE084B01221A6084F35F
:101AB0001088074B4FF080525A60BFF36F8F10BDF4
:101AC0008B430CBF01210021E9E700BFBC080020C7
:101AD00000ED00E008B5FFF75DFB034807F080F973
:101AE000FFF70EFB002008BD859D00001FB5EFF33A
:101AF000108372B6074B029300230193064B0093A9
:101B0000072204234FF4C0610448FFF7FFFE00F0F2
:101B1000B7F800BFC09D0000D51A0000880900205A
:101B200008B504F0CBFFBDE8084006F0A1B8704747
:101B300008B50B4B1A680C4652B901221A60FFF720
:101B4000F6FF0848214607F0C3F8074807F048F9B0
:101B5000EFF3108372B600F05DF800F049F900BFB2
:101B6000880F0020C59D0000E19D000070B50D4666
:101B700000210446FFF78EFD0D4E70B9BFF35B8F59
:101B8000E388BFF35B8F32881BB212B29A4204D053
:101B90006DB901212046FFF77DFD3388BFF35B8FD0
:101BA000E380BFF35B8FA3880133A380012070BD66
:101BB000B40800200021FFF7D9BF8388013B9BB206
:101BC000838033B9BFF35B8FC380BFF35B8FFFF7B5
:101BD00095BD70470C4B0D4A10B540219A600C4CD6
:101BE000E02283F82220D9770022A0180132302A7F
:101BF00080F80013F9D11A6942F010021A615A698B
:101C000042F400725A6110BD00ED00E000100000C7
:101C100000E100E070470000134423F003034FF09D
:101C2000773210B543F8042C5A0758BF4FF088326A
:101C3000A3F104045CBF43F8082CA3F108044FF09F
:101C4000807344E902030D4B44F80C3C002203234B
:101C500044E9053202200123224644E907306FF0AF
:101C6000020344F8201C42F8243D0B2342F8043DB3
:101C7000013B032BFAD1A4F1440010BD75180000FC
:101C80000023E1EE103AEFF3148323F0040383F30F
:101C90001488BFF36F8FEFF3108362B6024B4FF0DF
:101CA00080525A60BFF36F8F00ED00E0114910B50C
:101CB0000C6872B6FFF744FD62B6A04208BF10BDC3
:101CC0002146BDE8104049B1EFF309821EF0100F24
:101CD00008BF22ED108A22E9F04F0A600068B0E8E0
:101CE000F04F1EF0100F08BFB0EC108A80F3098887
:101CF00070470000B8080020024B4FF080525A6035
:101D0000704700BF00ED00E030BF62B6BFF36F8FD9
:101D100072B6704708B502490620FFF709FF00BFF9
:101D2000F39D000008B502490720FFF701FF00BF3F
:101D3000FF9D000008B502490520FFF7F9FE00BF2E
:101D4000129E000008B502490820FFF7F1FE00BF0F
:101D5000259E000008B502490920FFF7E9FE00BFF3
:101D6000379E000008B502490A20FFF7E1FE00BFD8
:101D70004B9E000008B502490B20FFF7D9FE00BFBB
:101D80005D9E000070477047134A08B5D2F888304E
:101D900043F47003C2F88830FFF7F4FF0F4B104A8A
:101DA00010498B4210D3104B104A0021934210D39C
:101DB000FFF7E9FF00F04EF8FFF730FA06F010FDEC
:101DC000BDE80840FFF792BE52F8040B43F8040B3D
:101DD000E7E743F8041BE9E700ED00E0000200201C
:101DE00064A00000800200208002002058340020FF
:101DF000BFF34F8F0549064BCA6802F4E0621343F4
:101E0000CB60BFF34F8F00BFFDE700BF00ED00E0E8
:101E10000400FA050C4B1B78062B12D10B4B1868EB
:101E200010F00F000DD104331B6803F0F003302BCA
:101E300008D1074B1B6813F0F00F0CBF01200020E6
:101E400070470020704700BFE00F00F0E40F00F083
:101E5000EC0F00F008B5FFF7DDFF20B1114AD368A1
:101E600023F08073D360FFF7D5FF10B10E4B032230
:101E70001A60FFF7CFFF30B14FF080430022C3F864
:101E80000C21C3F8102100F059F8084B0122C3F8C7
:101E90004025FFF79FFEFFF743FEBDE8084004F032
:101EA00003BE00BFF0ED00E0A005004000E00140EF
:101EB000044B1B682BB1044B4FF080525A60BFF3A8
:101EC0006F8F7047BC08002000ED00E008B5044AA1
:101ED000044B10681B689847BDE80840FFF7E8BF4F
:101EE0009C0F00208C0F002008B5044A044B50685A
:101EF0005B689847BDE80840FFF7DABF9C0F0020F9
:101F00008C0F002008B5044A044B90689B689847E2
:101F1000BDE80840FFF7CCBF9C0F00208C0F0020CD
:101F200008B5044A044BD068DB689847BDE8084010
:101F3000FFF7BEBF9C0F00208C0F002070470000F1
:101F4000EFF3108172B6094B1A680132012A1A6048
:101F500009D14FF080430020C3F800011A60D3F884
:101F60000021002AFBD081F310887047AC0F0020BD
:101F7000EFF3108172B6064A1368013B13601BB978
:101F80004FF0804301225A6081F31088704700BFF0
:101F9000AC0F0020114A117838B5F1B94FF08043E9
:101FA0001C46C3F81815C3F8041101219960D4F830
:101FB0000431002BFBD001251570FFF7C1FF002372
:101FC000C4F80C314FF080422561D2F80C31002B5F
:101FD000FBD0BDE83840FFF7CBBF38BDB00F0020C5
:101FE000036802463BB11868834219BF02681A6051
:101FF00000231360704718467047EFF3108272B6E3
:102000000B6833B903685BB11B680B600368196028
:102010000160406882F3108820B10121FFF72EBDD6
:102020000960F5E7704708B5EFF3108172B6FFF766
:10203000D7FF81F3108808B10023036008BD0000BA
:1020400038B58569044685B10A4B18684369013380
:102050000CD005F0E8FE23696A68C11A8A4226BFDF
:102060009B181B1A00236B60206138BD83685B6876
:102070009847F0E7909F00008369084A10B504462E
:1020800010682BB15A68214605F022FF206110BD6F
:102090002146BDE8104005F0FFBE00BF909F000044
:1020A0008369002210B504465A60A06930B14368C4
:1020B00023B90368A36163699847F6E72046BDE842
:1020C0001040FFF7D9BF000070B505460C46EFF38E
:1020D000108672B6FFF7B4FF05F118031A68EAB963
:1020E00022601A681AB151686068091A51601C6050
:1020F000AB69A34206D10D4B62681868294605F00A
:10210000E7FE286186F31088094B1B682BB1094B49
:102110004FF080525A60BFF36F8F70BD6168506896
:102120008142DDD3091A61601346D7E7909F000012
:10213000BC08002000ED00E070B504460D46EFF34A
:10214000108672B6FFF77CFFA26904F118012AB964
:102150002046FFF791FF86F3108870BD9542136803
:1021600002D011461A46F2E70B60002BF0D05A68F5
:1021700069680A445A60EBE7034B4161C0E90230E9
:1021800000238361704700BFA120000038B1054BD8
:102190000A0901F00F019A5C5B5C02704370022037
:1021A000704700BF6B9E0000F8B50D46570006460D
:1021B00010B18C18A54201D13846F8BD304615F84B
:1021C000011BFFF7E3FF0644F4E790B1D9B1002308
:1021D00040EA0102D2070ED5C20710D5CA0710D5B2
:1021E00081423EBF024608461146091AF6D100FA5E
:1021F00003F108467047400849080133E8E7400802
:10220000EAE74908EAE70146F3E72DE9F0470D461A
:102210008046114628461446FFF7D7FF854241D332
:10222000B4FBF0F2B5FBF0F04FF0004EB0FA80FCDA
:102230000021CCF120072EFA0CFE0E4600240025CA
:102240000023CCF15F0C14EB040A45EB050910EAFE
:102250000E0F54464D464FEA460603D04AF0010A97
:1022600054464D469D4208BF94424FEA5E0E12D33B
:10227000A41A65EB030546F00106002E0EDA54EAB7
:10228000050300D00136C7F12007C8F8006088F8C0
:102290000470BDE8F087002EEFD1013F01316145A8
:1022A000D1D3ECE700273E46EDE7F8B504890646B2
:1022B0000F46154600200DB1AE4218D13289716823
:1022C000002303F0D5FE04F13A030344B3F5803F45
:1022D00024BF013080B2396820443A3000232022E4
:1022E000083180B203F0C4FEC04380B2F8BD23467B
:1022F0002A89696803F0BCFEAB682D681C44A4B24F
:10230000D9E72DE9F0410C4680460221204603F032
:102310008BF80546012103F087F8AB68032B0646CE
:1023200005D820460021BDE8F04103F085B8011D25
:10233000224628466F68FFF7B8FF0028F1D13B78A6
:10234000892B08D8842B0AD9AB6871683A46404675
:1023500001F012FE03E06333DBB2012BF4D93978CC
:10236000234640F20122022002F0DCFB0028D8D0F4
:10237000BDE8F08138B50D46144600211A46022307
:1023800003F088F928B1436800221D705C709A70D0
:10239000DA7038BD10B5044668B190F91030022BE0
:1023A0000CD102680431FFF780FF50B1626843BA74
:1023B0005380002010BD6FF00D00FBE76FF04C0064
:1023C000F8E76FF00100F5E7002103F035B80000F1
:1023D00008B50449102206F027FAB0FA80F0400947
:1023E00008BD00BFC09E000010B50A49082204467F
:1023F00006F01AFA48B12378FF2B08D1607800F074
:102400000F00831E5842584110BD0120FCE70020F8
:10241000FAE700BFB09E00002DE9F8430F46D1E96E
:10242000001405460A4600232ABB5BBAA380A379A1
:10243000FF2B02D119BB3B23A371E37913B94DBB29
:102440004023E37104F1080639491022304606F0B2
:10245000EBF904F11809804678BB4846FFF7B8FF4E
:102460000246D0B110224146304606F00FFB012350
:10247000E3753C4644E0906812680344D4E70B7C63
:10248000013BDBB2022BD6D82A4AD35CA371FF2BC7
:10249000D3D1D0E795F85C31D3E74946284602F01E
:1024A00024FC0028E5D0034600F1100253F8041B79
:1024B00046F8041B9342F9D1DBE7284602F0F6FB0D
:1024C0004846FFF785FF40B10024284602F0F5FB9F
:1024D000002CCED06FF07C0022E03146284602F07E
:1024E000F3FB0028F0DB2844047D04F01F04103CBB
:1024F00018BF0124E9E703F0EBF898B12060044627
:1025000094F91030012B02D120680028F3D139460C
:10251000204602F078FF002807DA831C08BF00205D
:10252000BDE8F8836FF00B00FAE70020F8E700BF82
:10253000E09E0000809E000010B50C46FFF76CFF87
:10254000002804DA2046FFF73FFF002010BD0120DD
:10255000FCE710B50C46D1E9003170B1B0F95E214D
:102560004A8000225BB9B0F8B83093420BD22046C3
:102570007A21BDE8104002F05FBF0246F0E799689B
:102580001B680A44EEE7B0F95E0140F202222146E0
:1025900002F0BDFA002804DC2046BDE81040FFF739
:1025A00013BF10BD002370B504460D4642F040062F
:1025B00019461A46184602F048FE014620B9204640
:1025C000BDE87040FFF700BF43681E7104602846F5
:1025D000BDE87040FFF7BDBF80B590B0102200216C
:1025E00005A806F053FABB4BBB481B88BB4FADF8A0
:1025F000203008210697FFF741F805A9012002F0D5
:10260000C1FE40F20523ADF80E3040F2022840F240
:10261000012401A8FFF72EF8BDF80610B1F5017FDF
:1026200027D8414500F2B281A14259D04145F0D1AD
:10263000029E96F91030013340F006817468B4F9B7
:10264000020002F028FB0546304694F8049003F09F
:102650003FF809F03F090146002859D002F032FF47
:10266000064696F91030012B00F0F2801621304614
:1026700068E0A1F59F43403B9AB2152AC9D8152BB3
:10268000C7D801A252F823F09D2900009D2900001F
:102690009D2900009D290000132600009D290000AF
:1026A0009D2900009D2900009D2900009D29000012
:1026B000132600009D2900009D2900009D2900008F
:1026C0009D2900009D290000132600009D2900007F
:1026D0009D29000013260000A5290000AD29000057
:1026E000029E4FF0FF31304602F09EFE054628B1B3
:1026F0004368B3F9020002F0CEFA054673683BB1B5
:10270000B268272A04D91B7803F0F003602B01D0AC
:1027100030460DE0304602F0DBFF04460028F7D0DB
:102720000122282102F0F6FF0023237418B9204665
:10273000FFF74AFE6BE7D0F8049099F8073023B909
:102740007421204602F078FE61E7B9F8041099F888
:10275000066049BA89B209B93B2EE8D18442A36820
:1027600058D09942204655D203F042F809F1180991
:102770004846FFF72DFE70B94846FFF735FE08B111
:10278000002D56D1484602F097FB0546B0FA80F37B
:102790005B09002BCBD1292E4FD03A2E4FD0112ED2
:1027A0000CBF0323002323743146012002F013FEE3
:1027B000002801DC3A2E44D10121204602F0E4FE3B
:1027C0004FF0010994F91000234640F201223946E6
:1027D00002F0A8F910B92046FFF7F6FDB9F1000F95
:1027E00010D03A2E03D10121204602F0CDFE23461F
:1027F00040F201223146012002F094F910B920463E
:10280000FFF7E2FD3A2E7FF402AF21462846FFF79C
:1028100078FDFCE6002283681A4490F91030012B01
:1028200002D000680028F6D1283A8A429ED21621AA
:1028300087E7484602F040FBA8E70123B3E70223FD
:10284000B1E74FF00009BDE74FF000094D4608E73A
:10285000706823491022183005F0E6FF00283FF485
:1028600005AF304602F034FF044600283FF450AF75
:1028700043681A7EFF2A35D1002D40F09C8002F07B
:10288000FDF900283FF453AF411E204602F07CFEC4
:1028900004E04A4629463046FFF784FE284602F007
:1028A000EBF9054600283FF4B2AE204602F010FFD7
:1028B000064600283FF43BAF01462846FFF7ACFD33
:1028C0000028E6DAB4423FF432AF3046FFF77CFD31
:1028D0002DE700BFB4080020B40F00200000FFFF68
:1028E000E09E000003F1180A504602F0E5FA854226
:1028F000064605D05046FFF777FD002818BF002692
:102900005046FFF765FD00B9BEB121463046FFF7DE
:1029100013FE00283FF47BAE204602F0AFFD0028F6
:102920007FF405AF234640F201223946012002F030
:10293000F9F800287FF46BAEF9E609AB2246294688
:10294000504601F039FA0028FFF661AEBDF83C00B0
:10295000C0F3041002F09FF921460546FFF7ECFD95
:1029600000283FF454AE31469DF83E300DAA304663
:1029700002F06BFC014600283FF4D9AE436883F8AF
:10298000049004602846FFF7E4FD40E66FF08503FD
:1029900003A901A80493FEF74BFE38E6029801F064
:1029A000C3FD34E6029801F0A7F930E60298002151
:1029B00001F0D0F92BE601462846FFF7BDFD0028BF
:1029C0003FF425AE4A4629462046FFF7EBFD1EE6BA
:1029D0001FB50A4CB4F900305BB9094A0948CDE982
:1029E0000132094A00924FF470710422FEF78EFF03
:1029F0002080B4F9000004B010BD00BFB413002063
:102A00007B9E0000F40F0020D925000008B50121AD
:102A100002F00AFD00B1406808BDF8B50C46174643
:102A200001232822002102F035FE064600B3456846
:102A300005F10800F4B12146034604F1100251F8F3
:102A4000040B43F8040B9142F9D105F11800B7B11A
:102A50003A46034607F1100152F8040B43F8040B01
:102A60008A42F9D160232B60FF23AB710023EB7105
:102A70003046F8BD1022214606F008F8E5E710229E
:102A8000394606F003F8012385F82730EAE700000D
:102A90002DE9F0411F460B4B144605460E460A48E9
:102AA000B3F900801146FFF747FB0023C4E9003764
:102AB0006681E560A4F8088021460348BDE8F0413E
:102AC000FFF702BBB41300205015002038B50446B0
:102AD000154699B190F844209A4205D01A46023121
:102AE000183005F0A1FE58B9B4F84010B5F900004F
:102AF000C1F30411081A18BF012038BD0846FCE7CD
:102B00000120FAE713B50024009401F0D5FE02B0CD
:102B100010BD70B50446B0F84000C0F304100E4676
:102B200002F0B9F8054602F0C1F816B1002384F8A6
:102B3000433004F10803184600222946FFF7E2FF5C
:102B4000D5F8B03004F1200244F6C0712046FFF7FA
:102B50009FFF284602F0B1F894F84330013384F81F
:102B6000433070BD2DE9F84301F108090646B0F97C
:102B70005E11484690461F4600F0B4FA044628B15C
:102B800090F8423013F0010F08BF002496F85D0161
:102B9000394603F013FB051E1CDBC4B394F8443024
:102BA000AB4206D12A46B91C04F1180005F03CFEE0
:102BB00060B1204804F12001FFF7BEFAB4F84030BC
:102BC00023F0070343F00303A4F8403094F84230A5
:102BD000DB0701D4BDE8F88398F80030862B0FD1CD
:102BE000B4F8403043F00803A4F8403084F844506F
:102BF0002A46B91C04F11800BDE8F84305F044BEAC
:102C0000872BF3D0B4F8403023F00803ECE7B6F993
:102C10005E110322484600F0D9FA04460028D9D0B4
:102C200098F80030872BD1D1B4F8403023F0080356
:102C3000CAE700BF501500202DE9F043B0F840303E
:102C400013F0070585B00446884667D06A1E012A3E
:102C500067D8C3F3041002F01EF844F6C1710646AB
:102C6000204600F0EBFD8146304602F01FF8D6F812
:102C7000B0704F454FD2B8F1000F02D0002384F856
:102C80004330012D20D194F8438040F2DC51A8F16B
:102C900002084FF4FA7003F053FF5FFA88F805FA60
:102CA00008F5A5FB0723A2FB008900FB03994FF45D
:102CB0007A7200234046494605F0E6F94EF6602355
:102CC000984228BF1846074640F2FF220023CDE96C
:102CD00000234FF080730293FF238DF80C30637D47
:102CE0008DF80D30E38AADF80E3000226B46314688
:102CF00004F10800FFF706FF3B4604F1200244F60A
:102D0000C1712046FFF7C4FE94F84330122B9CBFDC
:102D1000013384F84330304601F0CFFF05B0BDE801
:102D2000F083FFF7F6FEF9E7B0F8402002F0070362
:102D3000022B10B5044606D0052B11D0012B20D153
:102D40000021204608E090F84330022B03D9BDE86B
:102D5000104000F0EFB90021BDE81040FFF76CBF54
:102D600090F84330022BEBD9C2F3041001F093FF2B
:102D7000B4F8403023F0070343F00103A4F84030D7
:102D8000DEE710BD38B50446B0F8400000F0070398
:102D9000042B15D0062B15D10325C0F3041001F028
:102DA0007AFFB4F8403023F007032B43052DA4F835
:102DB000403007D120460121BDE83840FFF73CBF35
:102DC0000525EAE738BD000010B50446D0F89400A8
:102DD00000EB5001400803F0B3FE04F15402C4F8C4
:102DE0009800044B204644F6CE71BDE81040FFF732
:102DF0004FBE00BF00DD6D00B1F8403023F0070387
:102E000010B443F006030C46A1F8403001F1200253
:102E1000D0F8AC3044F6C77120465DF8044BFFF79C
:102E200037BE00002DE9F84F80460C4615461E4679
:102E300043B190F85D01194603F0C0F9071E02DAAC
:102E4000BDE8F88F1F46B4F8409009F00709B9F1C2
:102E5000020F10D095F800A0BAF1880F02D12B799B
:102E60009A0608D43B4608F5AF7231462046FFF774
:102E70002DFE002855D07EB384F844703A46B11C2C
:102E800004F1180005F000FD2B78882B02D12B7976
:102E90005B0624D4404804F12001FFF74DF9B4F853
:102EA000403023F0070343F00303A4F840302B78AD
:102EB000882B0CD12A79900669D5B4F840301106D8
:102EC00054BF23F0080343F00803A4F84030DFF8B0
:102ED000CCB04FF0000A0FE084F84460D4E72146FC
:102EE0004046FFF789FFE2E7D9F80400092102F024
:102EF000A3FA0023C9F80430D4F80490B9F1000F04
:102F00001ED0D9F80030636040F20222D9F80430B4
:102F1000C9F800A05946012001F004FE0028E8D1BC
:102F2000E2E7BAF1880F8BD1B9F1000F88D02B7985
:102F30005B0685D521464046BDE8F84FFFF75CBFEC
:102F40002B78882B7FF47CAF2B795A063FF578AF2E
:102F5000B4F8403003F00703062B7FF471AF3B4613
:102F600008F5AF7231462046FFF7B0FD00283FF468
:102F700067AF094804F12001FFF7DEF8B4F84030EC
:102F800023F0070343F00303A4F8403058E7B9F1F6
:102F9000020F9CD191E700BF501500200000FFFFF9
:102FA000B1F8403023F007031A43A1F840207047DE
:102FB000B0F8400000F007000138012894BF00205D
:102FC0000120704730F9081FFEF7DEBA08B590F807
:102FD000421021B9482205F059FD012008BD00200A
:102FE000FCE770B5044610460D461646FFF7EEFFA7
:102FF00054B1204606F1080304F1100250F8041BF6
:1030000043F8041B9042F9D1B6F840302D0123F467
:10301000F87305F4F8751D43A6F8405070BD000024
:10302000064A13683BB11868834219BF02681A60E8
:103030000023136070471846704700BF4C150020EE
:1030400008B501F1080340B906491022184605F0F9
:10305000EBFBB0FA80F0400908BD1946BDE8084016
:1030600003F04CB8E09E000001490248FFF784B825
:10307000C52F0000501500200148FEF79BBD00BF82
:103080006C1500200148FEF798BD00BF6C150020AC
:103090002DE9F041124C06460F4604F590780025C4
:1030A000B4F84030C3F304139F420CD025B994F810
:1030B0004230002B08BF25464834A045F0D14DB919
:1030C0002846BDE8F08121463046FFF7B9FF0028C9
:1030D000ECD025462A4639463046FFF782FFEFE717
:1030E000741500202DE9F041114C06460D460027CD
:1030F00094F84230A0464BB90137042F04F148043C
:10310000F6D14FF000084046BDE8F081B4F84030F9
:1031100013F4F87FC3F3041202D00DB19542EBD142
:10312000314604F1080002F0E9FF0028E4D0EAE7A4
:1031300074150020F8B590F8423023F001030446DE
:1031400080F8423000F130011E48FEF7F5FF1D48BF
:1031500004F12001FEF7F0FF65680027A5B1636860
:103160002E689D4208D1666068682F60762102F063
:1031700063F96F603546F1E71A461B68002BF3D000
:103180009D42F9D11660EFE70F4A116821B10B6833
:103190009C4206D1FFF744FF2046BDE8F840FFF708
:1031A00015BF0B461B681868844202D09942F9D1BA
:1031B000F2E7002BF0D02168196011688C4208BF3B
:1031C0001360E9E7501500204C1500202DE9F84F59
:1031D0000746884602F00706FFF75AFF0446002814
:1031E0004CD1FFF71DFF0546002864D0DFF8CCA0C6
:1031F0008346D1469BF8424034F001042DD1BBF800
:10320000403003F4C06383B95846FFF793FF5A4632
:1032100041463846FFF7E5FEBBF840303343ABF894
:10322000403001238BF842305C46DAF80030B3B10D
:103230001B68CBF80030DAF80030C3F800B0C9F8EA
:1032400000B0C4B9FFF7ECFE85428346D2D1D9F86D
:1032500000303BB9CBF800B00BE00024E5E7CBF839
:1032600000B0ECE71B68CBF80030D9F80030C3F8A9
:1032700000B0C9F800B02046BDE8F88F90F84230A1
:10328000DA070AD4B0F8402022F00702324343F0B4
:103290000103A0F8402080F842302368002BEAD1D7
:1032A000064B1A682AB1126822601A6814601C6002
:1032B000E1E72460FBE70446DDE700BF4C15002092
:1032C0000B4630B400F108011A4600F1180451F819
:1032D000045B42F8045BA142F9D1B0F840201A83A4
:1032E00090F844209A7630BC03F1100005F0CCBA77
:1032F000F8B5164C256807460E46ADB1B5F8403016
:10330000C3F30413994201D00020F8BD05F1080170
:1033100002F0F4FE0028F7D095F8423043F008039D
:1033200085F842302046F0E7FFF7B2FE0246206003
:103330000028E9D031463846FFF753FE226892F85C
:10334000423043F0080382F84230EBE7B813002024
:10335000036810B504468BB1011D0C48FEF7ECFE66
:10336000206890F8423023F0080380F84230FFF7DD
:103370002DFE14220021204605F088FB044B1A681C
:10338000A24204BF00221A6010BD00BF50150020E9
:103390009416002028B11430074A904203D300202D
:1033A00070470648F8E703681BB193F84230002BDA
:1033B000F6D11430F1E700BFCC130020B813002081
:1033C00008B50A4B1B687BB129B1B3F84020C2F3A2
:1033D0000412914208D108B9044808BD03F108015C
:1033E00002F08CFE0028F7D10020F6E7B813002089
:1033F00010B5134C2168B9B10B68B3F8403003F035
:103400000703013B012B0DD80020FFF7C3FF68B96C
:103410000846FFF7BFFF01B110B90020FFF7BAFF60
:1034200020600146084610BD0846EEE70368B3F881
:10343000403003F00703013B012BF1D8E5E700BF63
:103440009416002038B50D46044610220021284667
:1034500005F01CFB144A12680023A24285F82030B4
:103460000AD1F4B12368B3F8403003F00703013BFD
:10347000012B94BF0023012385F82130236805F137
:10348000100103F10802183352F8040B41F8040B41
:103490009A42F9D12368B3F84030C3F304136B8424
:1034A00038BD2346E8E700BF941600202DE9F74F0A
:1034B0004FF000093D4F0546884693461E464C4650
:1034C00097F82430E3B9002C08BF3C4609F1010904
:1034D000B9F1080F07F13007F2D1002C3BD0236877
:1034E000002B4CD141462846FFF7D2FD074620600D
:1034F000002844D101463022204605F0C7FA29E0D1
:1035000097F82530B342E1D13846594650F8043B8C
:10351000019302F008FEB042D8D3019BB3F84020DB
:10352000C2F304129045D1D103F1080A20491022B8
:10353000504605F079F9019B88B9BDB9302303FBEA
:1035400009F91A4B53F8092092F8423043F040032E
:1035500082F842303C46204603B0BDE8F08F194661
:103560002846FFF76DFD0028B0D0E6E705F110030F
:1035700055F8042B4AF8042B9D42F9D1DEE7226866
:1035800041462846FFF72DFD2046F6B250F8042BA1
:1035900092F8423043F0400382F8423059463246B6
:1035A00002F0E1FD84F82560D5E700BFCC130020D0
:1035B000E09E000010B590F824300446DBB90068A6
:1035C00090B10D4B08229C4202D0196888420BD062
:1035D000013A03F13003F6D190F8423023F0400372
:1035E00080F84230FFF7F2FC20463022BDE8104060
:1035F000002105F04BBA10BDCC13002028B13030AB
:10360000064B984203D3002070470548F8E790F82E
:103610002420002AF8D13030F3E700BF4C150020F9
:10362000CC130020034630B4021D03F114040846F5
:1036300052F8045B40F8045BA242F9D193F82520CC
:1036400081F82020002481F821401A68B2F8400057
:10365000C0F30410488493F82430042B01F11000C7
:1036600004D12146102230BC05F010BA02F1080343
:103670000146183253F8040B41F8040B9342F9D178
:1036800030BC70472DE9F843194D0024804616469A
:10369000274605F5C07995F824305BB14146281DD1
:1036A00002F041FDB84205D995F8253083429CBF10
:1036B00007462C4630354D45EDD134B194F82430D1
:1036C000042B0FD1E38CDB070CD4FFF791FE18B964
:1036D00044B96FF0710003E03146FFF7B3FE0020FC
:1036E000BDE8F88331462046FFF79CFFF7E700BFAF
:1036F000CC13002010B5044600F114010648FEF773
:103700001BFD94F8243023F0040384F82430204671
:10371000BDE81040FFF74EBF501500202DE9F341E2
:10372000044600F114011748FEF706FD2368B3F8BC
:103730004000C0F3041001F0AEFA0546E0B100F11C
:103740001606211D304694F82580019102F0EBFC0D
:1037500005F126078045019998BF94F825803846E1
:1037600088BF002602F0DFFC804501D926B137462C
:103770003946284601F001FD204602B0BDE8F0417F
:10378000FFF7B8BF501500202DE9F3411F4613463F
:103790000A4601460020089EFFF788FE05460028DD
:1037A0003AD090F8243007EA060443F0040380F886
:1037B0002430601C38D01E4B1868436901332FD069
:1037C00004F031FB711C04461DD01A4B1A48B3F9A2
:1037D000008005F114010191FEF7AEFC0023C5E95C
:1037E000053644F6CC7301991348EB832D62A5F896
:1037F0001C80FEF769FCB21C05D03319013301D1DE
:1038000004B101362644FB1C10D83B19013308BF14
:1038100001373C44C5E90A46284602B0BDE8F081BC
:1038200083685B689847CDE72646F3E73C46F1E7B7
:10383000909F0000B41300205015002010B50A4BD3
:103840009B690246002013B94FF0FF3010BD5C6841
:1038500020445C898C4204D1002AF7D0DC68944271
:10386000F4D01B68EFE700BF5015002038B50446C0
:1038700008460D4601F020FB206060B101F016FA09
:103880002068294601F020FA002804DB236803445D
:103890001B7D5B0701D14FF0FF3038BD7FB504467B
:1038A0000E46154600211022684605F0EFF8D4F8C0
:1038B000BC30DB071AD594F8D82002AB04F1D00154
:1038C000204601F0B2FC002810DB2A46314668464B
:1038D00002F049FC6946204601F0F6F9002805DAB5
:1038E00007232A466946204601F054FB04B070BD08
:1038F00070B50D4688B0044601F03FFC38490822F7
:10390000284604F091FF38B12B78FF2B63D16B78F8
:1039100003F00F03022B5ED1D4F8BC5015F0010563
:103920000BD094F8D82004AB04F1D001204601F06C
:103930007CFC0028D4BF00250125204601F0BDF9FC
:1039400002264FF40173CDE90063B4F95E010DF175
:103950000E030022052101F0C1F800283DDBBDF86F
:103960000E1006A802F062FC40F203230193BDF89A
:103970000E3000933146B4F95E0106AB002201F02F
:10398000ADF8C643F60F204601F090F91EB3EDB135
:10399000DDE90401D4F82230D4F81E208B4208BFA0
:1039A000824204D104F11601204601F0E6FBDDE974
:1039B0000401D4F83230D4F82E208B4208BF824262
:1039C00004D104F12601204601F0D7FB044940222E
:1039D0002046FFF763FF08B070BD0026D3E700BFA5
:1039E000B09E00002DE9F04389B001460446002551
:1039F00003A80395FFF73AFF061E36DB40F2FF22CD
:103A00000023CDE904234FF080730693FF238DF844
:103A10001C30637B8DF81D30E389174A0399ADF89C
:103A20001E30204604ABFFF76DF8711C039C134B4E
:103A30001348B3F90080D4F8B09009018F1D783194
:103A400021440191FEF778FB04EB0610274444F66D
:103A5000D273C0E92259A0F89230C0F89470A0F84F
:103A6000908001990648FEF72FFB039808B101F0FA
:103A700024F909B0BDE8F083E09E0000B4130020F3
:103A80005015002007B50023014601A80193FFF758
:103A9000EDFE031E019806DB03441A7D22F01F028F
:103AA00042F010021A7508B101F007F903B05DF891
:103AB00004FB000010B50A490822044604F0B4FED5
:103AC00048B12378FF2B08D1607800F00F00831EE7
:103AD0005842584110BD0120FCE70020FAE700BF22
:103AE000B09E000008B50449102204F09DFEB0FA13
:103AF00080F0400908BD00BFE09E0000002101F0F9
:103B00009BBC08B5FFF7EEFA28B190F8423013F0ED
:103B1000010F08BF002008BD38B505685DB195F8F4
:103B200042301B0707D5FFF713FC00242046FFF7A0
:103B300065FD044600B938BD23689D42F6D1FFF704
:103B400039FDF3E72DE9F0411F460B4B14460546BE
:103B50000E460A48B3F900801146FEF7EDFA00233D
:103B6000C4E900376681E560A4F80880214603486F
:103B7000BDE8F041FEF7A8BAB413002050150020AC
:103B80002DE9F84F0A9C174698460E46002900F08A
:103B9000988091F85D310A2B40F08480434600F113
:103BA000100250F8041B43F8041B9042F9D1B6F8F8
:103BB0005E311B01A8F81830002388F81A3001255F
:103BC0002846BDE8F88F2046FFF7F2F9B4F84030F8
:103BD000054603F00703A0B1032B0DD104222146B3
:103BE0003046FFF7DDF941F2883304F1200244F654
:103BF000C8712046FFF7A6FF41462046FFF760FB4D
:103C0000DEE7012B09D1032384F843306FB929463D
:103C10002046FFF711F852E00125002FF7D0B4F845
:103C2000403003F00703022B04D07621384601F020
:103C300003FCECE7254A4FF0000A934602EBCA0961
:103C4000D9F8043073B9C9F804708EB900234BF861
:103C50003A3063681BB31A461B68002BFBD1C2F8CD
:103C60000090D4E70AF1010ABAF1040FE6D123E08B
:103C70001A461946184601F0E8FA804628B938462F
:103C8000FFF73CFFC9F8048019E04368B6F95E21EC
:103C90005A80D9F804300360C9F80400D6E7C4F8A4
:103CA0000490B4E7002C8ED1B6F95E110222FFF722
:103CB0008DFA04460028AFD13846FFF71FFF0025D4
:103CC0007EE7002C7FF47FAF3146EFE798160020A7
:103CD00038B5084DFFF7D0F9A96929B10C68284615
:103CE000FEF72AFA2146F8E7FFF7BEF9BDE83840AB
:103CF000FFF7C8B95015002038B5044600F0D6FFCC
:103D000047F23053C4F8A83004F114000025FFF73F
:103D10005BF80E49A4F8B450204601F0E4F84022C4
:103D200020460B49FFF7BAFD4FF47A71284602F09E
:103D300007FF04F17802034644F6C3712046FFF7FB
:103D400001FF2046BDE8384000F0B7BF909E00005C
:103D5000B09E000013B5044600F0A8FF144804F11B
:103D60006801FEF7E9F9124804F17801FEF7E4F979
:103D700004F1160108460191FFF79CFE019910B16C
:103D8000204601F0FAF904F1260108460191FFF7F7
:103D900091FE019910B1204601F0EFF92046054946
:103DA00001F096F9204602B0BDE8104000F085BF52
:103DB00050150020909E00002DE9F0470C468CB075
:103DC000054608461746994600F070FFFFF754F97C
:103DD00094B3B4F95E112846FFF793FE0646002817
:103DE00000F0C280B0F84080C8F304182846FFF7FE
:103DF00061FE002861D1B8F1000F5ED0204600F0CE
:103E00005CFF404600F047FF0446FFF73BF92046C1
:103E100000F04CFFFFF730F9002C3AD1002F4FD1C2
:103E20003C466FF07506FFF72DF9204600F045FF80
:103E300030460CB0BDE8F0872146CCE708F104011C
:103E4000284602F070F998F82530984207D3BAF165
:103E5000000F1AD09AF825209A4238BFC246404631
:103E6000FFF7CCFB80460028E8D1BAF1000F2FD035
:103E70009AF824305A072BD5BAF82630DB0727D515
:103E8000DAF80030B3F84080AEE7C246E7E7B04664
:103E9000ACE7B4F95E112846FFF733FE06460096FC
:103EA0004B463A4621462846FFF76AFE002818BFCF
:103EB000002608BF6FF07506B5E7002CEFD1ADE71F
:103EC0007621384601F0B8FA6FF075060024AAE7AB
:103ED00003AA39462846FFF7D5FB061E2ADB07A8AA
:103EE000FFF700FE58B12EBB07AA05F1100C286899
:103EF0006968134603C3083565451A46F7D10CBBFC
:103F0000BDF92E0000F0C7FE0446FFF7BBF82046BF
:103F100000F0CCFEFFF7B0F81CBB214607A8FFF766
:103F2000F0FD4B4600903A46214607A8FFF728FED1
:103F30000028BEE71FB17221384601F07DFA6FF00C
:103F4000710670E7B4F95E21BDF82E309A4208D0B0
:103F5000204600F0B2FEB4F95E21BDF82E309A4240
:103F6000CED1B4F95E11D9E72846FFF7A3FD0028AA
:103F70008DD1B246B04672E72DE9F04F154687B0B5
:103F800004460F469A4600F091FEFFF775F82A782E
:103F9000872A00F01481882A00F0F581862A5ED1F4
:103FA00007F108084046FFF785FD002857D0FA7949
:103FB000FF2A54D16A78002A51D1BAF10F0F4ED995
:103FC000B5F806B09BFA9BF91FFA89F942F228323C
:103FD000914544D8AAF1100305F110060293314629
:103FE0001A46002A43D1B4F95E114046BBF1000FD6
:103FF00047D0FFF77DF9804688B34FF47A7303FB0F
:1040000009F3021D44F6CD71FFF79CFD2B790BB12E
:1040100084F85C31AB689BB193FA83F9D4F8A8308B
:1040200099450DD02046B64B04F1680244F6CE7196
:10403000FFF788FDC4F8A89004F11400FEF7C4FE51
:10404000EB6813B11BBAC4F8B030029B13BBB8F1D4
:10405000000F04D0AB4804F17801FEF76DF8FFF7CC
:1040600011F8204600F029FE07B0BDE8F08F924518
:10407000F5D348780028F2D0A2EBC00201EBC001D2
:10408000AFE7FFF79DF980460028BFD0FFF744FD5A
:10409000D846BBE73378032B1FD0052B0FD0012B5D
:1040A00005D133462A4639462046FEF75BFD737834
:1040B000029AA2EBC302029206EBC306C5E773782D
:1040C000012BF4D12B78862BF1D173681BBAB3F591
:1040D000A06FECD3A4F8B830E9E77378042BE6D1ED
:1040E0002B78862BE3D106F1100A5046FFF7E2FC4D
:1040F0000028DCD1D6F80490B36899FA89F91BBA84
:104100009945D4D3F278520606D5B2780393514636
:104110002046FFF7C3FB039BF27812F0C00FC6D016
:10412000706896F802B0D0B9814611E099F8243051
:104130005B070DD599F825305B4509D1514609F14A
:10414000040001F0F0FF584502D34846FFF7E6FAB5
:104150004846FFF753FA81460028E7D1A7E7B9F1AF
:10416000FF3F08D0684A91459ABF4FF47A7202FB2C
:1041700009F96FF00109581C07D0634A93429ABFAE
:104180004FF47A7253436FF001030093B4F95E0168
:104190004B465A465146FFF7F7FA002887D096F962
:1041A0000330F278002BBEBFC38C43F00103C384FD
:1041B000510642BFC38C43F00203C38477E7FA7908
:1041C000FF2A7FF44CAF6A78002A7FF448AFBAF137
:1041D000170F7FF644AF2A7AFF2A3FF440AF07F16A
:1041E00008094846FFF77EFC40B148490D2207F117
:1041F000180004F019FB00287FF431AF05F108081E
:104200004146204600F060FD031E0293FFF627AFF3
:10421000AAF1180605F1180B59463246DAB940469C
:1042200000F04AFE824698B300F040FD41465046F9
:1042300000F04AFD011E28DB0AEB01020391127D0A
:10424000520722D04846FFF74DFC039978B95046F3
:1042500000F033FD03E79245FFF401AF48780028F2
:104260003FF4FDAEA2EBC00201EBC001D6E70AEBC2
:10427000011188312348FDF75FFF504600F01DFD16
:1042800041465046FFF734FBE9E6504600F015FD85
:104290004846FFF727FC38B1002300934A462146E1
:1042A000404600F059FBDAE6D4F8BC30DB0705D411
:1042B000B4F95E1103224846FEF788FF76B9029BE7
:1042C00023441B7D9D0657D5B4F95E114046FFF788
:1042D00018FC0546E0B9FFF711FCC0E69BF800307A
:1042E000012B05D15B462A4639462046FEF73AFCAB
:1042F0009BF80130A6EBC3060BEBC30BDEE700BF58
:1043000000DD6D005015002037894100D09E00006F
:104310003B7EFF2B1BD194F8D87004F1D0013A46B4
:1043200004A804F0B1FA97B13246394604A800F067
:10433000BFFA06460028CED040213246404600F063
:1043400063FA0746002840F0B7803046C3E7602193
:10435000F3E7B4F95E3153804FF47A71C6F8008008
:10436000002002F0EDFB05F13002034644F6C27175
:104370003046FFF7E7FB72E63B7E0096A3F1FF00B5
:10438000434243418AE7FA79FF2A7FF468AE6A78AC
:10439000002A7FF464AEBAF1170F7FF660AE2A7A76
:1043A000FF2A3FF45CAE3A7EFF2A03D12A795106F8
:1043B0003FF555AEAAF1180705F1180631463A4601
:1043C000FAB905F10808404600F076FD814638B399
:1043D00000F06CFC4146484600F076FC011E1CDBF8
:1043E00009EB01031B7D5A0717D009EB0111883136
:1043F0003648FDF7A1FE484600F05FFC41464846BE
:1044000040E79245FFF42BAE487800283FF427AEF2
:10441000A2EBC00201EBC001D2E7484600F04DFC20
:10442000B4F95E114046FFF76CFB014600283FF4EB
:1044300016AE00230FE03278022A07D133462A460F
:1044400020460291FEF7EEFC029901237278A7EB59
:10445000C20706EBC206002FEDD16BB92B795B06C4
:104460000AD5B1F8403003F00703022B04D02046F0
:104470000291FEF7C1FC0299D4F8BC3013F001039D
:104480007FF4EDAD2A462046FEF7CCFCE7E57268E6
:10449000002C7FF45EAF23465DE7D8F80430FF229E
:1044A000DA7100231A461946184600F0CEFE064679
:1044B0000028ECD140460EE74A460021FEF7ADFA4F
:1044C00080460028E9D1384605E700BF5015002096
:1044D00010B5044600F0EAFB44F6C3712046FFF72E
:1044E000ADF9B0F57A6F17D90E49204600F0ACFA55
:1044F00094F8B430092B9CBF013384F8B43094F89D
:10450000B430022B08D84FF47A6304F1780244F6F1
:10451000C3712046FFF716FB2046BDE8104000F0AF
:10452000CCBB00BFA09E000073B50D460446FEF74D
:10453000A3FDA5F59F41403912290ED8DFE801F00F
:104540000A0A1A280D0D0D12120D0D0D2C7B160DD9
:104550000D7F83002046FEF7E7FB02B0BDE8704008
:10456000FEF790BD2046FEF70DFCF6E72046FEF76D
:104570002BFCF2E73649234640F20222012000F0EC
:10458000D1FA0028E9D10921204600F055FFE4E7DF
:104590002046FFF79DFFE0E72368B3F84000C0F333
:1045A000041000F078FB05460028D6D0294B186887
:1045B000436901330FD003F036FC0646284600F06D
:1045C00075FBA36AB3420AD82046FFF7A7F828462E
:1045D00000F073FBC1E783685B689847EDE7E36A27
:1045E000B342F4D8211D05F11600019101F09BFDA5
:1045F00094F82530019983429FBF2B7D23F01F0340
:1046000043F008032B7505F1260001F08CFD94F8AA
:10461000253083429FBF6B7D23F01F0343F00803C7
:104620006B75A36A04F114029B1B44F6CC712046FF
:10463000FFF788FACBE72046FFF76EFA8DE72046B2
:10464000FFF7D0F989E72046FFF71CFA85E700BF9E
:104650000000FFFF909F00002DE9F04387B0164651
:104660000C4610220021074602A81D46DDF83890AE
:1046700004F00CFA802EB04628BF4FF080085FFA95
:1046800088F2214602A801F06EFD2249102202A8FC
:1046900004F0CAF8002839D01F490822204604F047
:1046A000C3F898B32378FF2B30D0A9452ED8FEF756
:1046B000E3FC2B46CDF80090424621463846FFF7F2
:1046C00063F8054630B9FEF7DDFC6FF00B0007B06C
:1046D000BDE8F08338B200F0DEFA044618B9FEF700
:1046E000D1FC0020F3E700F0E1FAEB8C43F001028B
:1046F000EA8494F8B620D20704D57F2E9CBF43F0FD
:104700000303EB84204600F0D8FAE8E76FF01500C9
:10471000DDE700BFE09E0000B09E00002DE9F04103
:104720000C6807460E461546FEF7A6FC2046FEF727
:1047300065FF044600B3D4F80080B8F1000FF5D04F
:1047400094F824305B07F1D5F7B994F825302B7431
:1047500010220021284604F099F994F82520211D03
:10476000284601F000FDB8F84030C3F304136B8213
:10477000A36A6B61E36AAB61FEF784FC201E3460C0
:1047800018BF0120BDE8F081B8F84030C3F304132E
:104790009F42CBD1D9E770B504461846FEF73DF9E4
:1047A0000646B8B14368FF22DA7100231A4619465B
:1047B000184600F04AFD054628B93146304600F05B
:1047C00081FE284670BD43680CB1B4F95E415C803F
:1047D0002E60F6E70546F4E710B5182304460022DC
:1047E00008468721FDF7C6FD68B1436800221A71AB
:1047F0005A719A71DA7121686268DA609960A16809
:10480000E2685A61196110BD38B504460D4610467C
:10481000182300228821FDF7ADFD78B143680022FE
:1048200025F01F051D71DA719A715A71216862684D
:10483000DA609960A168E2685A61196138BD08B50B
:10484000002208238521FDF795FD28B14368002249
:104850001A715A719A71DA7108BD0731002310B5C7
:104860000446104601F0F802194600F013FF20B18B
:10487000426814708368DB08537010BD70B506463B
:104880000D4618460231FFF7E8FF044658B1436869
:1048900082680233023A0021184604F0F7F82A46EB
:1048A000314603F0F1FF204670BD0123FFF7E6BF5C
:1048B0000223FFF7E3BF00002DE9F7430746154643
:1048C00008460A9C0E46984600F0F0F935B92A468B
:1048D0003946304600F009FA0546B8B11C491022A5
:1048E000284603F0A1FF88B196F8D89006F1D001D0
:1048F0004A46684603F0C8FFB9F1000F06D02246C9
:1049000049466846FFF7D1FFE8B1044638462146DC
:10491000FFF762FF0746B0B10346424629463046DC
:10492000FFF739FF044668B103460A4940F2022204
:10493000012000F0F7F830B1304600F0BEF903B0C6
:10494000BDE8F0833C460021204600F075FDF3E70A
:10495000E09E00000000FFFF2DE9F04387B00E4607
:1049600080460846154699460E9C00F09FF9414640
:10497000304600F0A9F9071E5BDB304910222846BB
:1049800003F052FF28BB2E4B02AD03F1100C186848
:1049900059682A4603C2083363451546F7D10025F6
:1049A00096F8D89006F1D0014A46684603F06CFFAD
:1049B000B9F1000F3AD0224649466846FFF778FF22
:1049C000B8B337443B7D9B0601D445F0200504462F
:1049D0000FE02A4602AB05F1100C106851681D4625
:1049E00003C5083262452B46F7D14025B9F1000FC7
:1049F000D6D1294622464046FFF706FF0546C0B1FC
:104A0000034602AA00213046FFF7C5FE044678B1EE
:104A100003460C4940F20222012000F083F840B125
:104A2000304600F04AF907B0BDE8F0832046CEE7F3
:104A30002C460021204600F0FFFCF1E7E09E00003C
:104A4000909E00000000FFFF224B2DE9F34100295A
:104A500014BF88469846054600F028F900224146D2
:104A6000284600F042F90746A0B195F8D84005F174
:104A7000D0012246684603F007FF64B121460022B8
:104A80006846FFF712FF044628B90021204600F0CF
:104A9000D3FC17E004462046FFF7D1FE0646002867
:104AA000F3D00346424639462846FFF774FE0446D3
:104AB00070B10346084940F20222012000F032F8AA
:104AC0000028E2D0284600F0F8F802B0BDE8F081F6
:104AD0003446DAE7A09E00000000FFFF00B589B071
:104AE00006930A9BADF81C30BDF82C308DF81410DD
:104AF000ADF81620ADF80630024605AB03A901A8B3
:104B00000293FCF777FD049809B05DF804FB07B544
:104B1000019101466846ADF80220FCF74FFD03B055
:104B20005DF804FBF0B585B00446019117461D46BB
:104B300000F0F2FB0199204600F04DFC0199064679
:104B400040B1204600F042FC711E0446284600F0A9
:104B50001BFD24B900F0FCFB304605B0F0BD237A04
:104B600053B1012B12D08C21284600F065FC204661
:104B700000F043FC0446ECE7B4F90C003A46294641
:104B8000FFF7C5FF0028F2DC0521EDE7E068ADF88E
:104B90000A70002202A90395FCF742FBF2E71FB559
:104BA00000240394ADF80C30436801941B698DF820
:104BB0000410029201A9984704B010BD08B5044939
:104BC000102203F031FEB0FA80F0400908BD00BFAA
:104BD000E09E000010B50A490822044603F024FEB6
:104BE00048B12378FF2B08D1607800F00F00831EB6
:104BF0005842584110BD0120FCE70020FAE700BFF1
:104C0000B09E0000F8B5044608460E461546FFF76C
:104C1000D5FF98B95DB104F136050327002431466C
:104C200005EB041001F06AFA28B12046F8BD04F142
:104C300016050227F2E70134A742F0D14FF0FF300A
:104C4000F4E70378FF2B10B5044603D1407800F059
:104C50000F0010BDFFF7BEFF60B9208840BA20F0FA
:104C60003F000004000C4FF6C06398420CBF0520C3
:104C70000E20EEE70220ECE701F0E6BA10B50024C2
:104C80002046FFF7F9FF08B9204610BD4368002B06
:104C9000F7D00134F5E710B504460020FFF7ECFF2C
:104CA00018B1B0F95E31A342F8D110BD20B143680C
:104CB00013B10C30FCF77EBF704720B1436813B1CD
:104CC0000C30FCF77ABF704737B504460191FFF707
:104CD000EDFF019900222046FFF794FF054620468C
:104CE000FFF7EBFF284603B030BD2DE9F04F2DED67
:104CF000028B04468FB008EE101A1746FFF7D6FF56
:104D0000257D002D00F0B08015F0070540F0AB8048
:104D1000002F00F0AC8004F11600FFF75BFF0028C5
:104D200016BF00264FF0FF368025637D002B00F074
:104D3000A880590740F0A580002F40F09B8045F0E7
:104D4000400576424FF0000818EE100AADF81480C6
:104D5000FFF777FF4FF0FF33CDE90038A31D029333
:104D600004F11303814605AFC24603938AF007039B
:104D7000012202FA03F32B420AF1010B22D0029B1B
:104D800003EB0B1818EE101A404601F0B7F9002893
:104D900059D14046FFF755FF81453B7877D14B44C9
:104DA0000F333B70039B019A13F80B3003F01F0382
:104DB000082B1EBF3B7801333B703B78934288BF82
:104DC000CDE900A3BBF1020F07F101074FF0010A83
:104DD000CCD14FF0000804F11603C346029305AB93
:104DE00013F80B20019B9A4223D1029B03EB0B1A71
:104DF00018EE101A504601F096F9074681465046C3
:104E0000FFF7E8FE002855D106900546B4F95E018B
:104E100007AA06A9FFF782FC002842D11DB1AF42C4
:104E200028BF2F46B946C8453CBF5FFA89F8CDF880
:104E300000B0BBF1000F31D0009B5A1C06D004EB30
:104E4000031808F11608B8F1000F03D104EB061699
:104E500006F116082046FFF730FF40460FB0BDECC4
:104E6000028BBDE8F08F00254FF0FF365DE780250F
:104E70003E465AE704F12600FFF7ACFE00287FF417
:104E80005EAF002E3FF45EAF4FF00008E2E73CBF9C
:104E9000A9EB00000F331844387083E74FF0010B83
:104EA0009DE7514607A801F03EF9A84288BF9DF84A
:104EB0002C50ABE74025B2E738B505460024204624
:104EC000FFF7DAFE044660B100222946FFF79AFE9A
:104ED000002806DA012229462046FFF793FE002823
:104EE000EDDB204638BD2DE9F34105466A4690F8D2
:104EF0005D010E4601F065F904462846FFF7D6FE2F
:104F0000002C0FDDA3B26A466E212846FFF747FE4C
:104F100010F1860F044608D0002806DA2846FFF76D
:104F2000CCFE10E014F1860FF8D105F13608002709
:104F30004FF0FF343146404601F0E0F838B12846E2
:104F4000FFF7BBFE3C46204602B0BDE8F081621C84
:104F500005D14046FFF732FE002818BF3C46013716
:104F6000032F08F11008E5D1631C05D12846FFF78F
:104F7000A4FE6FF00B04E6E705EB0413314636336D
:104F800006F1100251F8040B43F8040B9142F9D1D9
:104F9000C4E700002DE9F0471F468EB004460E46D8
:104FA0009246FFF783FE07F01F03072B08BF07F0A9
:104FB000F807314604F1160008BF47F0010701F079
:104FC0009DF8C0B9257D3146003D04F1260018BF8B
:104FD000012501F093F86D42804688B995B1637D53
:104FE000002B5AD02046FFF768FE6FF00B052846CD
:104FF0000EB0BDE8F08700252046FFF75EFEF6E71D
:105000000125F9E7814640F2FF220023CDE9032381
:105010004FF080730593FF238DF81830737B8DF864
:10502000193003A9F389ADF81A302046FFF75BFF6A
:10503000051EE1DB09F1010304EB090104EB031395
:1050400006330F753246184606F1100552F8047BF8
:1050500040F8047BAA42F9D10A7D02F01F02102A0F
:105060004FF0000224D10292B4F95E0107AA02A90E
:10507000FFF754FB054698B9B8F1000F08D14FF07F
:10508000FF33B4F95E01009352463146FFF7E4FA6C
:105090002046FFF712FE4D46A9E74FF00109B2E79F
:1050A000314607A801F03FF8504528BFA846DBE786
:1050B0000893064BADF81C20B3F9001044F6D172EA
:1050C00007A8ADF81E20FCF763FAE1E7B41300204F
:1050D0002DE9FF4704466A4690F85D018A4601F0D3
:1050E00070F8051E02DA15F1860F32D12046FFF75F
:1050F000DDFD4FF0000804F13607C1464FF0FF36E2
:10510000002D13DD3846FFF759FD78B994F85D019D
:1051100002AA394601F055F8854207D12A46694668
:1051200002A803F081FB08B909F10109384651468C
:1051300000F0E4FF002818BF464608F10108B8F166
:10514000030F07F11007DBD1731C05D12046FFF7D1
:10515000B4FD04B0BDE8F087B9F1010F05D1ABB2E1
:105160006A466F212046FFF71AFD04EB0610102255
:105170000021363003F08AFCE8E72DE9F04F8BB0D0
:105180004B7B8DF815300446CB89ADF8163040F2D4
:10519000FF284FF000094FF08076FF27CDE9028904
:1051A0000D4604968DF81470FFF780FD04F1360368
:1051B0000193012304F1160A04F1140B009329460C
:1051C000504600F09BFFC8B100218BF80010102260
:1051D000504603F05BFC019B0AF1100A9A450BF163
:1051E000010BECD1009B1BB102A92046FFF770FF19
:1051F0002046FFF762FD0BB0BDE8F08FCDE90689D0
:1052000008968DF824709AF80D208DF82520BAF8AC
:105210000E20ADF8262002A906A800F06FFF002896
:10522000009B18BF00230093D5E710B4D0F8BC4012
:10523000E40705D590F85D015DF8044B00F0BBBFB5
:105240006FF085005DF8044B70472DE9F04117467B
:1052500003F108020A440E46002180461C46084617
:105260004FF0FF3300F016FA0546F0B14068002217
:10527000428082804FF4004206704470C280B8F1D0
:10528000000F05D026B132464146083003F0FCFA43
:105290005FB154B168684378A34206D103780833FC
:1052A00022463946184403F0EFFA2846BDE8F0815B
:1052B00058B9CBB2032B00D97047054B53F82100E6
:1052C00000B9704743689342FBD00068F8E700BF1D
:1052D000C416002070B50D4D0D4E0E4C0B4801212B
:1052E000FCF7D8F933682BB9BDE8704009480121B3
:1052F000FCF7D0B92846FCF701FA01212046FCF75B
:10530000C9F92046FCF7FAF9E8E700BFBC1600200F
:10531000B8160020C016002010B50A4C0A4801211A
:10532000FCF7B8F923681BB908480121FCF7B2F96A
:10533000236805485A1C1CBF01332360BDE8104098
:10534000FCF7DCB9B8160020BC160020C0160020FF
:1053500008B501210848FCF79DF9084A1368591C53
:1053600005D0013B136013B90548FCF7C7F9BDE848
:1053700008400148FCF7C2B9BC160020B81600204E
:10538000C0160020C3B2032B70B505460E4613D8D5
:10539000FFF7A0FF0A4B53F82520144654B932609A
:1053A000084843F82560FCF7A9F90748FCF7A6F977
:1053B000204670BD2468F1E76FF01500F9E700BFE3
:1053C000C4160020C0160020BC1600200A46014664
:1053D0000020FFF76DBF70B505460E46FFF79CFF36
:1053E0000020044632462946FFF762FF18B9FFF74E
:1053F000AFFF204670BD0134F4E718B142680021C8
:10540000FFF756BF704761B190F91030022B04D0FE
:10541000032B04D06FF001007047FCF7BBBF00F016
:10542000DDBD6FF01500704718B190F910308B4258
:1054300000D170470068F7E770B5012104460E48B7
:10544000FCF728F9002524B9BDE870400A48FCF7AC
:1054500055B9E3682668012B0AD1D4E90101E5605A
:1054600000F0B4F81421204600F0B0F83446EAE722
:10547000013BE360FAE700BFD4160020F8B5876867
:105480000546044600217CB98F420BD0284600F027
:10549000AFF9044630B92E6856B928683146FFF78F
:1054A000CBFF2E602046F8BDA26824681144EAE7CD
:1054B0006868D6E90112384403F0E6F9B368366843
:1054C0001F44E9E710B504468C42084606D124681B
:1054D00000210160FFF7B0FF204610BD0029F7D082
:1054E0002346002BF4D01A68904202D102681A6059
:1054F000EEE71346F5E700001449C31D0A6830B50E
:1055000023F007030024BAB1506898420ED3C01AA2
:1055100007280ED90E4D13445D1BB5F5C05F0FD99A
:1055200000240C601168C3E9001005E014461268FD
:10553000E9E7136814B90B60104630BD2360FBE740
:105540000CB90B60EEE72360ECE700BFD816002033
:10555000D816002010B5094C01212046FCF79AF816
:10556000074A084B136000214FF4C0522046C3E99C
:105570000012BDE81040FCF7C1B800BFD4160020EF
:10558000D8160020E016002038B504460D4607481E
:105590000121FCF77FF824B9BDE838400348FCF747
:1055A000ADB8E3682B44E3602468F4E7D416002028
:1055B000054B834206D803F5C053834294BF0020B5
:1055C0000120704700207047E016002038B50246E1
:1055D000FFF7EEFFF8B1194C2068002308B19042A4
:1055E0001AD3073121F00701106015485518401BE8
:1055F000072898BF091851608BB92260136853B10E
:1056000051681144591A072905D819681160991A67
:105610005B680B44536038BD03460068DEE7596899
:105620001A601944511A0729E8D811681960D11A6B
:1056300052680A445A601A46E0E700BFD8160020B4
:10564000E02E00202DE9F843804614200F46154631
:105650009946FFF751FF044650B1CDB12846FFF7F8
:105660004BFF064638B920461421FFF7AFFF3446FA
:105670002046BDE8F8831FB12A46394603F004F9F5
:105680000123C4E90086A56084F81090E360EFE789
:105690002E46F5E773B5B2F5C05F05460E461446D3
:1056A000019310D801210948FBF7F4FF2246019B22
:1056B00031462846FFF7C6FF04460448FCF71EF8AB
:1056C000204602B070BD0024FAE700BFD4160020C7
:1056D00038B5012104460E48FBF7DCFF1CB90C4825
:1056E000FCF70CF812E0E368012BF8D9D4E90112B9
:1056F00094F910302068FFF7A5FF054610B1E36864
:10570000013BE3600248FBF7F9FF2C46204638BD19
:10571000D41600202DE9F8430D46044601213348F4
:105720009146FBF7B7FF2DB124B1A368AB4201D37B
:10573000636833B92D48FBF7E1FF00263046BDE82A
:10574000F8831420FFF7D8FE07460028F2D0A2689D
:10575000AA4243D0EB1D23F007039D423ED22846C8
:10576000FFF7CAFE064638B938461421FFF72EFF68
:105770001E48FBF7C3FFE1E7A068401BFFF7BCFE34
:10578000804640B938461421FFF720FF29463046AD
:10579000FFF71CFFCEE761682A46304603F074F835
:1057A000D4E901124046521B294403F06DF8D4E9B4
:1057B0000101FFF70BFFC4F80480A3680B485B1BD3
:1057C000A3602368BD60C7E90036012387F8109005
:1057D000FB602760FBF792FF3E46AFE76668AA4290
:1057E00014BF731900236360E7E700BFD4160020DD
:1057F00070B504460D461E480121FBF74BFFA1681A
:10580000A94204D11A48FBF779FF002012E035B90C
:105810006068F0B1FFF7DAFE6560A560F2E7A942C3
:1058200017D22846FFF768FE064620B91048FBF756
:1058300065FF0C2070BD616829B1A268AA4228BF2B
:105840002A4603F021F8D4E90101FFF7BFFE6660A4
:10585000E3E7EB1DCA1D23F0070322F00702934282
:10586000DBD26068C91A1844FFF7B0FED5E700BF65
:10587000D416002013B5074A044692E803006B468D
:1058800083E803000022194604F11000FBF7C8FC6E
:1058900002B010BD849E000003460846002110B4EB
:1058A000C3E90012072401221C621A7203F12804C2
:1058B00003F11002C3E90411C3E906115C62DA6066
:1058C0005DF8044B1946FFF75DBD00002DE9F0417E
:1058D0001D46036A072B86B007460E4614462BD199
:1058E0001022002102A803F0D1F8631E033307F150
:1058F000100826D82B4B04F2E732CDE904374FF4D9
:105900007A73B2FBF3F2284B02A9186802F0E0FAAE
:10591000012269464046FBF7D7FC234B02A91868D1
:1059200002F0BAFABDF8023040F20122934214D0DC
:1059300048F2744293422AD06FF0150006B0BDE8D9
:10594000F081002CE4D1224669464046FBF7BCFCBE
:105950000028E2D16FF00A00F0E7019C2046FDF735
:1059600055F82A1D00F10803183053F8041B42F8BB
:10597000041B8342F9D104232B604FF0FF312046F2
:10598000FFF752FD50B9A88234600020D6E7074BDC
:10599000019A9A42D0D16FF07300CFE743685888DC
:1059A000F1E700BF75580000909F0000630B8AF379
:1059B0002DE9F0479046064689469A46024600245D
:1059C0006AB9D9F80030D8F8002093420BD030469D
:1059D0000021FFF731FD6FF06900BDE8F0879368A3
:1059E00012681C44ECE7042BF1D108F1040209F120
:1059F00004013046FDF711F80546B0B196F9107074
:105A00000FB9012737746B6883F806A0B9F81460E2
:105A100076B1002319461A461846FFF716FC36B22F
:105A20000146C0B92846FFF707FD6FF00B00D4E729
:105A3000B8F81460002EECD10A492B4640F202223D
:105A40003846FFF76FF8014650B92846FFF7F4FCD7
:105A50006FF04C00C1E743685E8005600546EBE7E8
:105A60002046BAE70000FFFF08B5074B18684369F6
:105A7000013305D002F0D7F94FF47A73584308BDCB
:105A800083685B689847F7E7909F000038B501F19D
:105A900018020446034651F8040B43F8040B9142E4
:105AA000F9D1A08A48B9FFF7E7F8054628B1FFF712
:105AB000E3F810B9B5F85E31A38238BD2DE9F8439B
:105AC000064614461F460D4651B14AB18A8A3AB17C
:105AD000A38A2BB19A4203D06FF01500BDE8F8837A
:105AE00006F1680818220021404602F0CFFFE5B118
:105AF0002B68EA8A042B02D06FF06900EEE732B916
:105B000000F0FAFF6FEA80426FEA924292B22B46AF
:105B1000404605F1140153F804CB40F804CB8B4206
:105B2000F9D11B880380A6F87E2006F18008182290
:105B30000021404602F0AAFFE4B12368042BDBD128
:105B400004F10409E31C04F1130213F8011F11B955
:105B50009342FAD1C0E721464046FFF797FF2379E9
:105B6000FF2B07D009491022484602F05DFE08B11C
:105B700047F002072DB1B6F87E2003213046FFF72B
:105B80008BFEA6F898700020A8E700BFE09E0000FA
:105B90002DE9F04F1F468BB01368DDF850A00024AC
:105BA0000546894690468DF8084053B10C60106850
:105BB0002146FFF741FCC8F8004020460BB0BDE885
:105BC000F08F836E002B5ED00493FFF74DFF0DF135
:105BD000080B0646CDF800B004AB3A4603A92846A8
:105BE000FFF774FE10F1740F04460ED1FFF73CFF6F
:105BF0000A23821BB7FBF3F3FB1A9342DDD9301A59
:105C00000744FFF731FF0646E4E70028D5DB039899
:105C10000321FFF709FC4668BAF1000F0FD004AB6F
:105C200054460AAF1A4603CABA422060616013465E
:105C300004F10804F6D133885BBAAAF81630B5F837
:105C400098309B0717D5D5F88030A3B13388B5F8C5
:105C500096205BBA9BB29A4206D1102205A905F1A3
:105C6000840002F0E1FD30B103980021FFF7E4FB6E
:105C70006FF04604A1E7039B5A68C9F800209C68AE
:105C8000C8F8003099E76FF07C0496E72DE9F04FF3
:105C9000002585B0CDE902550F9F82468846934680
:105CA0001E46A9460E9B00930197334603AA02A9FC
:105CB0005046FFF76DFF041E07DC95B9002C08BFA6
:105CC0004C46204605B0BDE8F08FA34507DB4046B3
:105CD0000299224602F0D8FDA044A144E2E7012542
:105CE000E0E76FF06804ECE72DE9F04104468CB082
:105CF0000F4615464AB3D38A23B96FF015000CB08E
:105D0000BDE8F081D31C133213F8011F002979D1AB
:105D10009342F9D1F1E7F4B1B4F87C201AB1AB8A1F
:105D20000BB19A42E9D1A36EABB1B4F87E6004F135
:105D30006803EC4604F1800E18685968624603C295
:105D4000083373459446F7D11DE0D0F88030002B1E
:105D500055D00028E7D118220021684602F096FEAF
:105D600000F0CAFE6FEA80406FEA904086B254B1FC
:105D7000A4F87E606DBBD4F88030A3663246032160
:105D80002046FFF789FD35BBB4F8968004F1800505
:105D9000009A2B683ABB0093384600F08FF9002335
:105DA000024619461846FFF775FC044670B1D0E963
:105DB0000112384600F08AF931464246204600F08A
:105DC00027F9014690B92046FFF736FB6FF00B002C
:105DD00095E72B68D1E7294606A8FFF757FEB5F8E7
:105DE000168006ADD4E79A42D6D086E711232A461C
:105DF0006946FFF7DDFD002881DD08387FE76FF099
:105E00007F007CE72B68042B85D06FF0690076E774
:105E10000021FFF711BBF8B5058907460E46144669
:105E2000002054B900237968082200F021F996F97E
:105E30001030012B0FD00020F8BDBC42F2D0B4428C
:105E4000F0D02B462289616800F012F9A36824681B
:105E50001D44ADB2E5E743191133B3F5803F24BFCC
:105E6000013080B2716828441130002320220831AB
:105E700080B200F0FDF84FF6FF7398421CBFC0439C
:105E800080B2D9E780B5102288B00DEB0200002166
:105E900002F0FCFD4E4B4F481B88ADF81C3040F221
:105EA0000523ADF80A3008216FF085034A4D0393AE
:105EB0000595FBF7E3FB04A90320FFF763FA40F223
:105EC000012640F202246846FBF7D4FBBDF80230FD
:105ED000A34247D00BD8B342F5D1019F3846FFF714
:105EE000F7FB044660B93846FFF792FFE9E7A3F2F3
:105EF0000323012BE7D802A96846FBF799FBE0E7EB
:105F00000121FFF791FA0746206830B190F910306F
:105F1000032B02D18368082B07D0032208212046D7
:105F2000FFF7F8FB08B92046DEE700232374D0F81A
:105F30000480B8F80630002BF5D022463946FFF72A
:105F40006AFF4FF6FF739842EDD1B8F8021049BAD4
:105F5000234640F2012289B20320FEF7E3FD002828
:105F6000AFD1E0E7DDF80480404698F91070FFF704
:105F7000AFFB044608B94046B6E70068A04618B132
:105F800090F91030032B19D1FFF7A2FB0028CAD0DB
:105F90004268C8F800000023816800680B440028AC
:105FA000FAD15BBA93807B1C04BF236893F910700D
:105FB00040F20222234629463846CEE7FFF788FB07
:105FC00003460028AFD0C8F8000000689846D6E71E
:105FD000B4080020E02E00200000FFFF10B50446AA
:105FE00068B161B190F91030032B0BD10268FFF753
:105FF00012FF50B1626843BAD380002010BD6FF029
:106000000D00FBE76FF04C00F8E76FF00100F5E7DB
:1060100038B50D461446032308220021FFF73AFB4A
:1060200038B143686DBA64BA4FF000021D805C80DD
:10603000DA8038BD1FB50A4CB4F900305BB9094AA3
:106040000948CDE90132094A00924FF4E071052276
:10605000FBF75CFC2080B4F9000004B010BD00BF69
:10606000202F00208C9E0000222F0020855E000043
:10607000F0B5B2B1DC0705D511F8014B2044541E30
:10608000A2B20133560800244F1CA6420AD81A4473
:10609000D30703D511F8163000EB0320030C0AD107
:1060A00080B2F0BD11F814C017F8145005EB0C25A0
:1060B00028440134E9E713FA80F0EFE7002308B938
:1060C00018467047826800681344F8E770B50B46BD
:1060D00004460E4615460CB9981B70BDA268AA422C
:1060E00009D86168184602F0CFFBA268246803460D
:1060F000AD1A1344EFE76FF06800EEE730B54B6878
:10610000456804680A689D4208BF944209D1C56881
:10611000CB6884688A689D4206BF944201200020B3
:1061200030BD0020FCE710B590B1C1B1884218D055
:10613000421E0139002012F8013F11F8014FA3421D
:1061400007D06340B3FA83F3183853FA80F0C0B233
:1061500010BD00F10803D8B28028ECD1F8E708465A
:10616000F6E78020F4E7802A28BF8022F8B5D5081A
:1061700014462A4606460F4602F086FB63070ED0F9
:10618000C4F10804FF2304EBC50403FA04F4735DAF
:1061900023EA040373557A5D144023437355F8BD15
:1061A00038B5054600F023FD044605F11000FBF765
:1061B000A5FA204638BD6FF0850070476FF0850066
:1061C00070476FF08500704773B50A460C4623216F
:1061D000054602F05BFC684600F05EFC6946002262
:1061E00041F2055311F8010B03EB43130344B2FBD7
:1061F000F4F004FB102001322E5C082A86EA030624
:106200002E54EFD1002341F205529C4201D102B03D
:1062100070BDE95C02EB42120A44B3FBF4F104FBEB
:1062200011310133685C50406854EEE710B5044604
:10623000FFF7CAFF034A1378591C117022785340A4
:10624000237010BDE230002010B9024B186870476F
:1062500000687047E4300020014B186802F050BA23
:10626000180200207047000030B50346EFF3108499
:1062700072B60A4A0A4D10680144A94206D90C2296
:106280001A604FF0FF3084F3108830BD054DA942ED
:10629000F5D31160421CF6D1F1E700BF00020020E7
:1062A00000000420583400201946104600F064BC59
:1062B0001946104601F0DEBC132303604FF0FF3097
:1062C0007047132303604FF0FF30704713230360C0
:1062D0004FF0FF30704702294FF0000303608CBF7E
:1062E000002001207047FBF745BD00000C2908D8AD
:1062F00001238B4041F21902134206D14FF0FF30C7
:10630000704740F20C639942F8D110F0200F00F072
:106310001F00054B00F5E07008BF4FF0A04343F8A5
:1063200020100020704700BF00030050024B0122E4
:10633000C3F80425704700BF00D000400F4B70B574
:1063400001220F4CC3F8042301441A604FF4005596
:106350000022884205D10122C3F808235A6070BD8B
:1063600020BFD3F80061002EFAD0D3F8086500F8FA
:10637000016BC3F80021C4F88051EAE700D0004067
:1063800000E100E008B5FBF705FE064B01225A606C
:1063900005494FF4003008600021C3F808151A6061
:1063A00008BD00BF0010014000E100E0014BD3F840
:1063B0000405704700100140064B1960064B1A6037
:1063C000064B20F07F404FF48032C3F84005C3F8FD
:1063D00004237047EC300020E8300020001001401A
:1063E000024B4FF48032C3F808237047001001407D
:1063F000014B01221A6070470010014010B5134C88
:10640000D4F84031012B0BD10023C4F840314FF4B4
:1064100080330F4AC4F808330E4B10681B68984746
:10642000D4F80431012B07D100230B4AC4F80431FE
:106430000A4B10681B689847094B1B682BB1094B26
:106440004FF080525A60BFF36F8F10BD00100140B3
:10645000E8300020EC300020F0300020F430002044
:10646000BC08002000ED00E00268837A007AD2F8D0
:10647000D02001280CBF8020002003F00703002952
:1064800043EA000314BF4FF4807100210B43C2F8AC
:1064900018357047FFF7E8BF094A03688221116089
:1064A000817AD3F8D03003EB810301219962D3F8CC
:1064B00030110029FBD00021C3F830111160704762
:1064C0001C7C0240032904D0042902D06FF085000F
:1064D000704701201070704701290AD11278D0F856
:1064E000D0301AB1C3F8041508467047C3F8042524
:1064F000FAE76FF0850070470129F0B504460BD12B
:10650000012A0CBF103004F1700000258572046070
:1065100002724172436003E0881E012801D9002005
:10652000F0BD04F17C050126012A0CBFA5F1600035
:106530002846477A3FB986720136082E05D00C35B9
:106540000028F1D0E3E70020F6E70028E7D0DEE7F7
:10655000017A0368827A012907D12AB9D3F8D030A9
:106560004FF48062C3F804237047002AFCD1D3F8AB
:10657000D0304FF40002F5E7017A0368827A0129EE
:1065800007D12AB9D3F8D0304FF48062C3F808237A
:106590007047002AFCD1D3F8D0304FF40002F5E761
:1065A000D0F8D03001225A6570470268837AD2F859
:1065B000D02010B40BB9C2F85C31047A01219940A3
:1065C00014B94C3342F823405DF8044BC2F86C1404
:1065D000FFF7BEBF012904D0022918D06FF0850053
:1065E00070470368D3F8D010837A007A50B903F566
:1065F000887301EB83035B68003B18BF01231370B2
:106600000120704703F5847351F82330F4E70368E1
:10661000D3F8D010837A007A30B903F5947351F827
:106620002330136004207047142000FB0313D3F8B9
:106630000836F6E770B50568847AD5F8D030007A68
:10664000164674BB012816D172B995F8D420022AD7
:106650000AD118650146AB6805F11000984704237C
:1066600085F8D430304670BD0122C3F80016C3F857
:1066700004665A60F6E7C3F80017C3F8042795F8D4
:10668000D410012908D11965032385F8D43005F108
:106690007000AB689847E5E70229E3D10122DA648C
:1066A000E0E71422012802FB043212D1C2F80016DE
:1066B00003EB8403C2F804660B4A82211160586020
:1066C000D3F808110029FBD00021C3F8081111608C
:1066D000C8E704F59474C2F80017C2F804670122F1
:1066E00043F82420BEE700BF1C7C024038B5D0F838
:1066F000D030D3F8002104466AB10022C3F800214B
:106700000421436880F8D4209847D4F8D03001227F
:10671000C3F8042338BDD3F85821002AFAD0D3F89F
:106720000054EA0502D5436806219847AB0503D516
:106730006368072120469847D4F8D0300022C3F878
:10674000582140F60172C3F800244FF48002DFE7BD
:10675000F8B5837A0568027A0446002B5DD195F876
:10676000D410002A4CD1032908D185F8D42008215F
:106770002368C9B29B682046984734E0D5F8D030EA
:10678000D3F85C11A1B3C3F85C21D3F80017D3F898
:1067900080740F70D3F88404C0B24870D3F8886452
:1067A000D3F88CC446EA0C264E80D3F89064D3F814
:1067B00094C446EA0C268E80D3F89864D3F89CC41F
:1067C00017F0800F46EA0C26CE8014BF012102216B
:1067D000052814BF85F8D41085F8D420D3F8843464
:1067E000DBB2052BC3D12046BDE8F840FFF7B0BEB1
:1067F000D3F82821BAB3C3F82811FFF74DFEB6E746
:10680000042902D185F8D430B1E7D5F8D020D2F8E8
:10681000281141B3C2F82831A9E7012AD5F8D010D0
:106820000FD1D1F86C0402FA03F318421BD0C1F85F
:106830006C340023C1F860314FF08073C1F8043329
:1068400095E7D1F86C241033012606FA03F31342BE
:1068500009D0FFF721FE837AD5F8D02010339E406F
:10686000C2F86C6483E74FF0FF3181E738B5054625
:106870000C4621B101292BD06FF0850038BD03688B
:10688000817A1278047AD3F8D030012000FA01F12D
:1068900082B14CB9D3F814251143C3F81415284616
:1068A000FFF783FE0120E9E7D3F810251143C3F871
:1068B0001015F4E7C9432CB9D3F814251140C3F8D7
:1068C0001415DBE7D3F810251140C3F81015D5E7F0
:1068D0001178FFF7C9FD2046D0E70000154A164998
:1068E000D0F8D03030B549F27534032514600D600E
:1068F00014600124C3F80045D3F800442405FBD5F7
:10690000D3F8004424F40064C3F8004449F2753518
:10691000002415600C6015600122C3F8002502F107
:10692000A07280F8D440C3F80023044B80225A6040
:1069300030BD00BF00EC064014ED064000E100E071
:10694000024BD82202FB0030704700BFF830002015
:10695000034B044A1A60044AC3F8D020704700BFB2
:10696000F8300020F09E0000007002404548D0F84A
:10697000D030D3F800212DE9F04104469AB1D3F884
:106980000023D5070FD50121C3F8081343689847A2
:106990003D4B1B682BB13D4B4FF080525A60BFF30B
:1069A0006F8FBDE8F081D3F858215AB1D3F8002396
:1069B000510207D54FF48002C3F8082331486368B9
:1069C0000121E4E7D3F85C2152B1D3F800331A0275
:1069D00006D52F48A368012198472D48FFF7CCFD25
:1069E000D4F8D030D3F82821C2B1D3F800335B05F6
:1069F00014D594F8D410012905D12648A3689847E6
:106A00002448FFF7B9FD94F8D430022B06D1204872
:106A1000A368012198471F48FFF7AEFDD4F8D03096
:106A2000D3F86021002AB3D0D3F86C24002AAFD069
:106A30000022C3F86021D3F86C840C260127B8F13A
:106A4000000FA5D098FAA8F5B5FA85F5102D10DD40
:106A5000A5F110007043231893F8793023B17030FA
:106A6000A36801212044984707FA05F528EA05089C
:106A7000E5E706FB05F023185B7E002BF4D0103011
:106A8000EEE700BFF8300020BC08002000ED00E079
:106A90006831002008310020024A034603CA18600A
:106AA000596070476000001008B5FFF76BFCFFF7F6
:106AB0003DFCBDE80840FFF74BBF000010B50321C7
:106AC000084C2920FFF712FC4FF40073C4F80C3572
:106AD00003212A20FFF70AFC4FF48063C4F80C3529
