:1010000000020020D12400006D24000029240000EB
:101010007D2400008D2400009D24000000000000BD
:101020000000000000000000000000000D2400008F
:10103000AD24000000000000C1230000BD2400001A
:101040007D0C0100691C01007D0C010031280000AD
:101050004D2800007D0C01007D0C01007D0C01007D
:101060007D0C0100A1100100A71001007D0C010002
:101070007D0C01007D0C01007D0C01007D0C010048
:101080007D0C0100A90D01007D0C01007D0C01000B
:101090007D0C01007D0C01007D0C01007D0C010028
:1010A0007D0C01007D0C0100AD100100B3100100AA
:1010B0007D0C01007D0C010000000000000000001C
:1010C0007D0C01007D0C01007D0C010069280000F1
:1010D0007D0C01007D0C01007D0C01001916010042
:1010E0007D0C01007D0C01007D0C01000000000062
:1010F000000000007D0C01000000000085280000B9
:1011000008B5002007F0B6FC10B1034818F098FCB1
:1011100010F0EAFF002008BD44BA010070B5064E89
:10112000064CA41BA4080025AC4200D170BD56F8A3
:10113000253098470135F7E7FCFB010034FC01003E
:1011400013B5002010F052FA014608B900F0E0FF94
:10115000084C204615F0D4FE204616F069FE064BDA
:101160000648009401224FF4806115F0D5FE02B0CC
:1011700010BD00BF2809002063BA01002805002027
:101180004FF080435722C3F81C25BFF34F8F05490A
:10119000054BCA6802F4E0621343CB60BFF34F8F84
:1011A00000BFFDE700ED00E00400FA057047000015
:1011B00013B5094B094C1A681B792371684608213D
:1011C00022600EF063FB08226946601D01F010FDED
:1011D0000023637502B010BD69BA0100D80A00206F
:1011E00010B5044686B0114818F0EAFE0F4B009087
:1011F0000F49022220460FF0E5F8002814DB0D49C4
:1012000003A801F029FD06AB1844002300F80C3CAC
:1012100003A818F0D5FE0849009003AB022220462F
:101220000FF0D0F800EAE07006B010BDD80A002038
:10123000E9CA010080510100F1CA010038B5036814
:10124000032B0C461FD108460EF010FF282807D0AC
:101250004FF6FD71184B1868BDE8384000F016BF16
:10126000A389002BF4D061680B440A783C2A20D073
:101270009942EDD20131F8E7013210783E2806D0CC
:101280009A42F9D3E4E7042BE2D10221E2E70B4BC7
:101290001D68541AA542DBD9094B1B682246184623
:1012A00018F0F6F800212A1B204418F0F3F9012168
:1012B000D0E701310A46E0E7940B0020900B0020B4
:1012C0008C0B002008B50F2000F0D0FE420708D498
:1012D000830709D410F0080F14BF6FF0030000203B
:1012E00008BD6FF00100FBE74FF0FF30F8E70000AA
:1012F000032809D10B685B78934214BF04210121B4
:10130000044B186800F0C2BE042814BF0421022157
:10131000F6E700BF940B002000684422FFF7E8BF07
:1013200000684222FFF7E4BF0368032B37B50D4680
:10133000144621D10B685B78412B22D12F230093D7
:10134000124A4023082128460EF0BAFE00281ADD72
:1013500022460F4C02F1180510685168234603C35A
:101360000832AA421C46F7D101210A4B186803B083
:10137000BDE8304000F08ABE042B14BF04210221D6
:10138000F3E70421F1E70821EFE700BFF40A0020AA
:10139000740B0020940B002008B50448012100F0D4
:1013A000E3FB034B1A68034B1A6008BDF00A0020E8
:1013B000A00D0020940B002030B5194D9DB02A7867
:1013C00005900C4642B3284618F0FAFD059B1549D6
:1013D000CDE900504FF4007206A802F0B9F80028D9
:1013E00003DA6FF001001DB030BD069A137823F0C8
:1013F00030031370002106A80FF03AF800230146CD
:10140000CDE90133084A0748009402F0E7F80028C4
:10141000E7DDFFF757FFE6E76FF00200E3E700BF05
:10142000F40A0020980B0020740B002010B51B4B11
:1014300019601B4B1B491A609AB0112301931A4B78
:101440000093044601234FF4007204A802F080F8D0
:10145000002803DA6FF001001AB010BD049A134996
:10146000137823F03003137007230222009304A89B
:101470000F4B0EF0A7FF002104A80EF0F9FF0D4A54
:10148000009200230146CDE901330648224602F0CE
:10149000A5F80028DEDDFFF715FFDDE78C0B002047
:1014A000900B0020980B00206FBA0100D3EB0100D5
:1014B00081BA01003D12000037B50D46044600B167
:1014C00009B900F025FE0192FFF766FF019A29464F
:1014D0002046FFF7ABFF0446024800F07DFB2046A4
:1014E00003B030BDF00A002030B50C469BB0054675
:1014F00008B900F00DFEFFF74FFF40224CB92A4912
:101500002846FFF793FF044638B1284B00221A7093
:1015100043E02548214618F013FE234C204618F0DE
:101520004FFD2349CDE9004002234FF4007204A887
:1015300002F00EF8002802DA6FF00104E5E7049AE1
:10154000137823F0300313700C21282204A80EF026
:1015500070FF04A8FFF744FE0028EDDB012104A87A
:101560000EF086FFBDF81C100446002305982822C3
:1015700002F0BEFC011EDFDB0E4A00920023CDE923
:1015800001330B482A46214402F028F80028D3DD15
:10159000FFF798FE04460028B7D1074800F01CFB6F
:1015A00020461BB030BD00BF340B0020F40A0020E1
:1015B000980B002029130000F00A002010B5FFF757
:1015C000EBFE07490220FFF7F7FE044610B1054B7A
:1015D00000221A70044800F0FFFA204610BD00BF38
:1015E00019130000F40A0020F00A002038B50B4D52
:1015F000FFF7D2FE2B782BB9094800F0EDFA6FF017
:10160000020038BD07490420FFF7D6FE0024044835
:101610002C7000F0E1FA2046F3E700BFF40A002046
:10162000F00A00202113000030B5144C14488BB090
:1016300018F006FA237823B9124818F001FA0BB013
:1016400030BD114D2822291D68460DF0D3FEEA8ACF
:101650000E48694618F040F90D490E4818F03CF95B
:101660000D490E4818F038F90D490E4818F034F9B4
:1016700021460D4818F030F9E1E700BFF40A0020D8
:1016800089BA0100A4BA0100740B0020C9BA010094
:10169000D80A0020E5BA010080510100F5BA010026
:1016A000340B002006BB010016BB01002DE9F743F7
:1016B00004460E461746EFF3108872B60568C5B9A2
:1016C000DFF88C90051DD4E90331A2689A1A8A428A
:1016D00022DC1E4A12883280581C6269E0600B408E
:1016E00096E8030002EBC30383E8030088F3108845
:1016F00010E055F80C390360D1E900012B6983E84B
:10170000030028460C2100F005FB687988F3108857
:1017100000F03EFB012715E097B1D9F800000190D9
:10172000092100F0F7FA01980146284600F0B8FBBD
:1017300088F3108800F094FBEFF3108872B6C2E7CC
:1017400088F31088384603B0BDE8F0839C0D002074
:10175000A00D002070B50B4604461046EFF310862E
:1017600072B6D4E902128A4219D0481CA0602069DE
:101770006269014002EBC10103C983E803006568A7
:101780000DB355F80C39636028460C2100F0C2FAFD
:10179000687986F3108800F0FBFA012012E078B136
:1017A0000A4A156809212B61284600F0B3FA294638
:1017B000204600F075FB86F3108800F051FBECE743
:1017C00086F3108870BD86F31088E6E7A00D002030
:1017D000F8B50446EFF3108672B6344F3A68506A93
:1017E00000285CD0D2E90630984258D0581C90614D
:1017F000106A034039B9516929B9591C03D186F3DC
:1018000010881846F8BD002B4DDB516A01EBC3016F
:1018100003C984E8030055696DB355F80C1951618B
:10182000002B0DDBD2E907349169506A591A8C42BA
:10183000A9BF591C4FF0FF332340D16100EBC30413
:101840002B6993E8030084E803002B79062B04D16D
:1018500086F3108821E000F05BFC002328462B6112
:101860000C2100F057FA687986F310880E2814D8F6
:1018700000F08EFA11E0002BEADA0421104600F0A5
:1018800049FA86F310880A4B4FF080525A60BFF332
:101890006F8F3B681B79042BDDD00123B1E74FF03C
:1018A000FF330029A7D01461B5E700BFA00D0020C9
:1018B00000ED00E00346D0E9072010B59C69141B39
:1018C000A04201DA002010BD541C0240DC61F9D4B2
:1018D000586A00EBC20203C982E803001A896FEA62
:1018E00042426FEA52421A81184600F0A1FB0120E1
:1018F000E9E7000008B50E4B53F82130A3B11A797F
:10190000042A0BD103C81A6982E8030018460C2187
:1019100000F000FA074B0120186008BD0146184688
:10192000BDE80840FFF7C6BF4FF0FF30F5E700BF46
:10193000EC0D0020A40D00202DE9F0411D46294B9F
:1019400053F82140284B1B880380064690462CB94B
:1019500085F310884FF0FF30BDE8F0812379042B28
:1019600036D0224B014620461F68FFF7A3FF78B10F
:1019700085F310883B79062B02D01D4B1B682BB1D9
:101980001C4B4FF080525A60BFF36F8F0120E3E78A
:10199000B8F1000F02D185F31088DDE73B793E6195
:1019A000062B0CBF06210521384600F0B3F904F1DF
:1019B0001400394600F074FA23896FEA43436FEA52
:1019C00053432381204600F033FB85F31088D7E78B
:1019D000D0E90001236983E803000C21204600F0D0
:1019E00099F9F2E7EC0D00209C0D0020A00D0020DD
:1019F000A40D002000ED00E010B50146EFF31084C7
:101A000072B6054B1B880380044B1868FFF752FF22
:101A100084F3108810BD00BF9C0D0020A00D002095
:101A200021230380FFF766BFEFF3058313F0FF0F59
:101A300001D0FFF7F5BF064B1B881BB2994201D1BD
:101A4000FFF7DABFEFF3108372B60122FFF774BF1E
:101A50009C0D002010B4EFF3058212F0FF0203D0BA
:101A60005DF8044BFFF7DCBF074B1B881BB29942A4
:101A700003D15DF8044BFFF7BFBFEFF3108372B6DD
:101A80005DF8044BFFF758BF9C0D0020114B1B88DD
:101A90001BB29A42F7B506460C46154601D100F036
:101AA00037FBEFF31083019372B60B4A17680621D8
:101AB000384600F02FF996E80300019B3C610122B3
:101AC00084E803002946204603B0BDE8F040FFF754
:101AD00033BF00BF9C0D0020A00D002038B5EFF3F0
:101AE000108572B60F4BB0F9002053F822400CB9A4
:101AF00000F00EFB2379062B04D085F310884FF0FD
:101B0000FF3038BD03C9236983E8030020460C2158
:101B100000F000F9607985F3108800F039F90120B0
:101B2000EFE700BFEC0D00200021FFF751BE0121BF
:101B3000FFF74EBE034B1B68586A10B1D3E906305D
:101B4000C01A7047A00D002008B5064B4A1E1B683E
:101B50001140586201D000F0DBFAC3E906111A62A5
:101B600008BD00BFA00D0020F8B504460D46EFF3F8
:101B7000108772B603683BB94FF0FF33036087F3F9
:101B8000108801252846F8BD11B987F31088F9E7B8
:101B90000F4B1E680EB900F0BBFA0321304600F06F
:101BA000B9F8236801330DD106F10C03236000233B
:101BB000F36087F31088074B4FF080525A60BFF3F1
:101BC0006F8FDFE73146204600F06AF9F1E700BF8A
:101BD000A00D002000ED00E038B50446EFF31085BD
:101BE00072B6006810B985F3108838BD431C02D165
:101BF00000232360F7E750F80C3923600C2100F034
:101C000089F8236813B94FF0FF33236085F31088F8
:101C1000034B4FF080525A60BFF36F8FE5E700BF70
:101C200000ED00E0026810B592B113688B4208D154
:101C30008A4202D10023036001E00B68136008466A
:101C400010BD13461B681C68A14203D09A42F9D10B
:101C50000021F4E72BB10A681A6002688A42EED1CB
:101C6000E9E71946EBE7000008B503790B2B04BF41
:101C70000C230371836A1A68934208D0B0F90610E6
:101C8000034817F029FE03490D2000F079FA08BD3A
:101C900026BB010055BB010070B5184C184D2368D8
:101CA0002E6843BB16B13046FFF7DEFF00F0B6FBEF
:101CB0002368002BFAD00020124B00221A60236800
:101CC000114AB3FA83F352F823301C680C3C0B23FF
:101CD000B44223710DD008B1FFF7C6FF0B4BA16AC8
:101CE000B4F906201A801F31094A2C60022000F046
:101CF000E3FA204670BD3046DEE700BF980D0020B5
:101D0000A00D0020A40D0020AC0D00209C0D002093
:101D100008000616F8B50A29037904460D461AD9B3
:101D20000A2B14D84779184A52F8276039460C30E4
:101D30007EB13368E36052F82730186042F8210022
:101D4000124A4FF000431168FB400B4313602571AA
:101D5000F8BDE060F2E70A2BF9D90B4E407904F1A7
:101D60000C0106EB8000FFF75DFF627956F8223028
:101D7000002BECD105494FF0004323FA02F20B6827
:101D800023EA02030B60E2E7AC0D0020980D00206F
:101D90000B4B1B681A790A2A02D95B7983420ED948
:101DA000EFF3058313F0FF0F03D0064B01221A60F7
:101DB0007047054B4FF080525A60BFF36F8F7047EA
:101DC000A00D0020A40D002000ED00E008B5EFF309
:101DD000108372B6094B0A4A1B880A4D1BB20024B5
:101DE00042F82340084A286813682146013B1360E3
:101DF000FFF790FF2C6000F0CDFA00BF9C0D002093
:101E0000EC0D0020A00D0020A80D0020431E9BB269
:101E10001F2B05D8034B53F8200010B1C06A704740
:101E200000207047EC0D002010B5EFF3058313F090
:101E3000FF0F0FD1EFF3108472B6074B0221186821
:101E4000FFF768FF84F31088044B4FF080525A600C
:101E5000BFF36F8F10BD00BFA00D002000ED00E0AC
:101E6000EFF3108072B60B4B1B681A790A2A07D958
:101E70005A79094B53F8221011B1096843F822101E
:101E800080F31088054B4FF080525A60BFF36F8F7C
:101E9000704700BFA00D0020AC0D002000ED00E059
:101EA00038B50B790A2B01D900F032F94C7901F1E0
:101EB0000C020346006818B110F8075CA542F8D977
:101EC000C8601A6038BD03460144814201D8C01A77
:101ED000704702688242FAD10430F6E70F2A2DE9F2
:101EE000F84F054689461746984633D810F0030345
:101EF0001DBFC3F10402043B5B180B46A3F134037E
:101F000018BFAD1823F0030318F0080F05EB030406
:101F100017D02D60EFF3108B72B62849012251F8CB
:101F200022600FFA82FAC6B10132212AF7D18BF36F
:101F300010886FF08A0A3DE012600432A242FBD39F
:101F4000E8E72A46FAE702212046FFF7E3FE8BF393
:101F500010882FE06FF0150A2CE041F822402A4645
:101F6000DDE90A01A4F806A000F0C6F90C9B144AAA
:101F7000E3624FF0FF33C4E9083613682060013391
:101F800018F0010FC4E90366C4E90566A562C4F848
:101F9000309067712671E6611360D4D10C21204620
:101FA000FFF7B8FE18F0040FD1D18BF31088384634
:101FB000FFF7EEFE5046BDE8F88F00BFEC0D0020A5
:101FC000A80D002008B5034B53F8200008B900F015
:101FD0009FF808BDC8BB01000C4B10B51B68EFF3A0
:101FE000108472B61A8910420DD118610721184663
:101FF000FFF790FE84F31088054B4FF080525A6033
:10200000BFF36F8F10BD84F31088FBE7A00D002095
:1020100000ED00E010B50346EFF3108472B60288BD
:1020200002EA010022EA0101198084F3108810BD40
:1020300010B50379048A072B04D0082B0DD0002497
:10204000204610BD03891C40002CF9D00C21FFF75D
:1020500061FE054B01221A60F2E7038934EA0303AB
:102060000CBF01240024EFE7A40D002013B5064B9C
:1020700001901C68FFF7B0FF019904F1080002B05D
:10208000BDE81040FFF7C6BFA00D002010B5EFF36C
:10209000108472B6038902791943072A038A0181E1
:1020A00004D0082A14D084F3108810E019400029C5
:1020B000F9D00C21FFF72EFE084B01221A6084F3A1
:1020C0001088074B4FF080525A60BFF36F8F10BDDE
:1020D0008B430CBF01210021E9E700BFA40D0020C4
:1020E00000ED00E008B5EFF3058313F0FF0F08D112
:1020F000EFF310832BB9054817F0A2FCFFF794FE0D
:10210000FCE70249032000F03BF800BFFCBB0100E4
:1021100008B57146024817F0DFFBFFF7E3FF00BF89
:102120000EBC010008B5FEF7F9FF034817F088FC64
:10213000FEF7E6FF002008BD17BC01001FB5EFF356
:10214000108372B6074B029300230193064B009352
:10215000072204234FF4C0610448FFF7BFFE00F0DC
:1021600019F900BF51BC010025210000700E0020AC
:1021700008B50FF0CFFEBDE8084015F06DBE704702
:1021800008B50D4B1A680C467AB901221A60FFF7A0
:10219000F6FF2146094817F09FFB0FF0E3FE0A20E7
:1021A00017F0C8FB064817F04BFCEFF3108372B62C
:1021B00000F08EF8FEF7E4FF7014002056BC01001A
:1021C00072BC010070B50D4600210446FFF7CCFC3F
:1021D0000D4E70B9BFF35B8FE288BFF35B8F33881E
:1021E00012B21BB29A4204D06DB901212046FFF70A
:1021F000BBFC3388BFF35B8FE380BFF35B8FA388A7
:102200000133A380012070BD9C0D00200021FFF749
:10221000D9BF000008B50F4BBFF35B8FC188BFF378
:102220005B8F1B8809B21BB2994201D0FFF770FF88
:102230008388002BFAD0013B9BB2838043B9BFF364
:102240005B8FC380BFF35B8FBDE80840FFF7C4BC62
:1022500008BD00BF9C0D00200C4B0D4A10B540215D
:102260009A600C4CE02283F82220D9770022A01833
:102270000132302A80F80013F9D11A6942F01002B5
:102280001A615A6942F400725A6110BD00ED00E013
:102290000010000000E100E0064A536843F0050327
:1022A000536052F86C3C43F4803342F86C3C00209D
:1022B000704700BF90ED00E0044B21F01F0142F099
:1022C00001029860D96000201A61704790ED00E02B
:1022D00008B5EFF30581C1F3080119B104481039BD
:1022E00017F0FAFA034B1B68DB0700D500BE08BDE8
:1022F0007FBC0100F0ED00E0134423F003034FF036
:10230000773210B543F8042C5A0758BF4FF0883283
:10231000A3F104045CBF43F8082CA3F108044FF0B8
:10232000807344E902030D4B44F80C3C0022032364
:1023300044E9053202200123224644E907306FF0C8
:10234000020344F8201C42F8243D0B2342F8043DCC
:10235000013B032BFAD1A4F1440010BDCD1D0000B8
:102360000548064A064B0168914201D0181A704789
:102370009842FBD20430F6E700000020FEE7FEE7BB
:1023800000020020EFF3088070470000004870470B
:10239000000000200023E1EE103AEFF3148323F055
:1023A000040383F31488BFF36F8FEFF3108362B6D7
:1023B000024B4FF080525A60BFF36F8F00ED00E088
:1023C000114910B50C6872B6FFF766FC62B6A04200
:1023D00008BF10BD2146BDE8104049B1EFF30982A6
:1023E0001EF0100F08BF22ED108A22E9F04F0A609C
:1023F0000068B0E8F04F1EF0100F08BFB0EC108A74
:1024000080F3098870470000A00D0020024B4FF0B8
:1024100080525A60704700BF00ED00E030BF62B6E6
:10242000BFF36F8F72B670470D4B0E4A0E49684668
:10243000904203D8984201D9002102E009468D4616
:10244000012104207246024202D1EFF3088001E02C
:10245000EFF309802DE9F00F6B4600F087F800BF1D
:1024600058010020000004200002002008B50249A5
:102470000620FFF785FE00BF8EBC010008B50249AB
:102480000520FFF77DFE00BF9ABC010008B5024998
:102490000820FFF775FE00BFADBC010008B502497A
:1024A0000920FFF76DFE00BFBFBC010008B502495F
:1024B0000A20FFF765FE00BFD3BC010008B5024942
:1024C0000B20FFF75DFE00BFE5BC010070477047C1
:1024D0001C4AD2F8883043F4700310B5C2F8883033
:1024E000FFF7F4FF6A46184B1848194693421DD36C
:1024F000174B184A184883421BD3184B184A002020
:1025000093421BD321B1174A17490120FFF7D4FE8C
:10251000FFF7C2FEFFF7DBFF00F04EF9FEF746FEC5
:1025200016F0FCFEBDE81040FFF708BE43F8040BB0
:10253000DCE752F8044B43F8044BDCE743F8040BA8
:10254000DEE700BF00ED00E000000020FEE7FEE750
:10255000000200206CFC0100280500202805002056
:1025600040FA0020080006161F0000202DE9F04F59
:102570002DED068B89B0904604935C4B9A6B08EE68
:10258000102A5A6BD3F828A008EE902ADA6A09EECE
:10259000102A1A6BDB6B0AEE103A554B09EE902AA3
:1025A0001A68544B9A420446894602D0524817F0A2
:1025B00047FAB9F1000F6BD0504817F041FA504B71
:1025C0005048198809B217F087F900252E464E4861
:1025D00017F036FA51464D4817F07EF919EE101AE9
:1025E0004B4817F079F919EE901A4A4817F074F928
:1025F0001AEE101A484817F06FF91AF4004F04D079
:1026000018EE101A454817F067F91AF0800F04D039
:1026100018EE901A424817F05FF9424817F010FA86
:102620004148414617F058F9B9F1000F2CD118F084
:10263000080F55D0324B198809B208460391FFF7AD
:10264000E5FB03990246394817F046F9384817F078
:10265000F7F93146374817F03FF96946364BC91A42
:1026600003D53648494217F037F9049B1E462046E9
:102670008268C36801698C4641698E46AD46314621
:1026800091E8F00F416800682D490720FFF778FDB9
:10269000D4E90230D4E90012E7690390206905917A
:1026A000D4E905B60AEE900AB8052648CDE9062316
:1026B00054BF04F1200504F1240517F0C1F9039B70
:1026C000059900932048DDE9062317F005F91AEE75
:1026D000901A009733465A461C4817F0FDF876E7E3
:1026E000217F1B48103917F0F7F8AFE700ED00E045
:1026F00000000020FEE7FEE7F3BC010009BD010079
:102700009C0D002038BD0100E2BD0100EBBD0100C1
:10271000FBBD01000BBE01001BBE01002BBE010072
:102720003BBE01004BBE010050BE010062BE010075
:10273000A1BE0100D2BE010058010020FABE010076
:1027400027BF01004CBD010067BD0100A4BD010011
:102750007BBE0100BFF34F8F0549064BCA6802F4E8
:10276000E0621343CB60BFF34F8F00BFFDE700BFB4
:1027700000ED00E00400FA050C4B1B78062B12D18B
:102780000B4B186810F00F000DD104331B6803F0D9
:10279000F003302B08D1074B1B6813F0F00F0CBF70
:1027A0000120002070470020704700BFE00F00F0BC
:1027B000E40F00F0EC0F00F008B5FFF7DDFF20B1EB
:1027C000114AD36823F08073D360FFF7D5FF10B1AF
:1027D0000E4B03221A60FFF7CFFF30B14FF080435A
:1027E0000022C3F80C21C3F8102100F059F8084B5F
:1027F0000122C3F84025FFF72FFDFFF7B9FCBDE824
:1028000008400FF07DBB00BFF0ED00E0A0050040E8
:1028100000E00140044B1B682BB1044B4FF0805289
:102820005A60BFF36F8F7047A40D002000ED00E0E9
:1028300008B5044A044B10681B689847BDE8084077
:10284000FFF7E8BF841400207414002008B5044A80
:10285000044B50685B689847BDE80840FFF7DABF53
:10286000841400207414002008B5044A044B9068B6
:102870009B689847BDE80840FFF7CCBF8414002050
:102880007414002008B5044A044BD068DB689847EC
:10289000BDE80840FFF7BEBF841400207414002078
:1028A00070470000EFF3108172B6094B1A680132CD
:1028B000012A1A6009D14FF080430020C3F80001BB
:1028C0001A60D3F80021002AFBD081F310887047EA
:1028D00094140020094A08B513680BB9FFF718FCD7
:1028E000EFF3108172B61368013B13601BB94FF010
:1028F000804301225A6081F3108808BD941400209F
:10290000114A117838B5F1B94FF080431C46C3F82D
:102910001815C3F8041101219960D4F80431002B73
:10292000FBD001251570FFF7BDFF0023C4F80C3163
:102930004FF080422561D2F80C31002BFBD0BDE86E
:102940003840FFF7C7BF38BD981400200CF0C0BF57
:10295000D0E902301847000070B50E461546002138
:102960001022044616F096FE024BE560C4E90136DB
:1029700070BD00BF51290000036802463BB11868D2
:10298000834219BF02681A6000231360704718461B
:10299000704708B500B109B9FFF7BAFB4B68002BC7
:1029A000FAD0EFF3108272B60B6833B903686BB1DB
:1029B0001B680B60036819600160406882F310882F
:1029C00030B1BDE808400121FFF760BB0960F3E7C3
:1029D00008BD08B5EFF3108172B6FFF7CDFF81F3A4
:1029E000108808B10023036008BDF8B50D46044601
:1029F00000B109B9FFF78CFBEFF3108772B6002620
:102A000021464B68002BF5D00846FFF7B5FF08318B
:102A100010B90136B542F4D187F3108818B90120F6
:102A2000FFF724FBE8E700230360F8BDD0E90501C8
:102A3000FFF7AFBF01600349C0E90523C0E90310F8
:102A4000704700BF2D2A00000A4619B9D0E90501D8
:102A5000FFF79FBF011D006815F04DBC01460068DF
:102A600010B1043115F02DBC7047000038B58569F0
:102A7000044685B10A4B1868436901330CD015F040
:102A8000E3FB23696A68C11A8A4226BF9B181B1A96
:102A900000236B60206138BD83685B689847F0E76E
:102AA000A8F901008369084A10B5044610682BB1E3
:102AB0005A68214615F01FFC206110BD2146BDE873
:102AC000104015F0FEBB00BFA8F901008369002289
:102AD00010B504465A60A06930B1436823B9036851
:102AE000A36163699847F6E72046BDE81040FFF709
:102AF000D9BF000070B505460C46EFF3108672B6DC
:102B0000FFF7B4FF05F118031A68EAB922601A68E2
:102B10001AB151686068091A51601C60AB69A34220
:102B200006D10D4B62681868294615F0E4FB286150
:102B300086F31088094B1B682BB1094B4FF080526C
:102B40005A60BFF36F8F70BD616850688142DDD3FA
:102B5000091A61601346D7E7A8F90100A40D002007
:102B600000ED00E070B504460D46EFF3108672B636
:102B7000FFF77CFFA26904F118012AB92046FFF78C
:102B800091FF86F3108870BD9542136802D01146FC
:102B90001A46F2E70B60002BF0D05A6869680A44C5
:102BA0005A60EBE7034B4161C0E9023000238361C7
:102BB000704700BFCD2A000058B1037843B10138F7
:102BC00010F8013F0BB901207047303B092BF7D9B2
:102BD0000020704738B1054B0A0901F00F019A5CDB
:102BE0005B5C027043700220704700BF3ABF010077
:102BF000F8B50D465700064610B18C18A54201D114
:102C00003846F8BD304615F8011BFFF7E3FF0644D0
:102C1000F4E7F8B50E465700054610B18C18B442DB
:102C200001D13846F8BD284614F8011DFFF7D2FF40
:102C30000544F4E703461A46013311780029FAD116
:102C4000101A704707B5042201910DEB0201FFF73E
:102C5000E0FF03B05DF804FB0E4B994230B517D886
:102C60000A2301221C468B420FD960B183180A2522
:102C7000B1FBF5F405FB1410303003F8010D0846E4
:102C800009282146F4D8104630BD63430132EAE7F3
:102C90000A22EAE7FFC99A3BFFF7DEBF10B50144FD
:102CA00000220A24884201D1104610BD10F8013BD1
:102CB000303B092BF8D804FB0232F3E713B5074B7E
:102CC00001911B680446986816F0BEF901992046E8
:102CD00002B0BDE8104015F0C1B800BFC00400202C
:102CE00007B5014601A8FFF775FF022101A8FFF70C
:102CF000E5FF03B05DF804FB07B501466846FFF742
:102D0000A1FF08216846FFF7D9FF03B05DF804FB77
:102D100010B50446FFF78EFF01462046BDE810407F
:102D2000FFF7CCBF90B1D9B1002340EA0102D2072E
:102D30000ED5C20710D5CA0710D581423EBF024644
:102D400008461146091AF6D100FA03F10846704701
:102D5000400849080133E8E74008EAE74908EAE79C
:102D60000146F3E72DE9F04707460D4614460AB938
:102D7000FFF7CEF911462846FFF7D4FFA042F7D857
:102D8000A84241D8B4FBF0F2B5FBF0F04FF0004898
:102D9000B0FA80FE0021CEF1200C28FA0EF80E4683
:102DA000002400250023CEF15F0E14EB040A45EB4E
:102DB000050910EA080F54464D461EBF4AF0010AA5
:102DC0004D4654469D4208BF94424FEA46064FEA9C
:102DD000580811D3A41A65EB030546F00106002E2E
:102DE0000EDA54EA050300D00136CCF1200C3E6027
:102DF00087F804C0BDE8F087002EF0D10CF1FF3C4D
:102E000001317145D1D3ECE74FF0000C6646ECE799
:102E10000C4A10B5D2F84C41002303601CB1D2F823
:102E20005441A14207D0D2F8703153B1D2F8783171
:102E3000994206D10123242101FB032303F5A67344
:102E4000036010BD00020020F8B5054616460C468A
:102E500069B108B9FFF75CF90168A142FAD8436883
:102E600001EB03139C42F5D2641A241101346B6800
:102E7000A34201D800200AE02868314600EB041084
:102E800027010CF0AFFF0028F0D128683844F8BDC6
:102E9000F0B593B015462F23009306460C46402309
:102EA00002AA0B2128460DF00BF900281BDD2B6828
:102EB0005D7805F01F056B1E01259D400023ADB216
:102EC00023600227216802AA3046FFF7BDFF206079
:102ED00010B9384613B0F0BD83881D424FF001078A
:102EE000F0D00027F5E70227F3E7000070B5164C95
:102EF000A36805460E4683B1E36801330BD104F1A4
:102F000010035B88B34208D11048294613F064FCD3
:102F100018B1002015E02369F3E7A36F0BB9002077
:102F200070BDE36F013314BFD4F88030084B5B8869
:102F3000B342F4D10748294613F04EFC0028EED0E6
:102F4000702008302044EBE7000200201C02002023
:102F5000800200208C0200201FB514461A46037818
:102F6000012B0AD10023CDE901314068069B03946F
:102F700001A90BF02AF904B010BD4FF0FF30FAE7B9
:102F80002DE9F0411C46064600680D46904617F0B4
:102F900017F8238903F0010383F001040234074684
:102FA00004449DB1444516D89BB92C232B700123B2
:102FB0003C22EA5403F1010831683A4605EB080067
:102FC00016F066FAE8193E2300F808302046BDE8FE
:102FD000F0810023ECE74FF0FF30F8E71FB54268BF
:102FE000002A034611DB82687AB11068516801AC8F
:102FF00003C490680021117001AA044603CA4FF06F
:10300000FF329860D9601C615A6004B010BD30B5C1
:103010000368013B012B97B004461CD8C56A042302
:1030200003609DB1502200210DEB030016F032FB2E
:103030004FF0FF3315936368013314BFA36804F1A5
:1030400008030093002269462046A8472046FFF760
:10305000C5FF0023236017B030BD4269013201D0A3
:1030600015F0F2B883685B6818470000074B10B58D
:1030700004461868FFF7F1FF20F07F4262652046A2
:103080000621BDE810400DF0D4B900BFA8F9010039
:103090002DE9F043A1B006460C4617460A46014604
:1030A0000AA898460CF03EFF00285FDB0A9B5B787D
:1030B0005B0903D0204621B0BDE8F0833B4B186884
:1030C000FFF7CBFF02AD294681460AA80CF0C0FCF1
:1030D00028460CF0D9FC03462FB195E8030007F110
:1030E000680282E80300ABB10A9A93F8E8105278BC
:1030F00091420FD1D3F8EC00A9EB0009B9F1000F10
:1031000008DC012388F8003004210AA80DF0C6F974
:103110000446CFE7002288F80020002BF4D003F10A
:103120000C0001AA04210CF0BFFE431E072B8146B0
:10313000EAD82A4604210AA80CF0B6FE81450546C5
:10314000B8DC02980544AD1BB042A4EB050508D3DA
:103150003319984205D800F108039E1BA61BAE4206
:1031600007D2002388F80030C7E91A336FF0150042
:10317000A1E701994A4616F08BF9B9F1080F99D0E9
:1031800004210AA80CF04BFE037823F00F0343EA56
:103190000903037002982A4600F10801484416F01A
:1031A00011FAA4F1080009EB000483E7ACF901006F
:1031B00043685A1C012A13B5044605D8204602B0BC
:1031C000BDE81040FFF723BF013B436040F6B83134
:1031D000C3F104034FF4FA60994098400EF064FF85
:1031E000014604F13400FFF72FFC2368022B0BD0BB
:1031F00000230093D4E9021204F1140304F16000E7
:10320000FFF7AAFE0028D9DD02B010BD2DE9F0417C
:10321000104CD4F81C51002306460F460360A0460C
:1032200035B104F58E7013F0D7FA4FF0FF3560B961
:10323000D8F8343163B10848394613F0CDFA08B1F3
:10324000054C34602846BDE8F08104F58E74F8E73B
:103250000125F7E7000200203403002010B586B0F6
:103260001022002101A816F015FA04230093104B38
:10327000059300230F481A4669460AF095FE002878
:1032800010DB0D4B0D4C1A680A480023C4E90032CC
:1032900021460B4A13F0ECF901212046FFF7A5FB6C
:1032A000034610B9002006B010BD5B689847F3E7ED
:1032B000000033168C190020A00D00207419002086
:1032C000BD390000F8B5264CA36806460F461546E2
:1032D000DBB1E36801333AD104F110010B7803F05C
:1032E0000F039D4211D12A460431384616F0A0F84A
:1032F00058B91C48314613F06FFA70BBE369042BD0
:1033000027D194F82030FF2B27D0A36F1BB3E36F96
:10331000013314BFD4F8801013490B7803F00F0366
:10332000AB4218D12A460431384616F081F890B9DC
:103330000E48314613F050FA38B9D4F88C30042BCB
:1033400007D194F89030FF2B05D1094804E021699A
:10335000C4E7FEF7DDFE0020F8BD0648FCE700BF2D
:10336000000200201C020020800200208C020020AD
:1033700078020020080200202DE9F041104CD4F81A
:10338000EC50002306460F460360A04635B104F119
:10339000EC0013F021FA4FF0FF3560B9D8F8043192
:1033A0005BB10848394613F017FA08B1054C346090
:1033B0002846BDE8F081EC34F9E70125F8E700BFC5
:1033C00000020020040300202DE9F74F9846002357
:1033D000CDE9003306461446036011B16846FFF795
:1033E000CBFF1CB1214601A8FFF710FF214CDDE9FE
:1033F00000AB00254FF0FF392346D4F84C2122B909
:10340000A9462434B5B90125F7E7524502D0BAF1EF
:10341000000FF6D1D4F850215A4502D0BBF1000F6D
:10342000EFD1B8F1000F09D1242707FB053505F5C9
:10343000A6753560484603B0BDE8F08FD8F8001097
:10344000D4F86421087800F00F008242D9D1002A14
:10345000D7D02423043104F5AC7003FB05F715F035
:10346000E7FF044B0028CCD107F5A6773B44336037
:10347000E0E700BF000200207FB51C4EB6F9004017
:1034800084BB1B4B1B481C4DCDE901431B4B0093D8
:10349000062223464FF48B61FEF720FD308028463C
:1034A000E022214640F8084B16F0F4F8302221467D
:1034B00005F1EC0016F0EEF84822214605F5A6705D
:1034C00016F0E8F88022214605F5CA7016F0E2F8F9
:1034D0000EF0C6FDC5F8E8000CF09EFAB6F9000043
:1034E00004B070BD6FF01000FAE700BF7219002041
:1034F0004ABF010019150020000200205D320000C3
:10350000064BBFF35B8F53E8000F421C43E80021DA
:103510000029F8D1BFF35B8F80B27047E80200202A
:1035200008B503690BB1FEF7F3FD064B5A68586006
:10353000C36802610BB9044BC36043690BB9034B09
:10354000436108BD00020020812F0000912E000081
:103550002DE9FF47DDE90C5604460F469046994693
:1035600025B12B782F2B01D0FEF7D2FD2760FFF776
:10357000C7FF8246B9F1000F28D00EF071FDCDE9EA
:10358000009AADF80C00022303AA012120680CF078
:10359000F0FD42460346394620460CF051FE0E4AE5
:1035A0000823042120460CF042FF002809DD45B124
:1035B0003EB12F2300932A4633460B2120460CF0C0
:1035C000D1FE00EAE07004B0BDE8F087CDE90090DC
:1035D0004B464A464946D9E760BF01002DE9F04F06
:1035E00091B0047805930023CDE907331A9D8DF837
:1035F0001B3081468A46C4F3011404920AB9FEF7CF
:1036000087FD9DF87030012B64D801238DF81C30A4
:103610008D4B089315B9002C40F0B6808B4E0121DC
:103620003046FEF7A1FAB26833463AB1B26F22B122
:103630003046FEF7D1FA002539E001220392039AC1
:10364000702656439A19022191601B999163556324
:10365000049A06F1080706F11C011F4402F1180C38
:103660000B44106851681D4603C5083262452B465D
:10367000F7D1039BDFF8D4B107AA92E803004FF01B
:10368000700808FB03B808F1680383E803003A46B2
:103690000DF11B0351464846FFF7FAFC051E5B4639
:1036A00009DA0023C8F808305846FEF795FA28468C
:1036B00011B0BDE8F08FAA462CB1012C53D00024E4
:1036C000C8F808402AE0802D07DDC8F808405846B1
:1036D000FEF782FA6FF01505E9E79BF89421C8F828
:1036E0001040002A38D10BF5CA702A46C8F81000DD
:1036F000494615F0CDFED8F81020544BC8F81450A8
:1037000052B30422C8F80C2040F6B8314FF4FA60E6
:103710000EF0CAFC01220446C8F808204B48FEF708
:103720005BFA039B1946494B702202FB01339B68ED
:10373000002B80D09DF81B3093B3454C45493A4649
:103740002046FFF709F9A368002B3FF458AF424821
:103750002146FFF71EF9AAE70399702202FB013206
:1037600000219160DAE74FF0FF32C8F80C20D9F859
:103770000000D9F8041010365E4403C6D9F80800DA
:10378000306041F28834C9E72A460DF11B03FFF788
:103790007FFC051E8BDB9DF81B40002C87D1274644
:1037A00001238DF81C30284B0893B7B107F134057D
:1037B000002C42D007F150031846284903933A469B
:1037C000FFF7CAF82649039B0968234A2846FFF7F2
:1037D00031F921462846FFF737F909AD1C220021AF
:1037E000284615F057FF059B6BB12E4603F1180CC8
:1037F00018685968324603C2083363451646F7D144
:1038000008238DF83C300095049B5246494607A892
:10381000FFF7A2FB051E3FF74AAF4FB13846FFF74F
:10382000DDFB1CB107F13400FFF718F900233B6002
:1038300015F1800F7FF4FFAE39E71C2221462846A0
:1038400015F028FFC9E700BF8C19002000020020F6
:103850007C1900200D39000074190020B1310000DE
:10386000A8F90100F7B50F4600241946164613467D
:1038700000943A4605460CF098FC00280CDD361AF8
:10388000AE816E6DEC8107446F6046B92846FFF744
:10389000EDFB304603B0F0BD4FF0FF30FAE72046B5
:1038A000F8E70000D0F8E430802B2DE9F041044621
:1038B0000E4626D8C368DFF850805B7880224146E8
:1038C0003046FFF7CFFF3368D4F8E4701D78E36823
:1038D0001B7803F00F03043305F00F05FF1A0435BE
:1038E00004F1640119443A4608EB050015F0D0FDD7
:1038F000EA19414630460CF015FBD4F8E400BDE867
:10390000F0816FF06800FAE79914002030B50446A2
:1039100097B068300CF0B8F8E36A054670B35BB353
:103920000021542201A815F0B5FE194B00936368DD
:103930001748013314BFA16804F108010A7802F0A6
:103940000F02043215F0A4FD69462846FFF7AAFFCE
:10395000002811DB95F8E9302246002B14BF06231E
:10396000032342F8143B6946E36A20469847204601
:10397000FFF734FB0023236017B030BD002BFBD0D2
:103980002246052142F8141B014620469847F3E7DA
:103990009914002010B50B46802207490446FFF712
:1039A00061FF014620B92046BDE810400CF060BD23
:1039B0004FF0FF3010BD00BF991400202DE9F043F7
:1039C0008146C806B9B04BD500250DF150081C2220
:1039D000294640460395A64C15F05CFE01238DF860
:1039E00068302F460EAB0093CDF80480002303AA65
:1039F00002A948460AF04EFB061E31DB0ED07319B1
:103A0000802B88BFC5F1800604EB05000299324681
:103A100088BF0127354415F03BFDE3E7C446BCE809
:103A20000F001BAC0FC408239CE803008DF8843002
:103A3000149B042B84E8030040F0D8809DF85400C8
:103A40008B49CDF824901BACFF2808BF34460123D6
:103A50002A4622A88DF820300CF064FA002802DAF9
:103A600039B0BDE8F083229A1378C3F30113032B16
:103A70004DD151880EA8FFF739FA054628B13430E8
:103A8000FEF7ECFF2846FFF7C2FA229B0EA906A814
:103A90005D88FFF771FC0698002838D0754A69BA2E
:103AA000D2F84C51002389B207932DB1854203D13E
:103AB000B2F860518D4209D0D2F8703163B19842AA
:103AC0000AD1B2F884318B4206D10123242101FBB3
:103AD000032303F5A6730793079AC2B1002313606B
:103AE000194652680A930AA8FFF76EFC0A9B079AC8
:103AF0000BB951680B6000235360069907931A466F
:103B000007A8FFF761FC079B0BB9069A136022997F
:103B10004A784FEA5219B9F1020F23D01DD8B9F1F2
:103B2000000F9DD10B781B11002A7CD113F00305E7
:103B30005ED10326229A137823F0300343EA06135A
:103B40001370229B00225A70229A137823F00F03DD
:103B5000137000940EAB042277E1A9F10403012B4A
:103B60003FF67EAF11F8042B0EA802F00F02FFF70C
:103B7000A9FB229B05461B78002800F0AD8113F0BD
:103B8000300FC3F3011200F06581032A3FF468AFE0
:103B90004FF0FF36AB6C1BB105F13400FEF75EFF52
:103BA000002F14BF062303232B60229B5B78432B3B
:103BB00040F0748105F168000BF066FF07460028AD
:103BC00000F06C813C230AAA0E2122A80A930CF073
:103BD00083F9294B1868FFF740FA0A9B229A03449D
:103BE000C7F8EC30224B9A4200F03681FEF790FA8B
:103BF000022D7FF435AF49880EA8FFF777F9044608
:103C000000283FF42DAF436801333FF429AFC36A66
:103C10000560002B7FF424AF3430FEF71FFF2046F1
:103C2000FFF7F5F91CE799073FF51AAF3FB18D2172
:103C300022A8FFF7AFFE00283FF412AF02E10D4BC0
:103C4000CDE90477CDE906775D6802269946CDB1C6
:103C50006B690A9722AA0AA928469847022801D127
:103C60002D69F4E7012809D12D690646EFE700BF69
:103C70009914002000020020ACF90100002847D16F
:103C80000A9D0646012E46D0022E46D0002E3DD17A
:103C9000294607A8FFF7BCF8379B002B40F09F8010
:103CA00022AB32460EA906A8FFF78EFB079B0746FC
:103CB000002B40D0069A002A31D0934203D00696BA
:103CC0004FF0FF333793069B8BB1229F9D603A786C
:103CD000DDE9080102F00F0203F11C069A6186E893
:103CE000030022B1391D03F10C0015F0D1FB0EAB1E
:103CF000CDE90B349DF820300A950D93AD687B49D2
:103D00000AAB802222A8A847002894DAA0218FE7D6
:103D100000250320B5E785218AE7842188E79DF8FF
:103D200020101A7F914209D119680EA812F054FD93
:103D300008B1079B0693069B002BC4D1379B013328
:103D4000C1D0002FBCDB079B002BB9D10EA904A862
:103D5000FFF712FB049B33B90028A1BF182303FB14
:103D60000090EC300490214605A8FFF74FFA059B20
:103D70003BB90028A1BF182303FB009000F58E700B
:103D80000590049B33B3059A22B30EAE324603CAA4
:103D9000424518605960164603F10803F6D1059AAA
:103DA000264604F1180C334603CB6345106051607E
:103DB0001E4602F10802F6D12420474307F5A673F8
:103DC0004B44B9440693059BC9F85031049BC9F88C
:103DD0004C3178E7069B002B7FF475AF70E7012B21
:103DE0002BD122AB32460EA906A8FFF7EDFA069BAF
:103DF000FBB11E60324633460EA90AA80A96FFF7A9
:103E0000E3FA0A9B33B90EA904A8FFF7B5FA049B9D
:103E100003B11E60069A002352680A9319460AA845
:103E2000FFF7D2FA0A9A069B0AB959680A6000227B
:103E30005A604FF0FF33379359E701333FF457AFE0
:103E40004FF0FF3000940EAB0246284908A8FFF758
:103E500083F805E602269DE622A93846FFF722FDF3
:103E60000028BCBF05232B6097F8E9300BB106236F
:103E70002B60EB6A379F1BB10EAA22A928469847F0
:103E80002846FFF7ABF8013702D0B9F1020F01D095
:103E900000232B60731C7FF44DAEE1E5229A53782A
:103EA000432BE6D06B680133239B14BFA96805F14F
:103EB00008019B1ABDF894204978134405F1680065
:103EC00022AA0BF087FE0028D3D02B689A1F5342FA
:103ED000534180F8E930CCE713F0300F3FF429AEBE
:103EE000379B01337FF425AEBAE500BF991400205B
:103EF0002DE9F043282A85B006460F4601D0FEF78B
:103F000007F9184B01925C6800250123ADF80C30CD
:103F1000A8461CB9284605B0BDE8F083E3682BB17C
:103F2000CDF80880029B6268934201D32469F0E7D0
:103F30002068D4F80C9000EB031001AB7EB17A1B23
:103F40007119C8470028F1DDBDF80C3023F00103DA
:103F5000ADF80C30029B013305440293E2E7324690
:103F60003146EEE700020020F7B504461E46452321
:103F7000FFF778FC28220C2120460CF05AFA012188
:103F800020460CF075FAA189676801910546304614
:103F90000CF00EFB0199C3B228223846FFF7A8FFA8
:103FA000284403B0F0BDF8B5048906460F4615460F
:103FB00000200DB1AE4218D13289716800230BF098
:103FC000D0F804F13A030344B3F5803F24BF013035
:103FD00080B2396820443A3000232022083180B270
:103FE0000BF0BFF8C04380B2F8BD23462A89696848
:103FF0000BF0B7F8AB682D681C44A4B2D9E72DE9E3
:10400000F0410D4680460321284606F01DF804467F
:1040100008B9FEF77DF8022106F016F806460028DA
:10402000F7D0A368032B05D828460021BDE8F0414E
:1040300006F012B8011D2A4620466768FFF7B3FF55
:104040000028F1D13B78892B0ED8842B10D8802BF7
:1040500015D039782B4640F20122032004F0F4FAFF
:104060000028E1D0BDE8F0816333DBB2012BF0D84A
:10407000A36871683A46404602F0F0FEE9E72389FA
:1040800071683A46404600F051F8E2E738B50D460F
:10409000144600211A46032306F038F928B1436874
:1040A00000221D705C709A70DA7038BD10B504463D
:1040B00068B190F91030032B0CD102680431FFF77E
:1040C00072FF50B1626843BA5380002010BD6FF098
:1040D0000D00FBE76FF04C00F8E76FF00100F5E72B
:1040E0004269013201D014F0AFB883685B681847A9
:1040F0002DE9F041DDF81880154600220E461F46D6
:10410000014608F108031046FFF7C0FF044650B10E
:10411000406876BA6DBA8680C58027B14246394676
:10412000083015F0B5F92046BDE8F08173B50646B4
:104130000C46002A3ED0072B3CD99188D088083BFA
:1041400040BA49BA009389B202F1080382B28120D1
:10415000FFF7CEFF054668B3237EFF2B04F108026C
:1041600014BF04F11801002100F031FE044610B91B
:104170000146284609E000231A461946184605F06C
:10418000BAFB054630B90146204602B0BDE8704092
:1041900005F062BF43680EB1B6F9FA615E80064968
:1041A0002C602B4640F20222022004F04DFA014618
:1041B0000028DED002B070BD0000FFFFF7B5099DFA
:1041C0000C4611461A464FF6FB739D4207464AD8E5
:1041D000009500238020FFF78BFF002846D0224661
:1041E0000021466800F0F3FD044620B9214815F08F
:1041F00027FC00252EE043689DF82020DA7167B186
:1042000000231A461946184605F075FB40B343686B
:10421000B7F9FA215A8004600446174B1868FFF773
:104220005FFF032D89BFB0600836043D0C360023C4
:104230009D42DAB211D11149234640F202220220F6
:1042400004F002FA0028D4D16FF0080500212046BE
:1042500005F002FF284603B0F0BDF2540133E7E752
:104260006FF00B05F2E76FF01505F3E76FF00B0544
:10427000F0E700BF68BF0100B0F901000000FFFFD8
:104280002DE9F0479846224B0646186817460D461A
:10429000FFF726FF02218146304605F0D5FE0321B7
:1042A0008246304605F0D0FE0446BAF1000F2AD00F
:1042B00048B3DAF80400083003F0E8FC6468032D22
:1042C00004F1080C1CD9A268043DA9EB02020C34CD
:1042D00025442146E043A94202D14FF0FF3109E0D5
:1042E00001310B1811F8014CDBB29C42F3D0A1EB69
:1042F0000C01013943463046BC46BDE8F0476047F3
:1043000064460022E4E76FF01500BDE8F08700BFC7
:10431000B0F90100F8B50D460221164605F094FEED
:10432000044608B9FDF7F4FE47680C49102207F16E
:10433000080015F07DF870B13B7AFF2B0BD03B7E67
:10434000FF2B06D1022D04D0042D04D1022E18BF5C
:1043500000242046F8BD0024FBE700BF78C601001A
:1043600010B50B4608241B6833B193F910200132B5
:1043700002D09A681444F6E78268A24209D98B6891
:1043800040684968121B9A4228BF1A46204415F01B
:104390007FF8204610BD70B54FF0FF31054605F09F
:1043A00053FE002406462DB93034AEB173682BB9E4
:1043B000FDF7AEFEAB682D681C44F4E7B3F90200CC
:1043C00004F067FB0028F3D0B0F82A31B268283B2C
:1043D000A41A9C4228BF1C46204670BDF8B505466D
:1043E00010460F4614461E46FFF7D5FF29460346E2
:1043F0003A460020FFF74AFE0546F8B1436836BA50
:104400005E6094F910305A1C12D0022B05D123683B
:104410007BB193F9103001330BD17CB194F910309A
:1044200001330BD021462846FFF79AFF2468F4E7B2
:104430002468082614B1AA68B24201D82846F8BDFB
:10444000A36868686168921B9A4228BF1A46304484
:1044500015F01EF8A36824681E44EBE770B5064605
:1044600008464FF0FF31144605F0EEFD05460CB945
:10447000FDF74EFE626800210832304600F0A7FCCE
:10448000044628B901463046BDE8704005F0E4BD59
:10449000C5B16B68002BEBD0B3F9020004F0F9FA58
:1044A0000023194605461A46184605F024FA014627
:1044B00008B92046E8E743680DB1B5F9FA515D80C7
:1044C0000C600C460549234640F20222022004F00B
:1044D000BBF801460028ECD070BD00BF0000FFFF14
:1044E00070B50C460246064601212046FFF712FF32
:1044F000054660B10023224631460120FFF76EFFDA
:1045000028B12A462146BDE87040FFF7A7BF70BD1D
:1045100037B50C460190002202212046FFF7FAFE33
:10452000054668B1019B224600210220FFF756FF95
:1045300030B12A46214603B0BDE83040FFF78EBFB8
:1045400003B030BD70B50C46024606460321204636
:10455000FFF7E0FE054660B1002322463146032006
:10456000FFF73CFF28B12A462146BDE87040FFF71F
:1045700075BF70BD2DE9F0471646044602460F464A
:1045800030460421FFF7C6FE804680B33046FFF771
:1045900002FF2246034604210020FFF777FD05466F
:1045A00028B3D0F804A034464FF0000954B999FA62
:1045B00089F3CAF80430424631462846BDE8F04740
:1045C000FFF74CBF94F910300133F0D02146284654
:1045D000FFF7C6FED4E901329F4206D31A44974240
:1045E0003EBFFB1A083B03EB00092468DEE7BDE889
:1045F000F087002105F030BD08B50449102214F001
:1046000017FFB0FA80F0400908BD00BF58C601008E
:1046100010B50A490822044614F00AFF48B123786D
:10462000FF2B08D1607800F00F00831E58425841DC
:1046300010BD0120FCE70020FAE700BF48C60100DA
:1046400038B50B680D46044608B9FDF761FD6A6888
:10465000B0F9FA115180002263B9B4F82A019042EE
:104660000CD22946FFF754FF28467A21BDE838408E
:1046700005F0F2BC99681B680A44EDE7EFF310817E
:1046800072B6D4F8AC200132C4F8AC202A68BAB9AA
:10469000D4F8B4201344C4F8B43081F31088204611
:1046A00004F0DAF980B10D492B4640F202220120D4
:1046B00003F0CAFF88B92846BDE83840FFF799BF24
:1046C000906812680344E2E7B4F9FA0140F202226A
:1046D000294603F0AEFF0028EDDD38BD0000FFFFE6
:1046E0002DE9F8430E46D1E9001405460A46002399
:1046F0002ABB5BBAA380A379FF2B02D119BB3B2352
:10470000A371E37913B94DBB4023E37104F10807AA
:104710003F491022384614F08BFE04F118098046F8
:1047200078BB4846FFF768FF0246D0B110224146E9
:10473000384614F0AFFF0123E375344650E090682B
:1047400012680344D4E70B7C023BDBB2022BD6D8C1
:10475000304AD35CA371FF2BD3D1D0E795F8F83161
:10476000D3E74946284604F063FB0028E5D003461A
:1047700000F1100253F8041B47F8041B9342F9D1CF
:10478000DBE7284604F090F94846FFF735FF98B17B
:104790000024284604F08FF9002CCED003213046A7
:1047A00005F052FC28B143681B7803F0FD03852B0C
:1047B000C3D06FF07C0023E03946284604F011FB9B
:1047C0000028E5DB284490F8304004F01F04103C3A
:1047D00018BF0124DDE705F0B7FD98B1206004465D
:1047E00094F91030022B02D120680028F3D1314611
:1047F000204605F018FC002807DA831C08BF0020BB
:10480000BDE8F8836FF00B00FAE70020F8E700BF7F
:1048100078C6010087BF010010B50C46FFF760FFA6
:10482000002804DA2046FFF7E4FE002010BD012036
:10483000FCE7002370B505460C4642F040061946D9
:104840001A46184605F057F8014620B92846BDE833
:104850007040FFF7CEBE43681E710560EFF3108213
:1048600072B6D4F8A8300133C4F8A83082F31088A7
:104870002046BDE87040FFF7E3BE00002DE9F0439D
:1048800090F91030013389B00646884622D1446839
:104890000CB9FDF73DFCB4F9020004F0FAF8054646
:1048A0003046277905F050FD07F03F07014618B95B
:1048B0003046FFF79EFE0AE005F01CFC064696F91E
:1048C0001030022B09D01621304605F0C5FB09B087
:1048D000BDE8F08300273D46F1E770685A49102291
:1048E000183014F0A5FD0028EDD0304605F02CFD61
:1048F00004460028DCD04668337EFF2B2AD1002DE9
:1049000040F08D8004F0B8F8002840F098802046F0
:10491000CFE726463A4629463046FFF78AFF284623
:1049200004F0A8F805460028D1D0B8F1000FF0D067
:10493000204605F009FD06460028E8D00146284635
:10494000FFF7CEFE0028E5DAB442E0D03046FFF7AC
:1049500050FEDCE71836304604F050FB85428146B5
:1049600006D03046FFF754FE002818BF4FF000096C
:104970003046FFF741FE10B9B9F1000F18D0B8F179
:10498000000F0ED1204605F091FB0028BFD12F4922
:10499000234640F20122022003F056FE002896D161
:1049A000B5E721464846FFF737FF00288FD0E9E7F3
:1049B00001AB22462946304602F05AF9002886DB30
:1049C000BDF81C00C0F3041004F063F8054600288D
:1049D0003FF45FAFB8F1000F1AD1002108469DF8EF
:1049E0001E3005AA04F087FF014600288FD04368D7
:1049F0001F710460EFF3108272B6D5F8A430013352
:104A0000C5F8A43082F310882846FFF719FE5EE748
:104A10002146FFF701FF00283FF459AFDDE7B8F169
:104A2000000F06D021462846FFF7F6FE00283FF487
:104A30004EAF3A4629462046FFF7FBFE47E7411EA8
:104A4000204605F0DBFB6AE778C601000000FFFFA7
:104A50002DE98048102289B00DEB0200002114F0EE
:104A600019FEBC4BBC4C1B88BC48ADF81C3008215F
:104A70000594FDF769F804A9022005F03DFA40F21B
:104A80000523ADF80A3040F2022AA14640F2012483
:104A90006846FDF74CF8BDF80210B1F5017F09D862
:104AA000514500F24781A1423CD05145F0D10198D7
:104AB0000121F8E0A1F59F43403B9AB2152AE7D8BF
:104AC000152BE5D801A252F823F000BF454D000098
:104AD000454D0000454D0000454D0000914A000045
:104AE000454D0000454D0000454D0000454D00007E
:104AF000454D0000914A0000454D0000454D000025
:104B0000454D0000454D0000454D0000914A000014
:104B1000454D0000454D0000914A00004D4D0000FC
:104B2000614D0000019E0EB9FDF7F2FA4FF0FF3122
:104B3000304605F089FA804680B34368002BF3D0F5
:104B4000B3F9020003F0A5FF05460028ECD0EFF30F
:104B5000108072B6D5F8B8300133C5F8B830324697
:104B60000021936812681944002AFAD1D5F8BC30A4
:104B7000D8F808209B1A0B44C5F8BC3080F3108885
:104B800073683BB1B268272A04D91B7803F0F0039D
:104B9000602B05D03046FFF72CFD77E70546EFE7A1
:104BA000304605F0D1FB04460028F3D0022228212C
:104BB00005F0ECFB0023237408B92046EBE74768B7
:104BC000FB792BB921461846FFF7BCFC742145E060
:104BD000B988BE7949BA89B209B93B2EEDD1844270
:104BE000A36828D08B42204625D905F03DFC07F16B
:104BF000180B5846FFF700FD002859D15846FFF71B
:104C000007FD00B175BB584604F0F8F90546B0FA47
:104C100080F0400900284BD007F10800FFF7F8FCAE
:104C200020BB5846FFF7F4FC50B33B7EFF2BC4D0AB
:104C30002146032021E0002283681A4490F91030B5
:104C4000022B02D000680028F6D1283A8A42CED240
:104C5000391D22460020FFF78DFC1621204605F065
:104C6000FBF913E7584604F0C9F9D0E75846FFF7B7
:104C7000CFFC0028D9D121460220FFF731FC9CE768
:104C8000FB79013BDBB2FB7183B1B8F1000F03D0BC
:104C90004146204605F02EFA204605F044FA002849
:104CA0003FF4F4AE0021FFF7E9FDEFE621468BE784
:104CB000292E39D03A2E39D0112E0CBF04230023CF
:104CC00023743146022005F096F9002801DC3A2EC3
:104CD0002ED10121204605F091FA012794F9100008
:104CE000234640F20122494603F0AEFC10B92046AB
:104CF000FFF77FFC87B13A2E03D10121204605F052
:104D00007DFA234640F201223146022003F09CFC4A
:104D100010B92046FFF76DFC3A2E7FF4B7AE21465E
:104D20002846FFF76CF9B1E60223C9E70323C7E77A
:104D30000027D3E76FF0850302A968460393FCF7C9
:104D4000CDFEA3E6019802F0FBFC9FE6019801F07E
:104D5000D5FE9BE69C0D00200000FFFF541A0020AA
:104D60000198002101F00CFF90E600BF1FB50A4C2E
:104D7000B4F900305BB9094A0948CDE90132094A62
:104D800000924FF470710422FDF7A8F82080B4F966
:104D9000000004B010BD00BF541E002082BF0100FF
:104DA000941A0020514A000008B5022105F04CF980
:104DB00060B143680BB9FDF7ABF98268272AFAD9CD
:104DC0001A7802F0F002602AF5D1184608BDF8B54D
:104DD0000C46174602232822002105F097FA0646C2
:104DE00000B3456805F10800F4B12146034604F11B
:104DF000100251F8040B43F8040B9142F9D105F16C
:104E00001800B7B13A46034607F1100152F8040BF7
:104E100043F8040B8A42F9D160232B60FF23AB7166
:104E20000023EB713046F8BD1022214614F032FC0D
:104E3000E5E71022394614F02DFC012385F82730D0
:104E4000EAE70000F8B5044615460E4609B9002009
:104E5000F8BDD1F82C71FA04F9D51949082214F0DB
:104E6000E7FA38B12378FF2BF1D1637803F00F0311
:104E7000022BECD1FB0704F1080105F1100201D46B
:104E8000FDF746F996F8F9010AF02EFC10F0FF0044
:104E9000DDD0A8762B4604F1100254F8041B43F829
:104EA000041B9442F9D1B6F9FA311B0103F4F873EB
:104EB00043F4806343F006032B830120C8E700BF5F
:104EC00048C601002DE9F341064604F097F8044670
:104ED000002864D003F0E8FDB4F9FA11002000F0D6
:104EE000AFFF054600284BD0006800F028FD0028E1
:104EF00046D02B68B4F9FA11B3F86420C2F3041257
:104F0000914201D0FDF704F9043318463246214698
:104F100000F074FA3146204603F063FF051EF1DB12
:104F2000611991F8303003F01F02102A34D003F0D9
:104F30000702013A012A29D80133D4F8206181F807
:104F40003030E91C0901174B1748B3F900808F1C5A
:104F5000C43121440191FDF705FE04EB0510002347
:104F6000C0E93D36274444F6CF73A0F8FE30C0F8C0
:104F70000071A0F8FC8001990B48FDF7BBFD05E02E
:104F8000002384F82731204602F090FB204602B02F
:104F9000BDE8F04103F08FBD4EF66026D1E702B0C8
:104FA000BDE8F081541E00209C2000202DE9F04334
:104FB0000D4687B01E46044608B9FDF7A9F8D0F89B
:104FC0002C7117F4805F03D1042007B0BDE8F08393
:104FD00093F801E0BEF1020FF6D192F800C0BCF1E7
:104FE000880F40F08380FF07EED590F8482104AB8E
:104FF00000F5A07104F0F0FB0828E5D1DDE90423F9
:10500000F168B0688B4208BF8242DDD1B378012BD2
:1050100047D0022B4BD0002B41D105F1180120467F
:10502000F78803F0DEFE051ECEDB7FBABBB2012B94
:1050300004EB05021CBF4EF660275F4392F8303048
:10504000314823F01F0305F1030143F010034FEA39
:10505000011182F8303001F102082C4B01F1C4013A
:10506000214418BFA7F56A47B3F90090039114BF14
:10507000603F47F23057A044FDF774FD04EB051480
:105080000023C4E93D3744F6CF7303991E48A4F8C2
:10509000FE30C4F80081A4F8FC90FDF72BFDB07839
:1050A00093E705F11801204604F041F9F7E7B4F958
:1050B000FA1105F1080000F0C3FE074600283FF48E
:1050C0007CAF00F085FE002000F0A4FE28B984F833
:1050D0002701204602F0EAFAE1E73B68002B3FF4A3
:1050E0006CAF05F11800FFF7EDFED8E7BC077FF5C0
:1050F0006BAFBCF1870F7FF467AF0F9C01940E9CE0
:10510000009400F087F860E79C200020541E0020E7
:1051100073B54378032B054603D00024204602B024
:1051200070BD083001F0C2F804460028F5D06B8845
:10513000AA885BBA52BA9BB243EA0243EA8852BADF
:1051400092B242F21071002A08BF0A464EF660255C
:10515000554302699A4209D30361114B18684369A8
:10516000013319D013F070F8284460610D4B0E48DC
:10517000B3F9006004F118010191FDF7F3FC00237D
:10518000C4E9063544F6CB73019907486384646229
:105190002684FDF7AFFCC1E783685B689847E3E7C7
:1051A000A8F90100541E00209C20002073B514466D
:1051B0008A784878402A8CBF03230223984226D15C
:1051C000CD88CB786DBA03F00F06ADB2C3F30013F0
:1051D000009308312B46304607F0A0F80CB9FCF7D5
:1051E00097FFF14304F1290201F00701F4080120BF
:1051F00000FA01F1135DC9B23DB923EA01034EF68D
:1052000060201355684302B070BD0B43F7E74FF0C1
:10521000FF30F8E72DE9F74F01F1080A0646884606
:105220009146474910225046DDE90CB51F4614F05F
:10523000FFF8002800F08180BBF1000F7DD05DB148
:1052400095F86630DB0707D50822B91805F1140078
:1052500014F0EEF8002867D1FC88002C5FD05B4684
:105260004A464146304600F0EBF9B6F9FA1150468D
:1052700000F01EFC044600285DD000F1140807F180
:10528000080508222946404614F0D2F828B1B4F89F
:10529000643003F4C063002B4BD12B6863616B68EF
:1052A000C8F80430FD88274B2748B3F9007004F193
:1052B000540101916DBAFDF755FC00236365ADB251
:1052C0004EF660235D4344F6C973A4F85E3001993D
:1052D0001D48A5652466A4F85C70FDF70BFCB4F8C6
:1052E000643013F007030ED0062B0CD00EB9FCF778
:1052F0000FFF154804F12401FDF734FC0322214679
:10530000304600F083F9B4F8643023F4C06343F40A
:105310008063A4F86430002003B0BDE8F08F65B16D
:10532000284600F01DFCF6E7B5F8643003F4C063CE
:105330001BB10120F0E70220EEE70420ECE700BFFC
:1053400078C60100541E00209C20002073B5069EE4
:105350001C460BB9FCF7DCFE0025CDE90065FFF724
:1053600025FEC31EDBB2012B0AD9E18849BA2B46C0
:1053700004F1080289B202B0BDE8704008F03EBCFA
:10538000284602B070BD00002DE9F0411F460B4BCE
:10539000144605460E460A48B3F900801146FDF74B
:1053A000E1FB0023C4E900376681E560A4F80880CA
:1053B00021460348BDE8F041FDF79CBB541E002088
:1053C0009C20002038B50446154699B190F8682015
:1053D0009A4205D01A4602311C3014F029F858B907
:1053E000B4F86410B5F90000C1F30411081A18BF2D
:1053F000012038BD0846FCE70120FAE7F0B5074672
:1054000085B015461E460C4609B9FCF781FEB1F978
:10541000FA11002000F014FD4DB3D4F82C31DA0459
:1054200025D520B30068B4F9FA21B0F86430C3F38D
:1054300004139A421BD13146043009F0D8FEB0B1B2
:10544000D4F82C31DB0710D594F8482102AB04F5D1
:10545000A071204604F0C0F9082806D1002302AA52
:105460000F21184608F0CAFB10B905B0F0BD0020A6
:10547000009033462A462146384602F0FBFEF4E708
:1054800070B50446B0F86400C0F304100E4603F093
:1054900000FB054608B9FCF73BFE03F005FB16B11F
:1054A000002384F86730231D184600222946FFF7A1
:1054B000A5FFD5F8203104F1240244F6C07120463E
:1054C000FFF762FF284603F0F6FA94F867300133DD
:1054D00084F8673070BD2DE9F043B0F8643013F004
:1054E000070585B00446884671D06A1E012A71D826
:1054F000C3F3041003F0CDFA44F6C171064620460A
:1055000000F0E0FF81460EB9FCF702FE304603F0E2
:10551000CBFAD6F82071B94556D9B8F1000F02D0B0
:10552000002384F86730012D28D140F2DC514FF47C
:10553000FA7094F867800CF0B7FDA0F5FA73A8F143
:105540000208B3F57A7F5FFA88F8DDD2B8F1110F5F
:10555000DAD805FA08F5A5FB0723A2FB008900FBB2
:1055600003994FF47A7200234046494613F014FB26
:105570004EF66023984228BF1846074640F2FF22A5
:105580000023CDE900234FF080730293FF238DF8B1
:105590000C30637C8DF80D30638AADF80E3000223C
:1055A0006B463146201DFFF729FF3B4604F12402DC
:1055B00044F6C1712046FFF7E7FE94F86730122BDE
:1055C0009CBF013384F86730304603F074FA05B0AD
:1055D000BDE8F083FFF754FFF9E7000010B504467B
:1055E000D0F8E80000EB500140080CF05DFD04F13C
:1055F000A402C4F8EC00044B204644F6CE71BDE88A
:105600001040FFF7C1BE00BF00DD6D00B1F864308F
:1056100023F00703134370B50446A1F864300D4628
:10562000164603F041FA34B1D4F8C0301BB132460B
:10563000291D032098472046BDE8704003F03BBA7F
:105640002DE9F84390469946054608B9FCF760FDF8
:1056500001F10807B0F9FA11384600F029FA0446BA
:1056600028B190F8663013F0010F08BF0024D5F878
:105670002C31DA07EAD595F8F90149460AF04AF8DB
:10568000061E25DB002C4BD094F86830B34207D1BE
:10569000324609F1020104F11C0013F0C9FE98B171
:1056A000D5F82C2141F20203934303D198F800303E
:1056B000852B09D0244804F12401FDF753FA032275
:1056C00021462846FFF7A2FF94F86630DB0701D495
:1056D000BDE8F88398F80030862B1AD1B4F864300E
:1056E00043F00803A4F86430D5F82C2141F20203FA
:1056F000934303D198F80030852BE9D084F8686093
:10570000324609F1020104F11C00BDE8F84313F030
:10571000BFBE872BE8D0B4F8643023F00803E1E77C
:10572000B5F9FA110322384600F058FA0446002869
:10573000CED098F80030872BC6D1B4F8643023F06F
:105740000803A4F86430BFE79C20002038B5044665
:10575000B0F8640000F00703042B12D0062B12D11E
:105760000325C0F3041003F094F92A462146FFF7FD
:105770004DFF052D07D120460121BDE83840FFF738
:10578000AABE0525EDE738BD70B505460C460622D4
:10579000FFF73CFFD5F81C3104F12402204644F603
:1057A000C771BDE87040FFF7EFBD00002DE9F0477D
:1057B000054617461E460C4609B9FCF7A9FC002809
:1057C000FBD06BB1D0F82C31D907F6D590F8F901A0
:1057D000314609F09FFFB0F1000802DABDE8F0871A
:1057E0009846B4F8649009F00709B9F1020F10D097
:1057F00097F800A0BAF1880F02D13B799A0608D435
:10580000434605F5FD7231462046FFF7DBFD0028D3
:105810004FD0002E45D084F868804246B11C04F178
:105820001C0013F035FE3B78882B02D13B795B06D8
:105830003AD4294804F12401FDF794F903222146C2
:105840002846FFF7E3FE3B78882BC7D13A799006CC
:105850003ED5B4F8643011065ABF23F008039BB25A
:1058600043F00803A4F864305206B7D4B4F86430A7
:1058700003F00703062BB1D1434605F5FD7231460F
:105880002046FFF79FFD0028A8D004F1240112480C
:10589000FDF768F9214628460322BDE8F047FFF7E7
:1058A000B5BE84F86860BEE721462846FFF76CFF66
:1058B000C9E7BAF1880F91D1B9F1000F8ED03B79C9
:1058C0005B068BD521462846BDE8F047FFF75CBF55
:1058D000B9F1020FC8D1BCE79C2000200122FFF7DC
:1058E00095BEB0F8642002F00703022B10B5044601
:1058F0000BD0052B17D0012B06D1B4F8643013F46C
:10590000C06F0AD01B0708D410BD90F86730022B77
:1059100003D9BDE8104000F023B920460021BDE8BE
:105920001040FFF7D8BD90F86730022BE5D9C2F3DD
:10593000041003F0AEF82146FFF7D0FFDDE7B0F822
:10594000640000F007000138012894BF0020012006
:105950007047CB08C943C25C01F00701012303FA79
:1059600001F10A4214BF18460020704730F9081FA1
:10597000FCF756B808B50449102213F059FDB0FAE7
:1059800080F0400908BD00BF78C6010008B590F856
:10599000661021B96C2213F07DFE012008BD0020A5
:1059A000FCE770B5044610460E461546FFF7EEFFBD
:1059B0004CB120462B1D04F1100250F8041B43F893
:1059C000041B9042F9D11F2E01D9FCF7A1FBB5F8B9
:1059D000643023F4F87343EA0611A5F8641070BD2F
:1059E000064A13683BB11868834219BF02681A60FF
:1059F0000023136070471846704700BF98200020AE
:105A000001490248FDF7CEB86D5900009C200020E6
:105A10000148FCF7FBBB00BFB82000200148FCF7A1
:105A2000F9BB00BFB82000202DE9F041154C064617
:105A30000F4604F5D8780025B4F86430C3F3041396
:105A40009F420CD025B994F86630002B08BF25463C
:105A50006C34A045F0D155B92846BDE8F081211D30
:105A60005EB90846FFF786FF0028EBD025462A4698
:105A700039463046FFF795FFEEE7304609F0B7FBB1
:105A8000F2E700BFC020002028B16C30064B9842DE
:105A900003D3002070470548F8E790F86620002AF5
:105AA000F8D16C30F3E700BF70220020C020002046
:105AB0002DE9F0410E46054608B9FCF729FB104CCC
:105AC000002794F86630A0464BB90137042F04F143
:105AD0006C04F6D14FF000084046BDE8F081B4F800
:105AE000643013F4F87FC3F3041202D00EB196426F
:105AF000EBD12946201D09F07AFB0028E5D0EBE721
:105B0000C020002073B50446B0F86400C0F3041050
:105B100002F0BFFFB4F86430D0F81C610E4823F0E7
:105B2000070343F00603A4F864300C4B04F124018E
:105B3000B3F900500191FDF715F8002301990648CB
:105B40002463C4E9093644F6C773E385A58502B02A
:105B5000BDE87040FCF7CEBF9C200020541E002002
:105B600010B590F8663023F0010380F866300446E3
:105B700000F134011748FCF7F5FF164804F1240141
:105B8000FCF7F0FF134804F14401FCF7EBFF04F1CC
:105B900054011048FCF7E6FF0F4A116821B10B6869
:105BA0009C4206D1FFF71CFF2046BDE81040FFF7DE
:105BB000EDBE0B461B681868844202D09942F9D1A9
:105BC000F2E7002BF0D02168196011688C4208BF01
:105BD0001360E9E79C200020982000202DE9F84F71
:105BE0008846074608B9FCF793FA02F007052B1F11
:105BF000022BF8D9FFF718FF044600284CD1FFF715
:105C0000EFFE0646002864D0DFF8CCA08346D146DC
:105C10009BF8664034F001042DD1BBF8643003F4E6
:105C2000C06383B95846FFF79BFF5A464146384642
:105C3000FFF7B7FEBBF864302B43ABF864300123A9
:105C40008BF866305C46DAF80030B3B11B68CBF8ED
:105C50000030DAF80030C3F800B0C9F800B0C4B9B9
:105C6000FFF7BEFE86428346D2D1D9F800303BB959
:105C7000CBF800B00BE00024E5E7CBF800B0ECE790
:105C80001B68CBF80030D9F80030C3F800B0C9F871
:105C900000B02046BDE8F88F90F86630DA070AD4E5
:105CA000B0F8642022F007022A4343F00103A0F871
:105CB000642080F866302368002BEAD1064B1A680E
:105CC0002AB1126822601A6814601C60E1E724603F
:105CD000FBE70446DDE700BF98200020F8B50C463E
:105CE000054600B109B9FCF713FA0A46031D00F195
:105CF000140153F8040B42F8040B8B42F9D1B5F8A8
:105D000064701A4927830822204613F091FB04F19E
:105D1000100638B12378FF2B1DD1637803F00F03F1
:105D2000022B18D1C7F3041002F0B3FE0028DAD01A
:105D3000D0F82C31D9040ED59A070CD4DB0705F125
:105D40000C01D0D590F8F901324609F0CDFC0028BD
:105D500001DBA076F8BD95F86820A27605F11C015C
:105D60003046BDE8F84013F093BB00BF48C60100C1
:105D7000F8B5164C256807460E46A5B1B5F864304F
:105D8000C3F30413994201D00020F8BD291D09F086
:105D90002EFA0028F8D095F8663043F0080385F80D
:105DA00066302046F1E7FFF73FFE024620600028FC
:105DB000EAD031463846FFF7F4FD226892F86630A3
:105DC00043F0080382F86630EBE700BF841E002032
:105DD000036810B504468BB1011D0C48FCF7C2FEE8
:105DE000206890F8663023F0080380F86630FFF7EB
:105DF000CDFD14220021204613F04CFC044B1A6800
:105E0000A24204BF00221A6010BD00BF9C200020E7
:105E10007022002028B11430074A904203D300209A
:105E200070470648F8E703681BB193F86630002B0B
:105E3000F6D11430F1E700BF981E0020841E002028
:105E400010B520B10E4B1C682CB9002010E00029C1
:105E5000F8D1FCF75DF929B1B4F86430C3F3041349
:105E60009942F2D128B994F866301B07F1D504485D
:105E700010BD211D09F0BBF90028E6D0F3E700BFF3
:105E8000841E002010B5134C2168B9B10B68B3F81B
:105E9000643003F00703013B012B0DD80020FFF70E
:105EA000B9FF68B90846FFF7B5FF01B110B9002086
:105EB000FFF7B0FF20600146084610BD0846EEE738
:105EC0000368B3F8643003F00703013B012BF1D8FA
:105ED000E5E700BF7022002038B50C46054610B13A
:105EE000036803B109B9FCF713F910220021204619
:105EF00013F0D0FB124A12680023AA4284F8203023
:105F000009D12B68B3F8643003F00703013B012B80
:105F100094BF0023012384F821302B6804F1100181
:105F20001A1D143352F8040B41F8040B9A42F9D1AC
:105F30002B68B3F86430C3F30413638438BD00BF27
:105F4000702200202DE9F84F054689461F469046ED
:105F500032B11046FFF70EFD10B97B1E7F2B01D921
:105F6000FCF7D6F8DFF8E8B0044682469BF8342008
:105F7000EAB9002C08BF5C460AF1010ABAF1080F21
:105F80000BF1400BF2D1002C46D02368002B49D1F5
:105F900049462846FFF748FD06462060002841D1C3
:105FA00001464022204613F075FB344634E09BF84E
:105FB00035209742E0D15846414650F8046B09F02D
:105FC0002BF98742D8D8002ECAD0B6F86420C2F385
:105FD00004129145D0D104363046FFF7CBFCF0B91E
:105FE000002DC9D03146284609F001F90028C3D058
:105FF00005F1100255F8041B46F8041B9542F9D12F
:10600000134B4FEA8A1A5C4653F80A1091F866203F
:1060100042F0400281F866202046BDE8F88F002D4E
:10602000EED0E5E7226849462846FFF7BAFC20464D
:10603000FFB250F8042B92F8663043F0400382F828
:10604000663041463A4609F007F984F83570E3E7CF
:10605000981E002010B590F834300446DBB9006873
:1060600090B10D4B08229C4202D0196888420BD097
:10607000013A03F14003F6D190F8663023F0400373
:1060800080F86630FFF782FC20464022BDE81040D1
:10609000002113F0FFBA10BD981E002028B1403037
:1060A000064B984203D3002070470548F8E790F864
:1060B0003420002AF8D14030F3E700BF98200020B8
:1060C000981E0020054B984206D303F500739842B2
:1060D0002CBF00200120704700207047981E002030
:1060E00038B5034610B1026802B109B9FCF710F8DF
:1060F000021D03F11404084652F8045B40F8045BE7
:10610000A242F9D193F8352081F82020002481F8AB
:1061100021401A68B2F86400C0F30410488493F870
:106120003430042B01F1100005D121461022BDE8C6
:10613000384013F0AFBA131D0146143253F8040B64
:1061400041F8040B9342F9D138BD00002DE9F04726
:1061500088461646074600B10AB9FBF7D9FF1F4D1E
:106160000024A14605F5007A95F834305BB1394634
:10617000281D09F051F8484505D995F83530834276
:106180009CBF81462C4640355545EDD134B194F83D
:106190003430042B1DD1E38EDB071AD4FFF772FED7
:1061A00090B9B4B9204602F065FC044618B96FF006
:1061B0007100BDE8F087D4F8C030002BF2D0424621
:1061C000394601209847EDE73146FFF785FE00206C
:1061D000EFE731462046FFF783FFF8E7981E0020DF
:1061E00038B5044600F114011248FCF7BBFC94F8E2
:1061F000343023F00403204684F83430FFF72AFFBC
:106200000D48241AB4F5007F4FEAA41511D20B4CA7
:10621000294604F12800FFF79CFB50B1ED4305F03F
:1062200007050121A94094F8285025EA010584F8C2
:10623000285038BD9C200020981E0020581E0020A9
:106240002DE9F341044600F114011748FCF78AFCDC
:106250002368B3F86400C0F3041002F01AFC05468A
:10626000E0B100F13206211D304694F835800191ED
:1062700008F0D2FF05F142078045019998BF94F8D4
:106280003580384688BF002608F0C6FF804501D912
:1062900026B137463946284603F049F8204602B071
:1062A000BDE8F041FFF79CBF9C20002038B50446B4
:1062B00008B9FBF72DFF0B4908F099FF78B9094899
:1062C000FFF758FB60B12346064C03F11005186830
:1062D0005968224603C20833AB421446F7D101483D
:1062E00038BD00BF581E002070B550B3164908F0E5
:1062F0007EFF40B3154E164D002421463046FFF771
:1063000028FBC8B90134082CF7D10024114E2546CA
:1063100021463046FFF71DFB48B90134102CF7D158
:10632000BDE8704008482C22002113F0B3B9E0B258
:1063300005F0D2FF0574F0E705EB8410FFF750FF7E
:10634000E0E7FBF7E5FE70BD581E0020801E002030
:10635000981E0020811E002008B520B119B191F8C7
:1063600034305B0701D4FBF7D3FE094BC91AB1F5F2
:10637000007F4FEAA11309D2DB4303F00702012398
:10638000934090F82820134380F8283008BD00BFC0
:10639000981E002070B539B10E4BCB1AB3F5007FB3
:1063A00002D30024204670BD0A4E00F1280508469D
:1063B000FFF774FE04460028F3D094F834305B07EE
:1063C00006D5A11B89112846FFF7C3FA0028E9D199
:1063D0002146ECE7981E002038B538B100F12C04B6
:1063E000074DAC4204D30024204638BD054CF7E7E6
:1063F0002046FFF7BFFA0028F6D02C34F1E700BFA3
:10640000841E0020581E00202DE9F3411F4613462C
:106410000A4601460020089EFFF794FD0546002825
:106420003ED090F83430B74243F0040380F8343063
:1064300001D2FBF76DFE07EA0604601C38D01E4B44
:106440001868436901332FD011F0FEFE711C044619
:106450001DD01A4B1A48B3F9008005F114010191BF
:10646000FCF780FB0023C5E9053644F6CC7301999F
:106470001348EB832D62A5F81C80FCF73BFBB21C94
:1064800005D03319013301D104B101362644FB1C78
:1064900010D83B19013308BF01373C44C5E90E460B
:1064A000284602B0BDE8F08183685B689847CDE775
:1064B0002646F3E73C46F1E7A8F90100541E002008
:1064C0009C20002010B50A4B9B690246002013B99E
:1064D0004FF0FF3010BD5C6820445C898C4204D1D1
:1064E000002AF7D0DC689442F4D01B68EFE700BFC5
:1064F0009C200020044B18684369013301D011F03F
:10650000A3BE83685B681847A8F9010073B5044609
:106510000E46FFF7EFFF23680546B3F86400C0F3AB
:10652000041002F0B6FAA26B531C1EBF4FF47A732C
:10653000521BB2FBF3F2E36B591C07D09D428FBF95
:1065400000235B1B4FF47A71B3FBF1F3E18E11F082
:10655000010506D0D0F82C0110F4805F14BF00258F
:106560008025890748BF45F04005CDE9005694F8DD
:106570003510201D01F032FE02B070BD2DE9F3414F
:10658000D0F82C41B0F9FA6141F20203A3430D4661
:106590004ED109B9FBF7BCFD002427464FF0010896
:1065A00005EBD70393F82920FB4303F0070308FA10
:1065B00003F31A4211D0F8B205F08EFE034660B123
:1065C000428A417C007C009407F02FFB044620B9EE
:1065D0000025284602B0BDE8F0810137102FDFD139
:1065E000002739462846FFF7D5FE074690B96E6961
:1065F000FFF780FF2A46301A4EF660212346B0FB93
:10660000F1F1286989B207F035FB002838BF002076
:106610000546DEE73B68B3F86430C3F304139E42DB
:10662000DFD12146FFF772FF04460028D9D1CFE71A
:1066300014F48054CCD1254610E094F834305B0734
:106640000CD52368B3F86430C3F304139E4205D11C
:106650002946FFF75BFF05460028B9D02046FFF723
:106660001DFD04460028E8D1B3E7F7B51446D0F87D
:106670002C2141F20203934305460F4621D014BB5F
:106680002146FFF77BFF009023463A46002128462B
:1066900001F02AFF11E094B931462846FFF76EFF5A
:1066A000009023463A460021284601F01DFF30465F
:1066B000FFF792FE06460028EDD103B0F0BD0020A2
:1066C000EEE70026F3E70020DDE738B50546B0F831
:1066D0006400C0F3041002F0DCF9044608B9FBF7CB
:1066E00017FD02F0E1F9D4F82C315B0704D5002244
:1066F000291D2046FFF7B9FF2046BDE8384002F0CB
:10670000DAB90000F7B5044602F0CEF90CB9FBF790
:10671000FFFCD4F82C31DA044AD4284F284894F8E6
:10672000266139460BF0C0FC44F6C671054620468A
:10673000FFF7C8FEFC2E01D9B84203D8D4F82C319B
:106740005B0735D5FC2E94BF002201220021204694
:10675000FFF78BFFFFF7CEFE94F82631C4F8140143
:10676000022B1AD9FC2E1DD8164B1748B3F900601E
:1067700004F1C4010191FCF7F5F90023C4E93135B6
:1067800044F6C67301991048A4F8CE30C4F8D0403E
:10679000A4F8CC60FCF7AEF90AE0B5F57A5F28BF43
:1067A0004FF47A550133DBB284F82631002BDBD16C
:1067B000204603B0BDE8F04002F07DB9C0270900D3
:1067C00070050300541E00209C200020002280F849
:1067D0002621D0F82C2142F00402C0F82C21FFF72A
:1067E00091BF73B514460E460546FFF783FE0A3087
:1067F000C4E90E0000212046FFF788FE0023009028
:1068000032461946284601F06FFE02B070BD000006
:10681000F0B5044685B00E461746002110226846A2
:1068200012F038FFD4F82C31D90406D4B4F9FA1197
:10683000244813F051F805B0F0BDDA07FBD594F801
:10684000482102AB04F5A071204603F044F800286B
:10685000F1DB3A463146684608F0FEFC69462046C0
:1068600002F0BFFA051E2BDA07233A466946204696
:1068700002F054FC051EDEDB0127D4F82C31DB04CA
:10688000D9D511490822304612F0D2FD38B13378FB
:10689000FF2B0DD1737803F00F03022B08D162197F
:1068A00092F8303023F01F0343F0100382F83030A9
:1068B000002FC0D004EB05103230FEF703FBBAE71F
:1068C0000027DAE78ABF010048C60100D0F82C2172
:1068D00041F2020393430CBF012000207047D0F81F
:1068E0002C0143074CBFC0F300300120704700006B
:1068F00010B50A490822044612F09AFD48B12378DF
:10690000FF2B08D1607800F00F00831E58425841D9
:1069100010BD0120FCE70020FAE700BF48C60100D7
:1069200008B50449102212F083FDB0FA80F0400946
:1069300008BD00BF78C60100002103F08DBB08B57B
:10694000FFF7B6F828B190F8663013F0010F08BFD2
:10695000002008BD044B18684369013301D011F0D1
:1069600073BC83685B681847A8F9010038B50568EF
:106970005DB195F866301B0707D5FFF729FA0024AB
:106980002046FFF78BFB044600B938BD23689D42C3
:10699000F6D1FFF75FFBF3E72DE9F0411F460B4B04
:1069A000144605460E460A48B3F900801146FCF726
:1069B000D9F80023C4E900376681E560A4F80880AF
:1069C00021460348BDE8F041FCF794B8541E00206E
:1069D0009C2000202DE9F843089C074690469946E4
:1069E0000D46C1B191F8F9310A2B14D14B4600F193
:1069F000100257F8041B43F8041B9742F9D1B5F86D
:106A0000FA311B01A9F81830002389F81A30012641
:106A10003046BDE8F883ECB12046FEF790FF06460D
:106A2000C0B1B4F8643003F00703032B0DD1042286
:106A300021462846FEF7EAFD41F2883304F124029C
:106A400044F6C8712046FFF7A7FF49462046FFF7E6
:106A500045F9DDE74A4629463846FEF7F3F906468A
:106A60000028D5D1D5F82C1111F4805103D040461F
:106A7000FFF762FFCCE714BB0DB1B5F9FA110222A2
:106A80003846FFF7ABF804460028F0D035B1D5F80A
:106A9000C0301BB102223946032098470125B8F1C6
:106AA000000F07D041460320FDF71AFD762140462E
:106AB00003F0D2FA29462046FEF70DFDA8E7B4F808
:106AC000643003F00703012B02D1032384F86730FD
:106AD0003546E4E738B5084DFEF79AFFA96929B1B4
