:1010000000020020211D0000AD1C0000BD1C0000DE
:10101000CD1C0000DD1C0000ED1C000000000000E5
:10102000000000000000000000000000911C000013
:10103000FD1C000000000000451C00000D1D00000C
:10104000F9B4000071C40000F9B40000651E00008E
:10105000811E0000F9B40000F9B40000F9B40000EA
:10106000F9B400001DB9000023B90000F9B4000074
:10107000F9B40000F9B40000F9B40000F9B40000BC
:10108000F9B4000025B60000F9B40000F9B400007E
:10109000F9B40000F9B40000F9B40000F9B400009C
:1010A000F9B40000F9B4000029B900002FB900001C
:1010B000F9B40000F9B400000000000000000000D6
:1010C000F9B40000F9B40000F9B400009D1E00005E
:1010D000F9B40000F9B40000F9B4000039BE000012
:1010E000F9B40000F9B40000F9B4000000000000F9
:1010F00000000000F9B4000000000000B91E00006C
:1011000008B5002004F01CFD10B103480FF01CFAD4
:101110000BF03EFB002008BDC422010070B5064E56
:10112000064CA41BA4080025AC4200D170BD56F8A3
:10113000253098470135F7E7A42C0100CC2C01009D
:1011400013B500200AF062FE084C014620460CF060
:10115000ADFF20460DF0C8FE054B06480094012265
:101160004FF480610CF0AEFF02B010BDF808002013
:10117000E3220100F80400204FF080435722C3F817
:101180001C25BFF34F8F0549054BCA6802F4E06286
:101190001343CB60BFF34F8F00BFFDE700ED00E0CE
:1011A0000400FA05704700002DE9F74304460E4697
:1011B0001746EFF3108872B60568C5B9DFF88C9052
:1011C000051DD4E90331A2689A1A8A4222DC1E4A1C
:1011D00012883280581C6269E0600B4096E8030078
:1011E00002EBC30383E8030088F3108810E055F88E
:1011F0000C390360D1E900012B6983E8030028461C
:101200000C2100F0A5FA687988F3108800F0DEFA66
:10121000012715E097B1D9F800000190092100F0ED
:1012200097FA01980146284600F02EFB88F31088B3
:1012300000F00AFBEFF3108872B6C2E788F310885B
:10124000384603B0BDE8F083AC0A0020B00A0020A5
:1012500070B50B4604461046EFF3108672B6D4E91B
:1012600002128A4219D0481CA060206962690140BC
:1012700002EBC10103C983E8030065680DB355F8AB
:101280000C39636028460C2100F062FA687986F315
:10129000108800F09BFA012012E078B10A4A156824
:1012A00009212B61284600F053FA2946204600F018
:1012B000EBFA86F3108800F0C7FAECE786F31088A3
:1012C00070BD86F31088E6E7B00A002070B50446CA
:1012D000EFF3108672B6314B1A68536A002B56D062
:1012E000D2E90630984252D0581C9061106A0340EF
:1012F00039B9516929B9591C03D186F310881846A8
:1013000070BD002B47DB516A01EBC30103C984E8C0
:10131000030055695DB355F80C195161002B0DDBC5
:10132000D2E907349169506A591A8C42A9BF591CF5
:101330004FF0FF332340D16100EBC3042B6993E8E6
:10134000030084E803002B79062B02D186F3108872
:101350001BE0002328462B610C2100F0F9F9687985
:1013600086F310880E2810D800F030FA0DE0002B1C
:10137000ECDA0421104600F0EBF986F31088084BF4
:101380004FF080525A60BFF36F8F0123B7E74FF0E1
:10139000FF330029ADD01461BBE700BFB00A0020C5
:1013A00000ED00E00346D0E9072010B59C69141B4E
:1013B000A04201DA002010BD541C0240DC61F9D4C7
:1013C000586A00EBC20203C982E803001A896FEA77
:1013D00042426FEA52421A81184600F0EDFA0120AB
:1013E000E9E7000008B50E4B53F82130A3B11A7994
:1013F000042A0BD103C81A6982E8030018460C219D
:1014000000F0A6F9074B0120186008BD01461846F8
:10141000BDE80840FFF7C6BF4FF0FF30F5E700BF5B
:10142000FC0A0020B40A00202DE9F0411D46294B9A
:1014300053F82140284B1B880380064690462CB960
:1014400085F310884FF0FF30BDE8F0812379042B3D
:1014500036D0224B014620461F68FFF7A3FF78B124
:1014600085F310883B79062B02D01D4B1B682BB1EE
:101470001C4B4FF080525A60BFF36F8F0120E3E79F
:10148000B8F1000F02D185F31088DDE73B793E61AA
:10149000062B0CBF06210521384600F059F904F14E
:1014A0001400394600F0F0F923896FEA43436FEAEC
:1014B00053432381204600F07FFA85F31088D7E755
:1014C000D0E90001236983E803000C21204600F0E5
:1014D0003FF9F2E7FC0A0020AC0A0020B00A002025
:1014E000B40A002000ED00E010B50146EFF31084CF
:1014F00072B6054B1B880380044B1868FFF752FF38
:1015000084F3108810BD00BFAC0A0020B00A002090
:1015100021230380FFF766BFEFF3058313F0FF0F6E
:1015200001D0FFF7F5BF064B1B881BB2994201D1D2
:10153000FFF7DABFEFF3108372B60122FFF774BF33
:10154000AC0A002010B4EFF3058212F0FF0203D0C2
:101550005DF8044BFFF7DCBF074B1B881BB29942B9
:1015600003D15DF8044BFFF7BFBFEFF3108372B6F2
:101570005DF8044BFFF758BFAC0A002038B5EFF315
:10158000108572B60D4BB0F9002053F82240237934
:10159000062B04D085F310884FF0FF3038BD03C907
:1015A000236983E8030020460C2100F0D1F860791C
:1015B00085F3108800F00AF90120EFE7FC0A00200B
:1015C0000021FFF783BE0121FFF780BE044B1B689B
:1015D00000220139C3E9062258621962704700BF30
:1015E000B00A0020F8B504460D46EFF3108772B636
:1015F00003683BB94FF0FF33036087F31088012580
:101600002846F8BD11B987F31088F9E70D4B1E681D
:101610000321304600F09CF8236801330DD106F118
:101620000C0323600023F36087F31088064B4FF010
:1016300080525A60BFF36F8FE2E73146204600F0D8
:1016400023F9F1E7B00A002000ED00E038B50446C8
:10165000EFF3108572B6006810B985F3108838BDB5
:10166000431C02D100232360F7E750F80C392360B4
:101670000C2100F06DF8236813B94FF0FF3323609D
:1016800085F31088034B4FF080525A60BFF36F8F81
:10169000E5E700BF00ED00E0026810B592B1136805
:1016A0008B4208D18A4202D10023036001E00B681B
:1016B0001360084610BD13461B681C68A14203D086
:1016C0009A42F9D10021F4E72BB10A681A60026846
:1016D0008A42EED1E9E71946EBE7000070B5174DF5
:1016E000174E2A68346832BB24B123790B2B04BF10
:1016F0000C23237100F0D4FA2B68002BFAD00023BE
:10170000104A002111602A680F49B2FA82F251F89A
:10171000222010680C380B22844202710AD023B1B7
:101720001A790B2A04BF0C221A71084BB0F9062053
:101730001A80306070BD2346E2E700BFA80A00208F
:10174000B00A0020B40A0020BC0A0020AC0A002025
:10175000F8B50A29037904460D461AD90A2B14D87C
:101760004779184A52F8276039460C307EB1336801
:10177000E36052F82730186042F82100124A4FF017
:1017800000431168FB400B4313602571F8BDE06016
:10179000F2E70A2BF9D90B4E407904F10C0106EB64
:1017A0008000FFF779FF627956F82230002BECD1E8
:1017B00005494FF0004323FA02F20B6823EA0203C3
:1017C0000B60E2E7BC0A0020A80A00200B4B1B6854
:1017D0001A790A2A02D95B7983420ED9EFF305837D
:1017E00013F0FF0F03D0064B01221A607047054B20
:1017F0004FF080525A60BFF36F8F7047B00A0020DD
:10180000B40A002000ED00E008B5EFF3108372B6D3
:10181000094B0A4A1B880A4D1BB2002442F8234098
:10182000084A286813682146013B1360FFF790FFC0
:101830002C6000F0F1F900BFAC0A0020FC0A002087
:10184000B00A0020B80A0020EFF3108072B60B4BEC
:101850001B681A790A2A07D95A79094B53F82210BA
:1018600011B1096843F8221080F31088054B4FF03E
:1018700080525A60BFF36F8F704700BFB00A0020DC
:10188000BC0A002000ED00E030B54C7901F10C02FB
:101890000346006818B110F8075CA542F8D9C86083
:1018A0001A6030BD0F2A2DE9F84316461F4626D888
:1018B00010F003031EBF0439C918C3F10402A1F1DB
:1018C000280118BF801821F00303C418EFF3108912
:1018D00072B62149012251F822500FFA82F88DB1D7
:1018E0000132212AF7D189F310886FF08A082FE09E
:1018F00002212046FFF72CFF89F3108828E06FF0C3
:10190000150825E041F822400246A4F80680DDE9EA
:10191000080100F04DF9114A20604FF0FF33C4E98F
:1019200008351368667101331360FB07C4E903557A
:10193000C4E905552571E561DAD40C212046FFF78D
:1019400007FF7A07D8D489F310883046FFF73EFFA7
:101950004046BDE8F88300BFFC0A0020B80A00201A
:101960000C4B10B51B68EFF3108472B61A89104245
:101970000DD1186107211846FFF7EAFE84F310889D
:10198000054B4FF080525A60BFF36F8F10BD84F348
:101990001088FBE7B00A002000ED00E010B5034618
:1019A000EFF3108472B6028802EA010022EA010114
:1019B000198084F3108810BD10B50379048A072BB1
:1019C00004D0082B0DD00024204610BD03891C40F4
:1019D000002CF9D00C21FFF7BBFE054B01221A6049
:1019E000F2E7038934EA03030CBF01240024EFE784
:1019F000B40A002013B5064B01901C68FFF7B0FF36
:101A0000019904F1080002B0BDE81040FFF7C6BF1D
:101A1000B00A002010B5EFF3108472B60389027982
:101A20001943072A038A018104D0082A14D084F3B9
:101A3000108810E019400029F9D00C21FFF788FE2A
:101A4000084B01221A6084F31088074B4FF0805234
:101A50005A60BFF36F8F10BD8B430CBF0121002173
:101A6000E9E700BFB40A002000ED00E008B5FFF789
:101A700055FB03480EF068FDFFF742FB002008BD50
:101A8000E92201001FB5EFF3108372B6074B0293F2
:101A900000230193064B0093072204234FF4C061F7
:101AA0000448FFF7FFFE00F0B7F800BF2323010052
:101AB0006D1A0000800B002008B50AF0FBFDBDE8A0
:101AC00008400DF025BA704708B50B4B1A680C4654
:101AD00052B901221A60FFF7F6FF084821460EF0BE
:101AE000ABFC07480EF030FDEFF3108372B600F048
:101AF0005DF800F049F900BF8011002028230100A3
:101B00004423010070B50D4600210446FFF76AFD2D
:101B10000D4E70B9BFF35B8FE388BFF35B8F3288E4
:101B20001BB212B29A4204D06DB901212046FFF7D0
:101B300059FD3388BFF35B8FE380BFF35B8FA388CE
:101B40000133A380012070BDAC0A00200021FFF703
:101B5000D9BF8388013B9BB2838033B9BFF35B8FCE
:101B6000C380BFF35B8FFFF771BD70470C4B0D4A0D
:101B700010B540219A600C4CE02283F82220D977DE
:101B80000022A0180132302A80F80013F9D11A6916
:101B900042F010021A615A6942F400725A6110BD93
:101BA00000ED00E00010000000E100E070470000E0
:101BB000134423F003034FF0773210B543F8042C9D
:101BC0005A0758BF4FF08832A3F104045CBF43F8B2
:101BD000082CA3F108044FF0807344E902030D4B75
:101BE00044F80C3C0022032344E90532022001237F
:101BF000224644E907306FF0020344F8201C42F803
:101C0000243D0B2342F8043D013B032BFAD1A4F100
:101C1000440010BD091800000023E1EE103AEFF374
:101C2000148323F0040383F31488BFF36F8FEFF35F
:101C3000108362B6024B4FF080525A60BFF36F8F31
:101C400000ED00E0114910B50C6872B6FFF746FDD3
:101C500062B6A04208BF10BD2146BDE8104049B1A0
:101C6000EFF309821EF0100F08BF22ED108A22E95F
:101C7000F04F0A600068B0E8F04F1EF0100F08BF88
:101C8000B0EC108A80F3098870470000B00A002089
:101C9000024B4FF080525A60704700BF00ED00E0E9
:101CA00030BF62B6BFF36F8F72B6704708B5024996
:101CB0000620FFF709FF00BF5623010008B50249BF
:101CC0000720FFF701FF00BF6223010008B50249AA
:101CD0000520FFF7F9FE00BF7523010008B5024992
:101CE0000820FFF7F1FE00BF8823010008B5024974
:101CF0000920FFF7E9FE00BF9A23010008B5024959
:101D00000A20FFF7E1FE00BFAE23010008B502493B
:101D10000B20FFF7D9FE00BFC023010070477047BA
:101D2000134A08B5D2F8883043F47003C2F88830FB
:101D3000FFF7F4FF0F4B104A10498B4210D3104BA2
:101D4000104A0021934210D3FFF7E9FF00F04EF84C
:101D5000FFF728FA0EF098F8BDE80840FFF792BEAA
:101D600052F8040B43F8040BE7E743F8041BE9E7D8
:101D700000ED00E000020020CC2C0100F80400205F
:101D8000F804002014DB0020BFF34F8F0549064BF9
:101D9000CA6802F4E0621343CB60BFF34F8F00BF09
:101DA000FDE700BF00ED00E00400FA050C4B1B78D6
:101DB000062B12D10B4B186810F00F000DD1043315
:101DC0001B6803F0F003302B08D1074B1B6813F09E
:101DD000F00F0CBF0120002070470020704700BFAB
:101DE000E00F00F0E40F00F0EC0F00F008B5FFF793
:101DF000DDFF20B1114AD36823F08073D360FFF771
:101E0000D5FF10B10E4B03221A60FFF7CFFF30B1A0
:101E10004FF080430022C3F80C21C3F8102100F0DA
:101E200059F8084B0122C3F84025FFF79FFEFFF742
:101E300043FEBDE808400AF033BC00BFF0ED00E00F
:101E4000A005004000E00140044B1B682BB1044B8F
:101E50004FF080525A60BFF36F8F7047B40A002072
:101E600000ED00E008B5044A044B10681B68984771
:101E7000BDE80840FFF7E8BF94110020841100205E
:101E800008B5044A044B50685B689847BDE80840B1
:101E9000FFF7DABF941100208411002008B5044A2E
:101EA000044B90689B689847BDE80840FFF7CCBF9B
:101EB000941100208411002008B5044A044BD06816
:101EC000DB689847BDE80840FFF7BEBF94110020CB
:101ED0008411002070470000EFF3108172B6094BA7
:101EE0001A680132012A1A6009D14FF0804300209C
:101EF000C3F800011A60D3F80021002AFBD081F357
:101F000010887047A4110020EFF3108172B6064AC2
:101F10001368013B13601BB94FF0804301225A60E4
:101F200081F31088704700BFA4110020114A117876
:101F300038B5F1B94FF080431C46C3F81815C3F803
:101F4000041101219960D4F80431002BFBD0012544
:101F50001570FFF7C1FF0023C4F80C314FF0804229
:101F60002561D2F80C31002BFBD0BDE83840FFF7DB
:101F7000CBBF38BDA811002008F002BAD0E902306A
:101F80001847000070B50E46154600211022044681
:101F90000EF030F9024BE560C4E9013670BD00BFB8
:101FA0007D1F0000036802463BB11868834219BFD9
:101FB00002681A6000231360704718467047EFF3F9
:101FC000108272B60B6833B903685BB11B680B6093
:101FD000036819600160406882F3108820B1012114
:101FE000FFF718BD0960F5E7704708B5EFF31081FA
:101FF00072B6FFF7D7FF81F3108808B100230360A2
:1020000008BD70B505460E46EFF3108172B6002488
:10201000B44207D1002081F3108858B90120FFF79E
:10202000E9FCF1E705EBC400FFF7BCFF0028F2D1A3
:102030000134EDE70023036070BDD0E90501FFF72F
:10204000BEBF000001600349C0E90523C0E90310D9
:10205000704700BF3B2000000A4619B9D0E90501CE
:10206000FFF7ADBF011D00680DF084B801460068A0
:1020700010B104310DF062B87047000038B58569C1
:10208000044685B10A4B1868436901330CD00DF042
:102090001CF823696A68C11A8A4226BF9B181B1A5A
:1020A00000236B60206138BD83685B689847F0E768
:1020B000502A01008369084A10B5044610682BB104
:1020C0005A6821460DF056F8206110BD2146BDE842
:1020D00010400DF033B800BF502A01008369002280
:1020E00010B504465A60A06930B1436823B903684B
:1020F000A36163699847F6E72046BDE81040FFF703
:10210000D9BF000070B505460C46EFF3108672B6D5
:10211000FFF7B4FF05F118031A68EAB922601A68DC
:102120001AB151686068091A51601C60AB69A3421A
:1021300006D10D4B6268186829460DF01BF828611E
:1021400086F31088094B1B682BB1094B4FF0805266
:102150005A60BFF36F8F70BD616850688142DDD3F4
:10216000091A61601346D7E7502A0100B40A00201B
:1021700000ED00E070B504460D46EFF3108672B630
:10218000FFF77CFFA26904F118012AB92046FFF786
:1021900091FF86F3108870BD9542136802D01146F6
:1021A0001A46F2E70B60002BF0D05A6869680A44BF
:1021B0005A60EBE7034B4161C0E9023000238361C1
:1021C000704700BFDD20000038B1054B0A0901F05F
:1021D0000F019A5C5B5C027043700220704700BF85
:1021E000CE230100F8B50D465700064610B18C18F5
:1021F000A54201D13846F8BD304615F8011BFFF75E
:10220000E3FF0644F4E790B1D9B1002340EA0102AC
:10221000D2070ED5C20710D5CA0710D581423EBFDE
:10222000024608461146091AF6D100FA03F108469B
:102230007047400849080133E8E74008EAE74908E1
:10224000EAE70146F3E72DE9F0470D4680461146DF
:1022500028461446FFF7D7FF854241D3B4FBF0F27E
:10226000B5FBF0F04FF0004EB0FA80FC0021CCF14D
:1022700020072EFA0CFE0E46002400250023CCF188
:102280005F0C14EB040A45EB050910EA0E0F5446E7
:102290004D464FEA460603D04AF0010A54464D46E1
:1022A0009D4208BF94424FEA5E0E12D3A41A65EB1A
:1022B000030546F00106002E0EDA54EA050300D0AD
:1022C0000136C7F12007C8F8006088F80470BDE83F
:1022D000F087002EEFD1013F01316145D1D3ECE70A
:1022E00000273E46EDE700000C4A10B5D2F84C41FD
:1022F000002303601CB1D2F85441A14207D0D2F8A8
:10230000703153B1D2F87831994206D1012324219A
:1023100001FB032303F5A673036010BD0002002038
:10232000F8B5054616460C4619B10168641A241121
:1023300001346B68A34201D800200AE028683146C6
:1023400000EB0410270108F083FA0028F0D1286878
:102350003844F8BDF0B593B015462F2300930646D8
:102360000C46402302AA0B21284608F0B8FB00289F
:102370001BDD2B685D7805F01F056B1E01259D4058
:102380000023ADB223600227216802AA3046FFF77E
:10239000C7FF206010B9384613B0F0BD83881D42D6
:1023A0004FF00107F0D00027F5E70227F3E7000020
:1023B00070B5164CA36805460E4683B1E368013339
:1023C0000BD104F110035B88B34208D110482946B1
:1023D0000BF00CFD18B1002015E02369F3E7A36FA3
:1023E0000BB9002070BDE36F013314BFD4F8803007
:1023F000084B5B88B342F4D1074829460BF0F6FC42
:102400000028EED0702008302044EBE700020020C6
:102410001C020020800200208C0200201FB5144600
:102420001A460378012B0AD10023CDE90131406817
:10243000069B039401A906F045FE04B010BD4FF0C1
:10244000FF30FAE72DE9F0411C46064600680D46CC
:1024500090460EF035FB238903F0010383F001045D
:102460000234074604449DB1444516D89BB92C2339
:102470002B7001233C22EA5403F1010831683A46EB
:1024800005EB08000DF0B4FDE8193E2300F8083014
:102490002046BDE8F0810023ECE74FF0FF30F8E77D
:1024A0001FB54268002A034611DB82687AB11068C2
:1024B000516801AC03C490680021117001AA044660
:1024C00003CA4FF0FF329860D9601C615A6004B0B3
:1024D00010BD30B50368013B012B97B004461CD8F2
:1024E000C56A042303609DB1502200210DEB030057
:1024F0000DF080FE4FF0FF3315936368013314BF76
:10250000A36804F108030093002269462046A84707
:102510002046FFF7C5FF0023236017B030BD426996
:10252000013201D00CF0D1BD83685B681847000010
:10253000074B10B504461868FFF7F1FF20F07F4203
:10254000626520460621BDE8104008F03BBC00BF94
:10255000502A01002DE9F043A1B006460C4617466B
:102560000A4601460AA8984608F0EEF900285FDB03
:102570000A9B5B785B0903D0204621B0BDE8F0835D
:102580003B4B1868FFF7CBFF02AD294681460AA8EE
:1025900007F0B0FF284607F0C9FF03462FB195E8C2
:1025A000030007F1680282E80300ABB10A9A93F8CE
:1025B000E810527891420FD1D3F8EC00A9EB000952
:1025C000B9F1000F08DC012388F8003004210AA8C3
:1025D00008F02DFC0446CFE7002288F80020002BED
:1025E000F4D003F10C0001AA042108F06BF9431E9A
:1025F000072B8146EAD82A4604210AA808F062F986
:1026000081450546B8DC02980544AD1BB042A4EBF9
:10261000050508D33319984205D800F108039E1B1D
:10262000A61BAE4207D2002388F80030C7E91A3350
:102630006FF01500A1E701994A460DF0D9FCB9F1F8
:10264000080F99D004210AA808F01BF9037823F099
:102650000F0343EA0903037002982A4600F10801B8
:1026600048440DF05FFDA4F1080009EB000483E786
:10267000542A010043685A1C012A13B5044605D8A0
:10268000204602B0BDE81040FFF723BF013B436086
:1026900040F6B831C3F104034FF4FA609940984012
:1026A0000AF04AF8014604F13400FFF7D5FC23682C
:1026B000022B0BD000230093D4E9021204F114037F
:1026C00004F16000FFF7AAFE0028D9DD02B010BDBA
:1026D0002DE9F041104CD4F8EC50002306460F468B
:1026E0000360A04635B104F1EC000BF07FFB4FF026
:1026F000FF3560B9D8F804315BB1084839460BF0B2
:1027000075FB08B1054C34602846BDE8F081EC3417
:10271000F9E70125F8E700BF0002002004030020CC
:1027200010B586B01022002101A80DF063FD04232E
:102730000093104B059300230F481A46694606F094
:10274000C1FB002810DB0D4B0D4C1A680A48002312
:10275000C4E9003221460B4A0BF02EFB0121204632
:10276000FFF74FFC034610B9002006B010BD5B68B0
:102770009847F3E7000033169C160020B00A0020AB
:1027800084160020592E0000F8B5264CA368064692
:102790000F461546DBB1E36801331CD104F110018B
:1027A0000B7803F00F039D4211D12A4604313846BD
:1027B0000DF0EEFB58B91C4831460BF017FB70BB0F
:1027C000E369042B03D194F82030FF2B27D0A36FAB
:1027D0001BB90020F8BD2169E2E7E36F013314BFA4
:1027E000D4F8801011490B7803F00F03AB42F0D1FD
:1027F0002A46043138460DF0CBFB0028E9D10C48BD
:1028000031460BF0F3FA08B10A48E3E7D4F88C300C
:10281000042BDED194F89030FF2BF5D0D9E7064891
:10282000D8E700BF000200201C0200208002002028
:102830008C02002078020020080200202DE9F041DF
:10284000104CD4F81C51002306460F460360A046E6
:1028500035B104F58E700BF0C9FA4FF0FF3560B951
:10286000D8F8343163B1084839460BF0BFFA08B1E3
:10287000054C34602846BDE8F08104F58E74F8E715
:102880000125F7E700020020340300202DE9F74F6F
:1028900098460023CDE9003306461446036011B183
:1028A0006846FFF715FF1CB1214601A8FFF7C6FFD8
:1028B000214CDDE900AB00254FF0FF392346D4F869
:1028C0004C2122B9A9462434B5B90125F7E7524570
:1028D00002D0BAF1000FF6D1D4F850215A4502D0F7
:1028E000BBF1000FEFD1B8F1000F09D1242707FB8E
:1028F000053505F5A6753560484603B0BDE8F08F8F
:10290000D8F80010D4F86421087800F00F00824253
:10291000D9D1002AD7D02423043104F5AC7003FBAD
:1029200005F70DF035FB044B0028CCD107F5A67751
:102930003B443360E0E700BF000200207FB51C4E3F
:10294000B6F9004084BB1B4B1B481C4DCDE901432D
:102950001B4B0093062223464FF48B61FEF7A2FF28
:1029600030802846E022214640F8084B0DF042FC1A
:102970003022214605F1EC000DF03CFC48222146B6
:1029800005F5A6700DF036FC8022214605F5CA70CB
:102990000DF030FC09F0ACFEC5F8E80007F08EFD44
:1029A000B6F9000004B070BD6FF01000FAE700BF88
:1029B00082160020DE2301002912002000020020E0
:1029C00021270000064BBFF35B8F53E8000F421C2A
:1029D00043E800210029F8D1BFF35B8F80B2704734
:1029E000E8020020064B5A685860C36802610BB9C0
:1029F000044BC36043690BB9034B4361704700BF8D
:102A00000002002045240000552300002DE9FF4767
:102A10000160DDE90C5604460F4690469946FFF7E3
:102A2000D1FF8246B9F1000F28D009F061FECDE94F
:102A3000009AADF80C00022303AA0121206808F0D7
:102A4000A9F8424603463946204608F000F90E4AE6
:102A500008230421204608F0B3F9002809DD45B118
:102A60003EB12F2300932A4633460B21204608F01F
:102A700077F900EAE07004B0BDE8F087CDE9009096
:102A80004B464A464946D9E7082401002DE9F04F54
:102A900091B0CDE90423002307938DF81B309DF8F6
:102AA000703004781A9D012B81468A46C4F30114C4
:102AB00064D801238DF81C308A4B089315B9002C7B
:102AC00040F0B080884E01213046FEF78BFDB268A1
:102AD00033463AB1B26F22B13046FEF7B7FD00255A
:102AE00039E001220392039A702656439A19022173
:102AF00091601B9991635563049A06F1080706F1EA
:102B00001C011F4402F1180C0B44106851681D464B
:102B100003C5083262452B46F7D1039BDFF8C8B1E5
:102B200007AA92E803004FF0700808FB03B808F109
:102B3000680383E803003A460DF11B0351464846FB
:102B4000FFF708FD051E5B4609DA0023C8F80830C8
:102B50005846FEF77BFD284611B0BDE8F08FAA4627
:102B60002CB1012C4DD00024C8F8084029E0802D5C
:102B700007DDC8F808405846FEF768FD6FF01505F8
:102B8000E9E79BF89421C8F810409ABB0BF5CA708E
:102B90002A46C8F8100049460DF02AFAD8F8102045
:102BA000514BC8F814502AB30422C8F80C2040F640
:102BB000B8314FF4FA6009F0BFFD01220446C8F8AD
:102BC00008204948FEF742FD039B1946464B7022F8
:102BD00002FB01339B68002B81D09DF81B306BB347
:102BE000424943483A46FFF7CDF941494148FFF78A
:102BF000E6F9B0E70399702202FB013200219160EF
:102C0000DFE74FF0FF32C8F80C20D9F80000D9F800
:102C1000041010365E4403C6D9F80800306041F253
:102C20008834CEE72A460DF11B03FFF793FC051EFF
:102C300091DB9DF81B40002C8DD1274601238DF898
:102C40001C30284B0893B7B107F13405002C42D053
:102C500007F150031846284903933A46FFF792F9C3
:102C60002649039B0968234A2846FFF7EBF92146CA
:102C70002846FFF7F1F909AD1C22002128460DF086
:102C8000B9FA059B6BB12E4603F1180C1868596808
:102C9000324603C2083363451646F7D108238DF840
:102CA0003C300095049B5246494607A8FFF7B6FB07
:102CB000051E3FF750AF4FB13846FFF7F1FB1CB18F
:102CC00007F13400FFF7D2F900233B6015F1800FC4
:102CD0007FF405AF3FE71C22214628460DF08AFA13
:102CE000C9E700BF9C16002000020020A92D0000AB
:102CF0008C1600208416002075260000502A010042
:102D0000F7B50F46002419461646134600943A4676
:102D1000054607F056FF00280CDD361AAE816E6DB1
:102D2000EC8107446F6046B92846FFF701FC304646
:102D300003B0F0BD4FF0FF30FAE72046F8E700009F
:102D4000D0F8E430802B2DE9F04104460E4626D819
:102D5000C368DFF850805B78802241463046FFF739
:102D6000CFFF3368D4F8E4701D78E3681B7803F074
:102D70000F03043305F00F05FF1A043504F1640155
:102D800019443A4608EB05000DF032F9EA194146BC
:102D9000304607F0D9FDD4F8E400BDE8F0816FF0CB
:102DA0006800FAE7A911002030B5044697B06830F2
:102DB00007F0BCFBE36A054670B35BB30021542205
:102DC00001A80DF017FA194B0093636817480133F7
:102DD00014BFA16804F108010A7802F00F0204325E
:102DE0000DF006F969462846FFF7AAFF002811DB17
:102DF00095F8E9302246002B14BF0623032342F83E
:102E0000143B6946E36A204698472046FFF748FB93
:102E10000023236017B030BD002BFBD022460521D4
:102E200042F8141B014620469847F3E7A9110020F9
:102E300010B50B46802207490446FFF761FF0146A3
:102E400020B92046BDE8104007F0DBBF4FF0FF304F
:102E500010BD00BFA91100202DE9F0438146C8062E
:102E6000B9B040F1AB8000250DF150081C22294675
:102E700040460395A54C0DF0BDF901238DF868304F
:102E80002F460EAB0093CDF80480002303AA02A9BD
:102E9000484606F085F8061EC0F290800ED07319E1
:102EA000802B88BFC5F1800604EB050002993246ED
:102EB00088BF012735440DF09BF8E2E7C446BCE823
:102EC0000F001BAC0FC408239CE803008DF884306E
:102ED000149B042B84E803001BAC04D19DF8540020
:102EE000FF2808BF3446012388498DF820302A4640
:102EF00022A8CDF8249007F027FD00285EDB229A57
:102F00001378C3F30113032B4DD151880EA8FFF79B
:102F10004FFA054628B13430FFF7A8F82846FFF7E6
:102F2000D8FA229B0EA906A85D88FFF7D1FB069868
:102F3000002838D0764A69BAD2F84C51002389B2B9
:102F400007932DB1854203D1B2F860518D4209D06B
:102F5000D2F8703163B198420AD1B2F884318B4211
:102F600006D10123242101FB032303F5A673079354
:102F7000079AC2B100231360194652680A930AA83F
:102F8000FFF784FC0A9B079A0BB951680B6000237A
:102F90005360069907931A4607A8FFF777FC079B2B
:102FA0000BB9069A136022994A784FEA5219B9F17F
:102FB000020F0AD005D8B9F1000F65D039B0BDE8CD
:102FC000F083A9F10403012BF8D811F8042B0EA803
:102FD00002F00F02FFF7D8FB229B05461B78002862
:102FE00000F0C08113F0300FC3F3011200F098819C
:102FF000032AE3D04FF0FF36AB6C1BB105F1340070
:10300000FFF734F8002F14BF062303232B60229B05
:103010005B78432B40F0868105F1680007F086FA63
:103020000746002800F07E813C230AAA0E2122A830
:103030000A9307F05FFC374B1868FFF770FA0A9B9A
:103040000344C7F8EC3022A93846FFF779FE002880
:10305000BCBF05232B6097F8E9300BB106232B602A
:10306000EB6A379F1BB10EAA22A92846984728462B
:10307000FFF716FA013702D0B9F1020F01D0002391
:103080002B60731C07D199E70B781B118ABB13F0D7
:10309000030513D10326229A137823F0300343EA61
:1030A00006131370229B00225A70229A137823F081
:1030B0000F03137000940EAB04222CE1022D7FF459
:1030C0007DAF49880EA8FFF773F9044600283FF446
:1030D00075AF436801333FF471AFC36A0560002BDD
:1030E0007FF46CAF3430FEF7C1FF2046FFF7F1F9F3
:1030F00064E799073FF562AF77B18D2122A8FFF70A
:1031000097FE00283FF45AAF02E100BFA91100204A
:1031100000020020542A0100974BCDE90477CDE945
:1031200006775D680226994695B16B690A9722AACF
:103130000AA928469847022801D12D69F4E70128F9
:1031400002D12D690646EFE7002847D10A9D0646C1
:10315000012E46D0022E46D0002E3DD1294607A88A
:10316000FFF7C2F8379B002B40F09F8022AB32461E
:103170000EA906A8FFF78AFB079B0746002B40D045
:10318000069A002A31D0934203D006964FF0FF33BF
:103190003793069B8BB1229F9D603A78DDE9080149
:1031A00002F00F0203F11C069A6186E8030022B1C7
:1031B000391D03F10C000CF01BFF0EABCDE90B34F5
:1031C0009DF820300A950D93AD686C490AAB8022BA
:1031D00022A8A847002894DAA0218FE70025032021
:1031E000B5E785218AE7842188E79DF820101A7FBA
:1031F000914209D119680EA80AF0F8FD08B1079BA1
:103200000693069B002BC4D1379B0133C1D0002FFE
:10321000BCDB079B002BB9D10EA904A8FFF758FA15
:10322000049B33B90028A1BF182303FB0090EC30A6
:103230000490214605A8FFF701FB059B3BB9002838
:10324000A1BF182303FB009000F58E700590049B2E
:1032500033B3059A22B30EAE324603CA4245186014
:103260005960164603F10803F6D1059A264604F183
:10327000180C334603CB6345106051601E4602F1C3
:103280000802F6D12420474307F5A6734B44B944FE
:103290000693059BC9F85031049BC9F84C3178E777
:1032A000069B002B7FF475AF70E7012B2BD122AB6F
:1032B00032460EA906A8FFF7E9FA069BFBB11E608D
:1032C000324633460EA90AA80A96FFF7DFFA0A9B90
:1032D00033B90EA904A8FFF7FBF9049B03B11E60E4
:1032E000069A002352680A9319460AA8FFF7CEFAF5
:1032F0000A9A069B0AB959680A6000225A604FF080
:10330000FF33379359E701333FF457AF4FF0FF30A6
:1033100000940EAB0246194908A8FFF77FF84DE666
:10332000022669E6229A5378432B3FF499AE6B68E4
:103330000133239B14BFA96805F108019B1ABDF84E
:1033400094204978134405F1680022AA07F094F903
:1033500000283FF485AE2B689A1F5342534180F8F2
:10336000E9307DE613F0300F3FF494AE379B013324
:103370007FF490AE22E600BF00020020A9110020D9
:103380002DE9F043194B85B05C68019201230025BB
:1033900006460F46ADF80C30A8461CB9284605B0C5
:1033A000BDE8F083E3682BB1CDF80880029B62682A
:1033B000934201D32469F0E72068D4F80C9000EB25
:1033C000031001AB7EB17A1B7119C8470028F1DDEB
:1033D000BDF80C3023F00103ADF80C30029B013333
:1033E00005440293E2E732463146EEE70002002050
:1033F000F7B504461E464523FFF782FC28220C2120
:10340000204607F0DFFC0121204607F0FAFCA189E5
:10341000676801910546304607F08DFD0199C3B2FA
:1034200028223846FFF7ACFF284403B0F0BDF8B5BA
:10343000048906460F46154600200DB1AE4218D14C
:1034400032897168002306F0B3FD04F13A030344A6
:10345000B3F5803F24BF013080B2396820443A3050
:1034600000232022083180B206F0A2FDC04380B2C2
:10347000F8BD23462A89696806F09AFDAB682D6875
:103480001C44A4B2D9E72DE9F0410C468046032143
:10349000204603F08DFB0546022103F089FBAB6853
:1034A000032B064605D820460021BDE8F04103F075
:1034B00087BB011D224628466F68FFF7B8FF00282A
:1034C000F1D13B78892B08D8842B0AD9AB68716875
:1034D0003A46404601F0E6FB03E06333DBB2012BE2
:1034E000F4D93978234640F20122032002F075F91D
:1034F0000028D8D0BDE8F08138B50D46144600212B
:103500001A46032303F08AFC28B1436800221D7089
:103510005C709A70DA7038BD10B5044668B190F9E5
:103520001030032B0CD102680431FFF780FF50B13B
:10353000626843BA5380002010BD6FF00D00FBE7B6
:103540006FF04C00F8E76FF00100F5E7002103F0A1
:1035500037BB000008B5044910220CF019FDB0FA81
:1035600080F0400908BD00BF6227010010B50A497C
:10357000082204460CF00CFD48B12378FF2B08D13B
:10358000607800F00F00831E5842584110BD0120A2
:10359000FCE70020FAE700BF522701002DE9F843BD
:1035A0000E46D1E9001405460A4600232ABB5BBA41
:1035B000A380A379FF2B02D119BB3B23A371E3792D
:1035C00013B94DBB4023E37104F108073E491022B3
:1035D00038460CF0DDFC04F11809804678BB4846FB
:1035E000FFF7B8FF0246D0B11022414638460CF032
:1035F00001FE0123E37534464FE0906812680344EE
:10360000D4E70B7C023BDBB2022BD6D82F4AD35C2B
:10361000A371FF2BD3D1D0E795F86431D3E74946A6
:10362000284602F084FC0028E5D0034600F1100291
:1036300053F8041B47F8041B9342F9D1DBE72846F3
:1036400002F098FA4846FFF785FF98B10024284613
:1036500002F097FA002CCED00321304603F0A8FAEE
:1036600028B143681B7803F0FD03852BC3D06FF0AE
:103670007C0022E03946284602F048FC0028E5DBC1
:103680002844047D04F01F04103C18BF0124DEE729
:1036900003F0E2FB98B12060044694F91030022B4D
:1036A00002D120680028F3D13146204603F06FFA9A
:1036B000002807DA831C08BF0020BDE8F8836FF0FC
:1036C0000B00FAE70020F8E782270100152401002B
:1036D00010B50C46FFF762FF002804DA2046FFF71A
:1036E00035FF002010BD0120FCE7000038B50D4675
:1036F0000446D1E9003170B1B0F966214A80002258
:103700005BB9B4F8A03093420BD228467A21BDE8C9
:10371000384003F055BA0246F0E799681B680A443E
:10372000EEE7204602F0FEF960B10B492B4640F26D
:103730000222012002F051F868B92846BDE838405D
:10374000FFF704BFB4F9660140F20222294602F0F5
:1037500039F80028F1DD38BD0000FFFF002370B507
:1037600004460D4642F0400619461A46184602F035
:1037700038FF014620B92046BDE87040FFF7E6BE9D
:1037800043681E7104602846BDE87040FFF7AEBF75
:1037900080B590B01022002105A80CF02BFDBB4B8A
:1037A000BB481B88BB4FADF8203008210697FDF7BA
:1037B0000DFF05A9022003F06BF940F20523ADF8D7
:1037C0000E3040F2022840F2012401A8FDF7FBFE72
:1037D000BDF80610B1F5017F27D8414500F2B2814E
:1037E000A14259D04145F0D1029E96F910300133E3
:1037F00040F006817468B4F9020002F0B0F90546A1
:10380000304694F8049003F027FB09F03F09014685
:10381000002859D003F01AFA064696F91030022B08
:1038200000F0F2801621304668E0A1F59F43403B4E
:103830009AB2152AC9D8152BC7D801A252F823F07D
:10384000553B0000553B0000553B0000553B000038
:10385000CB370000553B0000553B0000553B0000B6
:10386000553B0000553B0000CB370000553B0000A6
:10387000553B0000553B0000553B0000553B000008
:10388000CB370000553B0000553B0000CB37000014
:103890005D3B0000653B0000029E4FF0FF3130466B
:1038A00003F086F9054628B14368B3F9020002F037
:1038B00056F9054673683BB1B268272A04D91B78CC
:1038C00003F0F003602B01D030460DE0304603F0EA
:1038D000C3FA04460028F7D00222282103F0DEFABA
:1038E0000023237418B92046FFF730FE6BE7D0F8A9
:1038F000049099F8073023B97421204603F060F949
:1039000061E7B9F8041099F8066049BA89B209B9B3
:103910003B2EE8D18442A36858D09942204655D224
:1039200003F02AFB09F118094846FFF713FE70B9A6
:103930004846FFF71BFE08B1002D56D1484602F05D
:10394000DDFB0546B0FA80F35B09002BCBD1292EB5
:103950004FD03A2E4FD0112E0CBF042300232374D6
:103960003146022003F0FBF8002801DC3A2E44D156
:103970000121204603F0CCF94FF0010994F9100021
:10398000234640F20122394601F027FF10B92046B4
:10399000FFF7DCFDB9F1000F10D03A2E03D1012161
:1039A000204603F0B5F9234640F2012231460220B9
:1039B00001F013FF10B92046FFF7C8FD3A2E7FF43F
:1039C00002AF21462846FFF75EFDFCE60022836831
:1039D0001A4490F91030022B02D000680028F6D16A
:1039E000283A8A429ED2162187E7484602F086FB93
:1039F000A8E70223B3E70323B1E74FF00009BDE7CF
:103A00004FF000094D4608E770682349102218302E
:103A10000CF0BEFA00283FF405AF304603F01CFA64
:103A2000044600283FF450AF43681A7EFF2A35D180
:103A3000002D40F09C8002F085F800283FF453AF41
:103A4000411E204603F064F904E04A462946304608
:103A5000FFF784FE284602F073F8054600283FF47D
:103A6000B2AE204603F0F8F9064600283FF43BAF1B
:103A700001462846FFF792FD0028E6DAB4423FF4FB
:103A800032AF3046FFF762FD2DE700BFAC0A0020E1
:103A9000641700200000FFFF8227010003F1180ACD
:103AA000504602F02BFB8542064605D05046FFF7F4
:103AB0005DFD002818BF00265046FFF74BFD00B9FA
:103AC000BEB121463046FFF703FE00283FF47BAE2F
:103AD000204603F097F800287FF405AF234640F214
:103AE00001223946022001F078FE00287FF46BAEF7
:103AF000F9E609AB22462946504600F0EBFF0028C4
:103B0000FFF661AEBDF83C00C0F3041002F027F8E8
:103B100021460546FFF7DCFD00283FF454AE314650
:103B20009DF83E300DAA304602F05BFD01460028AC
:103B30003FF4D9AE436883F8049004602846FFF749
:103B4000D5FD40E66FF0850303A901A80493FDF7B6
:103B500015FD38E6029801F06BFB34E6029800F0A0
:103B60004FFF30E60298002100F070FF2BE601467F
:103B70002846FFF7ADFD00283FF425AE4A4629460A
:103B80002046FFF7EBFD1EE61FB50A4CB4F90030E6
:103B90005BB9094A0948CDE90132094A00924FF45C
:103BA00070710422FDF77EFE2080B4F9000004B09D
:103BB00010BD00BF641B002010240100A4170020CA
:103BC0009137000008B5022102F0F2FF00B1406811
:103BD00008BDF8B50C46174602232822002103F041
:103BE0001DF9064600B3456805F10800F4B1214609
:103BF000034604F1100251F8040B43F8040B914200
:103C0000F9D105F11800B7B13A46034607F11001A2
:103C100052F8040B43F8040B8A42F9D160232B605D
:103C2000FF23AB710023EB713046F8BD1022214613
:103C30000CF0E0FAE5E7102239460CF0DBFA01233C
:103C400085F82730EAE7000070B5044615460E46B1
:103C500009B9002070BDD1F8A430DB04F9D51749AB
:103C600008220CF095F938B12378FF2BF1D1637855
:103C700003F00F03022BECD196F8650105F1100259
:103C800004F1080106F028FB10F0FF00E1D0A8764F
:103C90002B4604F1100254F8041B43F8041B944211
:103CA000F9D1B6F966311B0103F4F87343F480636C
:103CB00043F006032B830120CCE700BF522701000D
:103CC0002DE9F341054602F019FA044600284FD0C9
:103CD00001F050FFB4F96611002000F03DFBA0B1E7
:103CE000036804332A461846214600F0F9F82946AD
:103CF000204602F00BF9211805460B7D03F01F0248
:103D0000102A0DD14EF6602613E084F89C00204660
:103D100001F048FA204602B0BDE8F04101F031BFA1
:103D200003F00702013A012AF4D80133D4F898606D
:103D30000B75691C0901104B1048B3F900808F1DE9
:103D4000683121440191FEF715FA04EB05100023B8
:103D5000C0E91E36274444F6CF73A0F88230C0F87D
:103D60008470A0F8808001990448FEF7CBF9D1E770
:103D700002B0BDE8F08100BF641B0020001D0020E0
:103D80002DE9F0431E46D0F8A4300D46D90485B085
:103D9000044603D4042005B0BDE8F08371780229FD
:103DA000F8D11278882AF5D1DB07F3D590F8C02036
:103DB00002AB00F1B80102F089FB0828EAD1DDE985
:103DC0000223F168B0688B4208BF8242E2D1B37827
:103DD000012B45D0022B49D0002B3FD105F1180112
:103DE0002046F78802F092F8051ED3DB7FBABBB2FB
:103DF000012B04EB05021CBF4EF660275F43137DC9
:103E0000264823F01F0305F1010143F010034FEA98
:103E10000111137501F10608214B01F168012144DC
:103E200018BFA7F56A47B3F90090019114BF603F2E
:103E300047F23057A044FEF79DF904EB0514002328
:103E4000C4E91E3744F6CF7301991448A4F88230B0
:103E5000C4F88480A4F88090FEF754F9B0789AE70B
:103E600005F11801204602F00BFAF7E7B4F96611E4
:103E700005F1080000F070FA00F036FA002000F0BA
:103E800055FA28B984F89C00204601F08BF9E5E743
:103E900005F11800FFF714FFE0E700BF001D002048
:103EA000641B002013B58A784878402A8CBF03230E
:103EB0000223984211D1CC88C87864BAC0F30013A9
:103EC000A4B200930831234600F00F0003F064FA17
:103ED0004EF66020604302B010BD4FF0FF30FAE7AD
:103EE000F0B5074685B00C461546B1F966110020BD
:103EF0001E4600F031FA45B3D4F8A430DA0424D5D4
:103F000018B30068B4F96621838EC3F304139A4290
:103F10001BD13146043006F091F8B0B1D4F8A4308A
:103F2000DB0710D594F8C02002AB04F1B80120469D
:103F300002F0CCFA082806D1002302AA0F21184665
:103F400004F044FE10B905B0F0BD002000903346E7
:103F50002A462146384601F023FBF4E72DE9F041DB
:103F600001F108070546B0F966113846164698462D
:103F700000F0A8F8044628B190F8363013F0010F8D
:103F800008BF002495F86501414606F0B4F9002801
:103F90001ADB74B9B5F966110322384600F0DEF871
:103FA000044688B13378872B03D1838E23F008032E
:103FB000838694F83630DB0706D53378862B05D117
:103FC000A38E43F00803A386BDE8F081872BFBD0C6
:103FD000A38E23F00803F6E730F9081FFDF798BA1F
:103FE00008B590F8361021B938220CF003F90120F9
:103FF00008BD0020FCE770B5044610460D46164685
:10400000FFF7EEFF4CB12046331D04F1100250F8CB
:10401000041B43F8041B9042F9D1B38E2D0123F405
:10402000F87305F4F8751D43B58670BD064A13682C
:104030003BB11868834219BF02681A6000231360FD
:1040400070471846704700BFFC1C00200149024819
:10405000FEF7B0B8D93F0000001D00200148FDF771
:1040600075BD00BF1C1D00200148FDF772BD00BFDB
:104070001C1D002070B5114CA38EC3F3041399428C
:1040800005460E4604D094F8363063B1002070BD6A
:1040900080B90B491022201D0BF07AFFB0FA80F096
:1040A00040090028EFD02846044A3146FFF7A3FF15
:1040B0000248ECE7211D05F0C1FFF2E7241D0020B6
:1040C0008227010008B50B4B93F836206AB19B8E0E
:1040D00013F4F87FC3F3041202D009B1914204D162
:1040E0000146054805F0AAFF08B9002008BD0148AF
:1040F000FCE700BF241D0020281D002010B590F80B
:10410000363023F0010300F1240180F836300446F4
:104110001048FEF72FF8104A116821B10B689C4235
:1041200006D1FFF783FF2046BDE81040FFF758BFD8
:104130000B461B681868844202D09942F9D1F2E715
:10414000002BF0D02168196011688C4208BF136001
:10415000E9E700BF001D0020FC1C00202DE9F84FFE
:104160000746884602F00706FFF784FF044600284A
:104170004CD1FFF75BFF0546002862D0DFF8C8A0EE
:104180008346D1469BF8364034F001042DD1BBF86C
:10419000343003F4C06383B95846FFF7AFFF5A4683
:1041A00041463846FFF727FFBBF834303343ABF8BE
:1041B000343001238BF836305C46DAF80030B3B186
:1041C0001B68CBF80030DAF80030C3F800B0C9F84B
:1041D00000B0C4B9FFF72AFF85428346D2D1D9F88F
:1041E00000303BB9CBF800B00BE00024E5E7CBF89A
:1041F00000B0ECE71B68CBF80030D9F80030C3F80A
:1042000000B0C9F800B02046BDE8F88F90F836300D
:10421000DA0708D4828E22F00702324343F001030A
:10422000828680F836302368002BECD1064B1A6862
:104230002AB1126822601A6814601C60E3E72460E7
:10424000FBE70446DFE700BFFC1C002038B50A4648
:104250000C460546031D00F1140153F8040B42F807
:10426000040B8B42F9D1A88E2083C0F3041001F017
:1042700076FC04F1100290F8650105F10C0106F0DE
:104280002BF80028A8BFA07638BD0000F8B5154C63
:10429000256807460E469DB1AB8EC3F304139942C1
:1042A00001D00020F8BD291D05F0C8FE0028F8D077
:1042B00095F8363043F0080385F836302046F1E7AC
:1042C000FFF7D8FE024620600028EAD03146384683
:1042D000FFF791FE226892F8363043F0080382F827
:1042E0003630EBE7681B0020036810B504468BB13D
:1042F000011D0C48FDF73EFF206890F8363023F092
:10430000080380F83630FFF76BFE142200212046A8
:104310000BF070FF044B1A68A24204BF00221A601F
:1043200010BD00BF001D00205C1D002028B114300E
:10433000074A904203D3002070470648F8E7036815
:104340001BB193F83630002BF6D11430F1E700BFE3
:104350007C1B0020681B002008B5094B1B686BB153
:1043600021B19A8EC2F30412914207D108B90448D0
:1043700008BD191D05F062FE0028F8D10020F7E7FE
:10438000681B002010B5124C2168B1B10B689B8EE0
:1043900003F00703013B012B0DD80020FFF7C6FFF8
:1043A00068B90846FFF7C2FF01B110B90020FFF756
:1043B000BDFF20600146084610BD0846EEE70368D1
:1043C0009B8E03F00703013B012BF2D8E6E700BF09
:1043D0005C1D002038B50D460446102200212846F9
:1043E0000BF008FF124A12680023A24285F8203021
:1043F00009D1DCB123689B8E03F00703013B012B3D
:1044000094BF0023012385F82130236805F11001B2
:104410001A1D143352F8040B41F8040B9A42F9D1D7
:1044200023689B8EC3F304136B8438BD2346EAE7ED
:104430005C1D00202DE9F84F4FF0000BDFF8F080F5
:104440000546894692461F465C4698F82420EAB9FC
:10445000002C08BF44460BF1010BBBF1080F08F11B
:104460003008F2D1002C45D02368002B48D14946B2
:104470002846FFF7FFFD06462060002840D1014690
:10448000302220460BF0B6FE344633E098F8252063
:10449000BA42E0D14046514650F8046B05F0E3FDC6
:1044A000B842D8D3B28EC2F304129145D3D10436A8
:1044B0001E49102230460BF06BFDF0B1002DCAD022
:1044C0003146284605F0BAFD0028C4D005F1100297
:1044D00055F8041B46F8041B9542F9D1302202FB23
:1044E0000BF3134AD25892F8363043F0400382F867
:1044F000363044462046BDE8F88F002DEED0E5E783
:10450000226849462846FFF776FD2046FFB250F85C
:10451000042B92F8363043F0400382F8363051468F
:104520003A4605F0C0FD84F82570E3E782270100D4
:104530007C1B002010B590F824300446DBB90068DD
:1045400090B10D4B08229C4202D0196888420BD0D2
:10455000013A03F13003F6D190F8363023F04003EE
:1045600080F83630FFF73CFD20463022BDE8104091
:1045700000210BF03FBE10BD7C1B002028B1303065
:10458000064B984203D3002070470548F8E790F89F
:104590002420002AF8D13030F3E700BFFC1C0020B3
:1045A0007C1B0020034630B4021D03F114040846AE
:1045B00052F8045B40F8045BA242F9D193F825203D
:1045C00081F82020002481F821401A68908EC0F3E1
:1045D0000410488493F82430042B01F1100004D116
:1045E0002146102230BC0BF005BE131D01461432CB
:1045F00053F8040B41F8040B9342F9D130BC7047D7
:104600002DE9F843194D002480461646274605F546
:10461000C07995F824305BB14146281D05F023FD93
:10462000B84205D995F8253083429CBF07462C46F1
:1046300030354D45EDD134B194F82430042B0FD1F1
:10464000E38CDB070CD4FFF79DFE18B944B96FF07B
:10465000710003E03146FFF7BDFE0020BDE8F8839E
:1046600031462046FFF79EFFF7E700BF7C1B002086
:1046700010B5044600F114010648FDF77BFD94F8DF
:10468000243023F0040384F824302046BDE8104091
:10469000FFF750BF001D00202DE9F341044600F153
:1046A00014011748FDF766FD2368988EC0F30410C7
:1046B00001F055FA0546E0B100F11606211D30461D
:1046C00094F82580019105F0CEFC05F12607804580
:1046D000019998BF94F82580384688BF002605F0D8
:1046E000C2FC804501D926B137463946284601F03B
:1046F000C7FD204602B0BDE8F041FFF7B9BF00BFDB
:10470000001D00202DE9F3411F4613460A460146CD
:104710000020089EFFF78EFE054600283AD090F84C
:10472000243007EA060443F0040380F82430601CB8
:1047300038D01E4B1868436901332FD00AF0C5FCEE
:10474000711C04461DD01A4B1A48B3F9008005F1BC
:1047500014010191FDF70EFD0023C5E9053644F66D
:10476000CC7301991348EB832D62A5F81C80FDF7EB
:10477000C9FCB21C05D03319013301D104B1013693
:104780002644FB1C10D83B19013308BF01373C44B9
:10479000C5E90A46284602B0BDE8F08183685B6837
:1047A0009847CDE72646F3E73C46F1E7502A01005B
:1047B000641B0020001D002010B50A4B9B690246B7
:1047C000002013B94FF0FF3010BD5C6820445C89B5
:1047D0008C4204D1002AF7D0DC689442F4D01B68E4
:1047E000EFE700BF001D0020F0B5044685B00E467F
:1047F00017460021102268460BF0FCFCD4F8A430C8
:10480000D90406D4B4F9661123480BF015FE05B09F
:10481000F0BDDA07FBD594F8C02002AB04F1B80173
:10482000204601F0CEFE0028F1DB3A4631466846CC
:1048300005F039FC6946204601F068FB051E29DABF
:1048400007233A466946204601F0DEFA051EDEDB04
:104850000127D4F8A430DB04D9D51049082230460A
:104860000BF096FB38B13378FF2B0BD1737803F044
:104870000F03022B06D16219137D23F01F0343F0AF
:1048800010031375002FC2D004EB05101630FFF78C
:1048900017FABCE70027DCE71824010052270100C3
:1048A00010B50A49082204460BF072FB48B1237880
:1048B000FF2B08D1607800F00F00831E584258414A
:1048C00010BD0120FCE70020FAE700BF52270100DD
:1048D000002102F075B908B5FFF7F4FB28B190F894
:1048E000363013F0010F08BF002008BD38B5056849
:1048F0005DB195F836301B0707D5FFF7F5FC0024AE
:104900002046FFF73BFE044600B938BD23689D42B0
:10491000F6D1FFF70FFEF3E7F8B504461746069801
:104920000D46A1B191F865210A2A10D11A4604F169
:10493000100154F8040B42F8040B8C42F9D1B5F87D
:10494000662112011A8300229A76012607E040B9F7
:104950001A4629462046FFF777F9064628B1304621
:10496000F8BD1946FFF772FCEFE7D5F8A41011F473
:10497000805103D03846FFF7ABFFF0E70DB1B5F932
:10498000661102222046FFF7E9FB0028F2D0002F33
:10499000E5D07621384602F013F9E0E72DE9F04141
:1049A0001F460B4B144605460E460A48B3F90080D5
:1049B0001146FDF7DFFB0023C4E900376681E5609F
:1049C000A4F8088021460348BDE8F041FDF79ABBF2
:1049D000641B0020001D002038B5084DFFF73EFB8A
:1049E000A96929B10C682846FDF7C4FB2146F8E700
:1049F000FFF72CFBBDE83840FFF736BB001D002059
:104A000038B50446002501F0B5F80E49A4F89C50CD
:104A1000204601F08AFB402220460B49FFF7E4FEC6
:104A20004FF47A71284607F087FE04F168020346C6
:104A300044F6C3712046FFF7B1FF2046BDE8384079
:104A400001F09FB8322701005227010013B5044638
:104A500001F090F8124804F16801FDF78BFB04F1B6
:104A6000160108460191FFF71BFF019910B120467E
:104A700001F006FC04F1260108460191FFF710FF42
:104A8000019910B1204601F0FBFB2046054901F0D9
:104A9000A2FB204602B0BDE8104001F072B800BF92
:104AA000001D00203227010010B5044601F062F815
:104AB0004FF47A73C4F8983094F89E3043F00103B1
:104AC000204684F89E3001F020FD2046BDE81040CD
:104AD00001F057B82DE9F0470C468CB00546084662
:104AE0001746994601F046F8FFF7B8FA94B3B4F9BF
:104AF00066112846FFF7EFFE0646002800F0C88042
:104B0000B0F83480C8F304182846FFF7C9FE00281F
:104B100061D1B8F1000F5ED0204601F032F8404676
:104B200001F01DF80446FFF79FFA204601F022F835
:104B3000FFF794FA002C3AD1002F4FD13C466FF08A
:104B40007506FFF791FA204601F01BF830460CB0CD
:104B5000BDE8F0872146CCE708F10401284605F0BE
:104B600082FA98F82530984207D3BAF1000F1AD08C
:104B70009AF825209A4238BFC2464046FFF7FEFC0D
:104B800080460028E8D1BAF1000F2FD09AF82430DF
:104B90005A072BD5BAF82630DB0727D5DAF80030CC
:104BA000B3F83480AEE7C246E7E7B046ACE7B4F905
:104BB00066112846FFF78FFE064600964B463A469A
:104BC00021462846FFF7A8FE002818BF002608BF88
:104BD0006FF07506B5E7002CEFD1ADE776213846CA
:104BE00001F0EEFF6FF075060024AAE703AA39462C
:104BF0002846FFF705FD061E30DB2949102207A8CD
:104C00000BF0C6F978B94EBB2846FFF749FE28B32A
:104C100007AA05F1100C28686968134603C3083514
:104C200065451A46F7D10CBBBDF92E0000F097FF81
:104C30000446FFF719FA204600F09CFFFFF70EFA32
:104C40001CBB214607A8FFF746FE4B4600903A469C
:104C5000214607A8FFF760FE0028B8E71FB17221C0
:104C6000384601F0ADFF6FF071066AE7B4F96621CE
:104C7000BDF82E309A4208D0204600F082FFB4F9E9
:104C80006621BDF82E309A42CED1B4F96611D9E72B
:104C90002846FFF705FE002887D1B246B0466CE7EC
:104CA000822701002DE9F04F154687B01F460446C4
:104CB0008A4600F05FFFFFF7D1F92B78872B00F0D1
:104CC0005781882B00F00C82862B40F0AE810AF1D0
:104CD00008084046FFF7E4FD002800F0A6819AF896
:104CE0000730FF2B40F0A1816B78002B40F09D81B5
:104CF0000F2F40F29A81D4F8A430DA0407D4EB885D
:104D00005BBA9BB242F22832934200F28E81A7F145
:104D1000100B05F110063346D946B9F1000F55D1F5
:104D2000EF88B4F96611BBB24046002B5AD0FFF7AA
:104D3000ADFA8046002800F078817FBA4FF47A738C
:104D4000BFB25F433B46021D44F6CD71FFF726FE1E
:104D50002B790BB184F86431EB6813B11BBAC4F83A
:104D60009830B8F1000F13D0D4F8A430DB040FD57D
:104D7000237D13F0EF0F03D004F11600FEF7A0FF20
:104D8000637D13F0EF0F03D004F12600FEF798FFC8
:104D9000BBF1000F33D1B8F1000F00F0468104F1F0
:104DA00068021146AD480292FDF7E4F9D4F8A43048
:104DB000029A13F4805F00F03881BB0803EB4303D1
:104DC00044F6C3712046FFF7E9FD2EE14F45C0F0E0
:104DD0002C815A78002A00F02881A9EBC20903EB44
:104DE000C2039AE7FFF7B8FA804628B1FFF77EFDC5
:104DF0004FF0FF37C846ABE74FF0FF37A8E73378EF
:104E0000052B1BD009D8012B11D0032B24D073788C
:104E1000ABEBC30B06EBC306BAE7222BF7D1314647
:104E20002846FFF73FF8874228BF0746EFE733469B
:104E30002A4651462046FFF791F8E8E77378012BA0
:104E4000E5D12B78862BE2D173681BBAB3F5A06F3E
:104E5000DDD3A4F8A030DAE77378042B05D04FF047
:104E6000FF339F4228BF1F46D1E72B78862BF6D110
:104E700006F1100108460291FFF712FD0028EED15D
:104E80007368D6F808901BBA99FA89F94B45E6D3AE
:104E9000D4F8A400F278029910F4805F01D01006D3
:104EA000DDD4520607D5B278039320460291FFF76E
:104EB0009BFCDDE90213F27812F0C00FCFD0B2787C
:104EC0000292706800BB814615E099F824305B07B8
:104ED00011D599F82530029A93420CD109F10400BA
:104EE000039105F0C0F8029B0399834203D848461A
:104EF000FFF7D2FB039903914846FFF73FFB039965
:104F000081460028E1D1AAE7581C07D0544A9342B1
:104F10009ABF4FF47A7253436FF00103B9F1FF3F28
:104F200008D04F4A91459ABF4FF47A7202FB09F9B3
:104F30006FF00109029AB4F96601CDF8009003936D
:104F4000FFF7E0FB00288AD096F90320F178039B55
:104F5000002ABEBFC28C42F00102C2844A0642BF90
:104F6000C28C42F00202C2844B4528BF4B4678E710
:104F70009AF80730FF2B58D16B78002B55D1172F9B
:104F800053D92B7AFF2B50D00AF10808354910224B
:104F900040460AF0FDFF38B933490D220AF11800E6
:104FA0000AF0F6FF002840D105F1080B59462046CB
:104FB00000F0ACFF031E029337DBA7F1180605F1E2
:104FC00018094A46334673B92649039310224046CE
:104FD0000AF0DEFF039B78B900934246214658460B
:104FE00000F02EFB21E09F421FD35178E9B1A3EBE3
:104FF000C10302EBC102E6E7D4F8A430D80705D418
:10500000B4F9661103224046FFF7A8F8AEB9029B37
:1050100023441B7D99065BD5B4F966115846FFF70A
:105020005AFC054610BBFFF753FCFFF71DF820465E
:1050300000F0A7FD07B0BDE8F08F99F80030012B14
:1050400005D14B462A4651462046FEF787FF99F880
:105050000130A6EBC30609EBC309D7E7001D00200A
:105060003789410082270100722701009AF8183021
:10507000FF2B1AD194F8C07004F1B8013A4604A885
:105080000AF0B6FF8FB13246394604A800F084FA20
:1050900006460028C7D040213246584600F028FA7C
:1050A0000746002874D13046BDE76021F4E7B4F923
:1050B000663153804FF47A71C6F80080002007F003
:1050C0003BFB05F12402034644F6C27130467AE602
:1050D0009AF818300096A3F1FF02534253417CE73F
:1050E0009AF80730FF2BA0D16B78002B9DD1172F9A
:1050F0009BD92B7AFF2B98D09AF81830FF2B02D12E
:105100002B795B0691D4A7F1180805F118063246F1
:105110004346EBB9B4F9661105F10800FFF7DBFB74
:105120000746002881D0B8F1000F3FF47EAF3378F6
:10513000212B07D1CDE9006733462A465146204648
:10514000FEF71EFE7378A8EBC30806EBC306EAE77A
:105150009F42FFF46AAF517800293FF466AFA3EB9A
:10516000C10302EBC102D4E77268002C9FD1234631
:105170009FE7D8F80430FF22DA7100231A46194657
:10518000184601F02EFA06460028EDD140464AE7BF
:1051900042460021FEF71DFD80460028E9D1384631
:1051A00041E700BF38B5044600F0E4FC44F6C371A3
:1051B0002046FFF701FBD4F8A430DA0432D594F886
:1051C0009C30022B42F210750AD9033B4FF47A62ED
:1051D00002FA03F31D444EF660239D4228BF1D468C
:1051E000A8421AD91149204600F0A2FA94F89C303E
:1051F000092B9CBF013384F89C3094F89C30022B1F
:1052000003D9D4F8A430DB0407D52B4604F1680297
:1052100044F6C3712046FFF7C1FB2046BDE8384085
:1052200000F0AFBC4FF47A65DAE700BF4227010017
:1052300073B50D460446FEF711FFA5F59F414239AF
:105240000D2914D8DFE801F00718131313131313F3
:1052500013131C6A136E3549234640F202220220C2
:1052600000F0BBFA18B90921204601F0A9FC02B0F0
:10527000BDE87040FEF7F8BE2046FFF793FFF6E763
:105280002368988EC0F3041000F069FC05460028DE
:10529000EDD0274B1868436901330FD009F015FF93
:1052A0000646284600F066FCA36AB3420AD82046A8
:1052B000FFF7F2F9284600F064FCD8E783685B68E2
:1052C0009847EDE7E36AB342F4D8211D05F11600D3
:1052D000019104F0C8FE94F82530019983429FBFE4
:1052E0002B7D23F01F0343F008032B7505F12600E7
:1052F00004F0B9FE94F8253083429FBF6B7D23F004
:105300001F0343F008036B75A36A04F114029B1B8F
:1053100044F6CC712046FFF741FBCBE72046FFF770
:10532000E5FAA4E72046FEF7CBFCA0E70000FFFF6C
:10533000502A01002DE9F04387B016460C46102292
:105340000021074602A81D46DDF838900AF052FFFA
:10535000802EB04628BF4FF080085FFA88F22146C1
:1053600002A804F0A0FE2549102202A80AF010FEAF
:1053700000283FD02249082220460AF009FE0028D2
:1053800038D02378FF2B35D0A94533D8FEF766FEF9
:105390002B46CDF80090424621463846FFF7B2F939
:1053A000054630B9FEF760FE6FF00B0007B0BDE8B0
:1053B000F08338B200F0D3FB044618B9FEF754FE70
:1053C0000020F3E700F0D6FBD4F8A430DA045EBF87
:1053D000EB8C43F00103EB8494F89E30DB0705D59A
:1053E0007F2E9EBFEB8C43F00203EB84204600F03F
:1053F000C8FBE3E76FF01500D8E700BF8227010084
:10540000522701002DE9F0410C6807460E4615466B
:10541000FEF724FE2046FFF7B1F8044600B3D4F8A7
:105420000080B8F1000FF5D094F824305B07F1D577
:10543000F7B994F825302B741022002128460AF081
:10544000D9FE94F82520211D284604F02CFEB8F83A
:105450003430C3F304136B82A36A6B61E36AAB61FC
:10546000FEF702FE201E346018BF0120BDE8F08167
:10547000B8F83430C3F304139F42CBD1D9E770B5E9
:1054800004461846FEF7A5FB0646B8B14368FF225E
:10549000DA7100231A461946184601F0A2F80546AB
:1054A00028B93146304601F0D1FB284670BD43682B
:1054B0000CB1B4F966415C802E60F6E70546F4E76E
:1054C00010B518230446002208468721FEF714F879
:1054D00068B1436800221A715A719A71DA712168B1
:1054E0006268DA609960A168E2685A61196110BD6A
:1054F00038B504460D461046182300228821FDF7D2
:10550000FBFF78B14368002225F01F051D71DA7199
:105510009A715A7121686268DA609960A168E268DC
:105520005A61196138BD08B5002208238521FDF7AD
:10553000E3FF28B1436800221A715A719A71DA7137
:1055400008BD0731002310B50446104601F0F802EB
:10555000194601F063FC20B1426814708368DB08CF
:10556000537010BD70B506460D4618460231FFF760
:10557000E8FF044658B1436882680233023A0021CA
:1055800018460AF037FE2A4631460AF031FD204619
:1055900070BD0123FFF7E6BF0223FFF7E3BF000062
:1055A0002DE9F7430746154608460A9C0E469846DD
:1055B00000F0E0FA35B92A463946304600F0B7FC2B
:1055C0000546B8B11C49102228460AF0E1FC88B112
:1055D00096F8C09006F1B8014A4668460AF008FD00
:1055E000B9F1000F06D0224649466846FFF7D1FFC1
:1055F000E8B1044638462146FFF762FF0746B0B1DE
:105600000346424629463046FFF739FF044668B153
:1056100003460A4940F20222022000F0DEF830B1CF
:10562000304600F0AEFA03B0BDE8F0833C460021FE
:10563000204601F0C5FAF3E7822701000000FFFFD2
:105640002DE9F04387B00E46804608461546994638
:105650000E9C00F08FFA4146304600F057FC071EC2
:105660005BDB3049102228460AF092FC28BB2E4B07
:1056700002AD03F1100C186859682A4603C20833BA
:1056800063451546F7D1002596F8C09006F1B8019C
:105690004A4668460AF0ACFCB9F1000F3AD02246FF
:1056A00049466846FFF778FFB8B337443B7D9B0611
:1056B00001D445F0200504460FE02A4602AB05F16F
:1056C000100C106851681D4603C5083262452B4610
:1056D000F7D14025B9F1000FD6D1294622464046E0
:1056E000FFF706FF0546C0B1034602AA0021304677
:1056F000FFF7C5FE044678B103460C4940F202228A
:10570000022000F06AF840B1304600F03AFA07B0E3
:10571000BDE8F0832046CEE72C460021204601F06C
:105720004FFAF1E782270100322701000000FFFF56
:10573000224B2DE9F341002914BF884698460546BF
:1057400000F018FA00224146284600F0F0FB074618
:10575000A0B195F8C04005F1B801224668460AF0AC
:1057600047FC64B1214600226846FFF712FF044659
:1057700028B90021204601F023FA17E0044620460C
:10578000FFF7D1FE06460028F3D0034642463946CD
:105790002846FFF774FE044670B10346084940F2FC
:1057A0000222022000F019F80028E2D0284600F07A
:1057B000E8F902B0BDE8F0813446DAE7422701009B
:1057C0000000FFFF07B5019101466846ADF80220D1
:1057D000FBF7B8FE03B05DF804FB2DE9FF4104467A
:1057E000019117461D4601F01DF90199204601F06F
:1057F000B6F90199064640B1204601F0ABF9711E99
:105800000446284601F084FA2CB901F027F9304605
:1058100004B0BDE8F081237A012B0FD0022B16D003
:1058200003BBB4F90C003A462946FFF7CBFF00282A
:1058300013DC0521284601F0C3F90EE0E068ADF85D
:105840000A70002202A90395FBF7AEFCEFE7E368BC
:105850002946D3E900823846C047204601F091F935
:105860000446D1E78C21E5E71FB500240394ADF889
:105870000C30436801941B698DF80410029201A951
:10588000984704B010BD50F8A80C03681B6918476E
:1058900008B5044910220AF07BFBB0FA80F04009F9
:1058A00008BD00BF8227010010B50A49082204463E
:1058B0000AF06EFB48B12378FF2B08D1607800F026
:1058C0000F00831E5842584110BD0120FCE7002004
:1058D000FAE700BF5227010070B58568044600F062
:1058E000DDFD2B6801465E6904F1B80208232846F5
:1058F000B04710F1860F09D0D4F8A430002843F047
:105900000103C4F8A430C8BF84F8C00070BDF8B566
:10591000044608460E461546FFF7BAFF98B95DB132
:1059200004F1360503270024314605EB041004F08A
:1059300085FB28B12046F8BD04F116050227F2E7E1
:105940000134A742F0D14FF0FF30F4E70378FF2B8A
:1059500010B5044603D1407800F00F0010BDFFF7EA
:10596000A3FF60B9208840BA20F03F000004000C7B
:105970004FF6C06398420CBF05200E20EEE70220D0
:10598000ECE7000070B505460C46164662B9D0F843
:10599000C8304BB100F030F82146284600F0CAFF6D
:1059A00030B314480AF0D0FD0121204601F0B0F9CF
:1059B0006B6821465B6828469847103016D121460F
:1059C000284666B100F0EAFF06468EB109480AF0A3
:1059D000BBFD0C212046BDE8704001F0F1B800F09D
:1059E000A9FF0646284600F0BDFFEEE70021F1E7DB
:1059F00070BD00BF97240100D0F8C83010B5044630
:105A00007BB11A685968C0F8C82000221A605A6031
:105A100039B10122FFF7B6FF2046BDE8104000F083
:105A2000A1BF10BD37B5846839B904F1B00104F1E4
:105A3000A800FCF7C4FA03B030BD02390729FAD830
:105A400001A353F821F000BF935A0000375A000019
:105A5000C55A0000C55A0000C55A0000C55A0000CA
:105A6000695A0000875A00000023ADF8003044F660
:105A7000D473ADF80230154B0194B3F900106846A9
:105A8000FBF74AFDD7E70023ADF8003044F6D573A5
:105A9000EFE7636820469B68984705462046FFF776
:105AA000ABFF002DC7D00A4995F910002B4640F2F4
:105AB0000122FFF792FE01460028BCD1284601F0E2
:105AC0007FF8B8E72046FFF797FFB4E7641B002094
:105AD0000000FFFF70B58AB000240593109B43605F
:105AE0000F9B8360C0E90344CDE907040D4608A875
:105AF00001211646FBF776FD0E9B029307AB01933F
:105B0000074B059A0093314623462846FBF7CAFE09
:105B1000012108A8FBF766FD09980AB070BD00BF17
:105B2000915B000090F865210B2A07D80123934070
:105B300013F4376F14BF0120002070470020704716
:105B400005F076BC10B500242046FFF7F9FF08B930
:105B5000204610BD4368002BF7D00134F5E710B59F
:105B600004460020FFF7ECFF18B1B0F96631A342FC
:105B7000F8D110BD20B1436813B10C30FBF7E6BF7C
:105B8000704720B1436813B10C30FBF7E2BF704798
:105B90002DE9FF410468DFF80C810546002640F23C
:105BA00005232046CDE90066ADF80230FFF7E2FF9D
:105BB000B8F80030A4F86631374BC4F8B430374B2E
:105BC0001B68C4F8AC30102104F1E400C4F8A860EC
:105BD000FBF7FCFC636820461B689847A860281DFB
:105BE000FBF734FDAA68B24204F1A80749DB20465E
:105BF000FFF7C7FF41F233263846FCF7F6F90546B2
:105C0000002839D102A8FBF7DBFC002804DC48F2AD
:105C10000100FBF7EFFEEFE7BDF80A30B3F5017FB7
:105C200027D00FD840F20222934211D040F2032233
:105C3000934213D063685B69002BDDD002A9204634
:105C40009847D9E7B342F5D12046FFF7D5FED3E711
:105C500003992A462046FFF795FECDE763681B6946
:105C60000399204698476946019002A8FBF786FCF5
:105C7000C2E76368DB68F3E74368002BBCD0984752
:105C8000BAE7B8F80010064809B20AF0D5FB30466A
:105C900004B0BDE8F08100BF87580000B00A0020C2
:105CA000C2240100AC0A00202DE9F8430E46054647
:105CB000FFF760FF3378112B0CD8062B0FD9073B69
:105CC0000A2B0CD8DFE803F0207D250B4C5F0B0B73
:105CD0000B0B8F00402B0BD0412B00F08D80A86860
:105CE0007268036831785C693389A047044605E02F
:105CF0002846FFF717FF7368187001242846FFF73E
:105D000040FF2046BDE8F883736895F864211A7057
:105D1000F3E734897368002CF0D02C7D8CB105F149
:105D20001602194605F1260052F8044B41F8044BBF
:105D30008242F9D13289102A03F110034FF0100486
:105D4000DCD96A7D002AD9D005F1260205F1360199
:105D500052F8040B43F8040B8A42F9D11034CDE712
:105D6000726805F1140305F1160000243189A1427F
:105D7000C4DD8342C2D013F8011B0029F6D002F81B
:105D8000011B0134F2E7D6F8048005F1360705F16E
:105D9000660900243389A342B0DDB945AED0384648
:105DA000FFF776FD07F1100348B9424657F8041B88
:105DB00042F8041B9F42F9D1103408F110081F4625
:105DC000E8E7D5F8A4207368D20788D595F8C020F5
:105DD00005F1B801284600F0F4FB10F1860F0446E7
:105DE0003FF47DAF8AE77488022C7FF478AF736844
:105DF000B5F8A0201A8081E7D5F8A4307268C3F303
:105E00000023137079E700002DE9F0471F468AB0A0
:105E100004460E469146FFF7ADFE07F01F03072B21
:105E200008BF07F0F807314604F1160008BF47F035
:105E3000010704F003F9B8B9257D3146003D04F1AE
:105E4000260018BF012504F0F9F86D42804688B994
:105E500095B1637D002B4BD02046FFF792FE6FF08B
:105E60000B000AB0BDE8F08700252046FFF789FE49
:105E70002846F6E70125F8E70546D4F8A430DB0408
:105E80000BD4282231461F48B4F966A104F028F942
:105E9000514602461C480AF0CFFA61196B1C04EB0C
:105EA00003130F753246063306F1100052F8047BD7
:105EB00043F8047B8242F9D10B7D03F01F03102BC2
:105EC000D3D100230293B4F9660103AA02A9FFF714
:105ED00099FA074670B9B8F1000FC6D14FF0FF33F9
:105EE000B4F9660100934A463146FFF723FABCE74E
:105EF0000125C2E7314603A804F0B5F8484528BF9C
:105F0000B846E0E7601D0020E224010037B50446F2
:105F10000191FFF72FFE019900222046FFF7F7FCC1
:105F200005462046FFF72DFE284603B030BD2DE97B
:105F3000F04F2DED028B04468FB008EE101A174675
:105F4000FFF718FE257D002D00F0B08015F0070545
:105F500040F0AB80002F00F0AC8004F11600FFF79A
:105F6000A3FC002816BF00264FF0FF368025637D76
:105F7000002B00F0A880590740F0A580002F40F0CA
:105F80009B8045F0400576424FF0000818EE100A5D
:105F9000ADF81480FFF7DAFC4FF0FF33CDE900389D
:105FA000A31D029304F11303814605AFC246039378
:105FB0008AF00703012202FA03F32B420AF1010BD4
:105FC00022D0029B03EB0B1818EE101A404604F087
:105FD00035F8002859D14046FFF7B8FC81453B7899
:105FE00077D14B440F333B70039B019A13F80B306E
:105FF00003F01F03082B1EBF3B7801333B703B7837
:10600000934288BFCDE900A3BBF1020F07F101075E
:106010004FF0010ACCD14FF0000804F11603C3463B
:10602000029305AB13F80B20019B9A4223D1029BEC
:1060300003EB0B1A18EE101A504604F014F807463A
:1060400081465046FFF730FC002855D106900546A2
:10605000B4F9660107AA06A9FFF7D4F9002842D1CE
:106060001DB1AF4228BF2F46B946C8453CBF5FFAB5
:1060700089F8CDF800B0BBF1000F31D0009B5A1C5D
:1060800006D004EB031808F11608B8F1000F03D18D
:1060900004EB061606F116082046FFF772FD40468F
:1060A0000FB0BDEC028BBDE8F08F00254FF0FF363E
:1060B0005DE780253E465AE704F12600FFF7F4FB32
:1060C00000287FF45EAF002E3FF45EAF4FF0000873
:1060D000E2E73CBFA9EB00000F331844387083E7B8
:1060E0004FF0010B9DE7514607A803F0BCFFA84203
:1060F00088BF9DF82C50ABE74025B2E738B5054680
:1061000000242046FFF71CFD044660B1002229460A
:10611000FFF7FDFB002806DA012229462046FFF79B
:10612000F6FB0028EDDB204638BD2DE9F34105469E
:106130006A4690F865010E4604F0EDF804462846DC
:10614000FFF718FD002C0FDDA3B26A466E2128462A
:10615000FFF78AFB10F1860F044608D0002806DA04
:106160002846FFF70EFD10E014F1860FF8D105F177
:10617000360800274FF0FF343146404603F05EFFFB
:1061800038B12846FFF7FDFC3C46204602B0BDE88A
:10619000F081621C05D14046FFF77AFB002818BF4A
:1061A0003C460137032F08F11008E5D1631C05D1E7
:1061B0002846FFF7E6FC6FF00B04E6E705EB041357
:1061C0003146363306F1100251F8040B43F8040B44
:1061D0009142F9D1C4E72DE9FF4704466A4690F899
:1061E00065018A4604F097F8051E02DA15F1860F5C
:1061F00032D12046FFF7BEFC4FF0000804F136070D
:10620000C1464FF0FF36002D13DD3846FFF740FB47
:1062100078B994F8650102AA394604F07CF8854201
:1062200007D12A46694602A809F0B2FE08B909F169
:1062300001093846514603F001FF002818BF4646C1
:1062400008F10108B8F1030F07F11007DBD1731C47
:1062500005D12046FFF795FC04B0BDE8F087B9F101
:10626000010F05D1ABB26A466F212046FFF7FCFA59
:1062700004EB061010220021363009F0BBFFE8E7DE
:106280002DE9F04F8BB04B7B8DF815300446CB8950
:10629000ADF8163040F2FF284FF000094FF080763D
:1062A000FF27CDE902890D4604968DF81470FFF79B
:1062B00061FC04F136030193012304F1160A04F191
:1062C000140B00932946504603F0B8FEC8B10021D4
:1062D0008BF800101022504609F08CFF019B0AF148
:1062E000100A9A450BF1010BECD1009B1BB102A9DE
:1062F0002046FFF770FF2046FFF743FC0BB0BDE8D8
:10630000F08FCDE9068908968DF824709AF80D2053
:106310008DF82520BAF80E20ADF8262002A906A88F
:1063200003F08CFE0028009B18BF00230093D5E7E4
:1063300070B50E460546FFF71DFC33781B2B11D8B0
:10634000062B11D9073B142B0ED8DFE803F01F0DE5
:1063500025370D3C410D0D0D460D0D0D0D0D0D0D8F
:106360000D0D5E00412B40D0A8687268036831783B
:106370009C693389A047041E1BDD3378052B5BD84D
:10638000012B16D92846FFF7A7FA12E073681B788D
:1063900085F8643101240CE07288716802F0E00332
:1063A00043F01003120A2846FFF72EFD041E3FDBC0
:1063B00010242846FFF7E5FB204670BD716828468B
:1063C000FFF75EFFF4E771682846FFF7AEFEEDE7E2
:1063D00071682846FFF7FFFEEAE77488022CC3D1F4
:1063E00073681B88A5F8A030E3E77268D5F8A4307D
:1063F0001478012C04D143F48073C5F8A430D8E795
:1064000023F48073C5F8A430C4E77268D5F8A430CB
:106410001178A86801290CBF43F4803323F480333A
:10642000C5F8A43003681B219C693389A047B1E7F4
:1064300014F1860FBDD197E7572BBAD1284600F04B
:1064400089F8B6E737B5144B04468068C0E90134D3
:106450000368DB68984700281BDB204604F0D6FF62
:10646000A06803680DF1060228215D690223A84790
:10647000BDF8063084F86531204600F06BF8204600
:10648000FFF72AFA4023204684F86431FEF70CFB1C
:10649000002003B030BD00BF255A000013B590F8AE
:1064A0006531043B012B0FD8806803680DF10602AB
:1064B0005C6905210223A047BDF80630082B14BFF4
:1064C0000220032002B010BD0220FBE730B41446C6
:1064D0001A46D0F8A430DB0713D590F86551042D87
:1064E00009D1022C07D1806803685C690321A446A6
:1064F000082330BC604713462846224630BC03F0D0
:1065000096BE6FF0850030BC70471FB590F86531BE
:10651000052B044616D0082B14D0042B18D10823C1
:10652000ADF8023000230193039305238DF8043066
:106530000DF1020302930223ADF80C30436801A968
:106540001B699847D4F8A43043F48053C4F8A430AE
:1065500004B010BD37B50446806803685D6994F8DF
:106560006531043B072B1ED8DFE803F0041D041D32
:1065700004041D0AD4F8A43043F48073C4F8A43092
:1065800002230DF106021121A8474FF4A063A4F8DD
:10659000A030BDF80630B3F5A06F28BF0023A4F8E3
:1065A000C23003B030BD02230DF106021121A8470D
:1065B0000028ACBFBDF806304FF6FF73A4F8A0303A
:1065C000EFE710B4D0F8A440E40705D590F86501D2
:1065D0005DF8044B03F03BBE6FF085005DF8044BA3
:1065E00070472DE9F041174603F108020A440E46B0
:1065F000002180461C4608464FF0FF3300F00EFC99
:106600000546F0B140680022428082804FF400428B
:1066100006704470C280B8F1000F05D026B1324632
:106620004146083009F0E4FC5FB154B16868437832
:10663000A34206D10378083322463946184409F0AC
:10664000D7FC2846BDE8F081002100F0B9BA00006F
:10665000F0B5866891B096F82250738AADF818307C
:1066600005F028050C46002931D091F9103001338E
:106670004AD149680B79DF0654BF45F0010545F062
:10668000110513F0C00F05BF0B7891F801C0204B26
:1066900008330CBF5B184FF0020C2A071AD506F11D
:1066A00016010822B07F471CB777CDE903500AAF27
:1066B000BDF81800ADF80800ADF80400CDF800C032
:1066C000384603F0A1F870B92046FFF7BDFF6FF020
:1066D000150516E00A780AB10831E3E790F8C02002
:1066E00000F1B801DEE72368CDE907373368C0B2AF
:1066F00009901B6807A93046984705462046FFF7D2
:10670000A3FF284611B0F0BD6FF04C05F9E700BFBC
:10671000302701002DE9F04F866833689C6800231C
:106720001A4689B0054619463046A0470228024657
:1067300040F3A880002301901946184600F06EFB34
:106740003368019A044640B99D68014603463046C5
:10675000A847204609B0BDE8F08F9F68416803ABA9
:106760003046B847071E04DC2046FFF76DFF0024C3
:10677000EFE7D5F8A430D9031ED500231A461946F1
:106780001846FFF72EFF06460028EDD043689DF817
:106790000E205A71BDF80C20DA800DB1B5F96651A2
:1067A0005D8023461A461B68002BFBD116603946D4
:1067B000204600F0E1FBCCE7606803F0A9F88146D1
:1067C0000028D1D08742CFD3D4F804B002AA06A9BA
:1067D000584603F01AF902AA824604A9584603F063
:1067E000CBF8BAF1000FBFDB0028BDDDC1B25FFA04
:1067F0008AF306AA04A8FFF7F4FE80460028B3D067
:10680000BAF1020F43680AD19DF818209DF81910BB
:106810000A40FF2A02BF1A7962F07F021A719BF8C0
:106820000020D20603D51A7942F010021A719DF8A1
:106830000E205A71BDF80C20DA800DB1B5F9665101
:106840005D80336804F110025D691921012330462F
:10685000A84700224946204600F020FB20B92046E8
:10686000FFF7F2FE404680E786680146204600F0CA
:10687000EDF923461A461B68002BFBD1BF1BC2F85B
:10688000008094E700287FF772AF33689C6800238C
:1068900019463046A0476AE71FB5054C0294079C8D
:1068A0000194069C0094FFF715F904B010BD00BFD9
:1068B0008825010013B50C4C0823A38105F0B2FD17
:1068C000204604F08FFD04F1280005F0D7FE074BA9
:1068D00000930749019402234FF460720548FFF7C3
:1068E000DBFF02B010BD00BF70220020A025010018
:1068F000F01E0020881D0020FFF7DCBF10B501212D
:1069000004460A48FAF76EFE0949002201EBC20369
:10691000586830B95C601C460448FAF797FE204678
:1069200010BD0132102AF1D10024F5E760230020C8
:10693000E022002010B504460846FFF7DFFF70B1E3
:1069400000230360D4F8C83033B11A461B68002B0B
:10695000FBD11060184610BDC4F8C800FAE74FF02C
:10696000FF30F8E741F2332313B5A0F8CE30EFF350
:10697000108472B6B0F96631009300F1D40100F1D1
:10698000CC03054841F28832006808F02DFD84F3FD
:10699000108802B010BD00BF582A010010B504468F
:1069A0000846FFF7ABFF30B1D4F8C8300360C4F835
:1069B000C800002010BD4FF0FF30FBE758B9CBB244
:1069C000042B00D97047054B53F8210000B97047DC
:1069D00043689342FBD00068F8E700BF70230020B3
:1069E00070B50D4D0D4E0E4C0B480121FAF7FAFD16
:1069F00033682BB9BDE8704009480121FAF7F2BDB0
:106A00002846FAF723FE01212046FAF7EBFD20463F
:106A1000FAF71CFEE8E700BF68230020642300208B
:106A20006C23002010B50A4C0A480121FAF7DAFD60
:106A300023681BB908480121FAF7D4FD23680548EB
:106A40005A1C1CBF01332360BDE81040FAF7FEBD9D
:106A500064230020682300206C23002008B5012156
:106A60000848FAF7BFFD084A1368591C05D0013BD6
:106A7000136013B90548FAF7E9FDBDE8084001487D
:106A8000FAF7E4BD68230020642300206C23002073
:106A9000C3B2042B70B505460E4613D8FFF7A0FF0E
:106AA0000A4B53F82520144654B93260084843F87D
:106AB0002560FAF7CBFD0748FAF7C8FD204670BD00
:106AC0002468F1E76FF01500F9E700BF702300209C
:106AD0006C23002068230020C3B2042B37B5054681
