:1010000000020020CD420000594200006942000069
:10101000794200008942000099420000000000006F
:101020000000000000000000000000003D42000041
:10103000A942000000000000F1410000B942000098
:10104000A11C0100192C0100A11C01001144000089
:101050002D440000A11C0100A11C0100A11C0100E5
:10106000A11C0100C5200100CB200100A11C010032
:10107000A11C0100A11C0100A11C0100A11C010078
:10108000A11C0100CD1D0100A11C0100A11C01003B
:10109000A11C0100A11C0100A11C0100A11C010058
:1010A000A11C0100A11C0100D1200100D7200100DA
:1010B000A11C0100A11C01000000000000000000B4
:1010C000A11C0100A11C0100A11C01004944000059
:1010D000A11C0100A11C0100A11C0100E1250100CF
:1010E000A11C0100A11C0100A11C010000000000C6
:1010F00000000000A11C0100000000006544000089
:101100004269013201D016F09CBF83685B681847C2
:10111000F0B5164B8BB005460C466A4603F1200726
:1011200018685968164603C60833BB423246F7D1E1
:1011300018681B79306033710D49284618F0AEFDF0
:101140000526013C2427B44203D800232B550BB0BD
:10115000F0BD11F003FF0AAAB0FBF7F303FB17037E
:10116000134413F8283CAB550136ECE70AB80100EC
:1011700004B801002DE9F043DFF85090DFF850800B
:1011800087B007460E461546002415216846FFF72E
:10119000BFFFB4FBF5F2642305FB124203FB0473AB
:1011A00056F82210184618F079FD494618F080FBD1
:1011B000694618F07DFB0134414618F079FBB4F51F
:1011C0007A7FE2D107B0BDE8F08300BF2FB80100FD
:1011D0000ED50100F7B50023104E114F03700446E1
:1011E000082511F0BBFE032380B200F00F020009B6
:1011F000B25C0DF80320013BF7D20023694620467C
:101200008DF8043018F054FB013D01D103B0F0BD5E
:101210003946204618F04CFBE3E700BF33B8010025
:10122000B9E9010038B500F51C45044640352046B3
:101230002834FFF7CFFFAC42F9D138BD2DE9F04F8C
:10124000434A4448444DDFF85091444FDFF84C8105
:10125000434EDFF84CA185B0002118F003F94FF49C
:10126000C87200213F4818F0FDF84FF48062002159
:101270003D4818F0F7F84FF47A7200213B480024FB
:1012800018F0F0F83A4A3B48002118F0EBF82046F5
:10129000C9F800402C606C60AC603C60C8F800404D
:1012A00011F054FE344B35491A683248FFF762FF9B
:1012B000CDE90297DFF8EC903460D9F80030A34212
:1012C00008DC2F48316891FBF3F105B0BDE8F04F21
:1012D00018F0EAB92B4B1F683846FFF711FF2A4B6D
:1012E00000932449294BCAF80000642000FB041134
:1012F0001B68194A264812F0DDFC3846FFF700FF4C
:10130000244BD9F800701860632397FBF3F103FBBB
:101310001177834687B90E4A0E48394618F0A2F86D
:1013200010484FF4C872394618F09CF8029BC8F870
:1013300000701F60039B1F60002330682B606B6090
:10134000AB60DAF80030C01A584430600134B4E7BA
:1013500040000100148F0220A0A10020108F022065
:1013600044340220588D0220ACA1002058300220C5
:10137000A0860100B8A90020280200202C0200202D
:1013800044B8010084F201003C0200203802002031
:101390000002002098A10020F88E02200C8F02206D
:1013A00040340220400200202DE9F74F3A4A3B48E2
:1013B0003B4DDFF834913B4F3B4E002118F052F883
:1013C0004FF4C8720021394818F04CF84FF480628D
:1013D0000021374818F046F84FF47A72002135485A
:1013E00018F040F8344A2F48002118F03BF8334BEE
:1013F00000241C60324B2C601C60324B6C60204619
:10140000AC601C6011F0A2FD2F4B30491A682548D2
:10141000FFF7B0FEC8460096D9F80030204A2C48A5
:101420003946013412F046FC0023642C2B606B60BB
:10143000AB6007F16407EED1264DDFF8B090DFF81E
:10144000B0A0254F2B601C46D9F80030A34208DC21
:101450002248296891FBF3F103B0BDE8F04F18F082
:1014600023B9DAF800B05846FFF74AFE3860009614
:10147000D8F800300A4A1A49154812F01BFC5846A1
:10148000FFF73EFE174B3A6818602B689B1A18440A
:1014900028600134D8E700BF40000100148F02200B
:1014A000A0A10020B8A900203C020020588D0220F5
:1014B000ACA1002058300220A0860100F88E022046
:1014C000108F02200C8F0220280200202C02002006
:1014D0000002002044340220403402208AB8010077
:1014E00064D0002098A10020380200204002002093
:1014F00084F201002DE9F04FA24AA348A34CA44E68
:10150000A44FDFF8E48285B0002117F0ABFF4FF461
:10151000C8720021A04817F0A5FF4FF48062002197
:101520009E4817F09FFF4FF47A7200219C4817F0F5
:1015300099FF9C4A9748002117F094FF9A4B002589
:101540001D609A4B256028461D606560A56035606A
:1015500011F0FCFC964B97491A688E48FFF70AFE7B
:10156000954B0093D8F80030884A944839460135A5
:1015700012F0A0FB0023642D23606360A36007F1D9
:101580006407EDD1DFF870821D4647468C4BDFF8CB
:101590006CB2DFF86C922B44C8F8003011F04CFDAF
:1015A000D8F80010CBF80000A0F521730A68006895
:1015B000C9F8003090420CBFD3F880300023002AD5
:1015C000DA4641DD306882423EDA1046039311F07C
:1015D00005FD3A68106811F00DFD039B002B33DD0B
:1015E000184611F043FD11F027FD7649764ACBF8F5
:1015F0000000C1E90220754AA0F52173D2F800B0BD
:10160000D3F88020C9F80030584616F06FFDD9F89D
:10161000003093F85921BAB1DFF8E8916C4AC9F863
:10162000082003F52172D3F88000C9F80C2017F0C8
:101630001FF90022674B16F09FFE17F083F9494609
:101640000246584616F052FD05F524754FF6B05384
:101650009D429BD1604BDFF8A88100251D605F4B48
:101660001B68AB4209DC5C4A5D48116891FBF3F1F1
:1016700005B0BDE8F04F18F017B85A4BDFF8889165
:10168000D3F800B05846FFF73BFD4B4BC9F80000BC
:101690000093554B3D4A1B685449484812F00AFBD9
:1016A00003905846FFF72CFD4B49514A0B681060D8
:1016B000D9F800209A1A1044039B08604D484FF453
:1016C0002472013B4FF0000902FB0303C4F80090B1
:1016D000C4F80490C4F808903B6011F0ADFC396880
:1016E000CAF80000A0F521720B680068C8F8002055
:1016F000984208BFD2F88090002B40DD32689342B8
:101700003DDA184611F06AFC3B68186811F072FC6B
:10171000B9F1000F33DD484611F0A8FC11F08CFC44
:101720002849294ACAF80000C1E90220274AA0F541
:101730002173D2F800B0D3F88020C8F800305846A2
:1017400016F0D4FCD8F8003093F85921BAB1DFF87C
:10175000B4901F4AC9F8082003F52172D3F880001D
:10176000C9F80C2017F084F800221A4B16F004FE7A
:1017700017F0E8F849460246584616F0B7FC01351E
:101780006DE700BF40000100148F0220A0A10020DF
:10179000108F0220B8A90020588D0220ACA1002093
:1017A00058300220A0860100F88E02200C8F022003
:1017B000280200202C0200203C0200200002002011
:1017C00028940220FC8E0220A130010080F201004A
:1017D000693A01000000E83F443402204002002042
:1017E000C3B8010084F201003802002064D0002058
:1017F00098A1002098910220B4A90020B0A900204F
:10180000ACA90020E88E0220403402202DE9F04FE0
:10181000624A6348634DDFF8E891DFF8E881624F80
:10182000624EDFF8ACA1DFF8E0B187B0002117F01D
:1018300019FE4FF4C87200215D4817F013FE4FF4F3
:10184000806200215B4817F00DFE4FF47A72002190
:101850005948002417F006FE584A5948002117F04D
:1018600001FE20462C606C60AC60C9F80040C8F8EE
:1018700000403C6011F06AFB524B53491A685048D3
:10188000FFF778FC5148FFF7CDFCCDE903983460B1
:1018900005974F4B1B68A34208DC4E48316891FB0B
:1018A000F3F107B0BDE8F04F17F0FEBEDBF8009093
:1018B000DFF858814846FFF723FC444BC8F8000086
:1018C000282707FB0437444B00933D49434B354AD7
:1018D0001B68642000FB0411384612F0EBF9404B02
:1018E000FA21186816F020FD384611F0C1FC3D4F72
:1018F000386000284FD03C4B1B681A68D0F88432FF
:101900009A420BD139493A4B8B6000F52173CB6079
:10191000384BD0F88020186816F0E8FB3A68364B50
:1019200002F1F50103F1240053F8047B41F8047B34
:101930008342F9D1012382F859314846FFF7E0FB91
:101940002E4B1860DAF80030632193FBF1F901FBAC
:1019500019390746B9F1000F13D1104A104849460A
:1019600017F080FD12484FF4C872494617F07AFD0F
:10197000039BC3F80090049BC3F80090059BC3F839
:101980000090002330682B606B60AB60D8F80030AB
:10199000C01A0744376001347BE700BF40000100F4
:1019A000148F0220A0A100200C8F022044340220BA
:1019B000588D0220ACA1002058300220A0860100E2
:1019C000B8A90020280200202C0200205805002081
:1019D000400200202BB901003C0200203802002008
:1019E0007CF201009CA10020B0A90020FC8E022006
:1019F000A130010080F2010007B9010098A1002088
:101A0000F88E0220108F022084F201004034022060
:101A10002DE9F04F5B4A5C485C4C5D4EDFF89C81E1
:101A20005C4FDFF8D4B185B0002117F01BFD4FF4F7
:101A3000C8720021584817F015FD4FF4806200214C
:101A4000564817F00FFD4FF47A720021544817F0F2
:101A500009FD544A4F48002117F004FD524B002560
:101A60001D60524B25601D60514B65602846A56086
:101A70001D6011F06BFA4F4B4F491A684548FFF74C
:101A800079FB4E48FFF7CEFB306818F079F90DF17D
:101A90000E0AADF80E00A14639464046CDF800A02A
:101AA0005B464A46013512F005F90020642D20609E
:101AB0006060A06008F1280807F16407ECD1404C91
:101AC000DFF838813F4F20600546D8F80030AB4240
:101AD00008DC21683C4891FBF3F117F0E5FD05B007
:101AE000BDE8F08F394BDFF818A1D3F800904846D5
:101AF000FFF706FB364B254A3860364900933648D7
:101B0000336812F0D7F8354BFA21186816F00CFC40
:101B1000314811F0ADFBCAF8000080B311F08CFA27
:101B20002F4B01681860DAF80030D3F88422914214
:101B30000BD12C492C4A8A6003F52172CA60D3F874
:101B400080202A4B186816F0D1FADAF80020284BCA
:101B500002F1F50103F1240053F804CB41F804CB62
:101B60008342F9D1012382F859314846FFF7C8FA78
:101B7000204B3A68186023689B1A1844206001358E
:101B8000A3E700BF40000100148F0220A0A10020A5
:101B900038020020B8A90020588D0220ACA10020F6
:101BA00058300220A0860100F88E0220108F0220FB
:101BB0000C8F0220280200202C0200205805002053
:101BC000443402204034022065B9010084F201004F
:101BD0003C02002064D00020D01400207CF20100E0
:101BE000B0A90020FC8E0220A130010080F201008B
:101BF00007B9010098A1002016C40100400200208E
:101C00009CA100202DE9F04FB74AB848B84CDFF846
:101C10006C83B84FB84EDFF8409385B0002117F0C1
:101C200021FC4FF4C8720021B44817F01BFC4FF49C
:101C300080620021B24817F015FC4FF47A7200213F
:101C4000B04817F00FFCB04AAB48002117F00AFC6F
:101C5000AE4B00251D60AE4B256028461D606560BB
:101C6000A560C8F8005011F071F9AA4BAA491A688A
:101C7000A148FFF77FFA9F48FFF7D4FAA74B0093DC
:101C8000D9F800309A4A31463846013512F012F838
:101C90000023642D23606360A36007F1280706F129
:101CA0006406EBD19E4F1D46B9469E4BDFF8BCB291
:101CB0009D4E2B443B6011F0BFF93968CBF8000012
:101CC000A0F521730A680068336090420CBFD3F816
:101CD00080300023002AB2463EDDD8F80000824260
:101CE0003ADA1046039311F079F9D9F80020106818
:101CF00011F080F9039B002B2EDD184611F0B6F988
:101D000011F09AF989498A4ACBF80000C1E902200A
:101D1000884AA0F52173D2F800B0D3F88020336050
:101D2000584616F0E3F9336893F85921A2B1824E70
:101D3000824AB26003F52172D3F88000F26016F097
:101D400097FD00227E4B16F017FB16F0FBFD314687
:101D50000246584616F0CAF905F524754FF6B053F9
:101D60009D42A2D1774E00273760774B1B68BB425C
:101D700008DC7648316891FBF3F105B0BDE8F04F1F
:101D800017F092BC724BD3F800B05846FFF7B8F981
:101D9000704B574A1860614B00936F4B6F491B683B
:101DA0006F4811F087FF6F4BFA210546186816F04F
:101DB000BBFA6B4811F05CFA6B4B186011F03CF900
:101DC0006A4B01681860684B1B68D3F88422914203
:101DD0000BD15649564A8A6003F52172CA60D3F87E
:101DE0008020544B186816F081F95F4B1A68604BDD
:101DF00002F1F50103F1240053F804CB41F804CBC0
:101E00008342F9D1012382F859315846FFF778F916
:101E1000584B504A1860126833689B1A1844306057
:101E200055484FF42473013D03FB05054FF0000BAB
:101E3000C9F80050C4F800B0C4F804B0C4F808B041
:101E400011F0FAF8494BD9F800101860A0F521728A
:101E50000B680068CAF8002098420CBFD2F8805086
:101E60005D46002B3EDDD8F8002093423ADA184652
:101E700011F0B4F8D9F80030186811F0BBF8002D53
:101E800030DD284611F0F2F811F0D6F82749284A3B
:101E9000364BC1E90220274A1860D2F800B0A0F5FD
:101EA00021735846D3F88020CAF8003016F01EF986
:101EB000DAF8003093F85921A2B11F4D1F4AAA60E9
:101EC00003F52172D3F88000EA6016F0D1FC0022FD
:101ED0001B4B16F051FA16F035FD294602465846BE
:101EE00016F004F9013740E740000100148F02208A
:101EF000A0A1002058050020B8A90020588D02207C
:101F0000ACA1002058300220A0860100F88E0220EB
:101F10000C8F0220280200202C0200203C0200200E
:101F2000B4A9002028940220ACA90020FC8E022035
:101F3000A130010080F20100E88E0220693A010020
:101F40000000E83F4434022040020020A4B9010010
:101F500084F20100403402203802002064D00020C6
:101F6000D01400207CF201009CA10020B0A9002028
:101F700007B9010098A1002098910220108F02203B
:101F80002DE9F04F564A5748574DDFF8BC81574E60
:101F9000DFF8B89185B0002117F064FA4FF4C872E9
:101FA0000021534817F05EFA4FF480620021514837
:101FB00017F058FA4FF47A7200214F4817F052FA8E
:101FC0004E4A4A48002117F04DFA4D4B00241C6040
:101FD0004C4B2C601C604C4B6C602046AC601C6011
:101FE00010F0B4FF494B4A491A684048FFF7C2F85D
:101FF0004746CDF80090D8F800303B4A4548314676
:10200000013411F057FE0023642C2B606B60AB6031
:1020100006F16406EDD1404B404E4148DFF8308177
:10202000A3F521711E22C1F8802031603D49C8F816
:102030000030C1E902033C4B1D68284616F056F8F3
:10204000336893F85921A2B1384C394AA260D8F8C4
:102050000020D3F88000E26016F00AFC0022354B25
:1020600016F08AF916F06EFC21460246284616F054
:102070003DF8314C3868DFF8DC90DFF8DCA0DFF8A1
:10208000DC800025256017F07BFE0390D9F8003036
:10209000AB4208DC2168294891FBF3F117F004FBFF
:1020A00005B0BDE8F08FDAF800B05846FFF728F821
:1020B000184BC8F8000000933368214A386803A918
:1020C00011F01EFD5846FFF71BF81E4BD8F80020F4
:1020D000186023689B1A184420600135D6E700BFBA
:1020E00040000100148F0220A0A10020B8A9002008
:1020F000588D0220ACA1002058300220A08601009B
:10210000F88E0220108F02200C8F0220280200205F
:102110002C02002000020020488F03209CA10020F8
:10212000A1300100FC8E022080F20100E88E022026
:10213000693A01000000E83F44340220E1B901009F
:10214000F42F022098A10020380200203C02002039
:10215000B4A900204002002084F201004034022093
:102160002DE9F04F7B4A7C487C4D7D4F7D4E85B0FC
:10217000002117F077F94FF4C87200217A4817F060
:1021800071F94FF480620021784817F06BF94FF431
:102190007A720021764817F065F9764A7148002175
:1021A00017F060F9744B00241C60744B2C602046BF
:1021B0006C60AC603C601C6010F0C8FE704B7149F4
:1021C0001A686848FEF7D6FFBA466F4F6F4B009308
:1021D0003B68624A6E483146013411F06BFD0023C2
:1021E000642C2B606B60AB6006F16406EED1694B2A
:1021F000694C6A4D6A4E6B4F3360A3F52171C4E997
:102200000253694B3960D3F800801E22C1F8802048
:102210004046214615F06AFF3B68039593F8592123
:102220009AB1624D624AAA603268D3F88000EA60CF
:1022300016F01EFB00225F4B16F09EF816F082FB94
:1022400029460246404615F051FF5B4FDFF888B142
:1022500000253D60594B1B68AB4209DC564A584883
:10226000116891FBF3F105B0BDE8F04F17F01CBA0F
:10227000DBF8003002931846FEF742FF514B18601E
:1022800010F0DAFE504B31681860504BA0F5217207
:102290001A6000680B6898420CBFD2F880904FF02B
:1022A0000009002B40DDDAF8002093423CDA1846A2
:1022B00010F094FE3368186810F09CFEB9F1000F1E
:1022C00032DD484610F0D2FE10F0B6FE3E4B039AC7
:1022D0001860A0F52173DFF8F4902F49C9F8003099
:1022E000C4E90220D3F88020404615F0FFFED9F85B
:1022F000003093F85921BAB1DFF8B0902C4AC9F8F0
:10230000082003F52172D3F88000C9F80C2016F0DC
:10231000AFFA0022274B16F02FF816F013FB4946B0
:102320000246404615F0E2FE0298FEF7E9FE284B11
:10233000244A186012683B6826499B1A1844134BBC
:1023400038600093104B054A1B68114811F0B2FC2D
:1023500001357FE740000100148F0220A0A100207A
:10236000108F0220B8A90020588D0220ACA10020B7
:1023700058300220A0860100F88E02200C8F022027
:10238000280200202C020020380200203C020020FD
:1023900000020020488F0320FC8E0220A1300100A3
:1023A000B4A900209CA1002080F20100E88E022048
:1023B000693A01000000E83F443402204002002056
:1023C0001EBA010040340220B0A90020ACA90020B0
:1023D00098A1002064D0002084F201002DE9F04F84
:1023E000604A6148614C624EDFF8AC81614FDFF8B2
:1023F000D091DFF8D0A18BB0002117F033F84FF463
:10240000C87200215C4817F02DF84FF4806200215B
:102410005A4817F027F84FF47A720021584817F0FD
:1024200021F8584A5348002117F01CF8564B002554
:102430001D60564B256028466560A5601D603560AF
:1024400010F084FD524B53491A684A48FEF792FE39
:102450005148FEF7E7FEA346CDF800A0D9F80030BA
:10246000394640465A46013511F024FC0023642DBC
:1024700023606360A36008F1280807F16407EBD1CB
:10248000464B06AA03F10805174618685968144612
:1024900003C40833AB422246F7D118689B882060FA
:1024A000A3803F4CDFF820A1DFF8208100252560C4
:1024B000DAF80030AB4208DC21683A4891FBF3F1CE
:1024C00017F0F2F80BB0BDE8F08F374BD3F800905F
:1024D0004846FEF715FE4FF48062C8F80000002160
:1024E000264816F0BFFF002125484FF47A7216F0F7
:1024F000B9FF2E49384617F0A9FE30B32C4A03A97C
:10250000384611F001F803A810F0EEFF336883425B
:102510001BDB002819DD274BDFF8B4B018494FF456
:102520002472013802FB0030234B1860A0F52173A0
:10253000CBF800306FF4C773184411F0ABF8DBF838
:1025400000300E4A0E4911F075F84846FEF7D8FDE6
:102550001A4BD8F80020186023689B1A1844206092
:102560000135A5E740000100148F0220A0A1002042
:10257000108F0220B8A90020588D0220ACA10020A5
:1025800058300220A0860100F88E02200C8F022015
:10259000280200202C02002058050020A4BA0100C7
:1025A0004434022066BA010084F201005BBA0100E3
:1025B00060BA010098910220B4A9002098A10020DF
:1025C000380200203C02002040020020403402205B
:1025D0009CA100202DE9F04F584A5948594CDFF88A
:1025E0009081594FDFF8C0A1DFF8C0B1A3B000213E
:1025F00016F038FF4FF4C8720021544816F032FF2D
:102600004FF480620021524816F02CFF4FF47A728A
:102610000021504816F026FF4F4A4B48002116F083
:1026200021FF4E4B00251D604D4B25601D604D4B1D
:1026300065602846A5601D6010F088FC4A4B4B4938
:102640001A684148FEF796FD4948FEF7EBFDA146A2
:1026500039464046DAF80030CDF800B04A46013538
:1026600011F028FB0026642D26606660A66008F144
:10267000280807F16407EBD13E4B3F4C1C603F4BF1
:102680003F4F404DA4F521721A603F4B18681290DD
:102690001B798DF84C303B2231460DF14D0016F080
:1026A000E1FEA4F5117112A8384C17F001F9384970
:1026B00012A817F0FDF826603B68B34208DC2168D9
:1026C000344891FBF3F116F0EFFF23B0BDE8F08F33
:1026D000314BD3F800904846FEF712FD4FF480626C
:1026E000286000211A4816F0BDFE002119484FF459
:1026F0007A7216F0B7FE294912A817F0A7FD88B123
:10270000274A02A912A810F0FFFE02A810F0B0FD9F
:1027100010498046F53010F0BDFF0D4A0D49434683
:1027200010F088FF4846FEF7EBFC1E4B2A68186045
:1027300023689B1A184420600136BDE74000010061
:10274000148F0220A0A10020B8A90020588D0220DB
:10275000ACA1002058300220A0860100F88E022093
:10276000108F02200C8F0220280200202C02002053
:1027700058050020B4A90020488F03209CA1002008
:1027800040020020403402202BBD010044340220CE
:102790000ED50100B2BA010084F201007BC801002D
:1027A0002FB8010098A10020380200203C02002030
:1027B0002DE9F04F584A5948594CDFF89081594F4C
:1027C000DFF8B4A1DFF8B4B1A9B0002116F04AFED9
:1027D0004FF4C8720021544816F044FE4FF4806252
:1027E0000021524816F03EFE4FF47A720021504804
:1027F00016F038FE4F4A4B48002116F033FE4E4B80
:1028000000251D604D4B25601D604D4B65602846C1
:10281000A5601D6010F09AFB4A4B4B491A6841486D
:10282000FEF7A8FC4948FEF7FDFCA146CDF800B034
:1028300039464046DAF800304A46013511F03AFA96
:102840000026642D26606660A66008F1280807F15E
:102850006407EBD13E4B3F4D18689A8808909B79EE
:10286000ADF82420314639220DF127008DF82630AD
:1028700016F0F8FD3849DFF80881384F08A817F03E
:1028800017F8374908A817F013F82E60D8F8003069
:10289000B34208DC2968334891FBF3F116F004FFDA
:1028A00029B0BDE8F08F304BDFF884A0D3F800905A
:1028B0004846FEF725FC002438604FF4806221462C
:1028C0001A48079416F0CEFD21464FF47A7250460E
:1028D00016F0C8FD254908A817F0B8FC80B1244AB5
:1028E00018A908A810F010FE07ABCDE903A3CDE9A5
:1028F00001440E4900942346224618A810F0F8FE21
:102900004846FEF7FDFB1B4B3A6818602B689B1A84
:10291000184428600136B9E740000100148F0220F6
:10292000A0A10020B8A90020588D0220ACA1002051
:1029300058300220A0860100F88E0220108F02205D
:102940000C8F0220280200202C02002058050020B5
:102950006BBD010044340220D0140020403402201A
:102960000ED50100FEBA010084F20100F3BA0100A5
:10297000F8BA010098A10020380200203C02002093
:10298000400200202DE9F04F5D4A5E485E4C5F4FEB
:102990005F4EDFF8C091DFF8C0A1A5B0002116F0AE
:1029A00061FD4FF4C87200215A4816F05BFD4FF4E8
:1029B00080620021584816F055FD4FF47A720021CC
:1029C000564816F04FFD564A5148002116F04AFD70
:1029D000544B00251D60544B25601D60534B6560B2
:1029E0002846A5601D6010F0B1FA514B51491A6894
:1029F0004748FEF7BFFB4548FEF714FCA046CDF85C
:102A000000A0D9F80030314638464246013511F071
:102A100051F90023642D23606360A36007F1280748
:102A200006F16406EBD1444B14AA03F118051746CE
:102A300018685968144603C40833AB422246F7D1DC
:102A400018683E4D9B882060A380222200210DF152
:102A50006E000026DFF80491DFF8048116F002FD15
:102A60002E60D9F80030B34208DC2968344891FB65
:102A7000F3F116F019FE25B0BDE8F08F314BDFF809
:102A80009CB0D3F800A05046FEF73AFB0024C8F8EB
:102A900000004FF4806221461F48069416F0E2FCC5
:102AA00021464FF47A72584616F0DCFC2649384627
:102AB00017F0CCFBB0B12E22214608A8079416F0DF
:102AC000D1FC224A07A9384610F01EFD06ABCDE91D
:102AD00003B3CDE90144104900942346224607A8D8
:102AE00010F006FE5046FEF70BFB194BD8F80020FD
:102AF00018602B689B1A184428600136B1E700BFA4
:102B000040000100148F0220A0A1002058050020E1
:102B1000B8A90020588D0220ACA100205830022016
:102B2000A0860100F88E0220108F02200C8F022058
:102B3000280200202C020020ABBD010044340220FA
:102B400044BB010084F201003EEE010040BB0100E5
:102B500098A10020380200203C0200204002002002
:102B6000403402202DE9F047494A4A484A4C4B4F2D
:102B70004B4EDFF86491DFF864A188B0002116F0B5
:102B800071FC4FF4C8720021464816F06BFC4FF4FC
:102B900080620021444816F065FC4FF47A720021EF
:102BA000424816F05FFC424A3D48002116F05AFCAC
:102BB000404B00251D60404B25601D603F4B65600C
:102BC0002846A5601D6010F0C1F93D4B3D491A68CB
:102BD0003348FEF7CFFA3148FEF724FBA046CDF884
:102BE00000A0D9F80030314638464246013511F090
:102BF00061F80023642D23606360A36007F1280758
:102C000006F16406EBD1304DDFF8D480DFF8D490C4
:102C10002E4F8DF818302B601E46D8F80030B34286
:102C200008DC29682A4891FBF3F116F03DFD08B055
:102C3000BDE8F087D9F800A05046FEF761FA0024FD
:102C400038604FF4806221461748079416F00AFC5A
:102C5000164B4FF47A722146184616F003FC07AA69
:102C6000CDE90302234622460F49009406A8CDE988
:102C7000014410F0A3FD5046FEF742FA154B3A68A6
:102C800018602B689B1A184428600136C5E700BFFE
:102C900040000100148F0220A0A100205805002050
:102CA000B8A90020588D0220ACA100205830022085
:102CB000A0860100F88E0220108F02200C8F0220C7
:102CC000280200202C02002044340220403402203C
:102CD00085BB010098A10020380200203C020020A2
:102CE0004002002084F201002DE9F04F5D4A5E4869
:102CF0005E4C5F4EDFF8A0815E4FDFF8E091DFF8B9
:102D0000E0A18DB0002116F0ADFB4FF4C872002198
:102D1000594816F0A7FB4FF480620021574816F07F
:102D2000A1FB4FF47A720021554816F09BFB554ADF
:102D30005048002116F096FB534B00251D60534B65
:102D4000256028466560A5601D60356010F0FEF8BE
:102D50004F4B50491A684748FEF70CFA4E48FEF7A9
:102D600061FAA346CDF800A0D9F8003039464046B4
:102D70005A46013510F09EFF0023642D23606360E6
:102D8000A36008F1280807F16407EBD1434B08AAB8
:102D900003F10805174618685968144603C4083338
:102DA000AB422246F7D118689B882060A3803C4C38
:102DB000DFF830A1DFF8308100252560DAF8003037
:102DC000AB4208DC2168374891FBF3F116F06CFC4C
:102DD0000DB0BDE8F08F344BD3F800904846FEF7B5
:102DE0008FF90021C8F800004FF480622F4816F0D8
:102DF00039FB2F49384617F029FA30B32D4A05A977
:102E0000384610F081FB05A810F06EFB3368834252
:102E10001BDB002819DD284B28494FF424720138A8
:102E200002FB0030264B274A1860A0F52173A0F55D
:102E300000701360CDE90230234B0193234B0093C4
:102E4000234A244B194810F0ADFB4846FEF758F9C9
:102E5000214BD8F80020186023689B1A1844206082
:102E60000135ABE740000100148F0220A0A1002033
:102E7000108F0220B8A90020588D0220ACA100209C
:102E800058300220A0860100F88E02200C8F02200C
:102E9000280200202C02002058050020A4BA0100BE
:102EA00044340220D2BB010084F20100ACA5002012
:102EB0005BBA010060BA010098910220C0BB01001A
:102EC000B4A900209CA10020C2BB0100C9BB010025
:102ED000BDBB0100B8BB010098A100203802002052
:102EE0003C02002040020020403402202DE9F04F37
:102EF000574A5848584CDFF88C81584FDFF8D0A11A
:102F0000DFF8D0B1A5B0002116F0ACFA4FF4C872CA
:102F10000021534816F0A6FA4FF480620021514870
:102F200016F0A0FA4FF47A7200214F4816F09AFA80
:102F30004E4A4A48002116F095FA4D4B00251D6077
:102F40004C4B25601D604C4B65602846A5601D609C
:102F50000FF0FCFF494B4A491A684048FEF70AF94E
:102F60004848FEF75FF9A14639464046DAF8003096
:102F7000CDF800B04A46013510F09CFE0026642DC5
:102F800026606660A66008F1280807F16407EBD1A7
:102F90003D4B3E4C1C603E4B3E4F3F4DA4F52172D5
:102FA0001A603E4B186814901B798DF854303B2200
:102FB00031460DF1550016F055FAA4F5117114A81B
:102FC000374C16F075FC374914A816F071FC2660D2
:102FD0003B68B34208DC2168334891FBF3F116F0FB
:102FE00063FB25B0BDE8F08F304BD3F8008040463E
:102FF000FEF786F8002128604FF48062194816F029
:1030000031FA2B4914A817F021F9A8B1294A04A9CB
:1030100014A810F079FA04A810F02AF900F184033A
:10302000CDE90203244B0193244B0093244A254B02
:1030300025490C4810F0B6FA4046FEF761F8234BDC
:103040002A68186023689B1A184420600136BFE77D
:1030500040000100148F0220A0A10020B8A9002088
:10306000588D0220ACA1002058300220A08601001B
:10307000F88E0220108F02200C8F022028020020E0
:103080002C02002058050020B4A90020488F0320FE
:103090009CA1002040020020403402202BBD0100F2
:1030A000443402200ED501000ABC010084F2010064
:1030B0007BC801002FB80100C2BB0100C9BB0100E1
:1030C000BDBB0100B8BB0100C0BB010098A100203E
:1030D000380200203C0200202DE9F04F514A5248AE
:1030E000524CDFF87481524FDFF8B0A1DFF8B0B175
:1030F000A7B0002116F0B6F94FF4C87200214D4870
:1031000016F0B0F94FF4806200214B4816F0AAF98E
:103110004FF47A720021494816F0A4F9484A44480D
:10312000002116F09FF9474B00251D60464B256096
:103130001D60464B65602846A5601D600FF006FFC8
:10314000434B44491A683A48FEF714F84248FEF7E0
:1031500069F8A14639464046DAF80030CDF800B0AB
:103160004A46013510F0A6FD0026642D26606660F3
:10317000A66008F1280807F16407EBD1374A384CFC
:1031800010685168374F384D06AB03C338223146BB
:1031900008A816F067F9354906A816F089FB3449E6
:1031A00006A816F085FB26603B68B34208DC216860
:1031B000304891FBF3F116F077FA27B0BDE8F08FB5
:1031C0002D4BD3F800804046FDF79AFF0021286080
:1031D0004FF48062184816F045F9284906A817F000
:1031E00035F898B1264A16A906A810F08DF90023E3
:1031F000CDE90333234B0293234B0193234B0093DD
:10320000234A244B0C4916A810F072FA4046FDF7E9
:1032100077FF214B2A68186023689B1A18442060A6
:103220000136C1E740000100148F0220A0A1002058
:10323000B8A90020588D0220ACA1002058300220EF
:10324000A0860100F88E0220108F02200C8F022031
:10325000280200202C02002058050020EBBD0100B0
:10326000443402204002002040340220D0140020C8
:103270000ED5010042BC010084F20100F3BA010046
:10328000F8BA0100C2BB0100C9BB0100B8BB010014
:10329000C0BB0100BDBB010098A100203802002086
:1032A0003C0200202DE9F047564A5748574C584FEA
:1032B000584EDFF8BC91DFF8BCA19CB0002116F09D
:1032C000D1F84FF4C8720021534816F0CBF84FF4F0
:1032D00080620021514816F0C5F84FF47A7200213F
:1032E0004F4816F0BFF84F4A4A48002116F0BAF886
:1032F0004D4B00251D604D4B25601D604C4B65609E
:103300002846A5601D600FF021FE4A4B4A491A6805
:103310004048FDF72FFF3E48FDF784FFA046CDF85B
:1033200000A0D9F80030314638464246013510F049
:10333000C1FC0023642D23606360A36007F12807AC
:1033400006F16406EBD13D4B07AA03F118051646BA
:1033500018685968144603C40833AB422246F7D1B3
:1033600018689B882060A380354CDFF80C81354FAE
:1033700000252560D8F80030AB4208DC21683248CF
:1033800091FBF3F116F090F91CB0BDE8F0872F4BDC
:10339000D3F800A05046FDF7B3FE002138604FF48B
:1033A00080621E4816F05EF82949304616F04EFF3E
:1033B000D8B14FF000092E22494610A8CDF83C9014
:1033C00016F050F8234A0FA9304610F09DF8224B12
:1033D0000293224B0193224B0093CDE90399214B99
:1033E000214A0E490FA810F083F95046FDF788FED8
:1033F0001E4B3A68186023689B1A184420600135F8
:10340000B8E700BF40000100148F0220A0A10020F7
:1034100058050020B8A90020588D0220ACA100203A
:1034200058300220A0860100F88E0220108F022062
:103430000C8F0220280200202C020020F9BC010081
:10344000443402204034022074BC010084F20100A4
:103450003EEE010040BB0100C2BB0100C9BB010040
:10346000B8BB0100BDBB0100C0BB010098A100209A
:10347000380200203C020020400200202DE9F047E5
:10348000454A4648464C474F474EDFF86C91DFF8B7
:103490006CA188B0002115F0E5FF4FF4C87200213F
:1034A000424815F0DFFF4FF480620021404815F0DC
:1034B000D9FF4FF47A7200213E4815F0D3FF3E4AFF
:1034C0003948002115F0CEFF3C4B00251D603C4BD8
:1034D00025601D603B4B65602846A5601D600FF0B0
:1034E00035FD394B39491A682F48FDF743FE2D4801
:1034F000FDF798FEA046CDF800A0D9F8003031467F
:1035000038464246013510F0D5FB0023642D236078
:103510006360A36007F1280706F16406EBD12C4C29
:103520002C4FDFF8DC802C4E8DF81C3023601D46BC
:103530003B68AB4208DC2168284891FBF3F116F0A8
:10354000B3F808B0BDE8F087D8F800904846FDF71A
:10355000D7FD4FF4806230600021154815F082FFDE
:103560000023CDE903331E4B02931E4B01931E4BE8
:103570001E4A0F49009307A81D4B10F01FF948463B
:10358000FDF7BEFD1B4B3268186023689B1A184478
:1035900020600135CCE700BF40000100148F0220FD
:1035A000A0A1002058050020B8A90020588D0220B5
:1035B000ACA1002058300220A0860100F88E022025
:1035C000108F02200C8F0220280200202C020020E5
:1035D000443402204002002040340220ACBC0100F0
:1035E000C2BB0100C9BB0100B8BB0100C0BB0100E8
:1035F000BDBB010098A10020380200203C02002041
:1036000084F2010008B5154B0121186814F08CFEF6
:10361000FDF714FEFDF7C8FEFDF76CFFFEF7F6F8A8
:10362000FEF7F6F9FEF7EEFAFEF7AAFCFEF798FDB4
:10363000FEF7D4FEFEF7CEFFFFF7BAF8FFF7A2F9C8
:10364000FFF790FAFFF750FBFFF750FCFFF744FD40
:10365000FFF728FEFFF712FF002008BD80F20100EF
:1036600070B5064E064CA41BA4080025AC4200D140
:1036700070BD56F8253098470135F7E7D0F40100C2
:1036800000F5010013B500200EF094FF084C014630
:10369000204613F0C7FC204614F0E2FB054B064819
:1036A000009401224FF4806113F0C8FC02B010BDF9
:1036B000483802202BBE0100483402204FF08043DE
:1036C0005722C3F81C25BFF34F8F0549054BCA6825
:1036D00002F4E0621343CB60BFF34F8F00BFFDE7FE
:1036E00000ED00E00400FA05704700002DE9F74303
:1036F00004460E461746EFF3108872B60568C5B942
:10370000DFF88C90051DD4E90331A2689A1A8A4229
:1037100022DC1E4A12883280581C6269E0600B402D
:1037200096E8030002EBC30383E8030088F31088E4
:1037300010E055F80C390360D1E900012B6983E8EA
:10374000030028460C2100F0CDFA687988F3108830
:1037500000F006FB012715E097B1D9F800000190B1
:10376000092100F0BFFA01980146284600F056FBF7
:1037700088F3108800F032FBEFF3108872B6C2E7CE
:1037800088F31088384603B0BDE8F083FC39022086
:10379000003A022070B50B4604461046EFF310863F
:1037A00072B6D4E902128A4219D0481CA06020697E
:1037B0006269014002EBC10103C983E80300656847
:1037C0000DB355F80C39636028460C2100F08AFAD5
:1037D000687986F3108800F0C3FA012012E078B10E
:1037E0000A4A156809212B61284600F07BFA294610
:1037F000204600F013FB86F3108800F0EFFAECE7A8
:1038000086F3108870BD86F31088E6E7003A022040
:1038100070B50446EFF3108672B6314B1A68536ADE
:10382000002B56D0D2E90630984252D0581C9061F5
:10383000106A034039B9516929B9591C03D186F37B
:103840001088184670BD002B47DB516A01EBC3019D
:1038500003C984E8030055695DB355F80C1951613B
:10386000002B0DDBD2E907349169506A591A8C425A
:10387000A9BF591C4FF0FF332340D16100EBC304B3
:103880002B6993E8030084E803002B79062B02D10F
:1038900086F310881BE0002328462B610C2100F0E2
:1038A00021FA687986F310880E2810D800F058FAAB
:1038B0000DE0002BECDA0421104600F013FA86F339
:1038C0001088084B4FF080525A60BFF36F8F01236E
:1038D000B7E74FF0FF330029ADD01461BBE700BF5D
:1038E000003A022000ED00E00346D0E9072010B5C1
:1038F0009C69141BA04201DA002010BD541C024038
:10390000DC61F9D4586A00EBC20203C982E8030003
:103910001A896FEA42426FEA52421A81184600F051
:1039200021FB0120E9E7000008B50E4B53F82130D8
:10393000A3B11A79042A0BD103C81A6982E80300DB
:1039400018460C2100F0CEF9074B0120186008BD85
:1039500001461846BDE80840FFF7C6BF4FF0FF30EC
:10396000F5E700BF4C3A0220043A02202DE9F0416D
:103970001D46294B53F82140284B1B8803800646DF
:1039800090462CB985F310884FF0FF30BDE8F081E8
:103990002379042B36D0224B014620461F68FFF7BF
:1039A000A3FF78B185F310883B79062B02D01D4B1D
:1039B0001B682BB11C4B4FF080525A60BFF36F8FC6
:1039C0000120E3E7B8F1000F02D185F31088DDE7AD
:1039D0003B793E61062B0CBF06210521384600F0DD
:1039E00081F904F11400394600F018FA23896FEACE
:1039F00043436FEA53432381204600F0B3FA85F333
:103A00001088D7E7D0E90001236983E803000C217F
:103A1000204600F067F9F2E74C3A0220FC39022018
:103A2000003A0220043A022000ED00E010B5014601
:103A3000EFF3108472B6054B1B880380044B1868A3
:103A4000FFF752FF84F3108810BD00BFFC3902203D
:103A5000003A022021230380FFF766BFEFF30583BE
:103A600013F0FF0F01D0FFF7F5BF064B1B881BB209
:103A7000994201D1FFF7DABFEFF3108372B601224A
:103A8000FFF774BFFC39022010B4EFF3058212F087
:103A9000FF0203D05DF8044BFFF7DCBF074B1B8828
:103AA0001BB2994203D15DF8044BFFF7BFBFEFF3A0
:103AB000108372B65DF8044BFFF758BFFC39022043
:103AC000F7B505460C461646EFF31083019372B620
:103AD000094A17680621384600F004F995E8030002
:103AE000019B3C61012284E803003146204603B07B
:103AF000BDE8F040FFF73ABF003A022038B5EFF3D7
:103B0000108572B60D4BB0F9002053F8224023798E
:103B1000062B04D085F310884FF0FF3038BD03C961
:103B2000236983E8030020460C2100F0DBF860796C
:103B300085F3108800F014F90120EFE74C3A0220D9
:103B40000021FFF765BE0121FFF762BE034B1B6832
:103B5000586A10B1D3E90630C01A7047003A022003
:103B6000044B1B6800220139C3E90622586219621E
:103B7000704700BF003A0220F8B504460D46EFF347
:103B8000108772B603683BB94FF0FF33036087F3C9
:103B9000108801252846F8BD11B987F31088F9E788
:103BA0000D4B1E680321304600F09CF8236801335A
:103BB0000DD106F10C0323600023F36087F3108816
:103BC000064B4FF080525A60BFF36F8FE2E73146E9
:103BD000204600F023F9F1E7003A022000ED00E072
:103BE00038B50446EFF3108572B6006810B985F356
:103BF000108838BD431C02D100232360F7E750F83A
:103C00000C3923600C2100F06DF8236813B94FF0D4
:103C1000FF33236085F31088034B4FF080525A60C6
:103C2000BFF36F8FE5E700BF00ED00E0026810B55D
:103C300092B113688B4208D18A4202D100230360FB
:103C400001E00B681360084610BD13461B681C6832
:103C5000A14203D09A42F9D10021F4E72BB10A68BE
:103C60001A6002688A42EED1E9E71946EBE70000E4
:103C700070B5174D174E2A68346832BB24B12379CA
:103C80000B2B04BF0C23237100F0E0FA2B68002BF0
:103C9000FAD00023104A002111602A680F49B2FAB5
:103CA00082F251F8222010680C380B2284420271F3
:103CB0000AD023B11A790B2A04BF0C221A71084BBF
:103CC000B0F906201A80306070BD2346E2E700BFDD
:103CD000F8390220003A0220043A02200C3A02206D
:103CE000FC390220F8B50A29037904460D461AD991
:103CF0000A2B14D84779184A52F8276039460C30F5
:103D00007EB13368E36052F82730186042F8210032
:103D1000124A4FF000431168FB400B4313602571BA
:103D2000F8BDE060F2E70A2BF9D90B4E407904F1B7
:103D30000C0106EB8000FFF779FF627956F822301C
:103D4000002BECD105494FF0004323FA02F20B6837
:103D500023EA02030B60E2E70C3A0220F839022062
:103D60000B4B1B681A790A2A02D95B7983420ED958
:103D7000EFF3058313F0FF0F03D0064B01221A6007
:103D80007047054B4FF080525A60BFF36F8F7047FA
:103D9000003A0220043A022000ED00E008B5EFF3FB
:103DA000108372B6094B0A4A1B880A4D1BB20024C5
:103DB00042F82340084A286813682146013B1360F3
:103DC000FFF790FF2C6000F0FDF900BFFC390220E6
:103DD0004C3A0220003A0220083A0220EFF3108009
:103DE00072B60B4B1B681A790A2A07D95A79094B04
:103DF00053F8221011B1096843F8221080F310889B
:103E0000054B4FF080525A60BFF36F8F704700BF71
:103E1000003A02200C3A022000ED00E030B54C7967
:103E200001F10C020346006818B110F8075CA542C6
:103E3000F8D9C8601A6030BD0F2A2DE9F84316463C
:103E40001F4626D810F003031EBF0439C918C3F15A
:103E50000402A1F1280118BF801821F00303C4183F
:103E6000EFF3108972B62149012251F822500FFA5E
:103E700082F88DB10132212AF7D189F310886FF0D1
:103E80008A082FE002212046FFF72CFF89F31088D3
:103E900028E06FF0150825E041F822400246A4F81A
:103EA0000680DDE9080100F059F9114A20604FF061
:103EB000FF33C4E908351368667101331360FB07EB
:103EC000C4E90355C4E905552571E561DAD40C212F
:103ED0002046FFF707FF7A07D8D489F310883046C9
:103EE000FFF73EFF4046BDE8F88300BF4C3A022092
:103EF000083A0220034B53F82000034B002808BF68
:103F0000184670479CBE010031BE01000C4B10B535
:103F10001B68EFF3108472B61A8910420DD1186134
:103F200007211846FFF7DEFE84F31088054B4FF09B
:103F300080525A60BFF36F8F10BD84F31088FBE787
:103F4000003A022000ED00E010B50346EFF31084C4
:103F500072B6028802EA010022EA0101198084F3A4
:103F6000108810BD10B50379048A072B04D0082BE4
:103F70000DD00024204610BD03891C40002CF9D030
:103F80000C21FFF7AFFE054B01221A60F2E703890F
:103F900034EA03030CBF01240024EFE7043A0220B3
:103FA00013B5064B01901C68FFF7B0FF019904F1AF
:103FB000080002B0BDE81040FFF7C6BF003A02207B
:103FC00010B5EFF3108472B6038902791943072AFA
:103FD000038A018104D0082A14D084F3108810E0E9
:103FE00019400029F9D00C21FFF77CFE084B012273
:103FF0001A6084F31088074B4FF080525A60BFF369
:104000006F8F10BD8B430CBF01210021E9E700BF7A
:10401000043A022000ED00E008B5FFF721FB034859
:1040200015F0F6FBFFF7EEFA002008BDD0BE010048
:104030001FB5EFF3108372B6074B02930023019371
:10404000064B0093072204234FF4C0610448FFF796
:10405000F3FE00F0B7F800BF0ABF010019400000EE
:10406000D03A022008B50EF02BFFBDE8084013F04F
:104070000BBF704708B50B4B1A680C4652B90122AA
:104080001A60FFF7F6FF0848214615F00DFB0748B8
:1040900015F0BEFBEFF3108372B600F05DF800F090
:1040A00049F900BFD04002200FBF01002BBF010023
:1040B00070B50D4600210446FFF75EFD0D4E70B948
:1040C000BFF35B8FE388BFF35B8F32881BB212B202
:1040D0009A4204D06DB901212046FFF74DFD338887
:1040E000BFF35B8FE380BFF35B8FA3880133A380B3
:1040F000012070BDFC3902200021FFF7D9BF838861
:10410000013B9BB2838033B9BFF35B8FC380BFF3A6
:104110005B8FFFF765BD70470C4B0D4A10B5402112
:104120009A600C4CE02283F82220D9770022A01854
:104130000132302A80F80013F9D11A6942F01002D6
:104140001A615A6942F400725A6110BD00ED00E034
:104150000010000000E100E070470000134423F06D
:1041600003034FF0773210B543F8042C5A0758BFB9
:104170004FF08832A3F104045CBF43F8082CA3F18C
:1041800008044FF0807344E902030D4B44F80C3CE3
:104190000022032344E9053202200123224644E998
:1041A00007306FF0020344F8201C42F8243D0B2333
:1041B00042F8043D013B032BFAD1A4F1440010BDA9
:1041C0009D3D00000023E1EE103AEFF3148323F04D
:1041D000040383F31488BFF36F8FEFF3108362B689
:1041E000024B4FF080525A60BFF36F8F00ED00E03A
:1041F000114910B50C6872B6FFF73AFD62B6A042DD
:1042000008BF10BD2146BDE8104049B1EFF3098257
:104210001EF0100F08BF22ED108A22E9F04F0A604D
:104220000068B0E8F04F1EF0100F08BFB0EC108A25
:1042300080F3098870470000003A0220024B4FF0DB
:1042400080525A60704700BF00ED00E030BF62B698
:10425000BFF36F8F72B6704708B502490620FFF7AB
:1042600009FF00BF3DBF010008B502490720FFF765
:1042700001FF00BF49BF010008B502490520FFF753
:10428000F9FE00BF5CBF010008B502490820FFF736
:10429000F1FE00BF6FBF010008B502490920FFF71A
:1042A000E9FE00BF81BF010008B502490A20FFF7FF
:1042B000E1FE00BF95BF010008B502490B20FFF7E2
:1042C000D9FE00BFA7BF010070477047134A08B569
:1042D000D2F8883043F47003C2F88830FFF7F4FF57
:1042E0000F4B104A10498B4210D3104B104A00213B
:1042F000934210D3FFF7E9FF00F04EF8FFF7F4F90F
:1043000014F0FAFEBDE80840FFF792BE52F8040B25
:1043100043F8040BE7E743F8041BE9E700ED00E08E
:104320000002002034F5010054050020580500204B
:104330001C930320BFF34F8F0549064BCA6802F454
:10434000E0621343CB60BFF34F8F00BFFDE700BFB8
:1043500000ED00E00400FA050C4B1B78062B12D18F
:104360000B4B186810F00F000DD104331B6803F0DD
:10437000F003302B08D1074B1B6813F0F00F0CBF74
:104380000120002070470020704700BFE00F00F0C0
:10439000E40F00F0EC0F00F008B5FFF7DDFF20B1EF
:1043A000114AD36823F08073D360FFF7D5FF10B1B3
:1043B0000E4B03221A60FFF7CFFF30B14FF080435E
:1043C0000022C3F80C21C3F8102100F059F8084B63
:1043D0000122C3F84025FFF79FFEFFF743FEBDE82B
:1043E00008400EF063BD00BFF0ED00E0A005004006
:1043F00000E00140044B1B682BB1044B4FF080528E
:104400005A60BFF36F8F7047043A022000ED00E05E
:1044100008B5044A044B10681B689847BDE808407B
:10442000FFF7E8BFE4400220D440022008B5044A68
:10443000044B50685B689847BDE80840FFF7DABF57
:10444000E4400220D440022008B5044A044B90689E
:104450009B689847BDE80840FFF7CCBFE4400220C6
:10446000D440022008B5044A044BD068DB68984762
:10447000BDE80840FFF7BEBFE4400220D440022060
:1044800070470000EFF3108172B6094B1A680132D1
:10449000012A1A6009D14FF080430020C3F80001BF
:1044A0001A60D3F80021002AFBD081F310887047EE
:1044B000F4400220EFF3108172B6064A1368013B04
:1044C00013601BB94FF0804301225A6081F31088BA
:1044D000704700BFF4400220114A117838B5F1B995
:1044E0004FF080431C46C3F81815C3F8041101218E
:1044F0009960D4F80431002BFBD001251570FFF72B
:10450000C1FF0023C4F80C314FF080422561D2F87E
:104510000C31002BFBD0BDE83840FFF7CBBF38BDD6
:10452000F84002200CF015BBD0E90230184700001B
:1045300070B50E46154600211022044614F092FF75
:10454000024BE560C4E9013670BD00BF294500009B
:10455000036802463BB11868834219BF02681A60BB
:1045600000231360704718467047EFF3108272B64D
:104570000B6833B903685BB11B680B600368196093
:104580000160406882F3108820B10121FFF718BD57
:104590000960F5E7704708B5EFF3108172B6FFF7D1
:1045A000D7FF81F3108808B10023036008BD70B500
:1045B00005460E46EFF3108172B60024B44207D1CF
:1045C000002081F3108858B90120FFF7E9FCF1E7DA
:1045D00005EBC400FFF7BCFF0028F2D10134EDE782
:1045E0000023036070BDD0E90501FFF7BEBF0000E6
:1045F00001600349C0E90523C0E90310704700BF0B
:10460000E74500000A4619B9D0E90501FFF7ADBF3B
:10461000011D006813F06ABD0146006810B1043145
:1046200013F048BD7047000038B58569044685B170
:104630000A4B1868436901330CD013F002FD23695B
:104640006A68C11A8A4226BF9B181B1A00236B6036
:10465000206138BD83685B689847F0E77CF2010011
:104660008369084A10B5044610682BB15A68214680
:1046700013F03CFD206110BD2146BDE8104013F051
:1046800019BD00BF7CF201008369002210B5044609
:104690005A60A06930B1436823B90368A3616369B4
:1046A0009847F6E72046BDE81040FFF7D9BF000065
:1046B00070B505460C46EFF3108672B6FFF7B4FFEF
:1046C00005F118031A68EAB922601A681AB151682C
:1046D0006068091A51601C60AB69A34206D10D4B9A
:1046E00062681868294613F001FD286186F3108876
:1046F000094B1B682BB1094B4FF080525A60BFF336
:104700006F8F70BD616850688142DDD3091A6160A6
:104710001346D7E77CF20100043A022000ED00E0E6
:1047200070B504460D46EFF3108672B6FFF77CFFB6
:10473000A26904F118012AB92046FFF791FF86F318
:10474000108870BD9542136802D011461A46F2E7F0
:104750000B60002BF0D05A6869680A445A60EBE796
:10476000034B4161C0E9023000238361704700BF01
:104770008946000058B1037843B1013810F8013F71
:104780000BB901207047303B092BF7D90020704747
:1047900038B1054B0A0901F00F019A5C5B5C0270AD
:1047A00043700220704700BFB5BF0100F8B50D4649
:1047B0005700064610B18C18A54201D13846F8BD05
:1047C000304615F8011BFFF7E3FF0644F4E7F8B5A0
:1047D0000E465700054610B18C18B44201D1384638
:1047E000F8BD284614F8011DFFF7D2FF0544F4E791
:1047F00003461A46013311780029FAD1101A70477E
:1048000007B5042201910DEB0201FFF7E0FF03B0B1
:104810005DF804FB0E4B994230B517D80A230122EC
:104820001C468B420FD960B183180A25B1FBF5F401
:1048300005FB1410303003F8010D08460928214605
:10484000F4D8104630BD63430132EAE70A22EAE7B2
:10485000FFC99A3BFFF7DEBF13B5074B01911B68F9
:104860000446986814F0DEFA0199204602B0BDE8CB
:10487000104013F00BBB00BFEC04002007B501464D
:1048800001A8FFF785FF022101A8FFF7E5FF03B0AC
:104890005DF804FB07B501466846FFF7B1FF082144
:1048A0006846FFF7D9FF03B05DF804FB10B5044676
:1048B000FFF79EFF01462046BDE81040FFF7CCBF42
:1048C00090B1D9B1002340EA0102D2070ED5C20748
:1048D00010D5CA0710D581423EBF02460846114690
:1048E000091AF6D100FA03F1084670474008490852
:1048F0000133E8E74008EAE74908EAE70146F3E759
:104900002DE9F0470D468046114628461446FFF72C
:10491000D7FF854241D3B4FBF0F2B5FBF0F04FF086
:10492000004EB0FA80FC0021CCF120072EFA0CFEDC
:104930000E46002400250023CCF15F0C14EB040A82
:1049400045EB050910EA0E0F54464D464FEA460660
:1049500003D04AF0010A54464D469D4208BF944296
:104960004FEA5E0E12D3A41A65EB030546F001066A
:10497000002E0EDA54EA050300D00136C7F12007F5
:10498000C8F8006088F80470BDE8F087002EEFD109
:10499000013F01316145D1D3ECE700273E46EDE709
:1049A0000C4A10B5D2F84C41002303601CB1D2F878
:1049B0005441A14207D0D2F8703153B1D2F87831C6
:1049C000994206D10123242101FB032303F5A67399
:1049D000036010BD44020020F8B5054616460C469B
:1049E00019B10168641A241101346B68A34201D81B
:1049F00000200AE02868314600EB041027010CF083
:104A0000F7FA0028F0D128683844F8BDF0B593B023
:104A100015462F23009306460C46402302AA0B217D
:104A200028460CF02CFC00281BDD2B685D7805F077
:104A30001F056B1E01259D400023ADB22360022798
:104A4000216802AA3046FFF7C7FF206010B9384638
:104A500013B0F0BD83881D424FF00107F0D000274E
:104A6000F5E70227F3E7000070B5164CA36805468A
:104A70000E4683B1E36801330BD104F110035B8868
:104A8000B34208D11048294612F0C4F818B10020EA
:104A900015E02369F3E7A36F0BB9002070BDE36F46
:104AA000013314BFD4F88030084B5B88B342F4D193
:104AB0000748294612F0AEF80028EED070200830E2
:104AC0002044EBE74402002060020020C4020020E2
:104AD000D00200201FB514461A460378012B0AD1D4
:104AE0000023CDE901314068069B039401A90AF037
:104AF0000FFD04B010BD4FF0FF30FAE71FB542685C
:104B0000002A034611DB82687AB11068516801AC53
:104B100003C490680021117001AA044603CA4FF033
:104B2000FF329860D9601C615A6004B010BD30B586
:104B30000368013B012B97B004461CD8C56A0423C7
:104B400003609DB1502200210DEB030014F08AFC9C
:104B50004FF0FF3315936368013314BFA36804F16A
:104B600008030093002269462046A8472046FFF725
:104B7000C5FF0023236017B030BD4269013201D068
:104B800013F05FBA83685B6818470000074B10B5E5
:104B900004461868FFF7F1FF20F07F426265204667
:104BA0000621BDE810400CF09DBC00BF7CF2010066
:104BB0002DE9F043A1B006460C4617460A460146C9
:104BC0000AA898460CF090FA00285FDB0A9B5B78F5
:104BD0005B0903D0204621B0BDE8F0833B4B186849
:104BE000FFF7CBFF02AD294681460AA80CF06CF80E
:104BF00028460CF085F803462FB195E8030007F12D
:104C0000680282E80300ABB10A9A93F8E810527880
:104C100091420FD1D3F8EC00A9EB0009B9F1000FD4
:104C200008DC012388F8003004210AA80CF07FFC7E
:104C30000446CFE7002288F80020002BF4D003F1CF
:104C40000C0001AA04210CF00DFA431E072B81462B
:104C5000EAD82A4604210AA80CF004FA8145054640
:104C6000B8DC02980544AD1BB042A4EB050508D39F
:104C70003319984205D800F108039E1BA61BAE42CB
:104C800007D2002388F80030C7E91A336FF0150007
:104C9000A1E701994A4614F0E3FAB9F1080F99D057
:104CA00004210AA80CF0BDF9037823F00F0343EAAE
:104CB0000903037002982A4600F10801484414F0E1
:104CC00069FBA4F1080009EB000483E780F201000E
:104CD00043685A1C012A13B5044605D8204602B081
:104CE000BDE81040FFF723BF013B436040F6B831F9
:104CF000C3F104034FF4FA60994098400EF052F962
:104D0000014604F13400FFF77DFC2368022B0BD031
:104D100000230093D4E9021204F1140304F16000AB
:104D2000FFF7D8FE0028D9DD02B010BD2DE9F04113
:104D3000104CD4F8EC50002306460F460360A04602
:104D400035B104F1EC0011F065FF4FF0FF3560B9AB
:104D5000D8F804315BB10848394611F05BFF08B15F
:104D6000054C34602846BDE8F081EC34F9E70125B4
:104D7000F8E700BF440200204803002010B586B0C9
:104D80001022002101A814F06DFB04230093104BA6
:104D9000059300230F481A4669460AF0B9FA00281D
:104DA00010DB0D4B0D4C1A680A480023C4E9003291
:104DB00021460B4A11F014FF01212046FFF7F7FBB3
:104DC000034610B9002006B010BD5B689847F3E7B2
:104DD00000003316EC450220003A0220D4450220A0
:104DE0008D540000F8B5264CA36806460F461546BC
:104DF000DBB1E36801331CD104F110010B7803F03F
:104E00000F039D4211D12A460431384614F0F8F9B7
:104E100058B91C48314611F0FDFE70BBE369042B04
:104E200003D194F82030FF2B27D0A36F1BB90020AB
:104E3000F8BD2169E2E7E36F013314BFD4F88010B5
:104E400011490B7803F00F03AB42F0D12A4604312D
:104E5000384614F0D5F90028E9D10C48314611F054
:104E6000D9FE08B10A48E3E7D4F88C30042BDED130
:104E700094F89030FF2BF5D0D9E70648D8E700BF6B
:104E80004402002060020020C4020020D002002062
:104E9000BC0200204C0200202DE9F041104CD4F857
:104EA0001C51002306460F460360A04635B104F5A9
:104EB0008E7011F0AFFE4FF0FF3560B9D8F8343185
:104EC00063B10848394611F0A5FE08B1054C3460BD
:104ED0002846BDE8F08104F58E74F8E70125F7E770
:104EE00044020020780300202DE9F74F9846002364
:104EF000CDE9003306461446036011B16846FFF75A
:104F000015FF1CB1214601A8FFF7C6FF214CDDE9C2
:104F100000AB00254FF0FF392346D4F84C2122B9CD
:104F2000A9462434B5B90125F7E7524502D0BAF1B4
:104F3000000FF6D1D4F850215A4502D0BBF1000F32
:104F4000EFD1B8F1000F09D1242707FB053505F58E
:104F5000A6753560484603B0BDE8F08FD8F800105C
:104F6000D4F86421087800F00F008242D9D1002AD9
:104F7000D7D02423043104F5AC7003FB05F714F0FB
:104F80003FF9044B0028CCD107F5A6773B443360AA
:104F9000E0E700BF440200207FB51C4EB6F9004098
:104FA00084BB1B4B1B481C4DCDE901431B4B00939D
:104FB000062223464FF48B61FEF73EFF30802846E1
:104FC000E022214640F8084B14F04CFA30222146EA
:104FD00005F1EC0014F046FA4822214605F5A670CA
:104FE00014F040FA8022214605F5CA7014F03AFA0E
:104FF0000DF0B4FFC5F8E8000BF04AFEB6F900006A
:1050000004B070BD6FF01000FAE700BFD245022077
:10501000C5BF010079410220440200207D4D0000FF
:10502000064BBFF35B8F53E8000F421C43E800219F
:105030000029F8D1BFF35B8F80B270472C030020AA
:105040002DE9FF470160DDE90C5604460F46904606
:105050009946FFF7E5FF8246B9F1000F28D00DF021
:105060007DFFCDE9009AADF80C00022303AA0121CF
:1050700020680CF034F942460346394620460CF0CD
:105080008BF90E4A0823042120460CF029FA002847
:1050900009DD45B13EB12F2300932A4633460B214B
:1050A00020460CF0EDF900EAE07004B0BDE8F087AE
:1050B000CDE900904B464A464946D9E7F0BF01008A
:1050C0002DE9F04F91B0CDE90423002307938DF82B
:1050D0001B309DF8703004781A9D012B81468A465A
:1050E000C4F3011464D801238DF81C308A4B089353
:1050F00015B9002C40F0B080884E01213046FEF7F3
:105100003BFDB26833463AB1B26F22B13046FEF78A
:1051100067FD002539E001220392039A7026564369
:105120009A19022191601B9991635563049A06F1C3
:10513000080706F11C011F4402F1180C0B4410680B
:1051400051681D4603C5083262452B46F7D1039BC3
:10515000DFF8C8B107AA92E803004FF0700808FB17
:1051600003B808F1680383E803003A460DF11B0316
:1051700051464846FFF71CFD051E5B4609DA002331
:10518000C8F808305846FEF72BFD284611B0BDE898
:10519000F08FAA462CB1012C4DD00024C8F808404D
:1051A00029E0802D07DDC8F808405846FEF718FDB5
:1051B0006FF01505E9E79BF89421C8F810409ABBF9
:1051C0000BF5CA702A46C8F81000494614F048F892
:1051D000D8F81020514BC8F814502AB30422C8F84C
:1051E0000C2040F6B8314FF4FA600DF0DBFE0122DE
:1051F0000446C8F808204948FEF7F2FC039B19460C
:10520000464B702202FB01339B68002B81D09DF836
:105210001B306BB3424943483A46FFF789F941498D
:105220004148FFF7A2F9B0E70399702202FB01326F
:1052300000219160DFE74FF0FF32C8F80C20D9F869
:105240000000D9F8041010365E4403C6D9F80800EF
:10525000306041F28834CEE72A460DF11B03FFF798
:10526000A7FC051E91DB9DF81B40002C8DD1274625
:1052700001238DF81C30284B0893B7B107F1340592
:10528000002C42D007F150031846284903933A46B0
:10529000FFF74EF92649039B0968234A2846FFF782
:1052A000A7F921462846FFF7ADF909AD1C220021D8
:1052B000284614F0D7F8059B6BB12E4603F1180C65
:1052C00018685968324603C2083363451646F7D159
:1052D00008238DF83C300095049B5246494607A8A8
:1052E000FFF7F8FB051E3FF750AF4FB13846FFF709
:1052F00005FC1CB107F13400FFF78EF900233B6079
:1053000015F1800F7FF405AF3FE71C2221462846A8
:1053100014F0A8F8C9E700BFEC45022044020020C1
:10532000DD530000DC450220D4450220D14C0000B2
:105330007CF20100F7B50F460024194616461346C5
:1053400000943A4605460BF0E1FF00280CDD361AC2
:10535000AE816E6DEC8107446F6046B92846FFF759
:1053600015FC304603B0F0BD4FF0FF30FAE72046A1
:10537000F8E70000D0F8E430802B2DE9F041044636
:105380000E4626D8C368DFF850805B7880224146FD
:105390003046FFF7CFFF3368D4F8E4701D78E36838
:1053A0001B7803F00F03043305F00F05FF1A0435D3
:1053B00004F1640119443A4608EB050013F050FF6C
:1053C000EA19414630460BF08FFED4F8E400BDE800
:1053D000F0816FF06800FAE7F940022030B504462A
:1053E00097B068300BF08CFCE36A054670B35BB392
:1053F0000021542201A814F035F8194B009363687A
:105400001748013314BFA16804F108010A7802F0BB
:105410000F02043213F024FF69462846FFF7AAFF63
:10542000002811DB95F8E9302246002B14BF062333
:10543000032342F8143B6946E36A20469847204616
:10544000FFF75CFB0023236017B030BD002BFBD0BF
:105450002246052142F8141B014620469847F3E7EF
:10546000F940022010B50B46802207490446FFF799
:1054700061FF014620B92046BDE810400CF041B85C
:105480004FF0FF3010BD00BFF94002202DE9F0437E
:105490008146C806B9B040F1AB8000250DF1500837
:1054A0001C22294640460395A54C13F0DBFF01233F
:1054B0008DF868302F460EAB0093CDF804800023A2
:1054C00003AA02A9484609F091FF061EC0F2908087
:1054D0000ED07319802B88BFC5F1800604EB050040
:1054E0000299324688BF0127354413F0B9FEE2E73E
:1054F000C446BCE80F001BAC0FC408239CE80300A3
:105500008DF88430149B042B84E803001BAC04D179
:105510009DF85400FF2808BF3446012388498DF8C0
:1055200020302A4622A8CDF824900BF0DDFD00287B
:105530005EDB229A1378C3F30113032B4DD15188FC
:105540000EA8FFF791FA054628B13430FFF764F84A
:105550002846FFF7ECFA229B0EA906A85D88FFF704
:10556000E5FB0698002838D0764A69BAD2F84C5143
:10557000002389B207932DB1854203D1B2F860515F
:105580008D4209D0D2F8703163B198420AD1B2F895
:1055900084318B4206D10123242101FB032303F52F
:1055A000A6730793079AC2B1002313601946526885
:1055B0000A930AA8FFF798FC0A9B079A0BB951684F
:1055C0000B6000235360069907931A4607A8FFF75C
:1055D0008BFC079B0BB9069A136022994A784FEA15
:1055E0005219B9F1020F0AD005D8B9F1000F65D0F0
:1055F00039B0BDE8F083A9F10403012BF8D811F804
:10560000042B0EA802F00F02FFF7ECFB229B0546CD
:105610001B78002800F0C08113F0300FC3F3011293
:1056200000F09881032AE3D04FF0FF36AB6C1BB13A
:1056300005F13400FEF7F0FF002F14BF062303230B
:105640002B60229B5B78432B40F0868105F168003C
:105650000BF056FB0746002800F07E813C230AAA87
:105660000E2122A80A930BF015FD374B1868FFF79F
:1056700084FA0A9B0344C7F8EC3022A93846FFF7A6
:1056800079FE0028BCBF05232B6097F8E9300BB1E9
:1056900006232B60EB6A379F1BB10EAA22A928466E
:1056A00098472846FFF72AFA013702D0B9F1020FCE
:1056B00001D000232B60731C07D199E70B781B11D5
:1056C0008ABB13F0030513D10326229A137823F023
:1056D000300343EA06131370229B00225A70229A69
:1056E000137823F00F03137000940EAB04222CE107
:1056F000022D7FF47DAF49880EA8FFF7B5F9044667
:1057000000283FF475AF436801333FF471AFC36ABB
:105710000560002B7FF46CAF3430FEF77DFF204630
:10572000FFF705FA64E799073FF562AF77B18D217E
:1057300022A8FFF797FE00283FF45AAF02E100BF0E
:10574000F94002204402002080F20100974BCDE98D
:105750000477CDE906775D680226994695B16B69B5
:105760000A9722AA0AA928469847022801D12D693A
:10577000F4E7012802D12D690646EFE7002847D15A
:105780000A9D0646012E46D0022E46D0002E3DD15F
:10579000294607A8FFF704F9379B002B40F09F80AC
:1057A00022AB32460EA906A8FFF79EFB079B0746D1
:1057B000002B40D0069A002A31D0934203D006969F
:1057C0004FF0FF333793069B8BB1229F9D603A7851
:1057D000DDE9080102F00F0203F11C069A6186E878
:1057E000030022B1391D03F10C0013F039FD0EAB9B
:1057F000CDE90B349DF820300A950D93AD686C49C6
:105800000AAB802222A8A847002894DAA0218FE7BB
:1058100000250320B5E785218AE7842188E79DF8E4
:1058200020101A7F914209D119680EA811F0F2F9DF
:1058300008B1079B0693069B002BC4D1379B01330D
:10584000C1D0002FBCDB079B002BB9D10EA904A847
:10585000FFF76CFA049B33B90028A1BF182303FBA0
:105860000090EC300490214605A8FFF715FB059B3E
:105870003BB90028A1BF182303FB009000F58E70F0
:105880000590049B33B3059A22B30EAE324603CA89
:10589000424518605960164603F10803F6D1059A8F
:1058A000264604F1180C334603CB63451060516063
:1058B0001E4602F10802F6D12420474307F5A673DD
:1058C0004B44B9440693059BC9F85031049BC9F871
:1058D0004C3178E7069B002B7FF475AF70E7012B06
:1058E0002BD122AB32460EA906A8FFF7FDFA069B84
:1058F000FBB11E60324633460EA90AA80A96FFF78E
:10590000F3FA0A9B33B90EA904A8FFF70FFA049B18
:1059100003B11E60069A002352680A9319460AA82A
:10592000FFF7E2FA0A9A069B0AB959680A60002250
:105930005A604FF0FF33379359E701333FF457AFC5
:105940004FF0FF3000940EAB0246194908A8FFF74C
:10595000C1F84DE6022669E6229A5378432B3FF4BC
:1059600099AE6B680133239B14BFA96805F1080148
:105970009B1ABDF894204978134405F1680022AAC7
:105980000BF064FA00283FF485AE2B689A1F53424F
:10599000534180F8E9307DE613F0300F3FF494AEC8
:1059A000379B01337FF490AE22E600BF4402002013
:1059B000F94002202DE9F043194B85B05C68019253
:1059C0000123002506460F46ADF80C30A8461CB949
:1059D000284605B0BDE8F083E3682BB1CDF8088018
:1059E000029B6268934201D32469F0E72068D4F8EF
:1059F0000C9000EB031001AB7EB17A1B7119C84704
:105A00000028F1DDBDF80C3023F00103ADF80C30B7
:105A1000029B013305440293E2E732463146EEE74A
:105A200044020020F7B504461E464523FFF782FCDA
:105A300028220C2120460BF055FD012120460BF0B9
:105A400060FDA18967680191054630460BF0ECFDC9
:105A50000199C3B228223846FFF7ACFF284403B0AF
:105A6000F0BDF8B5048906460F46154600200DB175
:105A7000AE4218D13289716800230AF0DDFC04F1CE
:105A80003A030344B3F5803F24BF013080B2396844
:105A900020443A3000232022083180B20AF0CCFCA6
:105AA000C04380B2F8BD23462A8969680AF0C4FC65
:105AB000AB682D681C44A4B2D9E72DE9F0410D462E
:105AC00080460321284605F029FD0446022105F001
:105AD00025FDA368032B064605D828460021BDE80E
:105AE000F04105F023BD011D2A4620466768FFF7F7
:105AF000B8FF0028F1D13B78892B0ED8842B10D821
:105B0000802B15D039782B4640F20122032004F077
:105B1000ABF90028E1D0BDE8F0816333DBB2012BA3
:105B2000F0D8A36871683A46404602F021FEE9E7E2
:105B3000238971683A46404600F052F8E2E738B5EA
:105B40000D46144600211A46032305F035FE28B100
:105B5000436800221D705C709A70DA7038BD10B511
:105B6000044668B190F91030032B0CD1026804315F
:105B7000FFF777FF50B1626843BA5380002010BD31
:105B80006FF00D00FBE76FF04C00F8E76FF00100DD
:105B9000F5E74269013201D012F053BA83685B68BD
:105BA00018472DE9F041DDF81880154600220E4611
:105BB0001F46014608F108031046FFF7C0FF0446E0
:105BC00050B1406876BA6DBA8680C58027B142462A
:105BD0003946083013F044FB2046BDE8F081000050
:105BE00073B506460C46002A3ED0072B3CD9918857
:105BF000D088083B40BA49BA009389B202F1080341
:105C000082B28120FFF7CDFF054668B3237EFF2BCC
:105C100004F1080214BF04F11801002100F00BFE8A
:105C2000044610B90146284609E000231A461946E1
:105C3000184605F014F9054630B90146204602B071
:105C4000BDE8704005F072BC43680EB1B6F9EE6174
:105C50005E8006492C602B4640F20222022004F0AE
:105C600003F901460028DED002B070BD0000FFFF3E
:105C7000F7B5099D0C4611461A464FF6FB739D4237
:105C800007464AD8009500238020FFF78AFF0028A6
:105C900046D022460021466800F0CDFD044620B9DA
:105CA000214813F0B5FD00252EE043689DF8202023
:105CB000DA7167B100231A461946184605F0CFF885
:105CC00040B34368B7F9EE215A8004600446174B8D
:105CD0001868FFF75EFF032D89BFB0600836043DEA
:105CE0000C3600239D42DAB211D11149234640F20D
:105CF0000222022004F0B8F80028D4D16FF0080581
:105D00000021204605F012FC284603B0F0BDF254F5
:105D10000133E7E76FF00B05F2E76FF01505F3E7E6
:105D20006FF00B05F0E700BFF8BF010084F201003F
:105D30000000FFFF2DE9F0479846224B0646186801
:105D400017460D46FFF725FF02218146304605F034
:105D5000E5FB03218246304605F0E0FB0446BAF13C
:105D6000000F2AD048B3DAF80400083003F00FFC23
:105D70006468032D04F1080C1CD9A268043DA9EB4A
:105D800002020C3425442146E043A94202D14FF0DF
:105D9000FF3109E001310B1811F8014CDBB29C42D4
:105DA000F3D0A1EB0C01013943463046BC46BDE8B7
:105DB000F047604764460022E4E76FF01500BDE855
:105DC000F08700BF84F20100F8B50D4602211646A7
:105DD00005F0A4FB47680C490446102207F10800AF
:105DE00013F00EFA70B13B7AFF2B0BD03B7EFF2BEA
:105DF00006D1022D04D0042D04D1022E18BF002498
:105E00002046F8BD0024FBE710C6010070B54FF036
:105E1000FF31054605F082FB0024064685B9303483
:105E200066B17368B3F9020004F02FFAB268B0F8F3
:105E30002A31A41A283B9C4228BF1C46204670BD2C
:105E4000AB682D681C44E9E710B50B4608241B68B5
:105E500033B193F91020013202D09A681444F6E766
:105E60008268A24209D98B6840684968121B9A422D
:105E700028BF1A46204413F0F3F9204610BDF8B5A8
:105E8000054610460F4614461E46FFF7BFFF29463B
:105E900003463A460020FFF752FE0546F8B1436834
:105EA00036BA5E6094F910305A1C12D0022B05D11C
:105EB00023687BB193F9103001330BD17CB194F995
:105EC000103001330BD021462846FFF7BDFF246870
:105ED000F4E72468082614B1AA68B24201D828461B
:105EE000F8BDA36868686168921B9A4228BF1A4689
:105EF000304413F0B5F9A36824681E44EBE70000B2
:105F000070B51446064608464FF0FF3105F006FB13
:105F10002268054608320021304600F08CFC044619
:105F200028B901463046BDE8704005F0FFBAB5B16A
:105F30006B68B3F9020004F0A8F90023194605467E
:105F40001A46184604F08BFF014608B92046EAE7D6
:105F500043680DB1B5F9EE515D800C600C46054902
:105F6000234640F20222022003F07EFF0146002871
:105F7000ECD070BD0000FFFF70B50C46024606462F
:105F800001212046FFF720FF054660B1002322468D
:105F900031460120FFF773FF28B12A1D2146BDE8D5
:105FA0007040FFF7ADBF70BD37B50C4601900022C1
:105FB00002212046FFF708FF054668B1019B2246F3
:105FC00000210220FFF75BFF30B12A1D214603B0FC
:105FD000BDE83040FFF794BF03B030BD70B50C464C
:105FE0000246064603212046FFF7EEFE054660B155
:105FF0000023224631460320FFF741FF28B12A1D26
:106000002146BDE87040FFF77BBF70BD2DE9F0472A
:106010001646044602460F4630460421FFF7D4FEDA
:10602000804688B33046FFF7F1FE2246034604213E
:106030000020FFF784FD054630B3D0F804A03446B5
:106040004FF000095CB999FA89F3CAF8043008F1F5
:10605000040231462846BDE8F047FFF751BF94F9E6
:1060600010300133EFD021462846FFF7EDFED4E98A
:1060700001329F4206D31A4497423EBFFB1A083BA7
:1060800003EB00092468DDE7BDE8F087002105F097
:106090004DBA000008B50449102213F0B1F8B0FA67
:1060A00080F0400908BD00BFF0C5010010B50A49E5
:1060B0000822044613F0A4F848B12378FF2B08D136
:1060C000607800F00F00831E5842584110BD012037
:1060D000FCE70020FAE700BFE0C5010038B50D4637
:1060E0000446D1E9003188B1B0F9EE214A8000229E
:1060F00073B9B4F82A0190420ED22946FFF754FF33
:1061000028467A21BDE8384005F010BA0246EDE78E
:1061100099681B680A44EBE7EFF3108172B6D4F874
:10612000AC200132C4F8AC202A68BAB9D4F8B42043
:106130001344C4F8B43081F31088204604F088F882
:1061400080B10D492B4640F20222012003F08CFE63
:1061500088B92846BDE83840FFF798BF90681268B4
:106160000344E2E7B4F9EE0140F20222294603F0CB
:1061700070FE0028EDDD38BD0000FFFF2DE9F8437B
:106180000E46D1E9001405460A4600232ABB5BBA35
:10619000A380A379FF2B02D119BB3B23A371E37921
:1061A00013B94DBB4023E37104F108073F491022A6
:1061B000384613F025F804F11809804678BB4846A4
:1061C000FFF768FF0246D0B110224146384613F06F
:1061D00049F90123E375344650E09068126803449E
:1061E000D4E70B7C023BDBB2022BD6D8304AD35C1F
:1061F000A371FF2BD3D1D0E795F8EC31D3E7494613
:10620000284604F0EFF90028E5D0034600F110021B
:1062100053F8041B47F8041B9342F9D1DBE72846E7
:1062200004F03EF84846FFF735FF98B100242846B1
:1062300004F03DF8002CCED00321304605F06EF975
:1062400028B143681B7803F0FD03852BC3D06FF0A2
:106250007C0023E03946284604F0A3F90028E5DB5A
:10626000284490F8304004F01F04103C18BF01246B
:10627000DDE705F0BFFA98B12060044694F91030CC
:10628000022B02D120680028F3D13146204605F0C8
:1062900034F9002807DA831C08BF0020BDE8F88322
:1062A0006FF00B00FAE70020F8E700BF10C601000E
:1062B00017C0010010B50C46FFF760FF002804DA94
:1062C0002046FFF7E3FE002010BD0120FCE700237D
:1062D00070B505460C4642F0400619461A46184667
:1062E00004F0BDFD014620B92846BDE87040FFF727
:1062F000CDBE43681E710560EFF3108272B6D4F80C
:10630000A8300133C4F8A83082F310882046BDE8D5
:106310007040FFF7E3BE00002DE9F04390F9103024
:10632000013389B0064688461FD14468B4F902009B
:1063300003F0ABFF05463046277905F05BFA07F01E
:106340003F07014618B93046FFF7A0FE0AE005F006
:1063500033F9064696F91030022B09D01621304643
:1063600005F0E4F809B0BDE8F08300273D46F1E709
:10637000706859491022183012F042FF0028EDD001
:10638000304605F037FA04460028DCD04668337EF4
:10639000FF2B2AD1002D40F08F8003F069FF0028E9
:1063A00040F085802046CFE726463A4629463046CB
:1063B000FFF78DFF284603F059FF05460028D1D08E
:1063C000B8F1000FF0D0204605F014FA0646002878
:1063D000E8D001462846FFF7D1FE0028E5DAB442AE
:1063E000E0D03046FFF752FEDCE71836304604F0C6
:1063F000D9F98542814606D03046FFF757FE00287E
:1064000018BF4FF000093046FFF744FE10B9B9F14C
:10641000000F18D0B8F1000F0ED1204605F0A8F8F3
:106420000028BFD12D49234640F20122022003F06B
:106430001BFD002896D1B5E721464846FFF73AFFF5
:1064400000288FD0E9E701AB22462946304602F00A
:106450009CF8002886DBBDF81C00C0F3041003F094
:1064600014FF0546B8F1000F1AD1002108469DF827
:106470001E3005AA04F0F3FC0146002892D04368C0
:106480001F710460EFF3108272B6D5F8A4300133A7
:10649000C5F8A43082F310882846FFF71FFE61E795
:1064A0002146FFF707FF00283FF45CAFDDE7411E00
:1064B000204605F0FBF87DE7B8F1000F06D0214635
:1064C0002846FFF7F7FE00283FF44CAF3A4629462E
:1064D0002046FFF7FCFE45E710C601000000FFFF65
:1064E0002DE98048102289B00DEB0200002112F046
:1064F000B9FFBB4BBB4C1B88BB48ADF81C30082117
:106500000594FDF72DFB04A9022004F077FF40F26B
:106510000523ADF80A3040F2022AA14640F20124D8
:106520006846FDF710FBBDF80210B1F5017F09D8F0
:10653000514500F24081A1423CD05145F0D1019833
:106540000121F1E0A1F59F43403B9AB2152AE7D81B
:10655000152BE5D801A252F823F000BFC767000051
:10656000C7670000C7670000C7670000216500001B
:10657000C7670000C7670000C7670000C767000063
:10658000C767000021650000C7670000C7670000FB
:10659000C7670000C7670000C767000021650000EB
:1065A000C7670000C767000021650000CF670000D3
:1065B000D7670000019E4FF0FF31304604F0AEFF78
:1065C000804660B34368B3F9020003F05EFE0546FF
:1065D000EFF3108072B6D5F8B8300133C5F8B83093
:1065E00032460021BAB9D5F8BC30D8F808209B1A39
:1065F0000B44C5F8BC3080F3108873683BB1B268B7
:10660000272A04D91B7803F0F003602B09D0304609
:10661000FFF73CFD82E7936812681944E2E70546FC
:10662000EBE7304605F0E6F804460028EFD00222FA
:10663000282105F001F90023237408B92046E7E773
:106640004768FB792BB921461846FFF7C7FC742130
:1066500045E0B988BE7949BA89B209B93B2EEDD176
:106660008442A36828D08B42204625D905F052F9F0
:1066700007F1180B5846FFF70DFD002859D1584671
:10668000FFF714FD00B175BB584604F08BF80546C2
:10669000B0FA80F0400900284BD007F10800FFF75E
:1066A00005FD20BB5846FFF701FD50B33B7EFF2B95
:1066B000C4D02146032021E0002283681A4490F9C7
:1066C0001030022B02D000680028F6D1283A8A4206
:1066D000CED2391D22460020FFF798FC1621204615
:1066E00004F024FF1AE7584604F05CF8D0E7584657
:1066F000FFF7DCFC0028D9D121460220FFF73CFC43
:106700009CE7FB79013BDBB2FB7183B1B8F1000F71
:1067100003D04146204604F04FFF204604F065FFB9
:1067200000283FF4FBAE0021FFF7F6FDF6E6214618
:106730008BE7292E39D03A2E39D0112E0CBF0423E5
:10674000002323743146022004F0BFFE002801DC40
:106750003A2E2ED10121204604F0A8FF012794F9FA
:106760001000234640F20122494603F07DFB10B998
:106770002046FFF78BFC87B13A2E03D1012120463A
:1067800004F094FF234640F201223146022003F038
:106790006BFB10B92046FFF779FC3A2E7FF4BEAEB2
:1067A00021462846FFF789F9B8E60223C9E7032303
:1067B000C7E70027D3E76FF0850302A96846039374
:1067C000FDF79CF9AAE6019802F048FCA6E60198BC
:1067D00001F02AFEA2E60198002101F063FE9DE689
:1067E000FC3902200000FFFFB44602201FB50A4C0E
:1067F000B4F900305BB9094A0948CDE90132094AC8
:1068000000924FF470710422FDF716FB2080B4F95A
:10681000000004B010BD00BFB44A022012C0010045
:10682000F4460220E164000008B5022104F076FE7F
:1068300000B1406808BDF8B50C461746022328226F
:10684000002104F0B9FF064600B3456805F10800D1
:10685000F4B12146034604F1100251F8040B43F849
:10686000040B9142F9D105F11800B7B13A4603463D
:1068700007F1100152F8040B43F8040B8A42F9D1D6
:1068800060232B60FF23AB710023EB713046F8BD12
:106890001022214612F0E6FDE5E71022394612F0FB
:1068A000E1FD012385F82730EAE7000070B50446D2
:1068B00015460E4609B9002070BDD1F82C31DB0415
:1068C000F9D51749082212F09BFC38B12378FF2B29
:1068D000F1D1637803F00F03022BECD196F8ED01B0
:1068E00005F1100204F108010AF063F810F0FF004E
:1068F000E1D0A8762B4604F1100254F8041B43F8AB
:10690000041B9442F9D1B6F9EE311B0103F4F8737C
:1069100043F4806343F006032B830120CCE700BFE0
:10692000E0C501002DE9F341064603F03BFF0446B4
:10693000002857D003F0B4FCB4F9EE11002000F0A9
:1069400055FF0546C8B1006800F0E1FCA8B12B680E
:10695000043318463246214600F05CFA31462046A0
:1069600003F01FFE2118054691F8303003F01F0296
:10697000102A0ED14EF6602615E0002384F8273148
:10698000204602F021FB204602B0BDE8F04103F0B2
:106990008EBC03F00702013A012AF4D80133D4F87F
:1069A000206181F83030E91C0901104B1048B3F91F
:1069B00000808F1CC43121440191FDF7B1FE04EB2E
:1069C00005100023C0E93D36274444F6CF73A0F8F4
:1069D000FE30C0F80071A0F8FC8001990448FDF772
:1069E00067FED0E702B0BDE8F08100BFB44A0220E4
:1069F000FC4C02202DE9F043D0F82C7117F4805F95
:106A000087B004460D461E4603D1042007B0BDE8FA
:106A1000F08393F801E0BEF1020FF6D192F800C0C6
:106A2000BCF1880F7AD1FF07EFD590F8482104AB6D
:106A300000F5A07104F088F90828E6D1DDE9042307
:106A4000F168B0688B4208BF8242DED1B378012B77
:106A500047D0022B4BD0002B41D105F11801204625
:106A6000F78803F09EFD051ECFDB7FBABBB2012B7A
:106A700004EB05021CBF4EF660275F4392F83030EE
:106A80002D4823F01F0305F1030143F010034FEAE3
:106A9000011182F8303001F10208284B01F1C401E4
:106AA000214418BFA7F56A47B3F90090039114BFBA
:106AB000603F47F23057A044FDF732FE04EB051467
:106AC0000023C4E93D3744F6CF7303991A48A4F86C
:106AD000FE30C4F80081A4F8FC90FDF7E9FDB07821
