:101000000002002059430000E5420000F5420000C4
:1010100005430000154300002543000000000000C8
:10102000000000000000000000000000C9420000B5
:1010300035430000000000007D42000045430000F1
:101040002D1D0100A52C01002D1D01009D44000057
:10105000B94400002D1D01002D1D01002D1D0100B2
:101060002D1D010051210100572101002D1D0100FE
:101070002D1D01002D1D01002D1D01002D1D010044
:101080002D1D0100591E01002D1D01002D1D010007
:101090002D1D01002D1D01002D1D01002D1D010024
:1010A0002D1D01002D1D01005D21010063210100A6
:1010B0002D1D01002D1D010000000000000000009A
:1010C0002D1D01002D1D01002D1D0100D544000026
:1010D0002D1D01002D1D01002D1D01006D2601009B
:1010E0002D1D01002D1D01002D1D0100000000001F
:1010F000000000002D1D010000000000F144000070
:101100004269013201D016F076BF83685B681847E8
:10111000F0B5164B8BB005460C466A4603F1200726
:1011200018685968164603C60833BB423246F7D1E1
:1011300018681B79306033710D49284618F08EFD10
:101140000526013C2427B44203D800232B550BB0BD
:10115000F0BD11F049FF0AAAB0FBF7F303FB170338
:10116000134413F8283CAB550136ECE7CAB701002D
:10117000C4B701002DE9F043DFF84C90DFF84C8054
:1011800087B007460E461546002415216846FFF72E
:10119000BFFFB4FBF5F2642305FB124203FB0473AB
:1011A00056F82210184618F059FD494618F060FB11
:1011B000694618F05DFB0134414618F059FB642C78
:1011C000E3D107B0BDE8F083EFB70100A2D401007E
:1011D000F7B50023104E114F03700446082511F097
:1011E00003FF032380B200F00F020009B25C0DF888
:1011F0000320013BF7D20023694620468DF80430D6
:1012000018F036FB013D01D103B0F0BD3946204650
:1012100018F02EFBE3E700BFF3B701004DE9010032
:1012200038B5044600F57A6520462834FFF7D0FF2C
:10123000AC42F9D138BD00002DE9F04F4FF44D62BA
:1012400085B000214348444DDFF84C91434FDFF80F
:101250004C81434EDFF848A118F0E4F81422002135
:10126000404818F0DFF848F2200200213E4818F00C
:10127000D9F84FF4806200213C4818F0D3F84FF4BD
:101280007A7200213A48002418F0CCF842F2107229
:101290000021384818F0C6F82046C9F800402C60F4
:1012A0006C60AC603C60C8F8004011F095FE324BB9
:1012B00032491A682F48FFF75DFFCDE90297DFF842
:1012C000E4903460D9F80030A34208DC2C4831683F
:1012D00091FBF3F105B0BDE8F04F18F0C5B9294B0B
:1012E0001F683846FFF70CFF274B00932149274B17
:1012F000CAF80000642000FB04111B68164A244849
:1013000012F0C4FC3846FFF7FBFED9F80010214B61
:1013100011F003078346186010D14FF44D6239462F
:101320000C4818F07FF80F481422394618F07AF864
:10133000029BC8F800701F60039B1F600023306889
:101340002B606B60AB60DAF80030C01A5844306034
:101350000134B7E7882101200015002084210120F5
:101360001448002028A1002060A100200C150020B6
:1013700028440020181D0020280200202C020020F4
:1013800004B8010018F201003C02002038020020DD
:1013900000020020F81400204CA100208021012030
:1013A00010480020400200202DE9F74F4FF44D6215
:1013B00000213D483D4DDFF83891DFF808813C4E73
:1013C00018F030F8142200213A4818F02BF848F2AF
:1013D00020020021384818F025F84FF480620021DF
:1013E000364818F01FF84FF47A720021344818F08C
:1013F00019F842F210720021324818F013F8324BFB
:1014000000241C60314B2C601C60314B6C6020460A
:10141000AC601C6011F0E0FD2E4B2F491A68294882
:10142000FFF7A8FE4F460096D9F800301F4A2B4818
:101430004146013412F02AFC0023052C2B606B601E
:10144000AB6008F16408EED1DFF8A880244DDFF826
:10145000A8901C46D8F80030A34208DC214829682F
:1014600091FBF3F103B0BDE8F04F18F0FDB8D9F8E7
:1014700000B0DFF888A05846FFF742FE00963B68B0
:101480000A4A1949CAF80000144812F0FFFB5846EE
:10149000FFF736FE154BDAF8002018602B689B1A10
:1014A000184428600134D5E7882101200015002068
:1014B0003C02002028A1002060A100200C15002083
:1014C00028440020181D00204CA100208421012068
:1014D00080210120280200202C0200200002002090
:1014E000144800204AB80100A81E0020F81400206B
:1014F000380200204002002018F2010010480020AD
:101500002DE9F04F4FF44D6285B00021A248A34C65
:10151000A34EA44FDFF8E08217F084FF14220021CD
:10152000A14817F07FFF48F2200200219F4817F0E2
:1015300079FF4FF4806200219D4817F073FF4FF44C
:101540007A7200219B4817F06DFF42F21072002161
:10155000944817F067FF984B00251D60974B256056
:1015600028461D606560A560356011F035FD944B1F
:1015700094491A688B48FFF7FDFD934B0093D8F808
:101580000030864A91483946013512F07FFB00232E
:10159000052D23606360A36007F16407EDD1DFF8D8
:1015A00068821D4647468A4BDFF860B2DFF86092DA
:1015B0002B44C8F8003011F085FDD8F80010CBF8A6
:1015C0000000A0F521730A680068C9F80030904255
:1015D0000CBFD3F880300023002ADA4641DD3068A2
:1015E00082423EDA1046039311F03EFD3A681068DD
:1015F00011F046FD039B002B33DD184611F07CFDF6
:1016000011F060FD7349744ACBF80000C1E9022073
:10161000724AA0F52173D2F800B0D3F88020C9F83F
:101620000030584616F03CFDD9F8003093F85921A7
:10163000BAB1DFF8E0916A4AC9F8082003F52172CF
:10164000D3F88000C9F80C2017F0ECF80022654BA5
:1016500016F06CFE17F050F949460246584616F04F
:101660001FFD05F52475B5F5246F9CD1DFF8A08129
:1016700000255D4B1B68AB4209DC5C4A5C48116885
:1016800091FBF3F105B0BDE8F04F17F0EDBF594BFA
:10169000DFF88491D3F800B05846FFF731FD4A4B8C
:1016A000C9F800000093544B3C4A1B685349474813
:1016B00012F0ECFA03905846FFF722FD4B49504ACE
:1016C0000B681060D9F800209A1A1044039B086038
:1016D0004C484FF42472013B4FF0000902FB030316
:1016E000C4F80090C4F80490C4F808903B6011F06E
:1016F000E9FC3968CAF80000A0F521720B6800689F
:10170000C8F80020984208BFD2F88090002B40DD36
:10171000326893423DDA184611F0A6FC3B6818681F
:1017200011F0AEFCB9F1000F33DD484611F0E4FCD6
:1017300011F0C8FC2749284ACAF80000C1E9022074
:10174000264AA0F52173D2F800B0D3F88020C8F85B
:101750000030584616F0A4FCD8F8003093F8592110
:10176000BAB1DFF8B0901E4AC9F8082003F521721B
:10177000D3F88000C9F80C2017F054F80022194B58
:1017800016F0D4FD17F0B8F849460246584616F050
:1017900087FC01356DE700BF88210120001500207E
:1017A00084210120181D002028A1002060A1002014
:1017B0000C150020284400204CA10020802101208D
:1017C000280200202C0200203C0200200002002001
:1017D0009C26012050A100202D31010014F20100AF
:1017E000413A01000000E83F400200201448002078
:1017F00083B8010018F2010038020020A81E002062
:10180000F81400200C240120141D0020101D0020BD
:101810000C1D00203CA10020104800202DE9F04FB5
:101820004FF44D6287B000215D485E4DDFF8CC91EA
:10183000DFF8CC815C4F5D4EDFF894A1DFF8C4B1D6
:1018400017F0F0FD14220021594817F0EBFD48F283
:1018500020020021574817F0E5FD4FF48062002177
:10186000554817F0DFFD4FF47A72002153480024E9
:1018700017F0D8FD42F210720021514817F0D2FD46
:1018800020462C606C60AC60C9F80040C8F800408D
:101890003C6011F0A1FB4B4B4B491A684848FFF7DD
:1018A00069FC4A48FFF7BCFCCDE903983460059712
:1018B000474B1B68A34208DC4648316891FBF3F1B3
:1018C00007B0BDE8F04F17F0CFBEDBF80090DFF8AF
:1018D00038814846FFF714FC3C4BC8F80000282725
:1018E00007FB04373C4B009335493C4B2D4A1B68A2
:1018F000642000FB0411384612F0C8F9384611F094
:1019000069FD374B374F1B6838601A68D0F884324E
:101910009A420BD13449354B8B6000F52173CB6073
:10192000334BD0F88020186816F0BAFB3A68314B78
:1019300002F1F50103F1240053F8047B41F8047B24
:101940008342F9D1012382F859314846FFF7D8FB89
:10195000DAF80010284B11F003090746186013D17C
:101960004FF44D6249460E4817F05CFD10481422B2
:10197000494617F057FD039BC3F80090049BC3F83A
:101980000090059BC3F80090002330682B606B60CB
:10199000AB60D8F80030C01A07443760013487E7DD
:1019A00088210120001500208021012014480020FA
:1019B00028A1002060A100200C1500202844002050
:1019C000181D0020280200202C02002058050020AD
:1019D00040020020EBB801003C0200203802002049
:1019E000101D0020FC14002050A100202D3101000A
:1019F00014F20100C7B80100F81400204CA1002027
:101A00008421012018F20100104800202DE9F04F38
:101A10004FF44D6285B0002159485A4C5A4EDFF8B8
:101A200094815A4FDFF8C4B117F0FCFC1422002156
:101A3000574817F0F7FC48F220020021554817F0EC
:101A4000F1FC4FF480620021534817F0EBFC4FF497
:101A50007A720021514817F0E5FC42F21072002121
:101A60004A4817F0DFFC4E4B00251D604D4B2560AA
:101A70001D604D4B65602846A5601D6011F0ACFAF5
:101A80004A4B4B491A684148FFF774FB4948FFF736
:101A9000C7FB306818F054F90DF10E0AADF80E00CE
:101AA000A14639464046CDF800A05B464A4601357E
:101AB00012F0ECF80020052D20606060A06008F1B5
:101AC000280807F16407ECD13B4CDFF824813B4F39
:101AD00020600546D8F80030AB4208DC2168384861
:101AE00091FBF3F117F0C0FD05B0BDE8F08F354B69
:101AF000DFF800A1D3F800904846FFF701FB324B16
:101B0000204A3249386000933148336812F0BEF8F9
:101B10002F4811F05FFCCAF8000011F0D3FA2D4BEA
:101B200001681860DAF80030D3F8842291420BD1B2
:101B300029492A4A8A6003F52172CA60D3F88020B5
:101B4000274B186816F0ACFADAF80020254B02F1A2
:101B5000F50103F1240053F804CB41F804CB834290
:101B6000F9D1012382F859314846FFF7C9FA1E4BD3
:101B70003A68186023689B1A184420600135A9E769
:101B8000882101200015002038020020181D0020A7
:101B900028A1002060A100200C150020284400206E
:101BA0004CA1002084210120802101202802002056
:101BB0002C02002058050020144800201048002066
:101BC00025B9010018F201003C020020A81E0020E7
:101BD000F8050020101D002050A100202D3101002B
:101BE00014F20100C7B80100F8140020CEC30100B0
:101BF00040020020FC1400202DE9F04F4FF44D620C
:101C000085B00021B648B74CDFF86083B64FB74EB9
:101C1000DFF8389317F006FC14220021B44817F0BF
:101C200001FC48F220020021B24817F0FBFB4FF400
:101C300080620021B04817F0F5FB4FF47A72002162
:101C4000AE4817F0EFFB42F210720021A74817F0E0
:101C5000E9FBAB4B00251D60AA4B256028461D60A3
:101C60006560A560C8F8005011F0B6F9A64BA74909
:101C70001A689E48FFF77EFA9B48FFF7D1FAA44BFB
:101C80000093D9F80030974A31463846013511F0B3
:101C9000FDFF0023052D23606360A36007F1280783
:101CA00006F16406EBD19B4F1D46B9469A4BDFF80F
:101CB000ACB29A4E2B443B6011F004FA3968CBF871
:101CC0000000A0F521730A680068336090420CBFE1
:101CD000D3F880300023002AB2463EDDD8F8000059
:101CE00082423ADA1046039311F0BEF9D9F8002087
:101CF000106811F0C5F9039B002B2EDD184611F07A
:101D0000FBF911F0DFF98649864ACBF80000C1E9FA
:101D10000220854AA0F52173D2F800B0D3F88020C4
:101D20003360584616F0BCF9336893F85921A2B1D4
:101D30007E4E7F4AB26003F52172D3F88000F260D4
:101D400016F070FD00227B4B16F0F0FA16F0D4FD71
:101D500031460246584616F0A3F905F52475B5F547
:101D6000246FA3D1744E00273760744B1B68BB42AD
:101D700008DC7348316891FBF3F105B0BDE8F04F22
:101D800017F072BC6F4BD3F800B05846FFF7B8F9A4
:101D90006D4B544A18605E4B00936C4B6C491B684A
:101DA0006C4811F073FF05466A4811F013FB6A4B4B
:101DB000186011F087F9694B01681860664B1B6861
:101DC000D3F8842291420BD15549564A8A6003F5D3
:101DD0002172CA60D3F88020534B186816F060F95E
:101DE0005D4B1A685E4B02F1F50103F1240053F8D4
:101DF00004CB41F804CB8342F9D1012382F8593155
:101E00005846FFF77DF9574B4F4A18601268336800
:101E10009B1A1844306054484FF42473013D03FB6F
:101E200005054FF0000BC9F80050C4F800B0C4F825
:101E300004B0C4F808B011F045F9484BD9F80010C7
:101E40001860A0F521720B680068CAF8002098425B
:101E50000CBFD2F880505D46002B3EDDD8F8002044
:101E600093423ADA184611F0FFF8D9F800301868B2
:101E700011F006F9002D30DD284611F03DF911F082
:101E800021F92749274A354BC1E90220264A186023
:101E9000D2F800B0A0F521735846D3F88020CAF8D4
:101EA000003016F0FDF8DAF8003093F85921A2B1AD
:101EB0001E4D1F4AAA6003F52172D3F88000EA6024
:101EC00016F0B0FC00221B4B16F030FA16F014FD91
:101ED00029460246584616F0E3F8013745E700BFA9
:101EE000882101200015002058050020181D002021
:101EF00028A1002060A100200C150020284400200B
:101F00004CA1002080210120280200202C0200206A
:101F10003C020020141D00209C2601200C1D0020E6
:101F200050A100202D31010014F201003CA100203D
:101F3000413A01000000E83F144800204002002020
:101F400064B9010018F20100104800203802002096
:101F5000A81E0020F8050020FC140020101D002001
:101F6000C7B80100F81400200C24012084210120AE
:101F70002DE9F04F4FF44D6285B000215748584D80
:101F8000DFF8BC81574EDFF8BC9117F04BFA1422F2
:101F90000021554817F046FA48F220020021534824
:101FA00017F040FA4FF480620021514817F03AFAD6
:101FB0004FF47A7200214F4817F034FA42F210724F
:101FC0000021484817F02EFA4B4B00241C604B4B65
:101FD0002C601C604A4B6C602046AC601C6010F0AA
:101FE000FBFF484B48491A683E48FFF7C3F847468D
:101FF000CDF80090D8F80030394A444831460134D1
:1020000011F044FE0023052C2B606B60AB6006F1E1
:102010006406EDD13E4B3F4C3F48DFF82C81A3F5E1
:1020200021711E22C1F8802021603C49C8F800308F
:10203000C1E902033A4B1E68304616F031F82368B6
:1020400093F85921A2B1374D374AAA60D8F8002039
:10205000D3F88000EA6016F0E5FB0022334B16F05F
:1020600065F916F049FC29460246304616F018F884
:102070003868DFF8D8802E4DDFF8D49017F060FE76
:1020800000260390D8F80030B34208DC29682948BC
:1020900091FBF3F117F0E8FA05B0BDE8F08FD9F83D
:1020A00000B0DFF8B0A05846FFF72AF8174B0093AE
:1020B0002368214ACAF8000003A9386811F00CFD12
:1020C0005846FFF71DF81D4BDAF8002018602B6802
:1020D0009B1A184428600136D4E700BF88210120EC
:1020E00000150020181D002028A1002060A100205C
:1020F0000C150020284400204CA100208421012040
:1021000080210120280200202C0200200002002053
:102110004C2E0120FC1400202D31010050A1002084
:1021200014F201003CA10020413A01000000E83F08
:1021300014480020A1B90100C4430020F814002075
:10214000380200203C020020141D00204002002024
:1021500018F20100104800202DE9F04F4FF44D62B5
:1021600085B000217D487E4D7E4F7F4E17F05AF995
:10217000142200217D4817F055F948F22002002171
:102180007B4817F04FF94FF480620021794817F02F
:1021900049F94FF47A720021774817F043F942F277
:1021A00010720021704817F03DF9744B00241C6038
:1021B000734B2C6020466C60AC603C601C6010F07F
:1021C0000BFF704B70491A686748FEF7D3FFBA4699
:1021D0006E4F6F4B00933B68614A6E483146013445
:1021E00011F054FD0023052C2B606B60AB6006F1F1
:1021F0006406EED1684B694C694D6A4E6A4F336094
:10220000A3F52171C4E90253684B3960D3F800800B
:102210001E22C1F880204046214615F041FF3B6850
:10222000039593F859219AB1614D624AAA603268C8
:10223000D3F88000EA6016F0F5FA00225E4B16F043
:1022400075F816F059FB29460246404615F028FF5E
:102250005A4FDFF888B100253D60594B1B68AB42EF
:1022600009DC564A5748116891FBF3F105B0BDE807
:10227000F04F17F0F9B9DBF8003002931846FEF77B
:102280003FFF514B186010F01DFF504B3168186034
:102290004F4BA0F521721A6000680B6898420CBF82
:1022A000D2F880904FF00009002B40DDDAF80020D2
:1022B00093423CDA184610F0D7FE3368186810F0E5
:1022C000DFFEB9F1000F32DD484610F015FF10F0C7
:1022D000F9FE3E4B039A1860A0F52173DFF8F090E9
:1022E0002E49C9F80030C4E90220D3F880204046C6
:1022F00015F0D6FED9F8003093F85921BAB1DFF8BD
:10230000B0902C4AC9F8082003F52172D3F8800058
:10231000C9F80C2016F086FA0022274B16F006F8B2
:1023200016F0EAFA49460246404615F0B9FE029810
:10233000FEF7E6FE274B244A186012683B682649E0
:102340009B1A1844124B38600093104B044A1B68C8
:10235000104811F09BFC01357FE700BF8821012068
:102360000015002084210120181D002028A1002034
:1023700060A100200C150020284400204CA1002062
:1023800080210120280200202C0200203802002099
:102390003C020020000200204C2E012050A1002011
:1023A0002D310100141D0020FC14002014F2010046
:1023B0003CA10020413A01000000E83F1448002001
:1023C00040020020DEB9010010480020101D00204E
:1023D0000C1D0020F8140020A81E002018F2010097
:1023E0002DE9F04F4FF44D628BB000216248634CF1
:1023F000634EDFF8B481634FDFF8D491DFF8D4A1E6
:1024000017F010F8142200215F4817F00BF848F27B
:10241000200200215D4817F005F84FF4806200218A
:102420005B4816F0FFFF4FF47A720021594816F00E
:10243000F9FF42F210720021524816F0F3FF564B9A
:1024400000251D60554B256028466560A5601D6010
:10245000356010F0C1FD524B52491A684948FEF7E9
:1024600089FE5148FEF7DCFEA346CDF800A0D9F85E
:102470000030394640465A46013511F007FC00232A
:10248000052D23606360A36008F1280807F1640745
:10249000EBD1464B06AA03F10805174618685968A0
:1024A000144603C40833AB422246F7D118689B8810
:1024B0002060A3803E4CDFF820A1DFF820810025BA
:1024C0002560DAF80030AB4208DC2168394891FB1E
:1024D000F3F117F0C9F80BB0BDE8F08F364BD3F825
:1024E00000904846FEF70CFE4FF48062C8F80000EA
:1024F0000021274816F096FF002126484FF47A72F3
:1025000016F090FF2D49384617F080FE30B32C4A64
:1025100003A9384611F0AEF803A811F09BF8336810
:1025200083421BDB002819DD264BDFF8B4B01949C4
:102530004FF42472013802FB0030234B1860A0F5E1
:102540002173CBF800306FF4C773184411F058F9B9
:10255000DBF800300E4A0F4911F022F94846FEF729
:10256000CFFD1A4BD8F80020186023689B1A184436
:1025700020600135A5E700BF88210120001500205B
:1025800084210120181D002028A1002060A1002026
:102590000C150020284400204CA10020802101209F
:1025A000280200202C0200205805002064BA0100F7
:1025B0001448002026BA010018F201001BBA0100DD
:1025C00020BA01000C240120141D0020F814002062
:1025D000380200203C020020400200201048002069
:1025E000FC1400202DE9F04F4FF44D62A3B0002100
:1025F0005C485D4CDFF89C815C4FDFF8CCA1DFF8D4
:10260000CCB116F00FFF14220021594816F00AFF32
:1026100048F220020021574816F004FF4FF4806270
:102620000021554816F0FEFE4FF47A7200215348FF
:1026300016F0F8FE42F2107200214C4816F0F2FE3D
:102640004F4B00251D604F4B25601D604E4B656054
:102650002846A5601D6010F0BFFC4C4B4C491A6821
:102660004248FEF787FD4B48FEF7DAFDA1463946A2
:102670004046DAF80030CDF800B04A46013511F096
:1026800005FB0026052D26606660A66008F1280877
:1026900007F16407EBD1404B404C1C60404B414F6D
:1026A000414DA4F521721A60404B186812909B8826
:1026B000ADF84C303A2231460DF14E0016F0B2FE24
:1026C000A4F5117017F03CFBA4F511710246384CCB
:1026D00012A816F0A5FD2023ADF8483026603B680F
:1026E000B34208DC2168334891FBF3F116F0BCFFDC
:1026F00023B0BDE8F08F304BD3F800904846FEF78A
:10270000FFFC4FF48062286000211B4816F08AFE0F
:1027100000211A484FF47A7216F084FE274912A855
:1027200017F074FD88B1264A02A912A810F0A2FF82
:1027300002A810F04FFE11498046F53011F060F804
:102740000D4A0E49434611F02BF84846FEF7D8FCD7
:102750001C4B2A68186023689B1A184420600136B5
:10276000BDE700BF8821012000150020181D0020B2
:1027700028A1002060A100200C1500202844002082
:102780004CA100208421012080210120280200206A
:102790002C02002058050020141D00204C2E012082
:1027A000FC1400204002002010480020E2BC010080
:1027B0001448002072BA010018F201000FC801008D
:1027C000EFB70100F8140020380200203C0200207E
:1027D0002DE9F04F4FF44D62A9B000215A485B4CEF
:1027E000DFF894815A4FDFF8B8A1DFF8B8B116F0DE
:1027F00019FE14220021574816F014FE48F2200258
:102800000021554816F00EFE4FF480620021534817
:1028100016F008FE4FF47A720021514816F002FEBD
:1028200042F2107200214A4816F0FCFD4D4B002583
:102830001D604D4B25601D604C4B65602846A560B2
:102840001D6010F0C9FB4A4B4A491A684048FEF720
:1028500091FC4948FEF7E4FCA146CDF800B03946AA
:102860004046DAF800304A46013511F00FFA0026EA
:10287000052D26606660A66008F1280807F1640748
:10288000EBD13E4A3E4D10685168DFF81C813D4F48
:1028900008AB03C3382231460AA816F0C3FD3A48F4
:1028A00017F04EFA3849024608A816F0B9FC202362
:1028B000ADF820302E60D8F80030B34208DC29682B
:1028C000324891FBF3F116F0CFFE29B0BDE8F08F4E
:1028D0002F4BDFF88CA0D3F800904846FEF710FC91
:1028E000002438604FF4806221461C48079416F09B
:1028F00099FD21464FF47A72504616F093FD254912
:1029000008A817F083FC98B1234A18A908A810F06A
:10291000B1FE18A810F018FD07ABCDE903A3CDE96F
:1029200001440E4900942346224608A810F096FF61
:102930004846FEF7E5FB194B3A6818602B689B1A6E
:10294000184428600136B6E78821012000150020D0
:10295000181D002028A1002060A100200C150020D7
:10296000284400204CA10020842101208021012046
:10297000280200202C0200205805002022BD010062
:102980001448002010480020F8050020BEBA0100BD
:1029900018F20100B3BA0100B8BA0100F81400201F
:1029A000380200203C020020400200202DE9F04FB8
:1029B0004FF44D62A5B000216048614C614F624EFA
:1029C000DFF8C891DFF8C8A116F02CFD1422002111
:1029D0005E4816F027FD48F2200200215C4816F000
:1029E00021FD4FF4806200215A4816F01BFD4FF480
:1029F0007A720021584816F015FD42F2107200213B
:102A0000514816F00FFD554B00251D60544B2560B5
:102A10001D60544B65602846A5601D6010F0DCFA0F
:102A2000514B52491A684848FEF7A4FB4548FEF747
:102A3000F7FBA046CDF800A0D9F800303146384663
:102A40004246013511F022F90023052D2360636011
:102A5000A36007F1280706F16406EBD1444B14AAE2
:102A600003F11805174618685968144603C408335B
:102A7000AB422246F7D118683E4D9B882060A38068
:102A8000222200210DF16E000026DFF80891DFF808
:102A9000088116F0C7FC2E60D9F80030B34208DC7C
:102AA0002968354891FBF3F116F0DEFD25B0BDE84D
:102AB000F08F324BDFF8A0B0D3F800A05046FEF7FD
:102AC0001FFB0024C8F800004FF480622146214813
:102AD000069416F0A7FC21464FF47A72584616F079
:102AE000A1FC2749384617F091FBC8B12E22214698
:102AF00008A8079416F096FC224A07A9384610F059
:102B0000B9FD07A810F020FC06ABCDE903B3CDE971
:102B100001441049009423462246384610F09EFE98
:102B20005046FEF7EDFA184BD8F8002018602B68D5
:102B30009B1A184428600136AEE700BF88210120A7
:102B40000015002058050020181D002028A1002095
:102B500060A100200C150020284400204CA100207A
:102B60008421012080210120280200202C02002045
:102B700062BD01001448002004BB010018F20100EE
:102B8000D2ED010000BB0100F81400203802002043
:102B90003C02002040020020104800202DE9F04FA8
:102BA0004FF44D6289B000214C484D4C4D4F4E4E74
:102BB000DFF86C91DFF86CA116F034FC14220021D0
:102BC0004A4816F02FFC48F220020021484816F02F
:102BD00029FC4FF480620021464816F023FC4FF494
:102BE0007A720021444816F01DFC42F21072002156
:102BF0003D4816F017FC414B00251D60404B2560F9
:102C00001D60404B65602846A5601D6010F0E4F92A
:102C10003D4B3E491A683448FEF7ACFA3148FEF79E
:102C2000FFFAA046CDF800A0D9F80030314638466A
:102C30004246013511F02AF80023052D2360636018
:102C4000A36007F1280706F16406EBD1304DDFF8E9
:102C5000D880DFF8D8902F4F8DF818302B601E46A3
:102C6000D8F80030B34208DC29682B4891FBF3F117
:102C700016F0FAFC09B0BDE8F08FD9F800A0DFF833
:102C800078B05046FEF73CFA002438604FF480627A
:102C900021461848079416F0C5FB4FF47A72214676
:102CA000584616F0BFFB10F029FB07AB2246CDE9D2
:102CB00003B310490094234606A8CDE9014410F05F
:102CC000CDFD5046FEF71CFA144B3A6818602B688D
:102CD0009B1A184428600136C2E700BF88210120F2
:102CE0000015002058050020181D002028A10020F4
:102CF00060A100200C150020284400204CA10020D9
:102D00008421012080210120280200202C020020A3
:102D1000144800201048002045BB0100F814002092
:102D2000380200203C0200204002002018F201007E
:102D30002DE9F04F4FF44D628DB000215F48604C9B
:102D4000604EDFF8A881604FDFF8E491DFF8E4A17E
:102D500016F068FB142200215C4816F063FB48F271
:102D6000200200215A4816F05DFB4FF480620021DA
:102D7000584816F057FB4FF47A720021564816F067
:102D800051FB42F2107200214F4816F04BFB534B9F
:102D900000251D60524B256028466560A5601D60BA
:102DA000356010F019F94F4B4F491A684648FEF745
:102DB000E1F94E48FEF734FAA346CDF800A0D9F861
:102DC0000030394640465A46013510F05FFF002377
:102DD000052D23606360A36008F1280807F16407EC
:102DE000EBD1434B08AA03F1080517461868596848
:102DF000144603C40833AB422246F7D118689B88B7
:102E00002060A3803B4CDFF830A1DFF83081002543
:102E10002560DAF80030AB4208DC2168364891FBC7
:102E2000F3F116F021FC0DB0BDE8F08F334BD3F871
:102E300000904846FEF764F90021C8F800004FF4FE
:102E400080622F4816F0EEFA2E49384617F0DEF968
:102E500030B32D4A05A9384610F00CFC05A810F037
:102E6000F9FB336883421BDB002819DD274B284917
:102E70004FF42472013802FB0030264B264A1860BA
:102E8000A0F52173A0F500701360CDE90230234B4B
:102E90000193234B0093234A234B194810F038FC2D
:102EA0004846FEF72DF9214BD8F80020186023681A
:102EB0009B1A184420600135ABE700BF8821012030
:102EC0000015002084210120181D002028A10020C9
:102ED00060A100200C150020284400204CA10020F7
:102EE00080210120280200202C020020580500200B
:102EF00064BA01001448002092BB010018F20100DE
:102F00000C1900201BBA010020BA01000C2401207A
:102F100080BB0100141D0020FC14002082BB0100B6
:102F200089BB01007DBB010078BB0100F8140020C3
:102F3000380200203C0200204002002010480020FF
:102F40002DE9F04F4FF44D62A5B0002159485A4C7D
:102F5000DFF89081594FDFF8D8A1DFF8D8B116F02B
:102F600061FA14220021564816F05CFA48F2200259
:102F70000021544816F056FA4FF48062002152485E
:102F800016F050FA4FF47A720021504816F04AFABF
:102F900042F210720021494816F044FA4C4B0025C9
:102FA0001D604C4B25601D604B4B65602846A5603D
:102FB0001D6010F011F8494B49491A683F48FEF767
:102FC000D9F84848FEF72CF9A14639464046DAF8C8
:102FD0000030CDF800B04A46013510F057FE00260B
:102FE000052D26606660A66008F1280807F16407D1
:102FF000EBD13D4B3D4C1C603D4B3E4F3E4DA4F54F
:1030000021721A603D4B186814901B798DF854306A
:103010003B2231460DF1550016F004FAA4F511716A
:1030200014A8374C16F024FC364914A816F020FCDE
:1030300026603B68B34208DC2168334891FBF3F11A
:1030400016F012FB25B0BDE8F08F304BD3F80080AE
:103050004046FEF755F8002128604FF480621A4878
:1030600016F0E0F92A4914A817F0D0F8A8B1294AB7
:1030700004A914A810F0FEFA04A810F0ABF900F1AE
:103080008403CDE90203244B0193244B0093244A8B
:10309000244B25490C4810F03BFB4046FEF730F826
:1030A000224B2A68186023689B1A18442060013656
:1030B000BFE700BF8821012000150020181D002057
:1030C00028A1002060A100200C1500202844002029
:1030D0004CA1002084210120802101202802002011
:1030E0002C02002058050020141D00204C2E012029
:1030F000FC1400204002002010480020A2BD010066
:1031000014480020A2D40100CABB010018F201003B
:103110000FC80100EFB7010082BB010089BB0100AD
:103120007DBB010078BB010080BB0100F8140020CA
:10313000380200203C0200202DE9F04F4FF44D6290
:10314000A7B000215448554CDFF87C81544FDFF87C
:10315000BCA1DFF8BCB116F065F91422002151487A
:1031600016F060F948F2200200214F4816F05AF993
:103170004FF4806200214D4816F054F94FF47A72F2
:1031800000214B4816F04EF942F2107200214448DB
:1031900016F048F9474B00251D60474B25601D6020
:1031A000464B65602846A5601D600FF015FF444B37
:1031B00044491A683A48FDF7DDFF4348FEF730F806
:1031C000A14639464046DAF80030CDF800B04A460C
:1031D000013510F05BFD0026052D26606660A660B7
:1031E00008F1280807F16407EBD1384A384C106819
:1031F0005168384F384D06AB03C33822314608A812
:1032000016F010F9354906A816F032FB344906A825
:1032100016F02EFB26603B68B34208DC216831487B
:1032200091FBF3F116F020FA27B0BDE8F08F2E4B9A
:10323000D3F800804046FDF763FF002128604FF47B
:1032400080621A4816F0EEF8284906A816F0DEFF4C
:10325000B0B1274A16A906A810F00CFA16A810F06B
:1032600073F80023CDE90333224B0293224B0193E1
:10327000224B0093224A234B0C4906A810F0EEFA89
:103280004046FDF73DFF204B2A68186023689B1AD3
:10329000184420600136BEE7882101200015002077
:1032A000181D002028A1002060A100200C1500207E
:1032B000284400204CA100208421012080210120ED
:1032C000280200202C0200205805002022BD010009
:1032D000144800204002002010480020F80500207B
:1032E000A2D4010002BC010018F20100B3BA01002F
:1032F000B8BA010082BB010089BB010078BB0100A4
:1033000080BB01007DBB0100F814002038020020C2
:103310003C0200202DE9F0474FF44D629CB00021A3
:1033200059485A4C5A4F5B4EDFF8C491DFF8C4A19C
:1033300016F078F814220021574816F073F848F276
:1033400020020021554816F06DF84FF480620021EC
:10335000534816F067F84FF47A720021514816F07E
:1033600061F842F2107200214A4816F05BF84E4BA9
:1033700000251D604D4B25601D604D4B6560284646
:10338000A5601D600FF028FE4A4B4B491A68414862
:10339000FDF7F0FE3E48FDF743FFA046CDF800A044
:1033A000D9F80030314638464246013510F06EFCFF
:1033B0000023052D23606360A36007F1280706F151
:1033C0006406EBD13D4B07AA03F1180516461868B1
:1033D0005968144603C40833AB422246F7D1186833
:1033E0009B882060A380364CDFF80C81354F002588
:1033F0002560D8F80030AB4208DC2168324891FBE8
:10340000F3F116F031F91CB0BDE8F0872F4BD3F87B
:1034100000A05046FDF774FE002138604FF4806232
:103420001F4815F0FFFF2A49304616F0EFFEF0B1B5
:103430004FF000092E22494610A8CDF83C9015F017
:10344000F1FF244A0FA9304610F014F90FA80FF02D
:103450007BFF214B0293214B0193214B0093CDE93C
:103460000399204B204A0E49304610F0F7F9504698
:10347000FDF746FE1D4B3A68186023689B1A1844F6
:1034800020600135B5E700BF88210120001500202C
:1034900058050020181D002028A1002060A1002050
:1034A0000C150020284400204CA10020842101207C
:1034B00080210120280200202C020020B0BC010045
:1034C00014480020104800202BBC010018F2010015
:1034D000D2ED010000BB010082BB010089BB0100ED
:1034E00078BB01007DBB010080BB0100F814002007
:1034F000380200203C020020400200202DE9F04765
:103500004FF44D6288B000214748484C484F494E1F
:10351000DFF87091DFF870A115F084FF142200210C
:10352000454815F07FFF48F220020021434815F07E
:1035300079FF4FF480620021414815F073FF4FF48A
:103540007A7200213F4815F06DFF42F2107200219F
:10355000384815F067FF3C4B00251D603B4B25604C
:103560001D603B4B65602846A5601D600FF034FD73
:10357000384B39491A682F48FDF7FCFD2C48FDF7F8
:103580004FFEA046CDF800A0D9F8003031463846AD
:103590004246013510F07AFB0023052D236063605D
:1035A000A36007F1280706F16406EBD12B4C2C4FE2
:1035B000DFF8D8802B4E8DF81C3023601D463B6809
:1035C000AB4208DC2168284891FBF3F116F04CF877
:1035D00008B0BDE8F087D8F800904846FDF790FDA8
:1035E0004FF4806200213060154815F01BFF0FF08A
:1035F00085FE0023CDE903331C4B02931C4B019342
:103600001C4B1D4A0E49009307A81C4B10F026F9CD
:103610004846FDF775FD1A4B3268186023689B1AFF
:10362000184420600135CAE78821012000150020D8
:1036300058050020181D002028A1002060A10020AE
:103640000C150020284400204CA1002084210120DA
:1036500080210120280200202C0200201448002094
:10366000400200201048002063BC010082BB010022
:1036700089BB010078BB010080BB01007DBB01005C
:10368000F8140020380200203C02002018F201004B
:1036900008B5154B0121186814F020FEFDF7CCFD8C
:1036A000FDF782FEFDF72CFFFEF7B8F8FEF7AEF946
:1036B000FEF7A2FAFEF75CFCFEF74EFDFEF790FE69
:1036C000FEF790FFFFF784F8FFF770F9FFF766FA4F
:1036D000FFF72EFBFFF734FCFFF72EFDFFF71AFE76
:1036E000FFF70CFF002008BD14F2010070B5064E74
:1036F000064CA41BA4080025AC4200D170BD56F8AE
:10370000253098470135F7E764F4010094F401008F
:1037100013B500200EF094FF084C0146204613F02C
:103720005BFC204614F076FB054B06480094012212
:103730004FF4806113F05CFC02B010BD184C002007
:10374000E2BD0100184800204FF080435722C3F823
:103750001C25BFF34F8F0549054BCA6802F4E06290
:103760001343CB60BFF34F8F00BFFDE700ED00E0D8
:103770000400FA05704700002DE9F74304460E46A1
:103780001746EFF3108872B60568C5B9DFF88C905C
:10379000051DD4E90331A2689A1A8A4222DC1E4A26
:1037A00012883280581C6269E0600B4096E8030082
:1037B00002EBC30383E8030088F3108810E055F898
:1037C0000C390360D1E900012B6983E80300284626
:1037D0000C2100F0CDFA687988F3108800F006FB20
:1037E000012715E097B1D9F800000190092100F0F8
:1037F000BFFA01980146284600F056FB88F310886E
:1038000000F032FBEFF3108872B6C2E788F310883D
:10381000384603B0BDE8F083CC4D0020D04D0020E9
:1038200070B50B4604461046EFF3108672B6D4E925
:1038300002128A4219D0481CA060206962690140C6
:1038400002EBC10103C983E8030065680DB355F8B5
:103850000C39636028460C2100F08AFA687986F3F7
:10386000108800F0C3FA012012E078B10A4A156806
:1038700009212B61284600F07BFA2946204600F0FA
:1038800013FB86F3108800F0EFFAECE786F310885C
:1038900070BD86F31088E6E7D04D002070B5044671
:1038A000EFF3108672B6314B1A68536A002B56D06C
:1038B000D2E90630984252D0581C9061106A0340F9
:1038C00039B9516929B9591C03D186F310881846B2
:1038D00070BD002B47DB516A01EBC30103C984E8CB
:1038E000030055695DB355F80C195161002B0DDBD0
:1038F000D2E907349169506A591A8C42A9BF591C00
:103900004FF0FF332340D16100EBC3042B6993E8F0
:10391000030084E803002B79062B02D186F310887C
:103920001BE0002328462B610C2100F021FA687966
:1039300086F310880E2810D800F058FA0DE0002BFE
:10394000ECDA0421104600F013FA86F31088084BD5
:103950004FF080525A60BFF36F8F0123B7E74FF0EB
:10396000FF330029ADD01461BBE700BFD04D00206C
:1039700000ED00E00346D0E9072010B59C69141B58
:10398000A04201DA002010BD541C0240DC61F9D4D1
:10399000586A00EBC20203C982E803001A896FEA81
:1039A00042426FEA52421A81184600F021FB012080
:1039B000E9E7000008B50E4B53F82130A3B11A799E
:1039C000042A0BD103C81A6982E8030018460C21A7
:1039D00000F0CEF9074B0120186008BD01461846DB
:1039E000BDE80840FFF7C6BF4FF0FF30F5E700BF66
:1039F0001C4E0020D44D00202DE9F0411D46294BDE
:103A000053F82140284B1B880380064690462CB96A
:103A100085F310884FF0FF30BDE8F0812379042B47
:103A200036D0224B014620461F68FFF7A3FF78B12E
:103A300085F310883B79062B02D01D4B1B682BB1F8
:103A40001C4B4FF080525A60BFF36F8F0120E3E7A9
:103A5000B8F1000F02D185F31088DDE73B793E61B4
:103A6000062B0CBF06210521384600F081F904F130
:103A70001400394600F018FA23896FEA43436FEACD
:103A800053432381204600F0B3FA85F31088D7E72B
:103A9000D0E90001236983E803000C21204600F0EF
:103AA00067F9F2E71C4E0020CC4D0020D04D0020DD
:103AB000D44D002000ED00E010B50146EFF3108476
:103AC00072B6054B1B880380044B1868FFF752FF42
:103AD00084F3108810BD00BFCC4D0020D04D0020D5
:103AE00021230380FFF766BFEFF3058313F0FF0F79
:103AF00001D0FFF7F5BF064B1B881BB2994201D1DD
:103B0000FFF7DABFEFF3108372B60122FFF774BF3D
:103B1000CC4D002010B4EFF3058212F0FF0203D069
:103B20005DF8044BFFF7DCBF074B1B881BB29942C3
:103B300003D15DF8044BFFF7BFBFEFF3108372B6FC
:103B40005DF8044BFFF758BFCC4D0020F7B5054694
:103B50000C461646EFF31083019372B6094A1768B4
:103B60000621384600F004F995E80300019B3C610A
:103B7000012284E803003146204603B0BDE8F0404E
:103B8000FFF73ABFD04D002038B5EFF3108572B67D
:103B90000D4BB0F9002053F822402379062B04D0B6
:103BA00085F310884FF0FF3038BD03C9236983E8DF
:103BB000030020460C2100F0DBF8607985F31088C3
:103BC00000F014F90120EFE71C4E00200021FFF760
:103BD00065BE0121FFF762BE034B1B68586A10B136
:103BE000D3E90630C01A7047D04D0020044B1B6843
:103BF00000220139C3E9062258621962704700BFEA
:103C0000D04D0020F8B504460D46EFF3108772B68C
:103C100003683BB94FF0FF33036087F31088012539
:103C20002846F8BD11B987F31088F9E70D4B1E68D7
:103C30000321304600F09CF8236801330DD106F1D2
:103C40000C0323600023F36087F31088064B4FF0CA
:103C500080525A60BFF36F8FE2E73146204600F092
:103C600023F9F1E7D04D002000ED00E038B504461F
:103C7000EFF3108572B6006810B985F3108838BD6F
:103C8000431C02D100232360F7E750F80C3923606E
:103C90000C2100F06DF8236813B94FF0FF33236057
:103CA00085F31088034B4FF080525A60BFF36F8F3B
:103CB000E5E700BF00ED00E0026810B592B11368BF
:103CC0008B4208D18A4202D10023036001E00B68D5
:103CD0001360084610BD13461B681C68A14203D040
:103CE0009A42F9D10021F4E72BB10A681A60026800
:103CF0008A42EED1E9E71946EBE7000070B5174DAF
:103D0000174E2A68346832BB24B123790B2B04BFC9
:103D10000C23237100F0E0FA2B68002BFAD000236B
:103D2000104A002111602A680F49B2FA82F251F854
:103D3000222010680C380B22844202710AD023B171
:103D40001A790B2A04BF0C221A71084BB0F906200D
:103D50001A80306070BD2346E2E700BFC84D0020E6
:103D6000D04D0020D44D0020DC4D0020CC4D002053
:103D7000F8B50A29037904460D461AD90A2B14D836
:103D80004779184A52F8276039460C307EB13368BB
:103D9000E36052F82730186042F82100124A4FF0D1
:103DA00000431168FB400B4313602571F8BDE060D0
:103DB000F2E70A2BF9D90B4E407904F10C0106EB1E
:103DC0008000FFF779FF627956F82230002BECD1A2
:103DD00005494FF0004323FA02F20B6823EA02037D
:103DE0000B60E2E7DC4D0020C84D00200B4B1B6848
:103DF0001A790A2A02D95B7983420ED9EFF3058337
:103E000013F0FF0F03D0064B01221A607047054BD9
:103E10004FF080525A60BFF36F8F7047D04D002033
:103E2000D44D002000ED00E008B5EFF3108372B62A
:103E3000094B0A4A1B880A4D1BB2002442F8234052
:103E4000084A286813682146013B1360FFF790FF7A
:103E50002C6000F0FDF900BFCC4D00201C4E00206E
:103E6000D04D0020D84D0020EFF3108072B60B4BE0
:103E70001B681A790A2A07D95A79094B53F8221074
:103E800011B1096843F8221080F31088054B4FF0F8
:103E900080525A60BFF36F8F704700BFD04D002033
:103EA000DC4D002000ED00E030B54C7901F10C0252
:103EB0000346006818B110F8075CA542F8D9C8603D
:103EC0001A6030BD0F2A2DE9F84316461F4626D842
:103ED00010F003031EBF0439C918C3F10402A1F195
:103EE000280118BF801821F00303C418EFF31089CC
:103EF00072B62149012251F822500FFA82F88DB191
:103F00000132212AF7D189F310886FF08A082FE057
:103F100002212046FFF72CFF89F3108828E06FF07C
:103F2000150825E041F822400246A4F80680DDE9A4
:103F3000080100F059F9114A20604FF0FF33C4E93D
:103F400008351368667101331360FB07C4E9035534
:103F5000C4E905552571E561DAD40C212046FFF747
:103F600007FF7A07D8D489F310883046FFF73EFF61
:103F70004046BDE8F88300BF1C4E0020D84D00200D
:103F8000034B53F82000034B002808BF1846704726
:103F900054BE0100E8BD01000C4B10B51B68EFF3E7
:103FA000108472B61A8910420DD118610721184683
:103FB000FFF7DEFE84F31088054B4FF080525A6005
:103FC000BFF36F8F10BD84F31088FBE7D04D002046
:103FD00000ED00E010B50346EFF3108472B60288DE
:103FE00002EA010022EA0101198084F3108810BD61
:103FF00010B50379048A072B04D0082B0DD00024B8
:10400000204610BD03891C40002CF9D00C21FFF77D
:10401000AFFE054B01221A60F2E7038934EA03037D
:104020000CBF01240024EFE7D44D002013B5064B4C
:1040300001901C68FFF7B0FF019904F1080002B07D
:10404000BDE81040FFF7C6BFD04D002010B5EFF31C
:10405000108472B6038902791943072A038A018101
:1040600004D0082A14D084F3108810E019400029E5
:10407000F9D00C21FFF77CFE084B01221A6084F373
:104080001088074B4FF080525A60BFF36F8F10BDFE
:104090008B430CBF01210021E9E700BFD44D002074
:1040A00000ED00E008B5FFF721FB034815F090FB99
:1040B000FFF7EEFA002008BD88BE01001FB5EFF340
:1040C000108372B6074B029300230193064B0093B3
:1040D000072204234FF4C0610448FFF7F3FE00F009
:1040E000B7F800BFC2BE0100A5400000A04E0020EE
:1040F00008B50EF02BFFBDE8084013F09FBE7047D7
:1041000008B50B4B1A680C4652B901221A60FFF72A
:10411000F6FF0848214615F0A7FA074815F058FBA6
:10412000EFF3108372B600F05DF800F049F900BFBC
:10413000A0540020C7BE0100E3BE010070B50D46CB
:1041400000210446FFF75EFD0D4E70B9BFF35B8F93
:10415000E388BFF35B8F32881BB212B29A4204D05D
:104160006DB901212046FFF74DFD3388BFF35B8F0A
:10417000E380BFF35B8FA3880133A380012070BD70
:10418000CC4D00200021FFF7D9BF8388013B9BB2B3
:10419000838033B9BFF35B8FC380BFF35B8FFFF7BF
:1041A00065BD70470C4B0D4A10B540219A600C4C10
:1041B000E02283F82220D9770022A0180132302A89
:1041C00080F80013F9D11A6942F010021A615A6995
:1041D00042F400725A6110BD00ED00E000100000D2
:1041E00000E100E070470000134423F003034FF0A8
:1041F000773210B543F8042C5A0758BF4FF0883275
:10420000A3F104045CBF43F8082CA3F108044FF0A9
:10421000807344E902030D4B44F80C3C0022032355
:1042200044E9053202200123224644E907306FF0B9
:10423000020344F8201C42F8243D0B2342F8043DBD
:10424000013B032BFAD1A4F1440010BD293E00002C
:104250000023E1EE103AEFF3148323F0040383F319
:104260001488BFF36F8FEFF3108362B6024B4FF0E9
:1042700080525A60BFF36F8F00ED00E0114910B516
:104280000C6872B6FFF73AFD62B6A04208BF10BDD7
:104290002146BDE8104049B1EFF309821EF0100F2E
:1042A00008BF22ED108A22E9F04F0A600068B0E8EA
:1042B000F04F1EF0100F08BFB0EC108A80F3098891
:1042C00070470000D04D0020024B4FF080525A60E2
:1042D000704700BF00ED00E030BF62B6BFF36F8FE4
:1042E00072B6704708B502490620FFF709FF00BF04
:1042F000F5BE010008B502490720FFF701FF00BF26
:1043000001BF010008B502490520FFF7F9FE00BF13
:1043100014BF010008B502490820FFF7F1FE00BFF5
:1043200027BF010008B502490920FFF7E9FE00BFD9
:1043300039BF010008B502490A20FFF7E1FE00BFBE
:104340004DBF010008B502490B20FFF7D9FE00BFA1
:104350005FBF010070477047134A08B5D2F8883034
:1043600043F47003C2F88830FFF7F4FF0F4B104A94
:1043700010498B4210D3104B104A0021934210D3A6
:10438000FFF7E9FF00F04EF8FFF7F4F914F08EFEA6
:10439000BDE80840FFF792BE52F8040B43F8040B47
:1043A000E7E743F8041BE9E700ED00E00002002026
:1043B000C8F40100540500205805002020320120D7
:1043C000BFF34F8F0549064BCA6802F4E0621343FE
:1043D000CB60BFF34F8F00BFFDE700BF00ED00E0F3
:1043E0000400FA050C4B1B78062B12D10B4B1868F6
:1043F00010F00F000DD104331B6803F0F003302BD5
:1044000008D1074B1B6813F0F00F0CBF01200020F0
:1044100070470020704700BFE00F00F0E40F00F08D
:10442000EC0F00F008B5FFF7DDFF20B1114AD368AB
:1044300023F08073D360FFF7D5FF10B10E4B03223A
:104440001A60FFF7CFFF30B14FF080430022C3F86E
:104450000C21C3F8102100F059F8084B0122C3F8D1
:104460004025FFF79FFEFFF743FEBDE808400EF032
:1044700063BD00BFF0ED00E0A005004000E001409A
:10448000044B1B682BB1044B4FF080525A60BFF3B2
:104490006F8F7047D44D002000ED00E008B5044A4E
:1044A000044B10681B689847BDE80840FFF7E8BF59
:1044B000B4540020A454002008B5044A044B5068AA
:1044C0005B689847BDE80840FFF7DABFB4540020A6
:1044D000A454002008B5044A044B90689B68984790
:1044E000BDE80840FFF7CCBFB4540020A45400201E
:1044F00008B5044A044BD068DB689847BDE808401B
:10450000FFF7BEBFB4540020A45400207047000041
:10451000EFF3108172B6094B1A680132012A1A6052
:1045200009D14FF080430020C3F800011A60D3F88E
:104530000021002AFBD081F310887047C45400206A
:10454000EFF3108172B6064A1368013B13601BB982
:104550004FF0804301225A6081F31088704700BFFA
:10456000C4540020114A117838B5F1B94FF0804396
:104570001C46C3F81815C3F8041101219960D4F83A
:104580000431002BFBD001251570FFF7C1FF00237C
:10459000C4F80C314FF080422561D2F80C31002B69
:1045A000FBD0BDE83840FFF7CBBF38BDC854002072
:1045B0000CF015BBD0E902301847000070B50E466C
:1045C000154600211022044614F02CFF024BE56032
:1045D000C4E9013670BD00BFB5450000036802465E
:1045E0003BB11868834219BF02681A600023136048
:1045F000704718467047EFF3108272B60B6833B9F4
:1046000003685BB11B680B60036819600160406858
:1046100082F3108820B10121FFF718BD0960F5E78A
:10462000704708B5EFF3108172B6FFF7D7FF81F33B
:10463000108808B10023036008BD70B505460E461A
:10464000EFF3108172B60024B44207D1002081F349
:10465000108858B90120FFF7E9FCF1E705EBC40029
:10466000FFF7BCFF0028F2D10134EDE7002303601F
:1046700070BDD0E90501FFF7BEBF0000016003492E
:10468000C0E90523C0E90310704700BF734600006E
:104690000A4619B9D0E90501FFF7ADBF011D006851
:1046A00013F0FEBC0146006810B1043113F0DCBC0D
:1046B0007047000038B58569044685B10A4B186813
:1046C000436901330CD013F096FC23696A68C11A60
:1046D0008A4226BF9B181B1A00236B60206138BDDD
:1046E00083685B689847F0E710F201008369084A25
:1046F00010B5044610682BB15A68214613F0D0FC5F
:10470000206110BD2146BDE8104013F0ADBC00BFD4
:1047100010F201008369002210B504465A60A069B6
:1047200030B1436823B90368A36163699847F6E72A
:104730002046BDE81040FFF7D9BF000070B5054620
:104740000C46EFF3108672B6FFF7B4FF05F11803BD
:104750001A68EAB922601A681AB151686068091AC1
:1047600051601C60AB69A34206D10D4B62681868AA
:10477000294613F095FC286186F31088094B1B68C5
:104780002BB1094B4FF080525A60BFF36F8F70BD51
:10479000616850688142DDD3091A61601346D7E72A
:1047A00010F20100D44D002000ED00E070B5044689
:1047B0000D46EFF3108672B6FFF77CFFA26904F195
:1047C00018012AB92046FFF791FF86F3108870BDC3
:1047D0009542136802D011461A46F2E70B60002B8F
:1047E000F0D05A6869680A445A60EBE7034B4161AC
:1047F000C0E9023000238361704700BF1547000005
:1048000058B1037843B1013810F8013F0BB90120CA
:104810007047303B092BF7D90020704738B1054B62
:104820000A0901F00F019A5C5B5C02704370022080
:10483000704700BF6DBF0100F8B50D465700064632
:1048400010B18C18A54201D13846F8BD304615F894
:10485000011BFFF7E3FF0644F4E7F8B50E465700E7
:10486000054610B18C18B44201D13846F8BD28462F
:1048700014F8011DFFF7D2FF0544F4E703461A467A
:10488000013311780029FAD1101A704707B50422B4
:1048900001910DEB0201FFF7E0FF03B05DF804FBAF
:1048A0000E4B994230B517D80A2301221C468B4281
:1048B0000FD960B183180A25B1FBF5F405FB14107C
:1048C000303003F8010D084609282146F4D8104677
:1048D00030BD63430132EAE70A22EAE7FFC99A3BA7
:1048E000FFF7DEBF13B5074B01911B6804469868BC
:1048F00014F072FA0199204602B0BDE8104013F09E
:104900009FBA00BFEC04002007B5014601A8FFF7DD
:1049100085FF022101A8FFF7E5FF03B05DF804FB66
:1049200007B501466846FFF7B1FF08216846FFF763
:10493000D9FF03B05DF804FB10B50446FFF79EFFF6
:1049400001462046BDE81040FFF7CCBF90B1D9B179
:10495000002340EA0102D2070ED5C20710D5CA07CC
:1049600010D581423EBF024608461146091AF6D1CB
:1049700000FA03F108467047400849080133E8E7A8
:104980004008EAE74908EAE70146F3E72DE9F0477E
:104990000D468046114628461446FFF7D7FF85424C
:1049A00041D3B4FBF0F2B5FBF0F04FF0004EB0FA9B
:1049B00080FC0021CCF120072EFA0CFE0E460024CC
:1049C00000250023CCF15F0C14EB040A45EB05092C
:1049D00010EA0E0F54464D464FEA460603D04AF001
:1049E000010A54464D469D4208BF94424FEA5E0E6E
:1049F00012D3A41A65EB030546F00106002E0EDA69
:104A000054EA050300D00136C7F12007C8F800605A
:104A100088F80470BDE8F087002EEFD1013F013126
:104A20006145D1D3ECE700273E46EDE70C4A10B5CF
:104A3000D2F84C41002303601CB1D2F85441A1428A
:104A400007D0D2F8703153B1D2F87831994206D1FB
:104A50000123242101FB032303F5A673036010BD8A
:104A600044020020F8B5054616460C4619B1016807
:104A7000641A241101346B68A34201D800200AE0B3
:104A80002868314600EB041027010CF0F7FA0028E3
:104A9000F0D128683844F8BDF0B593B015462F23FF
:104AA000009306460C46402302AA0B2128460CF030
:104AB0002CFC00281BDD2B685D7805F01F056B1EA4
:104AC00001259D400023ADB223600227216802AA80
:104AD0003046FFF7C7FF206010B9384613B0F0BD6D
:104AE00083881D424FF00107F0D00027F5E7022729
:104AF000F3E7000070B5164CA36805460E4683B177
:104B0000E36801330BD104F110035B88B34208D191
:104B10001048294612F058F818B1002015E0236912
:104B2000F3E7A36F0BB9002070BDE36F013314BF2F
:104B3000D4F88030084B5B88B342F4D1074829464B
:104B400012F042F80028EED0702008302044EBE745
:104B50004402002060020020C4020020D002002095
:104B60001FB514461A460378012B0AD10023CDE95C
:104B700001314068069B039401A90AF00FFD04B0BF
:104B800010BD4FF0FF30FAE71FB54268002A034618
:104B900011DB82687AB11068516801AC03C4906877
:104BA0000021117001AA044603CA4FF0FF32986039
:104BB000D9601C615A6004B010BD30B50368013B78
:104BC000012B97B004461CD8C56A042303609DB12D
:104BD000502200210DEB030014F024FC4FF0FF33B2
:104BE00015936368013314BFA36804F108030093AD
:104BF000002269462046A8472046FFF7C5FF00234C
:104C0000236017B030BD4269013201D013F0F3B90F
:104C100083685B6818470000074B10B504461868A6
:104C2000FFF7F1FF20F07F42626520460621BDE8D4
:104C300010400CF09DBC00BF10F201002DE9F043C4
:104C4000A1B006460C4617460A4601460AA89846F1
:104C50000CF090FA00285FDB0A9B5B785B0903D0BD
:104C6000204621B0BDE8F0833B4B1868FFF7CBFF2F
:104C700002AD294681460AA80CF06CF828460CF0D3
:104C800085F803462FB195E8030007F1680282E832
:104C90000300ABB10A9A93F8E810527891420FD111
:104CA000D3F8EC00A9EB0009B9F1000F08DC0123EF
:104CB00088F8003004210AA80CF07FFC0446CFE7F6
:104CC000002288F80020002BF4D003F10C0001AA88
:104CD00004210CF00DFA431E072B8146EAD82A4620
:104CE00004210AA80CF004FA81450546B8DC0298B4
:104CF0000544AD1BB042A4EB050508D33319984217
:104D000005D800F108039E1BA61BAE4207D2002364
:104D100088F80030C7E91A336FF01500A1E7019950
:104D20004A4614F07DFAB9F1080F99D004210AA877
:104D30000CF0BDF9037823F00F0343EA0903037075
:104D400002982A4600F10801484414F003FBA4F13C
:104D5000080009EB000483E714F2010043685A1CC1
:104D6000012A13B5044605D8204602B0BDE810401C
:104D7000FFF723BF013B436040F6B831C3F10403A2
:104D80004FF4FA60994098400EF052F9014604F150
:104D90003400FFF77DFC2368022B0BD00023009327
:104DA000D4E9021204F1140304F16000FFF7D8FE05
:104DB0000028D9DD02B010BD2DE9F041104CD4F827
:104DC000EC50002306460F460360A04635B104F1BF
:104DD000EC0011F0F9FE4FF0FF3560B9D8F804315E
:104DE0005BB10848394611F0EFFE08B1054C34605C
:104DF0002846BDE8F081EC34F9E70125F8E700BF6B
:104E0000440200204803002010B586B01022002183
:104E100001A814F007FB04230093104B0593002313
:104E20000F481A4669460AF0B9FA002810DB0D4B04
:104E30000D4C1A680A480023C4E9003221460B4A87
:104E400011F0A8FE01212046FFF7F7FB034610B939
:104E5000002006B010BD5B689847F3E700003316EA
:104E6000BC590020D04D0020A45900201955000045
:104E7000F8B5264CA36806460F461546DBB1E36835
:104E800001331CD104F110010B7803F00F039D4294
:104E900011D12A460431384614F092F958B91C4809
:104EA000314611F091FE70BBE369042B03D194F8F5
:104EB0002030FF2B27D0A36F1BB90020F8BD21693C
:104EC000E2E7E36F013314BFD4F8801011490B7887
:104ED00003F00F03AB42F0D12A460431384614F0F8
:104EE0006FF90028E9D10C48314611F06DFE08B188
:104EF0000A48E3E7D4F88C30042BDED194F89030E4
:104F0000FF2BF5D0D9E70648D8E700BF44020020C0
:104F100060020020C4020020D0020020BC02002059
:104F20004C0200202DE9F041104CD4F81C51002314
:104F300006460F460360A04635B104F58E7011F0A9
:104F400043FE4FF0FF3560B9D8F8343163B10848FB
:104F5000394611F039FE08B1054C34602846BDE8E9
:104F6000F08104F58E74F8E70125F7E7440200208C
:104F7000780300202DE9F74F98460023CDE9003350
:104F800006461446036011B16846FFF715FF1CB1D1
:104F9000214601A8FFF7C6FF214CDDE900AB002543
:104FA0004FF0FF392346D4F84C2122B9A9462434C6
:104FB000B5B90125F7E7524502D0BAF1000FF6D195
:104FC000D4F850215A4502D0BBF1000FEFD1B8F10F
:104FD000000F09D1242707FB053505F5A6753560B7
:104FE000484603B0BDE8F08FD8F80010D4F864212B
:104FF000087800F00F008242D9D1002AD7D02423AC
:10500000043104F5AC7003FB05F714F0D9F8044B38
:105010000028CCD107F5A6773B443360E0E700BF1A
:10502000440200207FB51C4EB6F9004084BB1B4BE8
:105030001B481C4DCDE901431B4B00930622234620
:105040004FF48B61FEF73EFF30802846E022214678
:1050500040F8084B14F0E6F93022214605F1EC0047
:1050600014F0E0F94822214605F5A67014F0DAF9AB
:105070008022214605F5CA7014F0D4F90DF0B4FF72
:10508000C5F8E8000BF04AFEB6F9000004B070BDA8
:105090006FF01000FAE700BFA25900207DBF0100A9
:1050A0004955002044020020094E0000064BBFF382
:1050B0005B8F53E8000F421C43E800210029F8D120
:1050C000BFF35B8F80B270472C0300202DE9FF47B0
:1050D0000160DDE90C5604460F4690469946FFF7FD
:1050E000E5FF8246B9F1000F28D00DF07DFFCDE934
:1050F000009AADF80C00022303AA012120680CF0ED
:1051000034F942460346394620460CF08BF90E4AE4
:105110000823042120460CF029FA002809DD45B1B6
:105120003EB12F2300932A4633460B2120460CF034
:10513000EDF900EAE07004B0BDE8F087CDE9009039
:105140004B464A464946D9E7A8BF01002DE9F04F32
:1051500091B0CDE90423002307938DF81B309DF80F
:10516000703004781A9D012B81468A46C4F30114DD
:1051700064D801238DF81C308A4B089315B9002C94
:1051800040F0B080884E01213046FEF73BFDB2680A
:1051900033463AB1B26F22B13046FEF767FD0025C3
:1051A00039E001220392039A702656439A1902218C
:1051B00091601B9991635563049A06F1080706F103
:1051C0001C011F4402F1180C0B44106851681D4665
:1051D00003C5083262452B46F7D1039BDFF8C8B1FF
:1051E00007AA92E803004FF0700808FB03B808F123
:1051F000680383E803003A460DF11B035146484615
:10520000FFF71CFD051E5B4609DA0023C8F80830CD
:105210005846FEF72BFD284611B0BDE8F08FAA4690
:105220002CB1012C4DD00024C8F8084029E0802D75
:1052300007DDC8F808405846FEF718FD6FF0150561
:10524000E9E79BF89421C8F810409ABB0BF5CA70A7
:105250002A46C8F81000494613F0E2FFD8F810209B
:10526000514BC8F814502AB30422C8F80C2040F659
:10527000B8314FF4FA600DF0DBFE01220446C8F8A5
:1052800008204948FEF7F2FC039B1946464B702262
:1052900002FB01339B68002B81D09DF81B306BB360
:1052A000424943483A46FFF789F941494148FFF7E7
:1052B000A2F9B0E70399702202FB0132002191604C
:1052C000DFE74FF0FF32C8F80C20D9F80000D9F81A
:1052D000041010365E4403C6D9F80800306041F26D
:1052E0008834CEE72A460DF11B03FFF7A7FC051E05
:1052F00091DB9DF81B40002C8DD1274601238DF8B2
:105300001C30284B0893B7B107F13405002C42D06C
:1053100007F150031846284903933A46FFF74EF920
:105320002649039B0968234A2846FFF7A7F9214627
:105330002846FFF7ADF909AD1C220021284614F0DC
:1053400071F8059B6BB12E4603F1180C186859686B
:10535000324603C2083363451646F7D108238DF859
:105360003C300095049B5246494607A8FFF7F8FBDE
:10537000051E3FF750AF4FB13846FFF705FC1CB193
:1053800007F13400FFF78EF900233B6015F1800F21
:105390007FF405AF3FE71C222146284614F042F86F
:1053A000C9E700BFBC590020440200206954000036
:1053B000AC590020A45900205D4D000010F20100FE
:1053C000F7B50F46002419461646134600943A4690
:1053D00005460BF0E1FF00280CDD361AAE816E6D3C
:1053E000EC8107446F6046B92846FFF715FC30464C
:1053F00003B0F0BD4FF0FF30FAE72046F8E70000B9
:10540000D0F8E430802B2DE9F04104460E4626D832
:10541000C368DFF850805B78802241463046FFF752
:10542000CFFF3368D4F8E4701D78E3681B7803F08D
:105430000F03043305F00F05FF1A043504F164016E
:1054400019443A4608EB050013F0EAFEEA19414612
:1054500030460BF08FFED4F8E400BDE8F0816FF029
:105460006800FAE7C954002030B5044697B06830A8
:105470000BF08CFCE36A054670B35BB30021542249
:1054800001A813F0CFFF194B00936368174801334D
:1054900014BFA16804F108010A7802F00F02043277
:1054A00013F0BEFE69462846FFF7AAFF002811DB6D
:1054B00095F8E9302246002B14BF0623032342F857
:1054C000143B6946E36A204698472046FFF75CFB99
:1054D0000023236017B030BD002BFBD022460521EE
:1054E00042F8141B014620469847F3E7C9540020B0
:1054F00010B50B46802207490446FFF761FF0146BD
:1055000020B92046BDE810400CF041B84FF0FF3004
:1055100010BD00BFC95400202DE9F0438146C806E4
:10552000B9B040F1AB8000250DF150081C2229468E
:1055300040460395A54C13F075FF01238DF86830A4
:105540002F460EAB0093CDF80480002303AA02A9D6
:10555000484609F091FF061EC0F290800ED07319E4
:10556000802B88BFC5F1800604EB05000299324606
:1055700088BF0127354413F053FEE2E7C446BCE878
:105580000F001BAC0FC408239CE803008DF8843087
:10559000149B042B84E803001BAC04D19DF8540039
:1055A000FF2808BF3446012388498DF820302A4659
:1055B00022A8CDF824900BF0DDFD00285EDB229AB6
:1055C0001378C3F30113032B4DD151880EA8FFF7B5
:1055D00091FA054628B13430FFF764F82846FFF702
:1055E000ECFA229B0EA906A85D88FFF7E5FB06985A
:1055F000002838D0764A69BAD2F84C51002389B2D3
:1056000007932DB1854203D1B2F860518D4209D084
:10561000D2F8703163B198420AD1B2F884318B422A
:1056200006D10123242101FB032303F5A67307936D
:10563000079AC2B100231360194652680A930AA858
:10564000FFF798FC0A9B079A0BB951680B6000237F
:105650005360069907931A4607A8FFF78BFC079B30
:105660000BB9069A136022994A784FEA5219B9F198
:10567000020F0AD005D8B9F1000F65D039B0BDE8E6
:10568000F083A9F10403012BF8D811F8042B0EA81C
:1056900002F00F02FFF7ECFB229B05461B78002867
:1056A00000F0C08113F0300FC3F3011200F09881B5
:1056B000032AE3D04FF0FF36AB6C1BB105F1340089
:1056C000FEF7F0FF002F14BF062303232B60229B5D
:1056D0005B78432B40F0868105F168000BF056FBA8
:1056E0000746002800F07E813C230AAA0E2122A84A
:1056F0000A930BF015FD374B1868FFF784FA0A9BE5
:105700000344C7F8EC3022A93846FFF779FE002899
:10571000BCBF05232B6097F8E9300BB106232B6043
:10572000EB6A379F1BB10EAA22A928469847284644
:10573000FFF72AFA013702D0B9F1020F01D0002396
:105740002B60731C07D199E70B781B118ABB13F0F0
:10575000030513D10326229A137823F0300343EA7A
:1057600006131370229B00225A70229A137823F09A
:105770000F03137000940EAB04222CE1022D7FF472
:105780007DAF49880EA8FFF7B5F9044600283FF41D
:1057900075AF436801333FF471AFC36A0560002BF6
:1057A0007FF46CAF3430FEF77DFF2046FFF705FA3B
:1057B00064E799073FF562AF77B18D2122A8FFF723
:1057C00097FE00283FF45AAF02E100BFC954002001
:1057D0004402002014F20100974BCDE90477CDE993
:1057E00006775D680226994695B16B690A9722AAE9
:1057F0000AA928469847022801D12D69F4E7012813
:1058000002D12D690646EFE7002847D10A9D0646DA
:10581000012E46D0022E46D0002E3DD1294607A8A3
:10582000FFF704F9379B002B40F09F8022AB3246F4
:105830000EA906A8FFF79EFB079B0746002B40D04A
:10584000069A002A31D0934203D006964FF0FF33D8
:105850003793069B8BB1229F9D603A78DDE9080162
:1058600002F00F0203F11C069A6186E8030022B1E0
:10587000391D03F10C0013F0D3FC0EABCDE90B3452
:105880009DF820300A950D93AD686C490AAB8022D3
:1058900022A8A847002894DAA0218FE7002503203A
:1058A000B5E785218AE7842188E79DF820101A7FD3
:1058B000914209D119680EA811F086F908B1079B29
:1058C0000693069B002BC4D1379B0133C1D0002F18
:1058D000BCDB079B002BB9D10EA904A8FFF76CFA1B
:1058E000049B33B90028A1BF182303FB0090EC30C0
:1058F0000490214605A8FFF715FB059B3BB900283E
:10590000A1BF182303FB009000F58E700590049B47
:1059100033B3059A22B30EAE324603CA424518602D
:105920005960164603F10803F6D1059A264604F19C
:10593000180C334603CB6345106051601E4602F1DC
:105940000802F6D12420474307F5A6734B44B94417
:105950000693059BC9F85031049BC9F84C3178E790
:10596000069B002B7FF475AF70E7012B2BD122AB88
:1059700032460EA906A8FFF7FDFA069BFBB11E6092
:10598000324633460EA90AA80A96FFF7F3FA0A9B95
:1059900033B90EA904A8FFF70FFA049B03B11E60E8
:1059A000069A002352680A9319460AA8FFF7E2FAFA
:1059B0000A9A069B0AB959680A6000225A604FF099
:1059C000FF33379359E701333FF457AF4FF0FF30C0
:1059D00000940EAB0246194908A8FFF7C1F84DE63E
:1059E000022669E6229A5378432B3FF499AE6B68FE
:1059F0000133239B14BFA96805F108019B1ABDF868
:105A000094204978134405F1680022AA0BF064FA47
:105A100000283FF485AE2B689A1F5342534180F80B
:105A2000E9307DE613F0300F3FF494AE379B01333D
:105A30007FF490AE22E600BF44020020C95400204B
:105A40002DE9F043194B85B05C68019201230025D4
:105A500006460F46ADF80C30A8461CB9284605B0DE
:105A6000BDE8F083E3682BB1CDF80880029B626843
:105A7000934201D32469F0E72068D4F80C9000EB3E
:105A8000031001AB7EB17A1B7119C8470028F1DD04
:105A9000BDF80C3023F00103ADF80C30029B01334C
:105AA00005440293E2E732463146EEE74402002025
:105AB000F7B504461E464523FFF782FC28220C2139
:105AC00020460BF055FD012120460BF060FDA18919
:105AD00067680191054630460BF0ECFD0199C3B2B1
:105AE00028223846FFF7ACFF284403B0F0BDF8B5D4
:105AF000048906460F46154600200DB1AE4218D166
:105B00003289716800230AF0DDFC04F13A03034492
:105B1000B3F5803F24BF013080B2396820443A3069
:105B200000232022083180B20AF0CCFCC04380B2AE
:105B3000F8BD23462A8969680AF0C4FCAB682D6861
:105B40001C44A4B2D9E72DE9F0410D46804603215B
:105B5000284605F029FD0446022105F025FDA3682D
:105B6000032B064605D828460021BDE8F04105F084
:105B700023BD011D2A4620466768FFF7B8FF0028AD
:105B8000F1D13B78892B0ED8842B10D8802B15D0DF
:105B900039782B4640F20122032004F0ABF90028AB
:105BA000E1D0BDE8F0816333DBB2012BF0D8A3680C
:105BB00071683A46404602F021FEE9E723897168A0
:105BC0003A46404600F052F8E2E738B50D46144632
:105BD00000211A46032305F035FE28B14368002250
:105BE0001D705C709A70DA7038BD10B5044668B1EB
:105BF00090F91030032B0CD102680431FFF777FFC6
:105C000050B1626843BA5380002010BD6FF00D00A0
:105C1000FBE76FF04C00F8E76FF00100F5E7426931
:105C2000013201D012F0E7B983685B6818472DE9AB
:105C3000F041DDF81880154600220E461F46014649
:105C400008F108031046FFF7C0FF044650B1406852
:105C500076BA6DBA8680C58027B14246394608308B
:105C600013F0DEFA2046BDE8F081000073B5064669
:105C70000C46002A3ED0072B3CD99188D088083B9F
:105C800040BA49BA009389B202F1080382B2812076
:105C9000FFF7CDFF054668B3237EFF2B04F1080212
:105CA00014BF04F11801002100F00BFE044610B9E6
:105CB0000146284609E000231A461946184605F011
:105CC00014F9054630B90146204602B0BDE87040DF
:105CD00005F072BC43680EB1B6F9EE615E8006490C
:105CE0002C602B4640F20222022004F003F9014608
:105CF0000028DED002B070BD0000FFFFF7B5099D9F
:105D00000C4611461A464FF6FB739D4207464AD889
:105D1000009500238020FFF78AFF002846D0224606
:105D20000021466800F0CDFD044620B9214813F05B
:105D30004FFD00252EE043689DF82020DA7167B101
:105D400000231A461946184605F0CFF840B34368B9
:105D5000B7F9EE215A8004600446174B1868FFF724
:105D60005EFF032D89BFB0600836043D0C3600236A
:105D70009D42DAB211D11149234640F2022202209B
:105D800004F0B8F80028D4D16FF0080500212046AF
:105D900005F012FC284603B0F0BDF2540133E7E7EA
:105DA0006FF00B05F2E76FF01505F3E76FF00B05E9
:105DB000F0E700BFB0BF010018F201000000FFFFD4
:105DC0002DE9F0479846224B0646186817460D46BF
:105DD000FFF725FF02218146304605F0E5FB032150
:105DE0008246304605F0E0FB0446BAF1000F2AD0A7
:105DF00048B3DAF80400083003F00FFC6468032DA0
:105E000004F1080C1CD9A268043DA9EB02020C3471
:105E100025442146E043A94202D14FF0FF3109E079
:105E200001310B1811F8014CDBB29C42F3D0A1EB0D
:105E30000C01013943463046BC46BDE8F047604797
:105E400064460022E4E76FF01500BDE8F08700BF6C
:105E500018F20100F8B50D460221164605F0A4FB24
:105E600047680C490446102207F1080013F0A8F90E
:105E700070B13B7AFF2B0BD03B7EFF2B06D1022D5E
:105E800004D0042D04D1022E18BF00242046F8BDF2
:105E90000024FBE7C8C5010070B54FF0FF3105468F
:105EA00005F082FB0024064685B9303466B173687C
:105EB000B3F9020004F02FFAB268B0F82A31A41A3C
:105EC000283B9C4228BF1C46204670BDAB682D680D
:105ED0001C44E9E710B50B4608241B6833B193F95D
:105EE0001020013202D09A681444F6E78268A24278
:105EF00009D98B6840684968121B9A4228BF1A4624
:105F0000204413F08DF9204610BDF8B50546104623
:105F10000F4614461E46FFF7BFFF294603463A4682
:105F20000020FFF752FE0546F8B1436836BA5E60BE
:105F300094F910305A1C12D0022B05D123687BB182
:105F400093F9103001330BD17CB194F91030013347
:105F50000BD021462846FFF7BDFF2468F4E72468EC
:105F6000082614B1AA68B24201D82846F8BDA36831
:105F700068686168921B9A4228BF1A46304413F041
:105F80004FF9A36824681E44EBE7000070B514467F
:105F9000064608464FF0FF3105F006FB226805462D
:105FA00008320021304600F08CFC044628B9014636
:105FB0003046BDE8704005F0FFBAB5B16B68B3F983
:105FC000020004F0A8F90023194605461A461846AF
:105FD00004F08BFF014608B92046EAE743680DB19B
:105FE000B5F9EE515D800C600C460549234640F240
:105FF0000222022003F07EFF01460028ECD070BD93
:106000000000FFFF70B50C460246064601212046FF
:10601000FFF720FF054660B10023224631460120EC
:10602000FFF773FF28B12A1D2146BDE87040FFF736
:10603000ADBF70BD37B50C4601900022022120464D
:10604000FFF708FF054668B1019B224600210220A8
:10605000FFF75BFF30B12A1D214603B0BDE8304099
:10606000FFF794BF03B030BD70B50C46024606463C
:1060700003212046FFF7EEFE054660B100232246CD
:1060800031460320FFF741FF28B12A1D2146BDE814
:106090007040FFF77BBF70BD2DE9F0471646044600
:1060A00002460F4630460421FFF7D4FE804688B3EF
:1060B0003046FFF7F1FE2246034604210020FFF799
:1060C00084FD054630B3D0F804A034464FF00009F3
:1060D0005CB999FA89F3CAF8043008F10402314630
:1060E0002846BDE8F047FFF751BF94F9103001335F
:1060F000EFD021462846FFF7EDFED4E901329F425A
:1061000006D31A4497423EBFFB1A083B03EB000933
:106110002468DDE7BDE8F087002105F04DBA0000F6
:1061200008B50449102213F04BF8B0FA80F040098A
:1061300008BD00BFA8C5010010B50A4908220446E1
:1061400013F03EF848B12378FF2B08D1607800F0B7
:106150000F00831E5842584110BD0120FCE700206B
:10616000FAE700BF98C5010038B50D460446D1E9ED
:10617000003188B1B0F9EE214A80002273B9B4F839
:106180002A0190420ED22946FFF754FF28467A2171
:10619000BDE8384005F010BA0246EDE799681B6883
:1061A0000A44EBE7EFF3108172B6D4F8AC20013269
:1061B000C4F8AC202A68BAB9D4F8B4201344C4F89F
:1061C000B43081F31088204604F088F880B10D497E
:1061D0002B4640F20222012003F08CFE88B92846AB
:1061E000BDE83840FFF798BF906812680344E2E7C3
:1061F000B4F9EE0140F20222294603F070FE0028B5
:10620000EDDD38BD0000FFFF2DE9F8430E46D1E972
:10621000001405460A4600232ABB5BBAA380A37973
:10622000FF2B02D119BB3B23A371E37913B94DBBFB
:106230004023E37104F108073F491022384612F069
:10624000BFFF04F11809804678BB4846FFF768FF96
:106250000246D0B110224146384613F0E3F801233C
:10626000E375344650E0906812680344D4E70B7C31
:10627000023BDBB2022BD6D8304AD35CA371FF2B92
:10628000D3D1D0E795F8EC31D3E74946284604F05E
:10629000EFF90028E5D0034600F1100253F8041B83
:1062A00047F8041B9342F9D1DBE7284604F03EF897
:1062B0004846FFF735FF98B10024284604F03DF822
:1062C000002CCED00321304605F06EF928B143688A
:1062D0001B7803F0FD03852BC3D06FF07C0023E017
:1062E0003946284604F0A3F90028E5DB284490F855
:1062F000304004F01F04103C18BF0124DDE705F016
:10630000BFFA98B12060044694F91030022B02D1F4
:1063100020680028F3D13146204605F034F90028E2
:1063200007DA831C08BF0020BDE8F8836FF00B007C
:10633000FAE70020F8E700BFC8C50100CFBF0100A1
:1063400010B50C46FFF760FF002804DA2046FFF77F
:10635000E3FE002010BD0120FCE7002370B50546D8
:106360000C4642F0400619461A46184604F0BDFD98
:10637000014620B92846BDE87040FFF7CDBE43680E
:106380001E710560EFF3108272B6D4F8A8300133A5
:10639000C4F8A83082F310882046BDE87040FFF7AB
:1063A000E3BE00002DE9F04390F91030013389B0CD
:1063B000064688461FD14468B4F9020003F0ABFFDB
:1063C00005463046277905F05BFA07F03F0701469E
:1063D00018B93046FFF7A0FE0AE005F033F906468B
:1063E00096F91030022B09D01621304605F0E4F85A
:1063F00009B0BDE8F08300273D46F1E770685949D0
:106400001022183012F0DCFE0028EDD0304605F0E6
:1064100037FA04460028DCD04668337EFF2B2AD1A9
:10642000002D40F08F8003F069FF002840F0858048
:106430002046CFE726463A4629463046FFF78DFFED
:10644000284603F059FF05460028D1D0B8F1000FC7
:10645000F0D0204605F014FA06460028E8D00146A0
:106460002846FFF7D1FE0028E5DAB442E0D03046F6
:10647000FFF752FEDCE71836304604F0D9F98542C2
:10648000814606D03046FFF757FE002818BF4FF070
:1064900000093046FFF744FE10B9B9F1000F18D0DB
:1064A000B8F1000F0ED1204605F0A8F80028BFD1A2
:1064B0002D49234640F20122022003F01BFD002853
:1064C00096D1B5E721464846FFF73AFF00288FD01E
:1064D000E9E701AB22462946304602F09CF8002845
:1064E00086DBBDF81C00C0F3041003F014FF054662
:1064F000B8F1000F1AD1002108469DF81E3005AAF8
:1065000004F0F3FC0146002892D043681F71046038
:10651000EFF3108272B6D5F8A4300133C5F8A43079
:1065200082F310882846FFF71FFE61E72146FFF738
:1065300007FF00283FF45CAFDDE7411E204605F071
:10654000FBF87DE7B8F1000F06D021462846FFF79B
:10655000F7FE00283FF44CAF3A4629462046FFF7A5
:10656000FCFE45E7C8C501000000FFFF2DE980489B
:10657000102289B00DEB0200002112F053FFBB4B3B
:10658000BB4C1B88BB48ADF81C3008210594FDF7B7
:106590002DFB04A9022004F077FF40F20523ADF89B
:1065A0000A3040F2022AA14640F201246846FDF773
:1065B00010FBBDF80210B1F5017F09D8514500F27A
:1065C0004081A1423CD05145F0D101980121F1E038
:1065D000A1F59F43403B9AB2152AE7D8152BE5D881
:1065E00001A252F823F000BF536800005368000076
:1065F0005368000053680000AD6500005368000058
:10660000536800005368000053680000536800009E
:10661000AD65000053680000536800005368000037
:106620005368000053680000AD6500005368000027
:1066300053680000AD6500005B68000063680000FF
:10664000019E4FF0FF31304604F0AEFF804660B34C
:106650004368B3F9020003F05EFE0546EFF31080D5
:1066600072B6D5F8B8300133C5F8B83032460021DB
:10667000BAB9D5F8BC30D8F808209B1A0B44C5F835
:10668000BC3080F3108873683BB1B268272A04D904
:106690001B7803F0F003602B09D03046FFF73CFD78
:1066A00082E7936812681944E2E70546EBE7304653
:1066B00005F0E6F804460028EFD00222282105F074
:1066C00001F90023237408B92046E7E74768FB79FE
:1066D0002BB921461846FFF7C7FC742145E0B9885D
:1066E000BE7949BA89B209B93B2EEDD18442A3687B
:1066F00028D08B42204625D905F052F907F1180B16
:106700005846FFF70DFD002859D15846FFF714FDF4
:1067100000B175BB584604F08BF80546B0FA80F01E
:10672000400900284BD007F10800FFF705FD20BB0A
:106730005846FFF701FD50B33B7EFF2BC4D02146E6
:10674000032021E0002283681A4490F91030022BC4
:1067500002D000680028F6D1283A8A42CED2391DEC
:1067600022460020FFF798FC1621204604F024FF63
:106770001AE7584604F05CF8D0E75846FFF7DCFC0F
:106780000028D9D121460220FFF73CFC9CE7FB7989
:10679000013BDBB2FB7183B1B8F1000F03D041467E
:1067A000204604F04FFF204604F065FF00283FF428
:1067B000FBAE0021FFF7F6FDF6E621468BE7292E1A
:1067C00039D03A2E39D0112E0CBF04230023237464
:1067D0003146022004F0BFFE002801DC3A2E2ED103
:1067E0000121204604F0A8FF012794F91000234658
:1067F00040F20122494603F07DFB10B92046FFF725
:106800008BFC87B13A2E03D10121204604F094FF7E
:10681000234640F201223146022003F06BFB10B9FF
:106820002046FFF779FC3A2E7FF4BEAE214628467B
:10683000FFF789F9B8E60223C9E70323C7E7002772
:10684000D3E76FF0850302A968460393FDF79CF92F
:10685000AAE6019802F048FCA6E6019801F02AFE9B
:10686000A2E60198002101F063FE9DE6CC4D0020D8
:106870000000FFFF845A00201FB50A4CB4F9003015
:106880005BB9094A0948CDE90132094A00924FF43F
:1068900070710422FDF716FB2080B4F9000004B0EB
:1068A00010BD00BF845E0020CABF0100C45A002092
:1068B0006D65000008B5022104F076FE00B1406865
:1068C00008BDF8B50C46174602232822002104F023
:1068D000B9FF064600B3456805F10800F4B121464A
:1068E000034604F1100251F8040B43F8040B9142E3
:1068F000F9D105F11800B7B13A46034607F1100186
:1069000052F8040B43F8040B8A42F9D160232B6040
:10691000FF23AB710023EB713046F8BD10222146F6
:1069200012F080FDE5E71022394612F07BFD0123CD
:1069300085F82730EAE7000070B5044615460E4694
:1069400009B9002070BDD1F82C31DB04F9D5174905
:10695000082212F035FC38B12378FF2BF1D163788F
:1069600003F00F03022BECD196F8ED0105F11002B4
:1069700004F108010AF063F810F0FF00E1D0A876F6
:106980002B4604F1100254F8041B43F8041B9442F4
:10699000F9D1B6F9EE311B0103F4F87343F48063C7
:1069A00043F006032B830120CCE700BF98C501000C
:1069B0002DE9F341064603F03BFF0446002857D07B
:1069C00003F0B4FCB4F9EE11002000F055FF0546C9
:1069D000C8B1006800F0E1FCA8B12B680433184688
:1069E0003246214600F05CFA3146204603F01FFE95
:1069F0002118054691F8303003F01F02102A0ED1FD
:106A00004EF6602615E0002384F82731204602F078
:106A100021FB204602B0BDE8F04103F08EBC03F03C
:106A20000702013A012AF4D80133D4F8206181F831
:106A30003030E91C0901104B1048B3F900808F1C5D
:106A4000C43121440191FDF7B1FE04EB0510002390
:106A5000C0E93D36274444F6CF73A0F8FE30C0F8B5
:106A60000071A0F8FC8001990448FDF767FED0E7AB
:106A700002B0BDE8F08100BF845E0020CC60002041
:106A80002DE9F043D0F82C7117F4805F87B00446ED
:106A90000D461E4603D1042007B0BDE8F08393F8ED
:106AA00001E0BEF1020FF6D192F800C0BCF1880FF0
:106AB0007AD1FF07EFD590F8482104AB00F5A0711B
:106AC00004F088F90828E6D1DDE90423F168B0680C
:106AD0008B4208BF8242DED1B378012B47D0022B14
